:100000000C946D020C948A020C948A020C948A025D
:100010000C948A020C948A020C948A020C948A0230
:100020000C948A020C948A020C94D50D0C94100E38
:100030000C948A020C948A020C948A020C948A0210
:100040000C948A020C948A020C948A020C948A0200
:100050000C948C020C948A020C948A020C948A02EE
:100060000C948A020C948A020C948A020C948A02E0
:100070000C948A020C948A020C948A020C948A02D0
:100080000C948A020C948A020C948A020C948A02C0
:100090000C948A020C948A020C948A020C948A02B0
:1000A0000C948A020C948A020C948A026A0D670DE1
:1000B000640D610D5E0D5B0D580D550D520D4F0D0C
:1000C0004C0D490D460D430D400D3D0D3A0D370DBC
:1000D000340D310D2E0D2B0D280D250D220D1F0D6C
:1000E0001C0D190D160D130D100D0D0D0A0D070D1C
:1000F000040D010DFE0CFB0CF80CF50CF20CEF0CD2
:10010000EC0CE90CE60CE30CE00CDD0CDA0CD70C83
:10011000D40CD10CCE0CCB0CC80CC50CC20CBF0C33
:10012000BC0CB90CB60CB30CB00CAD0CAA0C000195
:10013000000062011200020000740143000300008D
:10014000B7010401030904BB011402030904D1012E
:100150001603030904E9010C0001C11201803601F4
:1001600081361201000202000010C0167A0400015C
:100170000102030109024300020100C03209040028
:100180000001020201000524001001052401010103
:10019000042402060524060001070582031000401E
:1001A00009040100020A00000007050302400000E4
:1001B0000705840240000004030904140359006F7A
:1001C000007500720020004E0061006D00650000A7
:1001D00000160355005300420020005300650072D2
:1001E00000690061006C0000000C03310032003334
:1001F00000340035000000000000000000005F0037
:10020000000007000700147F147F14242A7F2A129D
:10021000231308646236495522500005030000008C
:100220001C2241000041221C0014083E081408084A
:100230003E08080050300000080808080800606008
:10024000000020100804023E5149453E00427F4014
:100250000042615149462141454B311814127F102B
:1002600027454545393C4A4949300171090503365E
:1002700049494936064949291E00363600000056CC
:1002800036000008142241001414141414004122F2
:1002900014080201510906324979413E7E111111BB
:1002A0007E7F494949363E414141227F4141221CDE
:1002B0007F494949417F090909013E4149497A7FFE
:1002C0000808087F00417F41002040413F017F082E
:1002D0001422417F404040407F020C027F7F04088F
:1002E000107F3E4141413E7F090909063E415121AF
:1002F0005E7F09192946464949493101017F0101BB
:100300003F4040403F1F2040201F3F4038403F6358
:100310001408146307087008076151494543007FBA
:1003200041410002040810200041417F0004020105
:100330000204404040404000010204002054545454
:10034000787F484444383844444420384444487F03
:100350003854545418087E0901020C5252523E7F00
:100360000804047800447D40002040443D007F1094
:1003700028440000417F40007C041804787C080475
:10038000047838444444387C1414140808141418AD
:100390007C7C080404084854545420043F44402002
:1003A0003C4040207C1C2040201C3C4030403C44D1
:1003B000281028440C5050503C4464544C440008CD
:1003C00036410000007F0000004136080010080898
:1003D000100878464146786E616E00696E660000CE
:1003E000407A10F35A00A0724E18090010A5D4E804
:1003F0000000E87648170000E40B54020000CA9A97
:100400003B000000E1F505000080969800000040E8
:10041000420F000000A0860100000010270000002D
:1004200000E803000000006400000000000A000073
:100430000000000100000000002C76D888DC674F27
:100440000823DFC1DFAE59E1B1B796E5E3E453C657
:100450003AE651997696E8E6C28426EB898C9B624F
:10046000ED407C6FFCEFBC9C9F40F2BAA56FA5F4F9
:1004700090055A2AF75C936B6CF9676DC11BFCE021
:10048000E40D47FEF520E6B500D0ED902E03009474
:100490003577050080841E080000204E0A00000009
:1004A000C80C333333330F986E12831141EF8D2113
:1004B00014893BE65516CFFEE6DB18D1844B381B7A
:1004C000F77C1D901DA4BBE424203284725E22813F
:1004D00000C9F124ECA1E53D270011241FBECFEF98
:1004E000DAE0DEBFCDBF12E0A0E0B1E0E2E1F9E387
:1004F00002C005900D92A83FB107D9F715E0A8EF0B
:10050000B2E001C01D92A432B107E1F70E947B0B5B
:100510000C94871C0C9400001F920F920FB60F9240
:1005200011248F939F93AF93BF938091E202909198
:10053000E302A091E402B091E5020196A11DB11D74
:100540008093E2029093E302A093E402B093E50269
:10055000BF91AF919F918F910F900FBE0F901F9001
:100560001895AF92BF92CF92DF92EF92FF920F93C6
:100570001F936091E2027091E3028091E4029091F6
:10058000E502E0908400F09085000E945C1720E076
:1005900030E040E857E40E9412185B016C0100E073
:1005A00010E0C801B7010E945C179B01AC01C601B5
:1005B000B5010E945B1620E030E040E854E40E9460
:1005C000121820E034E244EF5AE40E94C3161F914F
:1005D0000F91FF90EF90DF90CF90BF90AF90089574
:1005E0000F931F93FC0140875187628773870487AD
:1005F0001587268737871F910F910895CF93DF9333
:10060000EC0160931F036C3461F06D3420F46434AA
:1006100009F056C040C06235B1F0653509F050C0F0
:1006200028C06091330170E0882777FD8095982F6E
:100630000E945E179B01AC01688179818A819B8150
:100640000E945B1611C06091330170E0882777FD2E
:100650008095982F0E945E179B01AC01688179817B
:100660008A819B810E945A16688379838A839B833F
:1006700027C06091330170E0882777FD8095982F1F
:100680000E945E179B01AC016C817D818E819F81F0
:100690000E945B1611C06091330170E0882777FDDE
:1006A0008095982F0E945E179B01AC016C817D8123
:1006B0008E819F810E945A166C837D838E839F83D7
:1006C000DF91CF9108951F93182F8091030390918C
:1006D0000403009719F0612F0E94FE02809120030D
:1006E00090912103009719F0612F0E94FE028091E2
:1006F000FF0290910003612F0E94FE02809122036D
:1007000090912303612F0E94FE0280912403909117
:100710002503612F0E94FE02809101039091020344
:10072000612F0E94FE028091050390910603612FC4
:100730000E94FE028091260390912703612F0E9460
:10074000FE028091090390910A03612F0E94FE022C
:100750001F91089580911F038C3411F482E50DC020
:10076000823511F48CE409C0853511F484E405C0A8
:10077000843411F485E501C080E20E94630308958A
:10078000EF92FF920F931F93CF93DF93EC016C34A2
:1007900061F06D3420F4643409F06CC048C06235F7
:1007A00099F0653509F066C033C0E884F9840A859C
:1007B0001B85C801B70120E030E040E050E00E9416
:1007C0000E1818167CF015C0E884F9840A851B857C
:1007D000C801B70120E030E040E050E00E94BF16C1
:1007E00088233CF4D801C701B05888879987AA8725
:1007F000BB87688179818A819B81288539854A8573
:100800005B850E945B16688379838A839B8332C0F1
:10081000EC84FD840E851F85C801B70120E030E01F
:1008200040E050E00E940E1818167CF015C0EC84D1
:10083000FD840E851F85C801B70120E030E040E04F
:1008400050E00E94BF1688233CF4D801C701B0587D
:100850008C879D87AE87BF876C817D818E819F81CC
:100860002C853D854E855F850E945B166C837D835C
:100870008E839F83DF91CF911F910F91FF90EF9017
:100880000895FC01628B0895FC01828990E008952F
:10089000FC012081318142815381B901CA0108954F
:1008A000FC012481358146815781B901CA0108952F
:1008B000FC012085318542855385B901CA0108951F
:1008C000FC012485358546855785B901CA010895FF
:1008D0006F927F928F929F92AF92BF92CF92DF9250
:1008E000EF92FF920F931F93CF93DF93FC01EB01E5
:1008F00082898823A1F1A480B580C680D7806C80CE
:100900007D808E809F8060817181828193810E9431
:100910002B177B018C01688179818A819B810E94E0
:100920002B17E616F7061CF4CE016CE402C0CE01CC
:1009300062E50E94C003C601B5010E942B177B012E
:100940008C01C401B3010E942B17E616F7061CF4B4
:10095000CE0165E502C0CE0164E40E94C003DF91D0
:10096000CF911F910F91FF90EF90DF90CF90BF90AC
:10097000AF909F908F907F906F900895EF92FF922D
:100980000F931F937C018B01FB016089669570E0DA
:10099000882777FD8095982F0E945E179B01AC01F8
:1009A000F80160817181828193810E945A1620E052
:1009B00030E040E85FE30E945A16F70160837183DC
:1009C00082839383F8016189669570E0882777FDBB
:1009D0008095982F0E945E179B01AC01F8016481FD
:1009E0007581868197810E945B16F7016483758308
:1009F000868397831F910F91FF90EF900895FC01DC
:100A000080890895FC01818908952F923F924F9229
:100A10005F926F927F928F929F92AF92BF92CF928E
:100A2000DF92EF92FF920F931F93DF93CF9300D04B
:100A300000D0CDB7DEB77C015A016B011801290146
:100A4000DC016D917D918D919C910E9475183B0107
:100A50004C01D70114968D919D910D90BC91A02DC4
:100A600089839A83AB83BC83F701A082B182C2825F
:100A7000D382D70114962D923D924D925C92179796
:100A8000C601B5010E9475180E942B177B018C01CD
:100A9000C401B3010E942B17E616F706E9F4C20160
:100AA000B1010E9475187B018C0169817A818B816B
:100AB0009C810E9475185B016C0144245524C80177
:100AC000B7010E942B177B018C01C601B5010E9462
:100AD0002B17E616F70619F081E0482E512CC201BB
:100AE0000F900F900F900F90CF91DF911F910F916A
:100AF000FF90EF90DF90CF90BF90AF909F908F903E
:100B00007F906F905F904F903F902F9008954F92FD
:100B10005F926F927F928F929F92AF92BF92CF928D
:100B2000DF92EF92FF920F931F93DF93CF9300D04A
:100B300000D0CDB7DEB76C01DC01ED90FD900D91DA
:100B40001C91C801B7010E9475184B015C01D601C8
:100B500014968D919D910D90BC91A02D89839A83BF
:100B6000AB83BC83C801B701F6012085318542857E
:100B700053850E945A167B018C01D6016D937D939B
:100B80008D939C93139769817A818B819C811C96AC
:100B90002D913D914D915C911F970E945A162B010A
:100BA0003C01CB01D301F60184839583A683B783EF
:100BB000C801B7010E9475180E942B177B018C0198
:100BC000C501B4010E942B17E616F706E9F4B2013D
:100BD000C3010E9475187B018C0169817A818B8128
:100BE0009C810E9475185B016C0166247724C80102
:100BF000B7010E942B177B018C01C601B5010E9431
:100C00002B17E616F70619F091E0692E712CC30137
:100C10000F900F900F900F90CF91DF911F910F9138
:100C2000FF90EF90DF90CF90BF90AF909F908F900C
:100C30007F906F905F904F9008958F929F92AF92A8
:100C4000BF92CF92DF92EF92FF920F931F93CF93B9
:100C5000DF938C015B01FC01608171818281938152
:100C60000E9475180E942B176B01F8016481758131
:100C7000868197810E9475180E942B177B01F501D0
:100C800060817181828193810E9475180E942B1767
:100C90004B01F50164817581868197810E947518E9
:100CA0000E942B17F50120898189AB01480F511D46
:100CB000E416F5061CF0C0E0D0E00AC0C0E0D0E0C9
:100CC000C401820F911DC816D90614F4C1E0D0E00A
:100CD000F8018089C80ED11C8C149D0414F0C0E06A
:100CE000D0E0F8018189E80EF11C6E157F051CF03B
:100CF000C0E0D0E01CC02097D1F0809122039091F9
:100D00002303A816B90699F0809107039091080370
:100D10000817190711F40E94AA038091FF0290910D
:100D200000030817190719F4C8010E948705CE01AE
:100D3000DF91CF911F910F91FF90EF90DF90CF90B7
:100D4000BF90AF909F908F900895FC01128A80E031
:100D500090E00E94C91908952F923F924F925F929E
:100D60006F927F928F929F92AF92BF92CF92DF92BB
:100D7000EF92FF920F931F93DF93CF9300D00F92C8
:100D8000CDB7DEB74B015C0129013A01F02EE982B3
:100D9000160185E190E00E941C198A839B838A8159
:100DA0009B81009749F0B501A40193018201EF2CCA
:100DB000C98051010E9401128A819B810F900F907E
:100DC0000F90CF91DF911F910F91FF90EF90DF90E7
:100DD000CF90BF90AF909F908F907F906F905F90DB
:100DE0004F903F902F900895CF92DF92EF92FF9215
:100DF0000F931F930E947B0F8091F8028F5F809367
:100E0000F802E0912003F0912103309729F0128A33
:100E100080E090E00E94C919E091FF02F091000388
:100E2000128A80E090E00E94C919E0912203F091BB
:100E30002303128A80E090E00E94C919E091240304
:100E4000F0912503128A80E090E00E94C9190E9467
:100E5000721A8C010E94721A6C01C80164E570E07C
:100E60000E94BE18AA2797FDA095BA2FBC01CD01FC
:100E70000E945E177B018C01C60160E370E00E9456
:100E8000BE18AA2797FDA095BA2FBC01CD010E94DC
:100E90005E179B01AC01C801B70108E1ACE0EA2E86
:100EA000F6E1CF2EF2E0DF2E0E94AC0690932503F0
:100EB000809324030E94721A8C010E94721A6C01A2
:100EC000C80164E570E00E94BE18AA2797FDA095AE
:100ED000BA2FBC01CD010E945E177B018C01C601B7
:100EE00060E370E00E94BE18AA2797FDA095BA2F74
:100EF000BC01CD010E945E179B01AC01C801B70186
:100F000005E0E6E0EE2E14E3C12E12E0D12E0E94A1
:100F1000AC06909300038093FF020E94721A8C012A
:100F20000E94721A6C01C80164E570E00E94BE184C
:100F3000AA2797FDA095BA2FBC01CD010E945E178C
:100F40007B018C01C60160E370E00E94BE18AA27F5
:100F500097FDA095BA2FBC01CD010E945E179B01A1
:100F6000AC01C801B70107E0B3E0EB2EAAE3CA2E3B
:100F7000A2E0DA2E0E94AC06909323038093220312
:100F80000E94721A8C010E94721A6C01C80164E5F9
:100F900070E00E94BE18AA2797FDA095BA2FBC0149
:100FA000CD010E945E177B018C01C60160E370E0F9
:100FB0000E94BE18AA2797FDA095BA2FBC01CD01AB
:100FC0000E945E179B01AC01C801B70105E0F3E088
:100FD000EF2EEDE3CE2EE2E0DE2E0E94AC069093E3
:100FE0002103809320031F910F91FF90EF90DF90DA
:100FF000CF900895DF92EF92FF920F931F93F82EF8
:10100000E62ED22E8DB79EB708970FB6F8949EBFE6
:101010000FBE8DBFEDB7FEB731960BE013E0ADB755
:10102000BEB712961C930E93119784E190E09383C0
:10103000828380E091E095838483578346830E9476
:101040009C1B8DB79EB708960FB6F8949EBF0FBE37
:101050008DBF8F2D6E2DA8012D2D0E945F111F9128
:101060000F91FF90EF90DF90089585E060E043E0FE
:1010700051E021E00E945F114091F9025091FA0283
:1010800088E260E021E00E94FA0785E06AE04BE038
:1010900051E021E00E945F114091320188E26AE054
:1010A00050E021E00E94FA0785E064E143E151E06D
:1010B00021E00E945F114091F80288E264E150E073
:1010C00021E00E94FA07E0910703F0910803608194
:1010D0007181828193810E942B179B01AC0185E075
:1010E0006EE1A90121E00E94FA07E0910703F09167
:1010F000080364817581868197810E942B179B016B
:10110000AC0184E16EE1A90121E00E94FA07E091BF
:101110000103F091020360817181828193810E94B9
:101120002B179B01AC0185E068E2A90121E00E9438
:10113000FA07E0910103F0910203648175818681D1
:1011400097810E942B179B01AC0184E168E2A90101
:1011500021E00E94FA0760910703709108038091D3
:101160000103909102030E941D06892B19F44BE1A3
:1011700051E002C041E251E088E268E221E00E94D1
:101180005F1108950E947B0F8FB1829586958770BD
:1011900080FD07C08FB1829586958695837080FF0C
:1011A00008C08091F802882321F481E08093F8023E
:1011B00008958091F802882341F48EE067E146E2C9
:1011C00051E021E00E945F1149C1189B03C00E94B9
:1011D000350844C183B1869580FF02C08CE40DC000
:1011E0001F9B02C084E409C0489B02C082E505C081
:1011F00089B1869580FF05C085E580931F030E9415
:10120000630380910103909102030E94291280914F
:101210000503909106030E94291280912603909164
:1012200027030E9429128091090390910A030E94CA
:1012300029128091F802813009F075C0809107036E
:10124000909108030E942912809103039091040356
:101250000E94291280912403909125030E94291253
:101260008091FF02909100030E9429128091220335
:10127000909123030E9429126091FF027091000354
:1012800080910703909108030E9468046091030312
:101290007091040380910703909108030E941D063A
:1012A00060910303709104038091FF029091000309
:1012B0000E941D066091FF02709100038091070358
:1012C000909108030E941D06892B49F0E0910703C5
:1012D000F0910803128A80E090E00E94C9196091A1
:1012E00022037091230380910703909108030E94C9
:1012F0001D06892BC1F0609107037091080380914E
:101300002203909123030E94BE04609124037091F4
:10131000250380910703909108030E941D06892BE5
:1013200011F00E94F4068091F802823008F46EC039
:1013300080910703909108030E9429128091240351
:10134000909125030E9429128091FF029091000341
:101350000E94291280912203909123030E94291256
:10136000E0912003F09121038289813009F5CF01BA
:101370000E9429126091200370912103809107033C
:10138000909108030E941D06892B91F0E0912003A3
:10139000F0912103128A80E090E00E94C9198091A7
:1013A000F9029091FA020A969093FA028093F90258
:1013B00060912203709123038091070390910803A9
:1013C0000E941D06892BC1F06091070370910803EC
:1013D00080912203909123030E94BE046091240314
:1013E0007091250380910703909108030E941D06C8
:1013F000892B11F00E94F40660912403709125035B
:1014000080910703909108030E941D0660910103DB
:101410007091020380910703909108030E941D06BA
:101420006091260370912703809107039091080330
:101430000E941D06609105037091060380910703C9
:10144000909108030E941D066091090370910A03A0
:1014500080910703909108030E941D060E947F114E
:101460000895DF92EF92FF920F931F93182FD62EBD
:101470008DB79EB70A970FB6F8949EBF0FBE8DBF6B
:10148000EDB7FEB73196BBE0EB2EB3E0FB2EADB768
:10149000BEB71296FC92EE92119784E190E093838E
:1014A00082838FE291E0958384832683378340870C
:1014B00051870E949C1B8DB79EB70A960FB6F89471
:1014C0009EBF0FBE8DBF812F6D2DA701202F0E94C3
:1014D0005F111F910F91FF90EF90DF9008958F9211
:1014E0009F92AF92BF92CF92DF92EF920F931F9392
:1014F000E1E6F0E080E8808311E010838FE30E9452
:10150000B3110E94E4111092800085E08093810065
:1015100010936F0078942198279850985198859847
:10152000869820983F9A8FEA0E94B31160E070E09D
:1015300088E292E420E030E040EC51E407E01AE079
:10154000E12EB4E3CB2EB1E0DB2E0E94AC069093EB
:1015500008038093070360E070E080EC90E420E0F3
:1015600030E040E251EC08E4AAE1EA2EFEE3CF2E9F
:10157000F1E0DF2E0E94AC069093040380930303F6
:1015800060E070E080EF91E420E030E040EA50E479
:1015900008E1ECE0EE2E16E1C12E12E0D12E0E9401
:1015A000AC06909325038093240360E070E080E90B
:1015B00092E420E030E040EA51E405E0B6E0EB2EB2
:1015C000A4E3CA2EA2E0DA2E0E94AC069093000398
:1015D0008093FF0260E070E080EC90E420E030E077
:1015E00040EA51E407E0F3E0EF2EEAE3CE2EE2E03A
:1015F000DE2E0E94AC0690932303809322031CE707
:10160000812E12E0912E60E070E080E292EC9B016E
:10161000AC0103E0B4E6EB2E64010E94AC069093AB
:10162000020380930103A0E4AA2EA2E0BA2E60E098
:1016300070E080E292EC9B01AC0100EAF3E0EF2E57
:1016400065010E94AC06909306038093050360E059
:1016500070E080EF92E420E030E040E252EC03E002
:10166000E4E6EE2E64010E94AC069093270380937B
:10167000260360E070E080E292EC20E030E040E79A
:1016800052E400EA13E0E12E65010E94AC0690935B
:101690000A038093090300910703109108036091E6
:1016A000330170E080E090E00E945C17F8016087F1
:1016B0007187828793876487758786879787E0918C
:1016C000FF02F091000380E090E0A0E0BFE380879C
:1016D0009187A287B38784879587A687B7870E945B
:1016E0007F111F910F91EF90DF90CF90BF90AF903F
:1016F0009F908F900895CF93DF930E946F0AC8EC5C
:10170000D0E00E94C20888EE93E0FE013197F1F725
:101710000197D9F7F6CF81E08093D70080EA8093D4
:10172000D80082E189BD09B400FEFDCF80E9809335
:10173000D8001092E0001092FB021092FC028CE0A4
:101740008093E200789408958091FB0208952FB76A
:10175000F8948091FB02882369F083E08093E9008C
:101760009BE68091E80085FD09C082FF03C090934D
:10177000E800F7CF2FBF2FEF3FEF0CC09091F100A3
:101780008091E80085FD03C08BE68093E8002FBFC1
:10179000292F30E0C90108952FB7F8948091FB02FA
:1017A000882311F490E010C083E08093E9009091C9
:1017B000F200992349F48091E80082FF05C085FD7D
:1017C00003C08BE68093E8002FBF892F0895809196
:1017D000FB02882371F09FB7F89483E08093E900BF
:1017E0002BE602C02093E8008091E80085FDFACF47
:1017F0009FBF0895482F8091FB028823D9F12FB70E
:10180000F89484E08093E9008091FE02882341F0FF
:101810008091E80085FD02C02FBF12C01092FE0229
:101820009091E400975E34E08091E80085FD13C05C
:101830002FBF8091E400891729F481E08093FE0294
:101840008FEF08958091FB028823A1F02FB7F894C1
:101850003093E900E9CF4093F1008091E80085FDE5
:1018600003C08AE38093E80085E08093FD022FBFE8
:1018700080E008958FEF0895282F8091FB02882340
:1018800051F09FB7F89484E08093E9008091E800DC
:1018900085FD03C09FBF8FEF08952093F1008091D5
:1018A000E80085FD03C08AE38093E80085E080932B
:1018B000FD029FBF80E00895CF93DF93EC018091FC
:1018C000FB02882309F41CC13FB7F89484E080939D
:1018D000E9008091FE02882309F408C18091E800A4
:1018E00085FD02C03FBF0CC11092FE02FFC0909167
:1018F000E400975E8091E80085FD13C03FBF8091B2
:10190000E400891721F481E08093FE02F9C0809100
:10191000FB02882309F4F4C03FB7F894B093E900C0
:10192000E9CF8091F200242F281B822F90E06817C6
:10193000790708F4262F822F90E08134910508F072
:10194000C6C08A5A9F4FFC01EE0FFF1F0590F4910D
:10195000E02D099489918093F10089918093F100A1
:1019600089918093F10089918093F100899180930E
:10197000F10089918093F10089918093F100899120
:101980008093F10089918093F10089918093F10017
:1019900089918093F10089918093F10089918093DE
:1019A000F10089918093F10089918093F1008991F0
:1019B0008093F10089918093F10089918093F100E7
:1019C00089918093F10089918093F10089918093AE
:1019D000F10089918093F10089918093F1008991C0
:1019E0008093F10089918093F10089918093F100B7
:1019F00089918093F10089918093F100899180937E
:101A0000F10089918093F10089918093F10089918F
:101A10008093F10089918093F10089918093F10086
:101A200089918093F10089918093F100899180934D
:101A3000F10089918093F10089918093F10089915F
:101A40008093F10089918093F10089918093F10056
:101A500089918093F10089918093F100899180931D
:101A6000F10089918093F10089918093F10089912F
:101A70008093F10089918093F10089918093F10026
:101A800089918093F10089918093F10089918093ED
:101A9000F10089918093F10089918093F1008991FF
:101AA0008093F10089918093F10089918093F100F6
:101AB00089918093F10089918093F10089918093BD
:101AC000F10089918093F10089918093F1008991CF
:101AD0008093F1008091E80085FD02C05093E800FA
:101AE000621B7109A093FD023FBF04C0B4E040E453
:101AF0005AE3A5E06115710509F0F9CE80E001C057
:101B00008FEFDF91CF9108959FB7F8948091FD02F8
:101B1000882341F084E08093E9008AE38093E80021
:101B20001092FD029FBF08956091E6027091E70256
:101B30008091E8029091E90208958091EA02089567
:101B40008091EB0208958091EC0208958091FC024F
:101B50000895282F9FB7F8948091FB02882339F0CD
:101B600082E08093E9008091E80085FD03C09FBF7B
:101B70008FEF089581EA8093F10080E28093F10075
:101B80001092F1001092F1001092F1001092F10009
:101B900081E08093F1001092F1002093F1008AE33C
:101BA0008093E8009FBF80E008951F920F920FB6C8
:101BB0000F9211248F939F938091E1001092E10086
:101BC000982F83FF11C01092E90081E08093EB0011
:101BD0001092EC0082E18093ED0088E08093F000A9
:101BE0001092FB021092FC0292FF13C08091FB0244
:101BF000882379F08091FD02882359F081508093E9
:101C0000FD02882331F484E08093E9008AE3809325
:101C1000E8009F918F910F900FBE0F901F90189525
:101C20001F920F920FB60F9211240F931F932F93B1
:101C30003F934F935F936F937F938F939F93AF9354
:101C4000BF93EF93FF931092E9008091E80083FF28
:101C50003CC14091F1003091F1008091F100682F7A
:101C600070E02091F100922F80E0682B792B809119
:101C7000F100A82FB0E02091F100922F80E0A82B76
:101C8000B92B1091F1000091F10082EF8093E800F0
:101C9000363009F05AC025E331E0A90145505040E3
:101CA000F9013797859194918617970701F5FA0105
:101CB000859194918A179B07D1F49A012E5F3F4F2B
:101CC000F901659174912E5F3F4FF9014491212FE5
:101CD00030E0902F80E0282B392B2F3F310519F071
:101CE00010F02FEF30E0241758F4422F09C0295F7D
:101CF0003F4F495F5F4FF1E02F353F0789F6E5C061
:101D00005EEF8091E800282F30E0C9018570907067
:101D1000892BB9F322FDDCC0342F413108F030E1CA
:101D2000232FCB0106C0FC010196E491E093F10062
:101D300021502223C1F7630F711D431B5093E8000C
:101D40004423F9F63031E9F2C3C0353061F48EEF47
:101D50008093E8008091E80080FFFCCF862F8068A8
:101D60008093E300B5C0393051F5442309F0ADC08C
:101D70006093FB021092FC021092FD028EEF8093A2
:101D8000E80088E591E021E02093E900FC0101965C
:101D9000E491E093EB00EE2369F0AC014F5F5F4FFD
:101DA000FC0184918093EC00CA010196FA01349100
:101DB0003093ED002F5F253039F78EE181C0383048
:101DC00061F4403809F081C08091E80080FFFCCFC9
:101DD0008091FB028093F10050C0313289F4413A86
:101DE00009F073C08091E80080FFFCCFE6EEF2E0DE
:101DF00081918093F10082E0ED3EF807C9F73DC084
:101E00003032A1F4413209F060C08091E80082FFD5
:101E1000FCCFE6EEF2E08091F100819382E0ED3EAE
:101E2000F807C9F78BEF8093E80027C0323251F4EE
:101E3000413209F04AC06093FC028091E80080FFC3
:101E4000FCCF1BC03323E9F48091E80080FFFCCF76
:101E5000423811F080E00DC0A093E9008091EB00C2
:101E600090E025E0969587952A95E1F7817010928C
:101E7000E9008093F1001092F1008EEF8093E8006A
:101E800027C0313011F0333001F54230F1F4672BC7
:101E9000E1F42A2F2F77822F81508430B0F48EEF17
:101EA0008093E8002093E900333079F089E1809352
:101EB000EB0081E090E002C0880F991F2A95E2F7BD
:101EC0008093EA001092EA0003C081E28093EB0065
:101ED000FF91EF91BF91AF919F918F917F916F9102
:101EE0005F914F913F912F911F910F910F900FBED6
:101EF0000F901F901895E8E2F3E0119285E0E03230
:101F0000F807D9F70895843580F5603370F5262FEA
:101F1000269526952695677090E0442399F0E4E590
:101F20002E9FF0011124E80FF91FE85DFC4F81E0BE
:101F300090E002C0880F991F6A95E2F72081282B54
:101F400020830895E4E52E9FF0011124E80FF91F86
:101F5000E85DFC4F81E090E002C0880F991F6A9510
:101F6000E2F7809520812823208308952F923F92C5
:101F70004F925F926F927F928F929F92AF92BF9299
:101F8000CF92DF92EF92FF920F931F93DF93CF9345
:101F9000CDB7DEB72E970FB6F894DEBF0FBECDBF1C
:101FA000E82ED62E142FF22E0C878417F9F4862EE5
:101FB0009924A22EBB240EC08E2D682D4C850E9424
:101FC000830FDF1420F40894811C911C03C0089433
:101FD00081089108DF1428F4A814B9040CF401C195
:101FE000EBCF8A149B040CF4FCC0E6CF6217F9F423
:101FF000882E9924A42EBB240EC0882D6D2D4C85CF
:102000000E94830FE11620F40894811C911C03C0E8
:10201000089481089108E11628F4A814B9040CF476
:10202000E0C0EBCF8A149B040CF4DBC0E6CF48176A
:1020300020F41E2DE42EF62ED22E812F90E09A83CE
:102040008983AE2CBB24BC016A197B09882777FDE4
:102050008095982F0E945E176F83788789879A876B
:102060002F2C33244D2C5524B10164197509882770
:1020700077FD8095982F0E945E173B014C012F81C0
:10208000388549855A850E94C3166B837C838D836E
:102090009E8320E030E040E050E00E940E1887FF71
:1020A0000DC0C401B30190582F81388549855A85E8
:1020B0000E94C3166B837C838D839E830F2EF0E07A
:1020C000CF2EF0E0DF2EF0E0EF2EF0E0FF2EF02D2F
:1020D00070C0AB868A2D642D4C850E94830FC7018A
:1020E000B6012B813C814D815E810E945B1631C01F
:1020F0008B85642D4C850E94830F1E861D86C4012E
:10210000B30120E030E040E050E00E940E181816C5
:1021100024F4E1E0F0E0FE87ED8700E010E0C40188
:10212000B30120E030E040E050E00E94BF16882379
:1021300014F401E010E08D859E85801B910B480E04
:10214000591EC701B60120E030E040E85FE30E947D
:102150005A166B017C0120E030E040E05FE30E9412
:102160000E1888239CF0C401B30120E030E040E069
:1021700050E00E940E1818162CF4241435040CF0AC
:10218000B7CF04C0421453040CF0B2CF6F817885EE
:1021900089859A8520E030E040E050E00E940E18EA
:1021A000181624F40894A11CB11C03C00894A108BB
:1021B000B1086F81788589859A8520E030E040E01C
:1021C00050E00E940E18181634F4E981FA81EA15DD
:1021D000FB053CF07ECF89819A81A816B9060CF0E8
:1021E00078CF2E960FB6F894DEBF0FBECDBFCF913D
:1021F000DF911F910F91FF90EF90DF90CF90BF90F4
:10220000AF909F908F907F906F905F904F903F9096
:102210002F9008957F928F929F92AF92BF92CF920C
:10222000DF92EF92FF920F931F93CF93DF93D82EFD
:10223000762EC22E85E0489FA00111248A01095AFA
:102240001E4F91E0892E912C8CE5A82E81E0B82EAE
:10225000A40EB51EF8018491CC2009F48095C0E04D
:10226000D0E0E82EFF24672D6C0FA4010C2E02C0D5
:10227000440F551F0A94E2F74E215F210C2E02C035
:10228000559547950A94E2F78D2D0E94830F21966C
:10229000C830D10541F70F5F1F4FD3940A151B05B6
:1022A000C9F6DF91CF911F910F91FF90EF90DF90D2
:1022B000CF90BF90AF909F908F907F900895EF92B6
:1022C000FF920F931F93CF93DF93E62EEA01F22E36
:1022D000082F10E007C0802F6E2D2F2D0E940A11AD
:1022E0000B5F1F5FFE01E10FF11D4081442399F751
:1022F000DF91CF911F910F91FF90EF900895CF93B1
:10230000DF9380E060E00E94F411C8E2D3E081E056
:1023100069910E94921185E0C032D807C1F7DF9120
:10232000CF91089595B18295880F807E9F7D982BDF
:1023300095B95F9827E030E070E08F98CB01022ECE
:1023400002C0959587950A94E2F780FF02C02E9A05
:1023500001C02E988F9A215030408FEF2F3F3807C1
:1023600061F75F9A08951F93182F579A249A259A18
:10237000269A879A2C985F9A2C9A80E061E20E94B4
:102380009211106880E0612F0E94921180E064E059
:102390000E94921180E063E10E94921180E06CE063
:1023A0000E94921180E060E20E94921180E06CE055
:1023B0000E94921180E060E40E94921180E060E847
:1023C0000E9492111F910895CF93DF93C0E0D0E057
:1023D00081E060E00E949211219681E0C83FD80719
:1023E000B9F7DF91CF9108951F93182F606480E0B3
:1023F0000E949211106880E0612F0E9492111F913B
:102400000895AF92BF92CF92EF920F931F93FC016A
:1024100040835183628373830483158326833783C8
:10242000E08AC18AB48AA38A81E0828B80E090E04E
:10243000A0E0B0E080879187A287B38784879587E3
:10244000A687B7871F910F91EF90CF90BF90AF9065
:1024500008952F923F925F926F927F928F929F92F8
:10246000AF92BF92CF92DF92EF92FF920F931F93A2
:10247000CF93DF938C01DC0152968C915297882385
:1024800009F47FC06D917D918D919C910E9475188A
:102490000E942B173B01F801248135814681578129
:1024A000643571050CF06DC0D80150968C91C82F21
:1024B000D0E0CE01860D971D181619060CF061C0EC
:1024C000CA01B9010E9475180E942B174B01603395
:1024D00071050CF056C0F80181899401280F311D57
:1024E000121613060CF04DC057E0A52EB12CAC0E01
:1024F000BD1E43E0B594A7944A95E1F7EE24FF246E
:10250000CC24DD2437E0232E312C30C0CE0123E053
:10251000959587952A95E1F7D8015396ED91FC9111
:102520005497EC0DFD1DE80FF91F408150E0CE01DE
:1025300087709070F101E81BF90B02C05595479523
:10254000EA95E2F741709E01260D822F652D0E94CB
:10255000830F2196D80150968C9190E0C817D90727
:10256000ACF20894E11CF11CCA0CDB1CF801818957
:1025700090E0E816F9062CF4C0E0D0E05E2C580C90
:10258000E9CFDF91CF911F910F91FF90EF90DF90F6
:10259000CF90BF90AF909F908F907F906F905F9003
:1025A0003F902F900895A1E1B0E0E9EDF2E10C94A5
:1025B000D1183C017F876E876A01FC011782168261
:1025C000838181FD03C06FEF7FEF6FC39E012F5F9B
:1025D0003F4F398B288BF3012381EE85FF8523FD47
:1025E000859123FF8191FF87EE87882309F45AC3E1
:1025F000853251F4EE85FF8523FD859123FF81917E
:10260000FF87EE87853229F490E0B3010E94701BAA
:10261000E2CF982F10E0882499241032B0F49B3236
:1026200069F09C3228F4903251F0933271F40BC06F
:102630009D3239F0903349F4116028C01260146063
:1026400025C0186023C0106121C017FD2AC0892F42
:1026500080538A3078F416FF06C0FAE09F9E902CD3
:102660001124980E13C03AE0839E802C1124880E0A
:1026700010620CC09E3221F416FD14C3106406C013
:102680009C3611F4106802C0983659F4EE85FF8527
:1026900023FD959123FF9191FF87EE87992309F000
:1026A000BCCF892F8554833020F4812F8061905EC8
:1026B00007C0892F8556833008F09FC1812F8F7EF8
:1026C00086FD02C076E0972E6FE3F62EF82295364F
:1026D00019F4F0E4FF2A07C0963619F420E8F22A2C
:1026E00002C091109A94F7FE0AC03BE3391518F422
:1026F0005CE3B52E02C0B92CB39427E009C047E0D3
:10270000491520F4BB2447E0942EF7CF292DBB2494
:10271000C60104969D878C87F60160817181828154
:102720009381AE014F5F5F4F0B2D0E94821A6C01A7
:102730000981202E332400FF04C003FD02C01DE2E6
:1027400009C0F1FE02C01BE205C0F2FC02C010E0AD
:1027500001C010E2C1018C709070892BB9F1112376
:1027600011F483E001C084E0881510F088240AC0C9
:10277000881AF3FC07C080E290E0B3010E94701B4E
:102780008A94C9F7112329F0812F90E0B3010E94A8
:10279000701B23FE03C007ED13E00EC00BED13E02A
:1027A0000BC0E114F10409F0805290E0B3010E94E3
:1027B000701B0F5F1F4F05C0EF2CFF24F0E1EF22CD
:1027C000FF24F8018491882361F714C1F7FE12C039
:1027D000BC0C24FE04C08A81813309F4BA941B1412
:1027E0001CF0BB24B3942DC0F8E0FB1550F538E085
:1027F000B32E27C0F6FC25C0892D90E08C159D05D1
:102800004CF02CEFC2162FEFD20624F030E8F32A5A
:1028100001C09A94992049F0E2E0F0E0EC0FFD1F2E
:10282000E90DF11D80818033A1F3F7FE0AC0B92CB8
:10283000B394892D90E0C816D90614F0992401C0EC
:102840009C18F7FC03C025E030E009C01C141D04EF
:102850001CF021E030E003C096012F5F3F4F1123B1
:1028600011F02F5F3F4F992029F0892D90E00196BC
:10287000280F391F882D90E02817390714F0882475
:1028800001C0821A4F2C5524C20189709070892B87
:1028900039F008C080E290E0B3010E94701B8A9476
:1028A0008820C1F7112329F0812F90E0B3010E9405
:1028B000701B43FE07C008C080E390E0B3010E9494
:1028C000701B8A948820C1F7F7FE46C08601D7FEA8
:1028D00002C000E010E076010894E11CF11CE01A4F
:1028E000F10A41E050E04C0F5D1FE40EF51E260199
:1028F0004B185108892D90E0AA24BB24A81AB90AC4
:102900005FEF0F3F150729F48EE290E0B3010E94BC
:10291000701BC016D10634F0401651061CF4F701A6
:10292000808101C080E3015010400894E11CF11C3B
:102930000A151B052CF090E0B3010E94701BE0CF3C
:102940000C151D0539F49A81963318F4953311F45A
:1029500024FE81E390E04BC08A81813309F00F7E31
:1029600090E0B3010E94701B9920A1F08EE290E0EC
:10297000B3010E94701B12E0E1E0F0E0EC0FFD1FDC
:10298000E10FF11D1F5F808190E0B3010E94701B79
:102990009A9491F744FC03C085E690E002C085E478
:1029A00090E0B3010E94701BD7FC05C0C114D10494
:1029B00041F404FF06C0D094C194D108D3948DE2B1
:1029C00001C08BE290E0B3010E94701B80E305C060
:1029D0008F5F26EF3FEFC20ED31E3AE0C316D1043D
:1029E000BCF790E0B3010E94701BC601C096B30112
:1029F0000E94701BCC84DD8452C1933631F0933732
:102A000099F0933509F059C023C0F601808189837C
:102A10005E010894A11CB11C22E030E0C20ED31E5E
:102A200021E0E22EF12C12C0F601A080B18016FD4B
:102A300003C06FEF7FEF02C0692D70E022E030E04D
:102A4000C20ED31EC5010E94651B7C011F7713C0F7
:102A5000F601A080B18016FD03C06FEF7FEF02C0CA
:102A6000692D70E022E030E0C20ED31EC5010E9445
:102A70005A1B7C01106813FF07C01BC080E290E066
:102A8000B3010E94701B8A94882D90E0E816F90625
:102A9000A8F30FC0F50117FD859117FF81915F0124
:102AA00090E0B3010E94701B81108A940894E108A1
:102AB000F108E114F10471F7F2C0943611F099367F
:102AC00089F517FF08C0F6012081318142815381C9
:102AD00084E090E00AC0F601808191819C01442746
:102AE00037FD4095542F82E090E0C80ED91E9FE636
:102AF000F92EF12257FF09C0509540953095219548
:102B00003F4F4F4F5F4F90E8F92ACA01B901AE011C
:102B10004F5F5F4F2AE030E00E94CD1BE82EE8892E
:102B2000EE1A41C0953721F41F7E2AE030E01CC028
:102B3000197F9F3661F0903720F4983509F0B2C0C4
:102B40000FC0903739F0983709F0ACC004C028E0C6
:102B500030E00AC0106114FD146020E130E004C0D0
:102B600014FD166020E132E017FF08C0F601608115
:102B700071818281938144E050E008C0F601808138
:102B80009181BC0180E090E042E050E0C40ED51E8F
:102B9000AE014F5F5F4F0E94CD1BE82E5889E51AAA
:102BA0008FE7F82EF122F6FE0BC08EEFF822E91423
:102BB00038F4F4FE07C0F2FC05C09FEEF92202C013
:102BC0001E2D01C0192DF4FE0DC0FE01EE0DF11DEC
:102BD0008081803319F4E9EEFE2208C01F5FF2FE07
:102BE00005C003C08F2D867809F01F5F0F2DF3FC01
:102BF00014C0F0FE0FC0181510F09E2C0BC09E2CB8
:102C0000980C911A182D06C080E290E0B3010E9442
:102C1000701B1F5F1815C0F304C0181510F4811A3B
:102C200001C0882404FF0FC080E390E0B3010E943C
:102C3000701B02FF1DC001FD03C088E790E00EC0BD
:102C400088E590E00BC0802F867891F001FF02C0EC
:102C50008BE201C080E2F7FC8DE290E0B3010E94BC
:102C6000701B06C080E390E0B3010E94701B9A9431
:102C7000E914C0F3EA94E1E0F0E0EC0FFD1FEE0D83
:102C8000F11D808190E0B3010E94701BEE2091F74E
:102C900006C080E290E0B3010E94701B8A948820F5
:102CA000C1F799CCF30166817781CB016196E2E1AE
:102CB0000C94ED185058BB27AA270ED075C166D1C9
:102CC00030F06BD120F031F49F3F11F41EF45BC162
:102CD0000EF4E095E7FB51C1E92F77D180F3BA17E5
:102CE000620773078407950718F071F49EF58FC18A
:102CF0000EF4E0950B2EBA2FA02D0B01B901900117
:102D00000C01CA01A0011124FF27591B99F0593F5A
:102D100050F4503E68F11A16F040A22F232F342FA2
:102D20004427585FF3CF469537952795A795F040F0
:102D30005395C9F77EF41F16BA0B620B730B840B05
:102D4000BAF09150A1F0FF0FBB1F661F771F881FBD
:102D5000C2F70EC0BA0F621F731F841F48F4879515
:102D600077956795B795F7959E3F08F0B3CF939504
:102D7000880F08F09927EE0F979587950895D9D079
:102D800008F481E008950CD00FC107D140F0FED0C7
:102D900030F021F45F3F19F0F0C0511139C1F3C098
:102DA00014D198F39923C9F35523B1F3951B550B0F
:102DB000BB27AA2762177307840738F09F5F5F4F0E
:102DC000220F331F441FAA1FA9F333D00E2E3AF04F
:102DD000E0E830D091505040E695001CCAF729D069
:102DE000FE2F27D0660F771F881FBB1F26173707B8
:102DF0004807AB07B0E809F0BB0B802DBF01FF27E8
:102E000093585F4F2AF09E3F510568F0B6C000C14D
:102E10005F3FECF3983EDCF3869577956795B79521
:102E2000F7959F5FC9F7880F911D9695879597F93C
:102E30000895E1E0660F771F881FBB1F62177307B5
:102E40008407BA0720F0621B730B840BBA0BEE1FCA
:102E500088F7E095089504D06894B111D9C0089519
:102E6000BCD088F09F5790F0B92F9927B751A0F0A8
:102E7000D1F0660F771F881F991F1AF0BA95C9F70E
:102E800012C0B13081F0C3D0B1E00895C0C0672F47
:102E9000782F8827B85F39F0B93FCCF386957795BE
:102EA0006795B395D9F73EF49095809570956195A7
:102EB0007F4F8F4F9F4F0895E89409C097FB3EF4D2
:102EC00090958095709561957F4F8F4F9F4F992377
:102ED000A9F0F92F96E9BB279395F69587957795F5
:102EE0006795B795F111F8CFFAF4BB0F11F460FFB5
:102EF0001BC06F5F7F4F8F4F9F4F16C0882311F00D
:102F000096E911C0772321F09EE8872F762F05C020
:102F1000662371F096E8862F70E060E02AF09A95BB
:102F2000660F771F881FDAF7880F9695879597F9B0
:102F30000895990F0008550FAA0BE0E8FEEF16164A
:102F40001706E807F907C0F012161306E407F5079D
:102F500098F0621B730B840B950B39F40A2661F011
:102F6000232B242B252B21F408950A2609F4A140B4
:102F7000A6958FEF811D811D089597F99F6780E8C1
:102F800070E060E008959FEF80EC089500240A94BB
:102F90001616170618060906089500240A94121634
:102FA0001306140605060895092E0394000C11F467
:102FB000882352F0BB0F40F4BF2B11F460FF04C014
:102FC0006F5F7F4F8F4F9F4F089557FD9058440F6D
:102FD000551F59F05F3F71F04795880F97FB991F78
:102FE00061F09F3F79F08795089512161306140635
:102FF000551FF2CF4695F1DF08C0161617061806C2
:10300000991FF1CF86957105610508940895E8949C
:10301000BB2766277727CB0197F908958ADF08F445
:103020008FEF08950BD0C0CFB1DF28F0B6DF18F0D6
:10303000952309F0A2CFA7CF1124EACFC6DFA0F3D2
:10304000959FD1F3950F50E0551F629FF001729F3D
:10305000BB27F00DB11D639FAA27F00DB11DAA1F5C
:10306000649F6627B00DA11D661F829F2227B00DA9
:10307000A11D621F739FB00DA11D621F839FA00D34
:10308000611D221F749F3327A00D611D231F849F84
:10309000600D211D822F762F6A2F11249F575040DB
:1030A0008AF0E1F088234AF0EE0FFF1FBB1F661F76
:1030B000771F881F91505040A9F79E3F510570F02F
:1030C0005CCFA6CF5F3FECF3983EDCF38695779517
:1030D0006795B795F795E7959F5FC1F7FE2B880F2A
:1030E000911D9695879597F9089577DFE0F09E37C3
:1030F000D8F09639B8F49E3848F4672F782F88278F
:10310000985FF9CF86957795679593959539D0F324
:10311000B62FB1706B0F711D811D20F487957795C7
:103120006795939502C01CC073CF882371F47723F1
:1031300021F09850872B762F07C0662311F499272A
:103140000DC09051862B70E060E02AF09A95660FD2
:10315000771F881FDAF7880F9695879597F9089556
:103160009F3F31F0915020F4879577956795B795FB
:10317000880F911D9695879597F9089597FB092ECD
:1031800007260AD077FD04D043D006D000201AF4D9
:10319000709561957F4F0895F6F7909581959F4FB3
:1031A00008952F923F924F925F926F927F928F92EB
:1031B0009F92AF92BF92CF92DF92EF92FF920F93C6
:1031C0001F93CF93DF93CDB7DEB7CA1BDB0B0FB6D0
:1031D000F894DEBF0FBECDBF09942A88398848888D
:1031E0005F846E847D848C849B84AA84B984C88423
:1031F000DF80EE80FD800C811B81AA81B981CE0F1A
:10320000D11D0FB6F894DEBF0FBECDBFED010895FE
:10321000AA1BBB1B51E107C0AA1FBB1FA617B707FC
:1032200010F0A61BB70B881F991F5A95A9F7809518
:103230009095BC01CD010895CF93DF93BC018230FE
:10324000910510F462E070E0A0912205B091230591
:10325000ED01E0E0F0E040E050E021C0888199819C
:103260008617970769F48A819B81309719F09383B9
:10327000828304C09093230580932205FE0134C00D
:103280006817790738F44115510519F08417950727
:1032900008F4AC01FE018A819B819C01E901209721
:1032A000E9F641155105A9F1CA01861B970B049750
:1032B00008F4BA01E0E0F0E02AC08D919C911197EA
:1032C00084179507F9F46417750781F412968D91A8
:1032D0009C911397309719F09383828304C0909345
:1032E000230580932205FD0132964FC0CA01861B3B
:1032F000970BFD01E80FF91F6193719302978D936E
:103300009C9343C0FD01828193819C01D901109758
:10331000A1F68091200590912105892B41F480919F
:10332000EF029091F0029093210580932005409147
:10333000F1025091F2024115510541F44DB75EB7CB
:103340008091ED029091EE02481B590B20912005CF
:103350003091210524173507B0F4CA01821B930B65
:103360008617970780F0AB014E5F5F4F8417950774
:1033700050F0420F531F5093210540932005F9014F
:103380006193719302C0E0E0F0E0CF01DF91CF9153
:103390000895CF93DF93009709F450C0EC01229772
:1033A0001B821A82A0912205B0912305109709F182
:1033B00040E050E0AC17BD0708F1BB83AA83FE01D3
:1033C00021913191E20FF31FAE17BF0779F48D9170
:1033D0009C911197280F391F2E5F3F4F3983288307
:1033E00012968D919C9113979B838A834115510569
:1033F00071F4D0932305C093220520C012968D91BD
:103400009C911397AD01009711F0DC01D3CFFA0125
:10341000D383C28321913191E20FF31FCE17DF07CF
:1034200069F488819981280F391F2E5F3F4FFA0177
:10343000318320838A819B8193838283DF91CF9123
:103440000895A0E0B0E0E7E2FAE10C94D918EC01AD
:10345000A880B980CA80DB80A114B104C104D10462
:1034600041F484E2A82E89EDB82E8BE5C82E87E0C2
:10347000D82EC601B5012DE133EF41E050E00E94A6
:103480004A1C27EA31E440E050E00E942B1C7B01FB
:103490008C01C601B5012DE133EF41E050E00E94FF
:1034A0004A1CCA01B9012CEE34EF4FEF5FEF0E94C6
:1034B0002B1C6E0D7F1D801F911F97FF04C0615054
:1034C000704080409048688379838A839B839B0106
:1034D0003F77C901CDB7DEB7EAE00C94F5180E943A
:1034E000211A089583EF92E00E94211A0895A0E026
:1034F000B0E08093F3029093F402A093F502B093AE
:10350000F6020895283008F027E03327DA01990FF2
:10351000311D87FD916000966105710539F43260B7
:103520002E5F3D9330E32A95E1F708959F3F30F0F9
:1035300080387105610509F03C5F3C5F3D93913037
:1035400008F08068911DDF93CF931F930F93FF9234
:10355000EF92192F987F9695E92F96959695E90FFA
:10356000FF27E75CFB4F99273327EE24FF24A701B1
:10357000E70105900894079428F4360FE71EF81E1B
:10358000491F511D660F771F881F991F0694A1F7C9
:103590000590079428F4E70EF81E491F561FC11D19
:1035A000770F881F991F661F0694A1F7059007944F
:1035B00028F4F80E491F561FC71FD11D880F991FE9
:1035C000661F771F0694A1F70590079420F4490F12
:1035D000561FC71FD81F990F661F771F881F069495
:1035E000A9F784911095177041F0D695C795579516
:1035F0004795F794E7941A95C1F7EFEDF3E06894D7
:103600001590159135916591959105907FE273958F
:10361000E118F10A430B560BC90BD009C0F7E10CB6
:10362000F11E431F561FC91FD01D7EF4703311F4C5
:103630008A95E6CFE894015030F0080F0AF400278D
:10364000021708F4202F2395022F7A3328F079E30C
:103650007D932A95E9F710C07D932A9589F6069403
:1036600097956795379517951794E118F10A430BCD
:10367000560BC90BD00998F023957E9173957A3338
:1036800008F070E37C932013B8F77E9170617D930E
:1036900030F0839571E37D9370E32A95E1F711246F
:1036A000EF90FF900F911F91CF91DF91992787FDA8
:1036B00090950895FC010590615070400110D8F775
:1036C000809590958E0F9F1F0895FC01615070406A
:1036D00001900110D8F7809590958E0F9F1F089547
:1036E0000F931F93CF93DF938C01EB018B8181FFAD
:1036F0001BC082FF0DC02E813F818C819D812817C8
:10370000390764F4E881F9810193F983E88306C0FD
:10371000E885F985802F0995892B31F48E819F8169
:1037200001969F838E8302C00FEF1FEFC801DF91C8
:10373000CF911F910F910895AEE0B0E0E2EAFBE176
:103740000C94DF180D891E898F89988D97FF02C010
:1037500080E090E801979E838D831A83098386E039
:103760008C839E01255E3F4FCE010196698D7A8D37
:10377000A9010E94D3124D815E8157FD0AC02F819D
:103780003885421753070CF49A01020F131FF801F2
:1037900010822E96E4E00C94FB18FA01AA27283038
:1037A00051F1203181F1E8946F936E7F6E5F7F4F0E
:1037B0008F4F9F4FAF4FB1E03ED0B4E03CD0670F8A
:1037C000781F891F9A1FA11D680F791F8A1F911DDD
:1037D000A11D6A0F711D811D911DA11D20D009F42D
:1037E00068943F912AE0269F11243019305D31936F
:1037F000DEF6CF010895462F4770405D4193B3E058
:103800000FD0C9F7F6CF462F4F70405D4A3318F0FE
:10381000495D31FD4052419302D0A9F7EACFB4E0AF
:10382000A6959795879577956795BA95C9F7009767
:103830006105710508959B01AC010A2E0694579508
:10384000479537952795BA95C9F7620F731F841F5F
:10385000951FA01D0895629FD001739FF001829F64
:10386000E00DF11D649FE00DF11D929FF00D839F0F
:10387000F00D749FF00D659FF00D9927729FB00DAC
:10388000E11DF91F639FB00DE11DF91FBD01CF01BF
:103890001124089597FB092E05260ED057FD04D05C
:1038A00014D00AD0001C38F45095409530952195DD
:1038B0003F4F4F4F5F4F0895F6F790958095709565
:1038C00061957F4F8F4F9F4F0895A1E21A2EAA1B3B
:1038D000BB1BFD010DC0AA1FBB1FEE1FFF1FA217C0
:1038E000B307E407F50720F0A21BB30BE40BF50BBD
:1038F000661F771F881F991F1A9469F76095709546
:10390000809590959B01AC01BD01CF010895F8947D
:02391000FFCFE7
:1039120025640053636F72653A20004C69766573C3
:103922003A2000466C6F6F723A200046616C7365F4
:103932000054727565006E393930313939300025DD
:10394200660003022838283800FEAA3828287F009B
:10395200FF00FF00FF01FE41008100810081008223
:1039620041FF81FF81FF81FF8240000000000000D3
:10397200000240000000000000000240007C007EC7
:10398200007C0002600044004200440006600044E3
:1039920000420044000640007C007E007C000240A1
:1039A20000000000000000024000000000000000D3
:1039B2000240000000000000000240000000000081
:1039C2000000026000000000000000063800000055
:1039D2003C0000001C1C000000C30000003807006F
:1039E200000100800000E0018000010080000180F1
:1039F20000C0000200400003000070000403200029
:103A02000E00001E000403200078000001E0040004
:103A12002007800000003F040020FC000000000797
:103A2200FC003FE00000003C0000C30001008001F8
:103A3200008002004004032004032004002004004C
:103A420020FC003F70F8A8F8F8A8E0BEEA2070F861
:103A5200FFFFFFFFFFFFFFFFFFFFFFFFFFFFFFFF74
:103A6200FFFFFFFFFFFFFFFFFFFFFFFFFFFFFFFF64
:103A7200FFFFFFFFFFFFFFFFFFFFFFFFFFFFFFFF54
:103A8200FFFFFFFFFFFFFFFFFFFFFFFFE0E0E0E0C0
:103A9200E0E0E0E0E0E0E0E0E0E0E0E0E0E0E0E024
:103AA200E0E0E0E0E0E0E0E0E0E0E0E0E0E0E0E014
:103AB200E0E0E0E0E0E0E0E0E0E0E0E0E0E0E0E004
:103AC200E0E0E0E0E0E0E0E0E0E0E0E0E0E0E0E0F4
:103AD200E0E0E0E0E0E0E0E0E0E0E0E0E0E0E0E0E4
:103AE200C0E0E0E0E0E0E0E0E0E0E0E0E0E0E0E0F4
:103AF200E0E00300000000E10000000008200024D4
:083B02000500000100000000B5
:00000001FF
