:100000000C946D020C948A020C948A020C948A025D
:100010000C948A020C948A020C948A020C948A0230
:100020000C948A020C948A020C94E7150C94221604
:100030000C948A020C948A020C948A020C948A0210
:100040000C948A020C948A020C948A020C948A0200
:100050000C948A020C948A020C948A020C94C910A3
:100060000C948A020C948A020C948A020C948A02E0
:100070000C948A020C948A020C948A020C948A02D0
:100080000C948A020C948A020C948A020C948A02C0
:100090000C948A020C948A020C948A020C948A02B0
:1000A0000C948A020C948A020C948A027C157915AD
:1000B0007615731570156D156A156715641561153C
:1000C0005E155B155815551552154F154C154915EC
:1000D0004615431540153D153A153715341531159C
:1000E0002E152B152815251522151F151C1519154C
:1000F0001615131510150D150A15071504150115FC
:10010000FE14FB14F814F514F214EF14EC14E914B3
:10011000E614E314E014DD14DA14D714D414D11463
:10012000CE14CB14C814C514C214BF14BC140001DF
:10013000000062011200020000740143000300008D
:10014000B7010401030904BB011402030904D1012E
:100150001603030904E9010C0001C11201803601F4
:1001600081361201000202000010C0167A0400015C
:100170000102030109024300020100C03209040028
:100180000001020201000524001001052401010103
:10019000042402060524060001070582031000401E
:1001A00009040100020A00000007050302400000E4
:1001B0000705840240000004030904140359006F7A
:1001C000007500720020004E0061006D00650000A7
:1001D00000160355005300420020005300650072D2
:1001E00000690061006C0000000C03310032003334
:1001F00000340035000000000000000000005F0037
:10020000000007000700147F147F14242A7F2A129D
:10021000231308646236495522500005030000008C
:100220001C2241000041221C0014083E081408084A
:100230003E08080050300000080808080800606008
:10024000000020100804023E5149453E00427F4014
:100250000042615149462141454B311814127F102B
:1002600027454545393C4A4949300171090503365E
:1002700049494936064949291E00363600000056CC
:1002800036000008142241001414141414004122F2
:1002900014080201510906324979413E7E111111BB
:1002A0007E7F494949363E414141227F4141221CDE
:1002B0007F494949417F090909013E4149497A7FFE
:1002C0000808087F00417F41002040413F017F082E
:1002D0001422417F404040407F020C027F7F04088F
:1002E000107F3E4141413E7F090909063E415121AF
:1002F0005E7F09192946464949493101017F0101BB
:100300003F4040403F1F2040201F3F4038403F6358
:100310001408146307087008076151494543007FBA
:1003200041410002040810200041417F0004020105
:100330000204404040404000010204002054545454
:10034000787F484444383844444420384444487F03
:100350003854545418087E0901020C5252523E7F00
:100360000804047800447D40002040443D007F1094
:1003700028440000417F40007C041804787C080475
:10038000047838444444387C1414140808141418AD
:100390007C7C080404084854545420043F44402002
:1003A0003C4040207C1C2040201C3C4030403C44D1
:1003B000281028440C5050503C4464544C440008CD
:1003C00036410000007F0000004136080010080898
:1003D000100878464146786E616E00696E660000CE
:1003E000407A10F35A00A0724E18090010A5D4E804
:1003F0000000E87648170000E40B54020000CA9A97
:100400003B000000E1F505000080969800000040E8
:10041000420F000000A0860100000010270000002D
:1004200000E803000000006400000000000A000073
:100430000000000100000000002C76D888DC674F27
:100440000823DFC1DFAE59E1B1B796E5E3E453C657
:100450003AE651997696E8E6C28426EB898C9B624F
:10046000ED407C6FFCEFBC9C9F40F2BAA56FA5F4F9
:1004700090055A2AF75C936B6CF9676DC11BFCE021
:10048000E40D47FEF520E6B500D0ED902E03009474
:100490003577050080841E080000204E0A00000009
:1004A000C80C333333330F986E12831141EF8D2113
:1004B00014893BE65516CFFEE6DB18D1844B381B7A
:1004C000F77C1D901DA4BBE424203284725E22813F
:1004D00000C9F124ECA1E53D270011241FBECFEF98
:1004E000DAE0DEBFCDBF14E0A0E0B1E0EEE7F9E472
:1004F00002C005900D92AA34B107D9F718E0AAE41A
:10050000B4E001C01D92A931B107E1F70E94821346
:100510000C94BD240C940000DF93CF9300D0CDB792
:10052000DEB78091150890911608009711F489E1C3
:1005300098E0880F991F44275527481B590B9E01A7
:100540002F5F3F4F240F351FC9010F900F90CF91A0
:10055000DF9108950F931F93FC01408751876287B5
:10056000738704871587268737871F910F91089512
:10057000CF93DF93EC0160935C056C3461F06D34D4
:1005800020F4643409F056C040C06235B1F06535DE
:1005900009F050C028C06091830270E0882777FD81
:1005A0008095982F0E94701F9B01AC016881798112
:1005B0008A819B810E946D1E11C06091830270E050
:1005C000882777FD8095982F0E94701F9B01AC01B2
:1005D000688179818A819B810E946C1E68837983FE
:1005E0008A839B8327C06091830270E0882777FD10
:1005F0008095982F0E94701F9B01AC016C817D81BA
:100600008E819F810E946D1E11C06091830270E0F7
:10061000882777FD8095982F0E94701F9B01AC0161
:100620006C817D818E819F810E946C1E6C837D8395
:100630008E839F83DF91CF9108951F93CF93DF9394
:10064000182F83EE94E0612F0E94B802CDE5D5E02B
:10065000209721F0CE01612F0E94B802659685E0B7
:10066000C63CD807A9F78BED95E0612F0E94B80230
:10067000CFE5D4E0CE01612F0E94B802659684E0F8
:10068000C83CD807B9F786EC95E0612F0E94B80204
:1006900080EF95E0612F0E94B80288EC94E0612F12
:1006A0000E94B80283E095E0612F0E94B80285E0C5
:1006B00096E0612F0E94B80283E395E0612F0E94CB
:1006C000B802DF91CF911F91089580915C058C3421
:1006D00011F482E50DC0823511F48CE409C0853532
:1006E00011F484E405C0843411F485E501C080E28E
:1006F0000E941D030895EF92FF920F931F93CF93D3
:10070000DF93EC016C3461F06D3420F4643409F053
:100710006CC048C0623599F0653509F066C033C0D9
:10072000E884F9840A851B85C801B70120E030E020
:1007300040E050E00E94202018167CF015C0E884AC
:10074000F9840A851B85C801B70120E030E040E04C
:1007500050E00E94D11E88233CF4D801C701B05854
:1007600088879987AA87BB87688179818A819B81DD
:10077000288539854A855B850E946D1E688379834B
:100780008A839B8332C0EC84FD840E851F85C8015B
:10079000B70120E030E040E050E00E942020181631
:1007A0007CF015C0EC84FD840E851F85C801B7015F
:1007B00020E030E040E050E00E94D11E88233CF46D
:1007C000D801C701B0588C879D87AE87BF876C81E1
:1007D0007D818E819F812C853D854E855F850E9420
:1007E0006D1E6C837D838E839F83DF91CF911F91DC
:1007F0000F91FF90EF900895FC01628B0895FC012A
:10080000828990E00895FC012081318142815381E9
:10081000B901CA010895FC012481358146815781BF
:10082000B901CA010895FC012085318542855385AF
:10083000B901CA010895FC0124853585468557858F
:10084000B901CA010895CF92DF92EF92FF920F9300
:100850001F936C017A01882777FD8095982F0E945D
:10086000701FF60160837183828393830027F7FCF6
:100870000095102FC801B7010E94701FF601648314
:100880007583868397831F910F91FF90EF90DF9080
:10089000CF900895AF92BF92CF92DF92EF92FF92E6
:1008A0000F931F93CF93DF93FC01EB018289882381
:1008B00051F1A480B580C680D780EC80FD800E8188
:1008C0001F816081718182819381288139814A8170
:1008D0005B810E94D11E88231CF4CE016CE402C00F
:1008E000CE0162E50E947B03C601B501A801970114
:1008F0000E94D11E88231CF4CE0165E502C0CE0102
:1009000064E40E947B03DF91CF911F910F91FF90D0
:10091000EF90DF90CF90BF90AF900895EF92FF924D
:100920000F931F937C018B01FB016089669570E03A
:10093000882777FD8095982F0E94701F9B01AC013E
:10094000F80160817181828193810E946C1E20E098
:1009500030E040E85FE30E946C1EF7016083718322
:1009600082839383F8016189669570E0882777FD1B
:100970008095982F0E94701F9B01AC01F801648143
:100980007581868197810E946D1EF701648375834E
:10099000868397831F910F91FF90EF900895EF92B8
:1009A000FF920F931F937C018B01FB016089669579
:1009B00070E0882777FD8095982F0E94701F9B011B
:1009C000AC01F80160817181828193810E946C1E6B
:1009D00020E030E040EC50E40E946D1EF70160839F
:1009E000718382839383F8016189669570E088271B
:1009F00077FD8095982F0E94701FF8012481358122
:100A0000468157810E946D1E20E030E040E85FE3A0
:100A10000E946C1EF70164837583868397831F9100
:100A20000F91FF90EF900895FC0180890895FC01DB
:100A30008189089580E090E008952F923F924F922F
:100A40005F926F927F928F929F92AF92BF92CF925E
:100A5000DF92EF92FF920F931F93DF93CF9300D01B
:100A600000D0CDB7DEB77C015A016B011801290116
:100A7000DC016D917D918D919C910E9487203B01BD
:100A80004C01D70114968D919D910D90BC91A02D94
:100A900089839A83AB83BC83F701A082B182C2822F
:100AA000D382D70114962D923D924D925C92179766
:100AB000C601B5010E9487200E943D1F7B018C0169
:100AC000C401B3010E943D1FE616F706E9F4C20116
:100AD000B1010E9487207B018C0169817A818B8121
:100AE0009C810E9487205B016C0144245524C8012D
:100AF000B7010E943D1F7B018C01C601B5010E9418
:100B00003D1FE616F70619F031E0432E512CC201C5
:100B10000F900F900F900F90CF91DF911F910F9139
:100B2000FF90EF90DF90CF90BF90AF909F908F900D
:100B30007F906F905F904F903F902F9008954F92CD
:100B40005F926F927F928F929F92AF92BF92CF925D
:100B5000DF92EF92FF920F931F93DF93CF9300D01A
:100B600000D0CDB7DEB76C01DC01ED90FD900D91AA
:100B70001C91C801B7010E9487204B015C01D6017E
:100B800014968D919D910D90BC91A02D89839A838F
:100B9000AB83BC83C801B701F6012085318542854E
:100BA00053850E946C1E7B018C01D6016D937D9351
:100BB0008D939C93139769817A818B819C811C967C
:100BC0002D913D914D915C911F970E946C1E2B01C0
:100BD0003C01CB01D301F60184839583A683B783BF
:100BE000C801B7010E9487200E943D1F7B018C0134
:100BF000C501B4010E943D1FE616F706E9F4B201F3
:100C0000C3010E9487207B018C0169817A818B81DD
:100C10009C810E9487205B016C0166247724C801B7
:100C2000B7010E943D1F7B018C01C601B5010E94E6
:100C30003D1FE616F70619F041E0642E712CC30142
:100C40000F900F900F900F90CF91DF911F910F9108
:100C5000FF90EF90DF90CF90BF90AF909F908F90DC
:100C60007F906F905F904F900895AF92BF92CF9218
:100C7000DF92EF92FF920F931F93CF93DF938C013C
:100C80006B01FC0160817181828193810E948720C8
:100C90000E943D1F7B01F8016481758186819781E7
:100CA0000E9487200E943D1FEB01F6016081718147
:100CB000828193810E9487200E943D1F5B01F60183
:100CC00064817581868197810E9487200E943D1FE3
:100CD000F601408981899B01280F311DC217D30776
:100CE0001CF020E030E00AC020E030E0C501840FB5
:100CF000911DE816F90614F421E030E0F80180892E
:100D0000E80EF11CAE14BF0414F020E030E0F8014E
:100D10008189C80FD11D6C177D071CF020E030E0E1
:100D200022C021153105F9F0F6ECCF16F5E0DF060B
:100D3000C1F02BEDC21625E0D20699F035E008315E
:100D4000130711F40E946503CFE5D4E00C171D07CB
:100D500019F4C8010E949F05659684E0C83CD80735
:100D6000A9F721E030E0C901DF91CF911F910F91E8
:100D7000FF90EF90DF90CF90BF90AF900895FC016F
:100D8000128A80E090E00E94DB210895DF92EF92CA
:100D9000FF920F931F93F82EE62ED22E8DB79EB79B
:100DA00008970FB6F8949EBF0FBE8DBFEDB7FEB784
:100DB000319608E415E0ADB7BEB712961C930E93BA
:100DC000119784E190E09383828380E091E09583A2
:100DD0008483578346830E94AE238DB79EB70896BF
:100DE0000FB6F8949EBF0FBE8DBF8F2D6E2DA8013C
:100DF0002D2D0E9471191F910F91FF90EF90DF90A0
:100E0000089585E060E043E051E021E00E9471191F
:100E100040914E0450914F0488E260E021E00E942E
:100E2000C60685E06AE04BE051E021E00E947119BE
:100E30004091820288E26AE050E021E00E94C6060A
:100E400085E064E143E151E021E00E9471194091A5
:100E50004A0450E04150504088E264E121E00E94A1
:100E6000C60685E06EE14BE151E021E00E94711978
:100E700040914B0488E26EE150E021E00E94C606FA
:100E80008DE26EE142E251E021E00E947119409151
:100E90004C0482E36EE150E021E00E94C6064091DE
:100EA0004D0487E36EE150E021E00E94C6060895FC
:100EB0000E948D178FE06AE044E251E021E00E9439
:100EC00071198FE064E143E151E021E00E94711962
:100ED00040914A0484E364E150E021E00E94C606A8
:100EE0000E94911980EF95E528EC30E0F9013197E7
:100EF000F1F70197D9F708952F923F924F925F92A1
:100F00006F927F928F929F92AF92BF92CF92DF9219
:100F1000EF92FF920F931F93DF93CF93CDB7DEB77E
:100F20002A970FB6F894DEBF0FBECDBF10925304C0
:100F3000109254040E948D170E94580780914E040D
:100F400090914F048C599F4F90934F0480934E047F
:100F500080914A048F5F80934A041092F50480E0E8
:100F600090E00E94DB2110922A0580E090E00E9430
:100F7000DB2188E195E040E050E068E272E400E0C7
:100F800010E020EC31E4E7E0EE2EBAE0CB2EA7E84B
:100F9000AA2EA2E0BA2E0E94131A1092020680E036
:100FA00090E00E94DB210E94842264E570E00E94B0
:100FB000D02080931A060E94842260E370E00E9491
:100FC000D020E82E8093E20460911A0670E080E061
:100FD00090E00E946E1F5B016C01FF2400E010E0B6
:100FE000C801B7010E946E1F8B019C0180EF95E044
:100FF000B601A501F8E1EF2EECE0CE2EB9E6AB2E5E
:10100000B3E0BB2E0E94131A80EF95E068E175E013
:101010000E943506892B09F6AFE52A2EA4E03A2E68
:10102000F8EF6F2EF4E07F2E41011A86198629858C
:101030002C830E9484226AE070E00E94D0200697F0
:101040004CF024011B8289859A8583529B4F988797
:101050008F8304C099859923A1F362C08114910400
:1010600031F0F401128A80E090E00E94DB210E94BE
:10107000842264E570E00E94D020F30180830E9406
:10108000842260E370E00E94D020E82EEF81F88592
:101090008083F301608170E080E090E00E946E1F29
:1010A0005B016C01FF2400E010E0C801B7010E9461
:1010B0006E1F8B019C01C201B601A501E5E0EE2E79
:1010C000B6E0CB2EA7E8AA2EA3E0BA2E0E94131AF0
:1010D0000FE514E0EE240DC00115110539F0C8012B
:1010E000B2010E9435068B83882331F4E3940B5EB2
:1010F0001F4FFC81EF1680F3C20168E175E00E948A
:101100003506892B09F0AACFC20160EF75E00E9475
:101110003506892B09F0A2CF2B81222309F09ECF1F
:1011200089859A8501969A878987E5E1F0E08E0E98
:101130009F1E0894611C711C059709F078CF1092CE
:10114000D80580E090E00E94DB210E94842264E5C3
:1011500070E00E94D02080931B060E94842260E3EE
:1011600070E00E94D020E82E80932D0560911B0630
:1011700070E080E090E00E946E1F5B016C01FF2434
:1011800000E010E0C801B7010E946E1F8B019C01B6
:1011900086EC95E0B601A501F7E0EF2EE3E0CE2E58
:1011A000BDE8AB2EB3E0BB2E0E94131A0FE514E08E
:1011B0000115110541F086EC95E0B8010E94350655
:1011C000E82E882339F40B5E1F4FF4E0083C1F071C
:1011D00079F7EE2486EC95E068E175E00E9435062B
:1011E000892B09F0ACCF86EC95E060EF75E00E94AA
:1011F0003506892B09F0A3CFEE2009F0A0CF0E947D
:1012000084226AE070E00E94D02002975CF4AEEF86
:101210006A2EA4E07A2E2DE535E03A8729878824C6
:1012200099246AC01092ED0580E090E00E94DB21D5
:101230000E94842264E570E00E94D02080931C0606
:101240000E94842260E370E00E94D020E82E809308
:10125000FD0460911C0670E080E090E00E946E1F2B
:101260005B016C01FF2400E010E0C801B7010E949F
:101270006E1F8B019C018BED95E0B601A501F4E09A
:10128000EF2EE4E0CE2EB3E9AB2EB3E0BB2E0E94EE
:10129000131A0FE514E00115110541F08BED95E0EF
:1012A000B8010E943506E82E882339F40B5E1F4FE3
:1012B00034E0083C130779F7EE248BED95E068E104
:1012C00075E00E943506892B09F0ACCF8BED95E0D7
:1012D00060EF75E00E943506892B09F0A3CF8BEDF6
:1012E00095E066EC75E00E943506892B09F09ACFEF
:1012F000EE2009F097CF8BCF89820E9484226AE08A
:1013000070E00E94D02006970CF493C049845A8460
:101310001A82C401825D9A4F9E838D83E985FA8586
:10132000309729F0128A80E090E00E94DB210E9431
:10133000842264E570E00E94D020F30180830E9443
:10134000842260E370E00E94D020E82EED81FE81CF
:101350008083F301608170E080E090E00E946E1F66
:101360005B016C01FF2400E010E0C801B7010E949E
:101370006E1F8B019C01C201B601A501A5E0EA2EFA
:10138000F3E0CF2EE0E9AE2EE3E0BE2E0E94131A6A
:101390000DE515E0EE240DC00115110539F0C80169
:1013A000B2010E9435068A83882331F4E3940B5EF0
:1013B0001F4FF981EF1680F30FE514E0EE240EC005
:1013C0000115110541F086EC95E0B8010E94350643
:1013D000C82E882339F4E3940B5E1F4F2981E2164F
:1013E00078F3CC24C20168E175E00E943506892BB0
:1013F00009F094CFC20160EF75E00E943506892B99
:1014000009F08CCFC20166EC75E00E943506892B8D
:1014100009F084CFC2016BED75E00E943506892B7F
:1014200009F07CCF3A81332309F078CFCC2009F042
:1014300075CF0894811C911C89859A8545969A8759
:1014400089870894611C711C95E08916910409F044
:1014500053CF1092DA0480E090E00E94DB211092DA
:10146000150580E090E00E94DB211092170680E0D5
:1014700090E00E94DB211092450580E090E00E9400
:10148000DB2188EC94E040E050E060E272EC8A01FD
:101490009B01B3E0EB2EA4E6CA2EF3EDAF2EF3E0F2
:1014A000BF2E0E94131A83E095E040E050E060E216
:1014B00072EC8A019B01E0EAEE2EB3E0CB2EA7E9A5
:1014C000AA2EA3E0BA2E0E94131A85E096E040E00F
:1014D00050E060EF72E400E010E020E232ECF3E074
:1014E000EF2EE4E6CE2EB3EDAB2EB3E0BB2E0E9482
:1014F000131A83E395E040E050E060E272EC00E014
:1015000010E020E732E4A0EAEA2EF3E0CF2EE7E98C
:10151000AE2EE3E0BE2E0E94131A80E090E0A0E819
:10152000BEE32114310449F0F10180879187A2873D
:10153000B38784879587A687B78725E130E0220E99
:10154000331E38EC231634E0330659F72A960FB6CB
:10155000F894DEBF0FBECDBFCF91DF911F910F91E9
:10156000FF90EF90DF90CF90BF90AF909F908F90C3
:101570007F906F905F904F903F902F900895AF9223
:10158000BF92CF92EF920F931F93CF93DF9310925E
:101590005304109254040E948D1710922A0580E083
:1015A00090E00E94DB211092F50480E090E00E9420
:1015B000DB211092020680E090E00E94DB21CFE563
:1015C000D4E0209729F01A8A80E090E00E94DB2185
:1015D000659684E0C83CD807A1F71092D80580E052
:1015E00090E00E94DB218FE060E04FE251E021E0DB
:1015F0000E94711985E06AE043E051E021E00E9419
:10160000711940914E0450914F0488E26AE021E044
:101610000E94C60685E064E143E151E021E00E94BA
:10162000711940914A0450E04150504088E264E111
:1016300021E00E94C60688E195E040E050E068E2C3
:1016400072E400E010E020EC31E4B7E0EB2EAAE019
:10165000CA2EF7E8AF2EF2E0BF2E0E94131A83EED7
:1016600094E040E050E060EC70E400E010E020E244
:1016700031ECE8E4EE2EBAE1CB2EA1E9AA2EA2E0ED
:10168000BA2E0E94131A80EF95E040E050E060EF20
:1016900071E400E010E020EA30E4F8E1EF2EECE045
:1016A000CE2EB9E6AB2EB3E0BB2E0E94131A8FE507
:1016B00094E040E050E060E972E400E010E020EAED
:1016C00031E4A5E0EA2EF6E0CF2EE7E8AE2EE3E027
:1016D000BE2E0E94131A86EC95E040E050E060ECCC
:1016E00070E400E010E020EA31E4B7E0EB2EA3E084
:1016F000CA2EFDE8AF2EF3E0BF2E0E94131A88EC2D
:1017000094E040E050E060E272EC8A019B01E3E08B
:10171000EE2EB4E6CB2EA3EDAA2EA3E0BA2E0E94A5
:10172000131A83E095E040E050E060E272EC8A0139
:101730009B01F0EAEF2EE3E0CE2EB7E9AB2EB3E04B
:10174000BB2E0E94131A85E096E040E050E060EF67
:1017500072E400E010E020E232ECA3E0EA2EF4E6CE
:10176000CF2EE3EDAE2EE3E0BE2E0E94131A83E3EC
:1017700095E040E050E060E272EC00E010E020E72D
:1017800032E4B0EAEB2EA3E0CA2EF7E9AF2EF3E085
:10179000BF2E0E94131A6091830270E080E090E0F7
:1017A0000E946E1F6093200570932105809322058F
:1017B0009093230560932405709325058093260557
:1017C0009093270580E090E0A0E8BEE38093670453
:1017D00090936804A0936904B0936A0480936B04A7
:1017E00090936C04A0936D04B0936E0410924F0418
:1017F00010924E0483E08093820210924A04109269
:101800004B0410924C0410924D040E9491197D9942
:1018100002C07E9BFCCF0E948D1784E166E149E304
:1018200051E021E00E94711986E06AE042E451E053
:1018300021E00E9471190E9491197D9902C07E9B3E
:10184000FCCFDF91CF911F910F91EF90CF90BF9080
:10185000AF9008952F923F924F925F926F927F9236
:101860008F929F92AF92BF92CF92DF92EF92FF92B0
:101870000F931F93CF93DF9310925304109254044D
:10188000809182028150809382021092DA0480E07B
:1018900090E00E94DB211092150580E090E00E940C
:1018A000DB211092170680E090E00E94DB2110926D
:1018B000450580E090E00E94DB2180918202882330
:1018C00011F40E94BF0A80914A04813009F001C1DD
:1018D000CFE5D4E0209729F01A8A80E090E00E94BA
:1018E000DB21659684E0C83CD807A1F710922A0551
:1018F00080E090E00E94DB211092F50480E090E00F
:101900000E94DB211092020680E090E00E94DB2121
:101910001092D80580E090E00E94DB2188E195E0FC
:1019200040E050E068E272E400E010E020EC31E4D6
:10193000A7E0EA2EFAE0CF2EE7E8AE2EE2E0BE2ED8
:101940000E94131A83EE94E040E050E060EC70E4F3
:1019500000E010E020E231ECB8E4EB2EAAE1CA2E60
:10196000F1E9AF2EF2E0BF2E0E94131A80EF95E04E
:1019700040E050E060EF71E400E010E020EA30E485
:10198000E8E1EE2EBCE0CB2EA9E6AA2EA3E0BA2E0B
:101990000E94131A8FE594E040E050E060E972E4A1
:1019A00000E010E020EA31E4F5E0EF2EE6E0CE2E94
:1019B000B7E8AB2EB3E0BB2E0E94131A86EC95E07D
:1019C00040E050E060EC70E400E010E020EA31E438
:1019D000A7E0EA2EF3E0CF2EEDE8AE2EE3E0BE2E38
:1019E0000E94131A88EC94E040E050E060E272EC50
:1019F0008A019B01B3E0EB2EA4E6CA2EF3EDAF2ED5
:101A0000F3E0BF2E0E94131A83E095E040E050E01F
:101A100060E272EC8A019B01E0EAEE2EB3E0CB2E8D
:101A2000A7E9AA2EA3E0BA2E0E94131A85E096E039
:101A300040E050E060EF72E400E010E020E232ECC1
:101A4000F3E0EF2EE4E6CE2EB3EDAB2EB3E0BB2EEB
:101A50000E94131A83E395E040E050E060E272ECEC
:101A600000E010E020E732E4A0EAEA2EF3E0CF2E17
:101A7000E7E9AE2EE3E0BE2E0E94131A60918302C6
:101A800070E080E090E00E946E1F609320057093EC
:101A9000210580932205909323056093240570937C
:101AA0002505809326059093270580E090E0A0E827
:101AB000BEE38093670490936804A0936904B09395
:101AC0006A0480936B0490936C04A0936D04B093AC
:101AD0006E0480914A04823008F45DC11FE5612ED6
:101AE00014E0712EE301209729F01A8A80E090E03B
:101AF0000E94DB21659694E0C83CD907A1F71092BB
:101B00002A0580E090E00E94DB211092020680E02E
:101B100090E00E94DB211092D80580E090E00E94C6
:101B2000DB2160911A0670E080E090E00E946E1F59
:101B30006B017C016091E20470E080E090E00E9423
:101B40006E1F8B019C0180EF95E0B701A601B8E103
:101B5000EB2EACE0CA2EF9E6AF2EF3E0BF2E0E94CA
:101B6000131A60911B0670E080E090E00E946E1FE7
:101B70006B017C0160912D0570E080E090E00E9497
:101B80006E1F8B019C0186EC95E0B701A601E7E092
:101B9000EE2EB3E0CB2EADE8AA2EA3E0BA2E0E9423
:101BA000131AFDE58F2EF5E09F2EC0E0D0E08114E2
:101BB000910449F1F401128A80E090E00E94DB2157
:101BC000FE01E250FB4F608170E080E090E00E94F7
:101BD0006E1F6B017C01FE01E25DFA4F608170E0D7
:101BE00080E090E00E946E1F8B019C01C401B70150
:101BF000A601E5E0EE2EB3E0CB2EA0E9AA2EA3E0ED
:101C0000BA2E0E94131A219685E190E0880E991E43
:101C1000C530D10561F688E195E040E050E068E22A
:101C200072E400E010E020EC31E4F7E0EF2EEAE0AF
:101C3000CE2EB7E8AB2EB2E0BB2E0E94131A6091F5
:101C4000830270E080E090E00E946E1F60932005A8
:101C500070932105809322059093230560932405BA
:101C6000709325058093260590932705C0E0D0E06A
:101C70000F2EF0E02F2EF0E03F2EF0E84F2EFEE387
:101C80005F2EF02D6114710491F1F301128A80E04E
:101C900090E00E94DB21FE01E850FB4F608170E084
:101CA00080E090E00E946E1F6B017C01FE01E35218
:101CB000FB4F608170E080E090E00E946E1F8B011E
:101CC0009C01C301B701A601A5E0EA2EF6E0CF2EE4
:101CD000E7E8AE2EE3E0BE2E0E94131AF301208641
:101CE00031864286538624863586468657862196D7
:101CF00085E190E0680E791EC530D10519F688ECB3
:101D000094E040E050E060E272EC8A019B01B3E0B5
:101D1000EB2EA4E6CA2EF3EDAF2EF3E0BF2E0E9409
:101D2000131A83E095E040E050E060E272EC8A0133
:101D30009B01E0EAEE2EB3E0CB2EA7E9AA2EA3E0AA
:101D4000BA2E0E94131A85E096E040E050E060EF62
:101D500072E400E010E020E232ECF3E0EF2EE4E683
:101D6000CE2EB3EDAB2EB3E0BB2E0E94131A83E34D
:101D700095E040E050E060E272EC00E010E020E727
:101D800032E4A0EAEA2EF3E0CF2EE7E9AE2EE3E05C
:101D9000BE2E0E94131ADF91CF911F910F91FF90D9
:101DA000EF90DF90CF90BF90AF909F908F907F90FB
:101DB0006F905F904F903F902F900895DF92EF9239
:101DC000FF920F931F93182FD62E8DB79EB70A97A9
:101DD0000FB6F8949EBF0FBE8DBFEDB7FEB731961C
:101DE000B8E4EB2EB5E0FB2EADB7BEB71296FC9271
:101DF000EE92119784E190E09383828382E591E0F3
:101E00009583848326833783408751870E94AE233E
:101E10008DB79EB70A960FB6F8949EBF0FBE8DBFC2
:101E2000812F6D2DA701202F0E9471191F910F91F5
:101E3000FF90EF90DF900895DC010D900020E9F70E
:101E40001197A81BB90BBD010E946E140895EF9263
:101E5000FF920F931F93CF93DF938FB18295869557
:101E6000877080FD07C08FB18295869586958370B7
:101E700080FF08C080914A04882321F481E0809388
:101E80004A0480C180914A04882379F484E166E1A0
:101E900049E351E021E00E94711986E06AE042E4E2
:101EA00051E021E00E9471192FC1189B03C00E94CC
:101EB00001072AC183B1869580FF02C08CE40DC062
:101EC0001F9B02C084E409C0489B02C082E505C094
:101ED00089B1869580FF05C085E580935C050E94E9
:101EE0001D0388EC94E00E943B1A83E095E00E9479
:101EF0003B1A85E096E00E943B1A83E395E00E943E
:101F00003B1A88E195E00E943B1A80EF95E00E9421
:101F10003B1A86EC95E00E943B1A1FE5E12E14E087
:101F2000F12EE701209741F0CE010E943B1A88E193
:101F300095E0BE010E944A04659684E0C83CD8073B
:101F400089F780914A04813081F483EE94E00E9405
:101F50003B1A88E195E063EE74E00E9435068FE558
:101F600094E063EE74E00E94350680914A0482306A
:101F700090F1CFE5D4E0CE0160EF75E00E94350628
:101F8000659694E0C83CD907B1F7CDE5D5E08A89DC
:101F90008823E1F0CE010E943B1A88E195E0BE0162
:101FA0000E943506892B91F085E591E00E941C0F77
:101FB0001A8A80E090E00E94DB2180914E0490918B
:101FC0004F040A9690934F0480934E04659685E0E3
:101FD000C63CD807E1F688E195E066EC75E00E9422
:101FE0003506892BF9F086EC95E068E175E00E94F2
:101FF0008E0480915404882321F487E791E00E94A5
:102000001C0F81E08093540488E195E060EF75E057
:102010000E943506892B31F081E991E00E941C0F66
:102020000E947C0788E195E060EF75E00E9435062C
:1020300088E195E068EC74E00E94350688E195E05F
:1020400065E076E00E94350688E195E063E075E0A2
:102050000E94350688E195E063E375E00E9435064D
:102060008BED95E00E943B1A88E195E06BED75E001
:102070000E943506892B49F180915304882321F46D
:102080008DEB91E00E941C0F81E0809353048BED57
:1020900095E068E175E00E94CF04CFE5D4E000E070
:1020A00010E0209761F088E195E0BE010E943506BE
:1020B0008BED95E0BE010E943506882341F50F5F48
:1020C0001F4F65960530110561F7E114F10499F091
:1020D00088E195E0B7010E943506892B61F08BED10
:1020E00091E00E941C0F10922A0580E090E00E946F
:1020F000DB210E942A0C85E190E0E80EF91E98ECA5
:10210000E91694E0F90609F70E9491193BC082E0B4
:1021100092E00E941C0F85E190E0089FF001099F6A
:10212000F00D189FF00D1124E15AFB4F80E090E074
:10213000A8E4B3E480839183A283B38384839583EB
:10214000A683B78380E090E0A8E4B3EC8093DB053E
:102150009093DC05A093DD05B093DE058093DF0549
:102160009093E005A093E105B093E205128A80E028
:1021700090E00E94DB211092ED0580E090E00E944B
:10218000DB21A3CFDF91CF911F910F91FF90EF90B3
:1021900008951F920F920FB60F921124EF92FF92A3
:1021A0000F931F932F933F934F935F936F937F935F
:1021B0008F939F93AF93BF93EF93FF9360915704D7
:1021C000709158048091590490915A042DEB37E393
:1021D00046E05CE30E946D1E6093570470935804C0
:1021E0008093590490935A0420E030E040E251E497
:1021F0000E9424207B018C0160914D0470E08827AF
:1022000077FD8095982F0E94701F9B01AC01C8013B
:10221000B7010E9424207B018C0160914C0470E086
:10222000882777FD8095982F0E94701F9B01AC0135
:10223000C801B7010E9424200E943D1FDC01CB0190
:102240000E9489226091570470915804809159042A
:1022500090915A042CEE31E548E75FE30E9420207C
:1022600088230CF40CC180914D048F5F80934D0442
:102270008A3038F010924D0480914C048F5F809327
:102280004C0480914C04863038F010924C048091BC
:102290004B048F5F80934B04809152048F5F809337
:1022A00052048A3038F010925204809151048F5FAA
:1022B0008093510480915104863038F0109251047B
:1022C000809150048F5F8093500480914A0488234A
:1022D00009F4B7C08DB79EB70A970FB6F8949EBFA2
:1022E0000FBE8DBFEDB7FEB73196809185029091FC
:1022F0008602ADB7BEB712969C938E9311978FE26C
:1023000092E093838283809150048483158280912C
:1023100051048683178280915204808711860E941F
:10232000DF238DB79EB70A960FB6F8949EBF0FBEF7
:102330008DBF80918502909186020E941C0F00D073
:1023400000D000D0EDB7FEB7319680918502909114
:102350008602ADB7BEB712969C938E93119700E09C
:1023600011E01383028380914E0490914F04958372
:1023700084830E94DF238DB79EB706960FB6F8942C
:102380009EBF0FBE8DBF89E392E00E941C0F80911B
:102390008502909186020E941C0F84E492E00E94C4
:1023A0001C0F00D000D000D0EDB7FEB73196809161
:1023B000850290918602ADB7BEB712969C938E931C
:1023C00011971383028380914A04848315820E94AB
:1023D000DF238DB79EB706960FB6F8949EBF0FBE4B
:1023E0008DBF80918502909186020E941C0F8FE420
:1023F00092E00E941C0F00D000D000D0EDB7FEB7D5
:1024000031968091850290918602ADB7BEB7129643
:102410009C938E931197138302838091820284830D
:1024200015820E94DF238DB79EB706960FB6F894EB
:102430009EBF0FBE8DBF80918502909186020E9443
:102440001C0F80E090E0A0E0B0E0809357049093F0
:102450005804A0935904B0935A042BB13BB1229570
:1024600026952695217081E090E0821B910906E077
:10247000880F991F0A95E1F73F7B382B3BB9FF91F5
:10248000EF91BF91AF919F918F917F916F915F91EC
:102490004F913F912F911F910F91FF90EF900F90CF
:1024A0000FBE0F901F90189585E06AE04AE552E054
:1024B00021E00E9471190E9491190E949D1389E6E2
:1024C00092E090938602809385020E941C0F0E94E6
:1024D0008D1782E06AE041E752E021E00E94711925
:1024E0000E94911908956F927F928F929F92AF925E
:1024F000BF92CF92EF920F931F933F9A479A569AAB
:10250000E1E6F0E080E8808311E010838FE30E9431
:10251000C5190E94F61985B5846085BD10936E00BB
:1025200078940E9454122198279850985198859831
:10253000869820983F9A8FEA0E94C51988E195E015
:1025400040E050E068E272E400E010E020EC31E4AA
:10255000E7E0EE2EBAE0CB2EA7E8AA2EA2E0BA2E34
:102560000E94131A83EE94E040E050E060EC70E4C7
:1025700000E010E020E231ECF8E4EF2EEAE1CE2EAC
:10258000B1E9AB2EB2E0BB2E0E94131A80EF95E0AA
:1025900040E050E060EF71E400E010E020EA30E459
:1025A000A8E1EA2EFCE0CF2EE9E6AE2EE3E0BE2E57
:1025B0000E94131A8FE594E040E050E060E972E475
:1025C00000E010E020EA31E4B5E0EB2EA6E0CA2EF0
:1025D000F7E8AF2EF3E0BF2E0E94131A86EC95E0C9
:1025E00040E050E060EC70E400E010E020EA31E40C
:1025F000E7E0EE2EB3E0CB2EADE8AA2EA3E0BA2E94
:102600000E94131AF3ED6F2EF3E07F2E88EC94E016
:1026100040E050E060E272EC8A019B01E3E0EE2EC4
:10262000B4E6CB2E53010E94131AA7E98A2EA3E029
:102630009A2E83E095E040E050E060E272EC8A017F
:102640009B01F0EAEF2EE3E0CE2E54010E94131A14
:1026500085E096E040E050E060EF72E400E010E0DA
:1026600020E232ECB3E0EB2EA4E6CA2E53010E9426
:10267000131A83E395E040E050E060E272EC00E082
:1026800010E020E732E4F0EAEF2EE3E0CE2E540132
:102690000E94131A6091830270E080E090E00E9433
:1026A0006E1F6093200570932105809322059093FF
:1026B0002305609324057093250580932605909348
:1026C000270580E090E0A0E8BEE380936704909344
:1026D0006804A0936904B0936A0480936B04909398
:1026E0006C04A0936D04B0936E040E9491191F9125
:1026F0000F91EF90CF90BF90AF909F908F907F9071
:102700006F900895CF93DF930E94731280E197E258
:1027100028EC30E0F9013197F1F70197D9F7C8ECCF
:10272000D0E00E94270F88EE93E0FE013197F1F789
:102730000197D9F70E948D17F4CF81E08093D700DD
:1027400080EA8093D80082E189BD09B400FEFDCF04
:1027500080E98093D8001092E00010925B04109200
:102760005C048CE08093E2007894089580915B048F
:1027700008952FB7F89480915B04882369F083E073
:102780008093E9009BE68091E80085FD09C082FF07
:1027900003C09093E800F7CF2FBF2FEF3FEF0CC09F
:1027A0009091F1008091E80085FD03C08BE6809355
:1027B000E8002FBF292F30E0C90108952FB7F89402
:1027C00080915B04882311F490E010C083E0809333
:1027D000E9009091F200992349F48091E80082FF8A
:1027E00005C085FD03C08BE68093E8002FBF892FCD
:1027F000089580915B04882371F09FB7F89483E07B
:102800008093E9002BE602C02093E8008091E80065
:1028100085FDFACF9FBF0895482F80915B048823E0
:10282000D9F12FB7F89484E08093E90080915E0499
:10283000882341F08091E80085FD02C02FBF12C0BF
:1028400010925E049091E400975E34E08091E8007D
:1028500085FD13C02FBF8091E400891729F481E022
:1028600080935E048FEF089580915B048823A1F02C
:102870002FB7F8943093E900E9CF4093F1008091AD
:10288000E80085FD03C08AE38093E80085E080933B
:102890005D042FBF80E008958FEF0895282F809169
:1028A0005B04882351F09FB7F89484E08093E9009B
:1028B0008091E80085FD03C09FBF8FEF08952093AE
:1028C000F1008091E80085FD03C08AE38093E80071
:1028D00085E080935D049FBF80E00895CF93DF93F0
:1028E000EC0180915B04882309F41CC13FB7F89484
:1028F00084E08093E90080915E04882309F408C194
:102900008091E80085FD02C03FBF0CC110925E04BB
:10291000FFC09091E400975E8091E80085FD13C0B0
:102920003FBF8091E400891721F481E080935E0429
:10293000F9C080915B04882309F4F4C03FB7F89490
:10294000B093E900E9CF8091F200242F281B822F59
:1029500090E06817790708F4262F822F90E08134E1
:10296000910508F0C6C08A5A9F4FFC01EE0FFF1F69
:102970000590F491E02D099489918093F10089915B
:102980008093F10089918093F10089918093F10007
:1029900089918093F10089918093F10089918093CE
:1029A000F10089918093F10089918093F1008991E0
:1029B0008093F10089918093F10089918093F100D7
:1029C00089918093F10089918093F100899180939E
:1029D000F10089918093F10089918093F1008991B0
:1029E0008093F10089918093F10089918093F100A7
:1029F00089918093F10089918093F100899180936E
:102A0000F10089918093F10089918093F10089917F
:102A10008093F10089918093F10089918093F10076
:102A200089918093F10089918093F100899180933D
:102A3000F10089918093F10089918093F10089914F
:102A40008093F10089918093F10089918093F10046
:102A500089918093F10089918093F100899180930D
:102A6000F10089918093F10089918093F10089911F
:102A70008093F10089918093F10089918093F10016
:102A800089918093F10089918093F10089918093DD
:102A9000F10089918093F10089918093F1008991EF
:102AA0008093F10089918093F10089918093F100E6
:102AB00089918093F10089918093F10089918093AD
:102AC000F10089918093F10089918093F1008991BF
:102AD0008093F10089918093F10089918093F100B6
:102AE00089918093F10089918093F100899180937D
:102AF000F10089918093F1008091E80085FD02C08A
:102B00005093E800621B7109A0935D043FBF04C0AD
:102B1000B4E040E45AE3A5E06115710509F0F9CE8F
:102B200080E001C08FEFDF91CF9108959FB7F894B7
:102B300080915D04882341F084E08093E9008AE37A
:102B40008093E80010925D049FBF0895609139045E
:102B500070913A0480913B0490913C0408958091D7
:102B60003D04089580913E04089580913F040895A6
:102B700080915C040895282F9FB7F89480915B049E
:102B8000882339F082E08093E9008091E80085FD98
:102B900003C09FBF8FEF089581EA8093F10080E228
:102BA0008093F1001092F1001092F1001092F10068
:102BB0001092F10081E08093F1001092F1002093D7
:102BC000F1008AE38093E8009FBF80E008951F92A0
:102BD0000F920FB60F9211248F939F938091E10073
:102BE0001092E100982F83FF11C01092E90081E05C
:102BF0008093EB001092EC0082E18093ED0088E07E
:102C00008093F00010925B0410925C0492FF13C05A
:102C100080915B04882379F080915D04882359F0CA
:102C2000815080935D04882331F484E08093E9002F
:102C30008AE38093E8009F918F910F900FBE0F90D1
:102C40001F9018951F920F920FB60F9211240F9399
:102C50001F932F933F934F935F936F937F938F9324
:102C60009F93AF93BF93EF93FF931092E9008091EE
:102C7000E80083FF3CC14091F1003091F100809168
:102C8000F100682F70E02091F100922F80E0682B16
:102C9000792B8091F100A82FB0E02091F100922FC4
:102CA00080E0A82BB92B1091F1000091F10082EF88
:102CB0008093E800363009F05AC025E331E0A901DD
:102CC00045505040F90137978591949186179707A1
:102CD00001F5FA01859194918A179B07D1F49A0125
:102CE0002E5F3F4FF901659174912E5F3F4FF901BF
:102CF0004491212F30E0902F80E0282B392B2F3F5B
:102D0000310519F010F02FEF30E0241758F4422F5E
:102D100009C0295F3F4F495F5F4FF1E02F353F0703
:102D200089F6E5C05EEF8091E800282F30E0C90108
:102D300085709070892BB9F322FDDCC0342F4131AE
:102D400008F030E1232FCB0106C0FC010196E4918D
:102D5000E093F10021502223C1F7630F711D431B43
:102D60005093E8004423F9F63031E9F2C3C035301E
:102D700061F48EEF8093E8008091E80080FFFCCF43
:102D8000862F80688093E300B5C0393051F5442325
:102D900009F0ADC060935B0410925C0410925D0476
:102DA0008EEF8093E80088E591E021E02093E90030
:102DB000FC010196E491E093EB00EE2369F0AC0195
:102DC0004F5F5F4FFC0184918093EC00CA01019634
:102DD000FA0134913093ED002F5F253039F78EE101
:102DE00081C0383061F4403809F081C08091E8003A
:102DF00080FFFCCF80915B048093F10050C03132A2
:102E000089F4413A09F073C08091E80080FFFCCF5B
:102E1000E9E3F4E081918093F10084E0E034F80785
:102E2000C9F73DC03032A1F4413209F060C0809151
:102E3000E80082FFFCCFE9E3F4E08091F1008193A8
:102E400084E0E034F807C9F78BEF8093E80027C0EF
:102E5000323251F4413209F04AC060935C048091EF
:102E6000E80080FFFCCF1BC03323E9F48091E80029
:102E700080FFFCCF423811F080E00DC0A093E90044
:102E80008091EB0090E025E0969587952A95E1F7F3
:102E900081701092E9008093F1001092F1008EEFA2
:102EA0008093E80027C0313011F0333001F5423013
:102EB000F1F4672BE1F42A2F2F77822F8150843091
:102EC000B0F48EEF8093E8002093E900333079F07E
:102ED00089E18093EB0081E090E002C0880F991FA8
:102EE0002A95E2F78093EA001092EA0003C081E29B
:102EF0008093EB00FF91EF91BF91AF919F918F91E4
:102F00007F916F915F914F913F912F911F910F9101
:102F10000F900FBE0F901F901895EDE1F6E0119203
:102F200088E0E531F807D9F70895843580F56033F6
:102F300070F5262F269526952695677090E04423F8
:102F400099F0E4E52E9FF0011124E80FF91FE35EEC
:102F5000F94F81E090E002C0880F991F6A95E2F76F
:102F60002081282B20830895E4E52E9FF001112471
:102F7000E80FF91FE35EF94F81E090E002C0880F8F
:102F8000991F6A95E2F78095208128232083089570
:102F90002F923F924F925F926F927F928F929F9269
:102FA000AF92BF92CF92DF92EF92FF920F931F9357
:102FB000DF93CF93CDB7DEB72E970FB6F894DEBF71
:102FC0000FBECDBFE82ED62E142FF22E0C878417FD
:102FD000F9F4862E9924A22EBB240EC08E2D682DC6
:102FE0004C850E949517DF1420F40894811C911CD5
:102FF00003C0089481089108DF1428F4A814B904C8
:103000000CF401C1EBCF8A149B040CF4FCC0E6CF96
:103010006217F9F4882E9924A42EBB240EC0882DA3
:103020006D2D4C850E949517E11620F40894811CA3
:10303000911C03C0089481089108E11628F4A81493
:10304000B9040CF4E0C0EBCF8A149B040CF4DBC091
:10305000E6CF481720F41E2DE42EF62ED22E812F17
:1030600090E09A838983AE2CBB24BC016A197B094A
:10307000882777FD8095982F0E94701F6F8378872F
:1030800089879A872F2C33244D2C5524B10164193C
:103090007509882777FD8095982F0E94701F3B0146
:1030A0004C012F81388549855A850E94D51E6B8336
:1030B0007C838D839E8320E030E040E050E00E94DE
:1030C000202087FF0DC0C401B30190582F8138859F
:1030D00049855A850E94D51E6B837C838D839E8390
:1030E0000F2EF0E0CF2EF0E0DF2EF0E0EF2EF0E03C
:1030F000FF2EF02D70C0AB868A2D642D4C850E946A
:103100009517C701B6012B813C814D815E810E94DC
:103110006D1E31C08B85642D4C850E9495171E86CF
:103120001D86C401B30120E030E040E050E00E9481
:103130002020181624F4E1E0F0E0FE87ED8700E09F
:1031400010E0C401B30120E030E040E050E00E9414
:10315000D11E882314F401E010E08D859E85801B2C
:10316000910B480E591EC701B60120E030E040E83F
:103170005FE30E946C1E6B017C0120E030E040E0C8
:103180005FE30E94202088239CF0C401B30120E06B
:1031900030E040E050E00E94202018162CF4241467
:1031A00035040CF0B7CF04C0421453040CF0B2CF76
:1031B0006F81788589859A8520E030E040E050E095
:1031C0000E942020181624F40894A11CB11C03C0EE
:1031D0000894A108B1086F81788589859A8520E0D7
:1031E00030E040E050E00E942020181634F4E981DD
:1031F000FA81EA15FB053CF07ECF89819A81A816F9
:10320000B9060CF078CF2E960FB6F894DEBF0FBE3D
:10321000CDBFCF91DF911F910F91FF90EF90DF9085
:10322000CF90BF90AF909F908F907F906F905F9066
:103230004F903F902F9008957F928F929F92AF92E0
:10324000BF92CF92DF92EF92FF920F931F93CF9393
:10325000DF93D82E762EC22E85E0489FA001112440
:103260008A01095A1E4F91E0892E912C8CE5A82ED7
:1032700081E0B82EA40EB51EF8018491CC2009F48B
:103280008095C0E0D0E0E82EFF24672D6C0FA401EC
:103290000C2E02C0440F551F0A94E2F74E215F2105
:1032A0000C2E02C0559547950A94E2F78D2D0E9489
:1032B00095172196C830D10541F70F5F1F4FD39462
:1032C0000A151B05C9F6DF91CF911F910F91FF9051
:1032D000EF90DF90CF90BF90AF909F908F907F90B6
:1032E0000895EF92FF920F931F93CF93DF93E62EF3
:1032F000EA01F22E082F10E007C0802F6E2D2F2D2F
:103300000E941C190B5F1F5FFE01E10FF11D408140
:10331000442399F7DF91CF911F910F91FF90EF9088
:103320000895CF93DF9380E060E00E94061ACDE11C
:10333000D6E081E069910E94A41988E0C531D807E0
:10334000C1F7DF91CF91089595B18295880F807E66
:103350009F7D982B95B95F9827E030E070E08F98BB
:10336000CB01022E02C0959587950A94E2F780FF63
:1033700002C02E9A01C02E988F9A215030408FEFB4
:103380002F3F380761F75F9A08951F93182F579AB8
:10339000249A259A269A879A2C985F9A2C9A80E0EC
:1033A00061E20E94A419106880E0612F0E94A419B4
:1033B00080E064E00E94A41980E063E10E94A41907
:1033C00080E06CE00E94A41980E060E20E94A419F1
:1033D00080E06CE00E94A41980E060E40E94A419DF
:1033E00080E060E80E94A4191F910895CF93DF93B5
:1033F000C0E0D0E081E060E00E94A419219681E065
:10340000C83FD807B9F7DF91CF9108951F93182FC0
:10341000606480E00E94A419106880E0612F0E941F
:10342000A4191F910895AF92BF92CF92EF920F937C
:103430001F93FC014083518362837383048315834C
:1034400026833783E08AC18AB48AA38A81E0828B8B
:1034500080E090E0A0E0B0E080879187A287B3870A
:1034600084879587A687B7871F910F91EF90CF909C
:10347000BF90AF9008952F923F925F926F927F928C
:103480008F929F92AF92BF92CF92DF92EF92FF9274
:103490000F931F93CF93DF938C01DC0152968C9195
:1034A0005297882309F47FC06D917D918D919C91F5
:1034B0000E9487200E943D1F3B01F8012481358135
:1034C00046815781643571050CF06DC0D801509666
:1034D0008C91C82FD0E0CE01860D971D18161906C5
:1034E0000CF061C0CA01B9010E9487200E943D1FF3
:1034F0004B01603371050CF056C0F80181899401CD
:10350000280F311D121613060CF04DC057E0A52EE2
:10351000B12CAC0EBD1E43E0B594A7944A95E1F7DB
:10352000EE24FF24CC24DD2437E0232E312C30C0C0
:10353000CE0123E0959587952A95E1F7D80153961A
:10354000ED91FC915497EC0DFD1DE80FF91F4081A2
:1035500050E0CE0187709070F101E81BF90B02C0BA
:1035600055954795EA95E2F741709E01260D822F09
:10357000652D0E9495172196D80150968C9190E068
:10358000C817D907ACF20894E11CF11CCA0CDB1C6B
:10359000F801818990E0E816F9062CF4C0E0D0E04B
:1035A0005E2C580CE9CFDF91CF911F910F91FF90C6
:1035B000EF90DF90CF90BF90AF909F908F907F90D3
:1035C0006F905F903F902F900895A1E1B0E0EBEEF7
:1035D000FAE10C94E3203C017F876E876A01FC01CD
:1035E00017821682838181FD03C06FEF7FEF6FC367
:1035F0009E012F5F3F4F398B288BF3012381EE858E
:10360000FF8523FD859123FF8191FF87EE87882326
:1036100009F45AC3853251F4EE85FF8523FD859167
:1036200023FF8191FF87EE87853229F490E0B30173
:103630000E948223E2CF982F10E088249924103230
:10364000B0F49B3269F09C3228F4903251F09332FE
:1036500071F40BC09D3239F0903349F4116028C0E9
:103660001260146025C0186023C0106121C017FDCE
:103670002AC0892F80538A3078F416FF06C0FAE0FA
:103680009F9E902C1124980E13C03AE0839E802CAC
:103690001124880E10620CC09E3221F416FD14C352
:1036A000106406C09C3611F4106802C0983659F4B4
:1036B000EE85FF8523FD959123FF9191FF87EE878E
:1036C000992309F0BCCF892F8554833020F4812FB2
:1036D0008061905E07C0892F8556833008F09FC1B6
:1036E000812F8F7E86FD02C076E0972E6FE3F62E47
:1036F000F822953619F4F0E4FF2A07C0963619F43B
:1037000020E8F22A02C091109A94F7FE0AC03BE327
:10371000391518F45CE3B52E02C0B92CB39427E038
:1037200009C047E0491520F4BB2447E0942EF7CFA9
:10373000292DBB24C60104969D878C87F6016081E4
:10374000718182819381AE014F5F5F4F0B2D0E948B
:1037500094226C010981202E332400FF04C003FD54
:1037600002C01DE209C0F1FE02C01BE205C0F2FC6E
:1037700002C010E001C010E2C1018C709070892B72
:10378000B9F1112311F483E001C084E0881510F031
:1037900088240AC0881AF3FC07C080E290E0B301D5
:1037A0000E9482238A94C9F7112329F0812F90E087
:1037B000B3010E94822323FE03C007ED13E00EC075
:1037C0000BED13E00BC0E114F10409F0805290E01E
:1037D000B3010E9482230F5F1F4F05C0EF2CFF240F
:1037E000F0E1EF22FF24F8018491882361F714C1EE
:1037F000F7FE12C0BC0C24FE04C08A81813309F498
:10380000BA941B141CF0BB24B3942DC0F8E0FB1534
:1038100050F538E0B32E27C0F6FC25C0892D90E086
:103820008C159D054CF02CEFC2162FEFD20624F01C
:1038300030E8F32A01C09A94992049F0E2E0F0E0E0
:10384000EC0FFD1FE90DF11D80818033A1F3F7FE20
:103850000AC0B92CB394892D90E0C816D90614F08B
:10386000992401C09C18F7FC03C025E030E009C092
:103870001C141D041CF021E030E003C096012F5FF2
:103880003F4F112311F02F5F3F4F992029F0892DD1
:1038900090E00196280F391F882D90E028173907EE
:1038A00014F0882401C0821A4F2C5524C20189705B
:1038B0009070892B39F008C080E290E0B3010E943B
:1038C00082238A948820C1F7112329F0812F90E068
:1038D000B3010E94822343FE07C008C080E390E04A
:1038E000B3010E9482238A948820C1F7F7FE46C064
:1038F0008601D7FE02C000E010E076010894E11CCA
:10390000F11CE01AF10A41E050E04C0F5D1FE40E9B
:10391000F51E26014B185108892D90E0AA24BB24DE
:10392000A81AB90A5FEF0F3F150729F48EE290E05D
:10393000B3010E948223C016D10634F0401651060E
:103940001CF4F701808101C080E30150104008940D
:10395000E11CF11C0A151B052CF090E0B3010E943C
:103960008223E0CF0C151D0539F49A81963318F4A3
:10397000953311F424FE81E390E04BC08A818133BA
:1039800009F00F7E90E0B3010E9482239920A1F0FC
:103990008EE290E0B3010E94822312E0E1E0F0E0C9
:1039A000EC0FFD1FE10FF11D1F5F808190E0B3015F
:1039B0000E9482239A9491F744FC03C085E690E02C
:1039C00002C085E490E0B3010E948223D7FC05C0C9
:1039D000C114D10441F404FF06C0D094C194D108AD
:1039E000D3948DE201C08BE290E0B3010E94822368
:1039F00080E305C08F5F26EF3FEFC20ED31E3AE093
:103A0000C316D104BCF790E0B3010E948223C60123
:103A1000C096B3010E948223CC84DD8452C19336C8
:103A200031F0933799F0933509F059C023C0F6016E
:103A3000808189835E010894A11CB11C22E030E0E2
:103A4000C20ED31E21E0E22EF12C12C0F601A0809E
:103A5000B18016FD03C06FEF7FEF02C0692D70E0EB
:103A600022E030E0C20ED31EC5010E9477237C0104
:103A70001F7713C0F601A080B18016FD03C06FEF61
:103A80007FEF02C0692D70E022E030E0C20ED31E4D
:103A9000C5010E946C237C01106813FF07C01BC086
:103AA00080E290E0B3010E9482238A94882D90E006
:103AB000E816F906A8F30FC0F50117FD859117FF69
:103AC00081915F0190E0B3010E94822381108A946A
:103AD0000894E108F108E114F10471F7F2C094369A
:103AE00011F0993689F517FF08C0F6012081318160
:103AF0004281538184E090E00AC0F6018081918187
:103B00009C01442737FD4095542F82E090E0C80E79
:103B1000D91E9FE6F92EF12257FF09C05095409516
:103B2000309521953F4F4F4F5F4F90E8F92ACA01DA
:103B3000B901AE014F5F5F4F2AE030E00E940324DD
:103B4000E82EE889EE1A41C0953721F41F7E2AE05D
:103B500030E01CC0197F9F3661F0903720F4983513
:103B600009F0B2C00FC0903739F0983709F0ACC0F7
:103B700004C028E030E00AC0106114FD146020E1A8
:103B800030E004C014FD166020E132E017FF08C0E9
:103B9000F601608171818281938144E050E008C028
:103BA000F60180819181BC0180E090E042E050E02C
:103BB000C40ED51EAE014F5F5F4F0E940324E82E56
:103BC0005889E51A8FE7F82EF122F6FE0BC08EEF2A
:103BD000F822E91438F4F4FE07C0F2FC05C09FEEA9
:103BE000F92202C01E2D01C0192DF4FE0DC0FE01E8
:103BF000EE0DF11D8081803319F4E9EEFE2208C03C
:103C00001F5FF2FE05C003C08F2D867809F01F5F8D
:103C10000F2DF3FC14C0F0FE0FC0181510F09E2CF1
:103C20000BC09E2C980C911A182D06C080E290E0D3
:103C3000B3010E9482231F5F1815C0F304C018153A
:103C400010F4811A01C0882404FF0FC080E390E0C3
:103C5000B3010E94822302FF1DC001FD03C088E75B
:103C600090E00EC088E590E00BC0802F867891F040
:103C700001FF02C08BE201C080E2F7FC8DE290E020
:103C8000B3010E94822306C080E390E0B3010E944A
:103C900082239A94E914C0F3EA94E1E0F0E0EC0F97
:103CA000FD1FEE0DF11D808190E0B3010E94822383
:103CB000EE2091F706C080E290E0B3010E948223DB
:103CC0008A948820C1F799CCF30166817781CB0172
:103CD0006196E2E10C94FF205058BB27AA270ED032
:103CE00075C166D130F06BD120F031F49F3F11F4F3
:103CF0001EF45BC10EF4E095E7FB51C1E92F77D1CB
:103D000080F3BA17620773078407950718F071F4F8
:103D10009EF58FC10EF4E0950B2EBA2FA02D0B014E
:103D2000B90190010C01CA01A0011124FF27591B00
:103D300099F0593F50F4503E68F11A16F040A22F06
:103D4000232F342F4427585FF3CF46953795279577
:103D5000A795F0405395C9F77EF41F16BA0B620B76
:103D6000730B840BBAF09150A1F0FF0FBB1F661FBD
:103D7000771F881FC2F70EC0BA0F621F731F841F00
:103D800048F4879577956795B795F7959E3F08F026
:103D9000B3CF9395880F08F09927EE0F97958795E5
:103DA0000895D9D008F481E008950CD00FC107D14F
:103DB00040F0FED030F021F45F3F19F0F0C0511117
:103DC00039C1F3C014D198F39923C9F35523B1F342
:103DD000951B550BBB27AA2762177307840738F07A
:103DE0009F5F5F4F220F331F441FAA1FA9F333D0D9
:103DF0000E2E3AF0E0E830D091505040E695001C8D
:103E0000CAF729D0FE2F27D0660F771F881FBB1F48
:103E1000261737074807AB07B0E809F0BB0B802D22
:103E2000BF01FF2793585F4F2AF09E3F510568F06E
:103E3000B6C000C15F3FECF3983EDCF38695779502
:103E40006795B795F7959F5FC9F7880F911D969570
:103E5000879597F90895E1E0660F771F881FBB1FCC
:103E6000621773078407BA0720F0621B730B840B79
:103E7000BA0BEE1F88F7E095089504D06894B1114D
:103E8000D9C00895BCD088F09F5790F0B92F9927DA
:103E9000B751A0F0D1F0660F771F881F991F1AF055
:103EA000BA95C9F712C0B13081F0C3D0B1E008951E
:103EB000C0C0672F782F8827B85F39F0B93FCCF39F
:103EC000869577956795B395D9F73EF4909580954B
:103ED000709561957F4F8F4F9F4F0895E89409C06B
:103EE00097FB3EF490958095709561957F4F8F4F2D
:103EF0009F4F9923A9F0F92F96E9BB279395F69543
:103F0000879577956795B795F111F8CFFAF4BB0FC0
:103F100011F460FF1BC06F5F7F4F8F4F9F4F16C024
:103F2000882311F096E911C0772321F09EE8872FAE
:103F3000762F05C0662371F096E8862F70E060E06A
:103F40002AF09A95660F771F881FDAF7880F9695E3
:103F5000879597F90895990F0008550FAA0BE0E887
:103F6000FEEF16161706E807F907C0F0121613063B
:103F7000E407F50798F0621B730B840B950B39F47B
:103F80000A2661F0232B242B252B21F408950A26E1
:103F900009F4A140A6958FEF811D811D089597F921
:103FA0009F6780E870E060E008959FEF80EC0895DF
:103FB00000240A9416161706180609060895002408
:103FC0000A9412161306140605060895092E039482
:103FD000000C11F4882352F0BB0F40F4BF2B11F4F6
:103FE00060FF04C06F5F7F4F8F4F9F4F089557FD55
:103FF0009058440F551F59F05F3F71F04795880F57
:1040000097FB991F61F09F3F79F0879508951216ED
:1040100013061406551FF2CF4695F1DF08C0161699
:1040200017061806991FF1CF86957105610508944A
:104030000895E894BB2766277727CB0197F9089561
:104040008ADF08F48FEF08950BD0C0CFB1DF28F0DE
:10405000B6DF18F0952309F0A2CFA7CF1124EACF3D
:10406000C6DFA0F3959FD1F3950F50E0551F629FD7
:10407000F001729FBB27F00DB11D639FAA27F00DC1
:10408000B11DAA1F649F6627B00DA11D661F829FE8
:104090002227B00DA11D621F739FB00DA11D621FCD
:1040A000839FA00D611D221F749F3327A00D611DEA
:1040B000231F849F600D211D822F762F6A2F1124CC
:1040C0009F5750408AF0E1F088234AF0EE0FFF1F1F
:1040D000BB1F661F771F881F91505040A9F79E3F56
:1040E000510570F05CCFA6CF5F3FECF3983EDCF358
:1040F000869577956795B795F795E7959F5FC1F793
:10410000FE2B880F911D9695879597F9089577DF77
:10411000E0F09E37D8F09639B8F49E3848F4672F0F
:10412000782F8827985FF9CF86957795679593952F
:104130009539D0F3B62FB1706B0F711D811D20F42E
:10414000879577956795939502C01CC073CF882398
:1041500071F4772321F09850872B762F07C06623C0
:1041600011F499270DC09051862B70E060E02AF081
:104170009A95660F771F881FDAF7880F96958795AF
:1041800097F908959F3F31F0915020F487957795E6
:104190006795B795880F911D9695879597F908951E
:1041A00097FB092E07260AD077FD04D043D006D00E
:1041B00000201AF4709561957F4F0895F6F7909559
:1041C00081959F4F08952F923F924F925F926F92E9
:1041D0007F928F929F92AF92BF92CF92DF92EF9297
:1041E000FF920F931F93CF93DF93CDB7DEB7CA1B18
:1041F000DB0B0FB6F894DEBF0FBECDBF09942A8843
:10420000398848885F846E847D848C849B84AA84EA
:10421000B984C884DF80EE80FD800C811B81AA8177
:10422000B981CE0FD11D0FB6F894DEBF0FBECDBF42
:10423000ED010895AA1BBB1B51E107C0AA1FBB1FBC
:10424000A617B70710F0A61BB70B881F991F5A9522
:10425000A9F780959095BC01CD010895CF93DF9388
:10426000BC018230910510F462E070E0A091170863
:10427000B0911808ED01E0E0F0E040E050E021C02E
:10428000888199818617970769F48A819B81309785
:1042900019F09383828304C09093180880931708C1
:1042A000FE0134C06817790738F44115510519F03B
:1042B0008417950708F4AC01FE018A819B819C015B
:1042C000E9012097E9F641155105A9F1CA01861BBC
:1042D000970B049708F4BA01E0E0F0E02AC08D9152
:1042E0009C91119784179507F9F46417750781F469
:1042F00012968D919C911397309719F09383828336
:1043000004C09093180880931708FD0132964FC09F
:10431000CA01861B970BFD01E80FF91F619371938A
:1043200002978D939C9343C0FD01828193819C01F0
:10433000D9011097A1F68091150890911608892B44
:1043400041F4809142049091430490931608809325
:10435000150840914404509145044115510541F41C
:104360004DB75EB78091400490914104481B590BB2
:10437000209115083091160824173507B0F4CA01AA
:10438000821B930B8617970780F0AB014E5F5F4F40
:104390008417950750F0420F531F5093160840930F
:1043A0001508F9016193719302C0E0E0F0E0CF01DC
:1043B000DF91CF910895CF93DF93009709F450C018
:1043C000EC0122971B821A82A0911708B09118085D
:1043D000109709F140E050E0AC17BD0708F1BB832E
:1043E000AA83FE0121913191E20FF31FAE17BF079F
:1043F00079F48D919C911197280F391F2E5F3F4FB3
:104400003983288312968D919C9113979B838A837D
:104410004115510571F4D0931808C093170820C0B6
:1044200012968D919C911397AD01009711F0DC01CC
:10443000D3CFFA01D383C28321913191E20FF31FCD
:10444000CE17DF0769F488819981280F391F2E5F05
:104450003F4FFA01318320838A819B81938382833A
:10446000DF91CF910895A0E0B0E0E9E3F2E20C948F
:10447000EB20EC01A880B980CA80DB80A114B104D4
:10448000C104D10441F484E2A82E89EDB82E8BE555
:10449000C82E87E0D82EC601B5012DE133EF41E0EB
:1044A00050E00E94802427EA31E440E050E00E947E
:1044B00061247B018C01C601B5012DE133EF41E0A0
:1044C00050E00E948024CA01B9012CEE34EF4FEF76
:1044D0005FEF0E9461246E0D7F1D801F911F97FF6B
:1044E00004C06150704080409048688379838A831B
:1044F0009B839B013F77C901CDB7DEB7EAE00C94FF
:1045000007210E943322089586E494E00E9433221A
:104510000895A0E0B0E08093460490934704A093F0
:104520004804B09349040895283008F027E0332761
:10453000DA01990F311D87FD9160009661057105C3
:1045400039F432602E5F3D9330E32A95E1F7089508
:104550009F3F30F080387105610509F03C5F3C5F9A
:104560003D93913008F08068911DDF93CF931F93A6
:104570000F93FF92EF92192F987F9695E92F9695BA
:104580009695E90FFF27E75CFB4F99273327EE2429
:10459000FF24A701E70105900894079428F4360F3B
:1045A000E71EF81E491F511D660F771F881F991FB0
:1045B0000694A1F70590079428F4E70EF81E491F0A
:1045C000561FC11D770F881F991F661F0694A1F7FC
:1045D0000590079428F4F80E491F561FC71FD11DD8
:1045E000880F991F661F771F0694A1F705900794FF
:1045F00020F4490F561FC71FD81F990F661F771F3A
:10460000881F0694A9F784911095177041F0D695EC
:10461000C79557954795F794E7941A95C1F7EFED2D
:10462000F3E06894159015913591659195910590F9
:104630007FE27395E118F10A430B560BC90BD009C1
:10464000C0F7E10CF11E431F561FC91FD01D7EF499
:10465000703311F48A95E6CFE894015030F0080FDA
:104660000AF40027021708F4202F2395022F7A332B
:1046700028F079E37D932A95E9F710C07D932A9578
:1046800089F6069497956795379517951794E118CD
:10469000F10A430B560BC90BD00998F023957E9174
:1046A00073957A3308F070E37C932013B8F77E910A
:1046B00070617D9330F0839571E37D9370E32A956B
:1046C000E1F71124EF90FF900F911F91CF91DF91AF
:1046D000992787FD90950895FC01059061507040E1
:1046E0000110D8F7809590958E0F9F1F0895FC01BB
:1046F0006150704001900110D8F7809590958E0F11
:104700009F1F08950F931F93CF93DF938C01EB01AD
:104710008B8181FF1BC082FF0DC02E813F818C8168
:104720009D812817390764F4E881F9810193F983A1
:10473000E88306C0E885F985802F0995892B31F437
:104740008E819F8101969F838E8302C00FEF1FEFA2
:10475000C801DF91CF911F910F910895AEE0B0E0B5
:10476000E4EBF3E20C94F1200D891E898F89988D7A
:1047700097FF02C080E090E801979E838D831A83A3
:10478000098386E08C839E01255E3F4FCE01019612
:10479000698D7A8DA9010E94E51A4D815E8157FDD0
:1047A0000AC02F813885421753070CF49A01020F73
:1047B000131FF80110822E96E4E00C940D21AEE058
:1047C000B0E0E5EEF3E20C94F1200D891E8986E05D
:1047D0008C831A8309838FEF9FE79E838D839E01CD
:1047E000275E3F4FCE0101966F89788DA9010E9407
:1047F000E51A2F813885020F131FF80110822E96BB
:10480000E4E00C940D21FA01AA27283051F120315F
:1048100081F1E8946F936E7F6E5F7F4F8F4F9F4F54
:10482000AF4FB1E03ED0B4E03CD0670F781F891F96
:104830009A1FA11D680F791F8A1F911DA11D6A0F64
:10484000711D811D911DA11D20D009F468943F9117
:104850002AE0269F11243019305D3193DEF6CF0116
:104860000895462F4770405D4193B3E00FD0C9F7DC
:10487000F6CF462F4F70405D4A3318F0495D31FD49
:104880004052419302D0A9F7EACFB4E0A69597959C
:10489000879577956795BA95C9F700976105710572
:1048A00008959B01AC010A2E0694579547953795BC
:1048B0002795BA95C9F7620F731F841F951FA01D16
:1048C0000895629FD001739FF001829FE00DF11D5A
:1048D000649FE00DF11D929FF00D839FF00D749F7A
:1048E000F00D659FF00D9927729FB00DE11DF91F26
:1048F000639FB00DE11DF91FBD01CF011124089583
:1049000097FB092E05260ED057FD04D014D00AD0EF
:10491000001C38F450954095309521953F4F4F4FEE
:104920005F4F0895F6F790958095709561957F4F4C
:104930008F4F9F4F0895A1E21A2EAA1BBB1BFD01AA
:104940000DC0AA1FBB1FEE1FFF1FA217B307E4076E
:10495000F50720F0A21BB30BE40BF50B661F771FC6
:10496000881F991F1A9469F76095709580959095A6
:0E4970009B01AC01BD01CF010895F894FFCF6B
:10497E0025640053636F72653A20004C6976657347
:10498E003A2000466C6F6F723A200054696D653A9A
:10499E0020003A004C6F6164696E672E2E2E004720
:1049AE00414D45204F564552006E39393031393917
:1049BE0030004A6961205368656E672043686F6EE8
:1049CE0067002566000D0A54686520706C61796574
:1049DE0072207069636B656420757020612074723B
:1049EE00656173757265000D0A54686520706C619F
:1049FE007965722068617320746865206B65792112
:104A0E00000D0A54686520706C61796572207573AB
:104A1E00657320746865206B657920746F207468E7
:104A2E0065206E65787420666C6F6F72000D0A508B
:104A3E006C61796572207069636B65642075702096
:104A4E0074686520736869656C64000D0A54686546
:104A5E0020706C6179657220776173206B696C6C64
:104A6E00656420627920746865206D6F6E7374655D
:104A7E0072000D0A54686520706C61796572206B46
:104A8E00696C6C65642061206D6F736E7465722045
:104A9E0077697468206120736869656C6421000D04
:104AAE000A25643A2564256400207C2053636F72C6
:104ABE00653A2000207C20466C6F6F723A200020F1
:104ACE007C204C697665733A2000436F6E6E656389
:104ADE00742053657269616C0057656C636F6D6508
:104AEE000053657269616C20636F6E6E65637465E9
:104AFE00640003020084022838283800FEAA3828F1
:104B0E00287F00FF00FF00FF01FE410081008100B1
:104B1E0081008241FF81FF81FF81FF824000000002
:104B2E0000000000024000000000000000024000F3
:104B3E007C007E007C0002600044004200440006BF
:104B4E0060004400420044000640007C007E007C71
:104B5E0000024000000000000000024000000000C3
:104B6E0000000002400000000000000002400000B3
:104B7E000000000000026000000000000000063887
:104B8E000000003C0000001C1C000000C3000000E0
:104B9E00380700000100800000E001800001008065
:104BAE0000018000C00002004000030000700004FD
:104BBE000320000E00001E000403200078000001F8
:104BCE00E004002007800000003F040020FC0000ED
:104BDE00000007FC003FE00000003C0000C30001A5
:104BEE000080010080020040040320040320040022
:104BFE0020040020FC003F70F8A8F8F8A8E0BEEAF8
:104C0E002070F8F0F0F060FFFFFFFFFFFFFFFFFFE7
:104C1E00FFFFFFFFFFFFFFFFFFFFFFFFFFFFFFFF96
:104C2E00FFFFFFFFFFFFFFFFFFFFFFFFFFFFFFFF86
:104C3E00FFFFFFFFFFFFFFFFFFFFFFFFFFFFFFFF76
:104C4E00FFFFFFE0E0E0E0E0E0E0E0E0E0E0E0E0F9
:104C5E00E0E0E0E0E0E0E0E0E0E0E0E0E0E0E0E046
:104C6E00E0E0E0E0E0E0E0E0E0E0E0E0E0E0E0E036
:104C7E00E0E0E0E0E0E0E0E0E0E0E0E0E0E0E0E026
:104C8E00E0E0E0E0E0E0E0E0E0E0E0E0E0E0E0E016
:104C9E00E0E0E0E0E0E0E0E0E0E0E0E0E0E0E0E006
:104CAE00E0E0E0E0E0E0E0E0E000E100000000082D
:0A4CBE0020001908000001000000AA
:00000001FF
