:100000000C946D020C948A020C948A020C948A025D
:100010000C948A020C948A020C948A020C948A0230
:100020000C948A020C948A020C9436120C9471126D
:100030000C948A020C948A020C948A020C948A0210
:100040000C948A020C948A020C948A020C948A0200
:100050000C948A020C948A020C948A020C943F0E2F
:100060000C948A020C948A020C948A020C948A02E0
:100070000C948A020C948A020C948A020C948A02D0
:100080000C948A020C948A020C948A020C948A02C0
:100090000C948A020C948A020C948A020C948A02B0
:1000A0000C948A020C948A020C948A02CB11C81117
:1000B000C511C211BF11BC11B911B611B311B011E4
:1000C000AD11AA11A711A411A1119E119B11981194
:1000D000951192118F118C11891186118311801144
:1000E0007D117A117711741171116E116B116811F4
:1000F000651162115F115C115911561153115011A4
:100100004D114A114711441141113E113B11381153
:10011000351132112F112C11291126112311201103
:100120001D111A111711141111110E110B110001CB
:10013000000062011200020000740143000300008D
:10014000B7010401030904BB011402030904D1012E
:100150001603030904E9010C0001C11201803601F4
:1001600081361201000202000010C0167A0400015C
:100170000102030109024300020100C03209040028
:100180000001020201000524001001052401010103
:10019000042402060524060001070582031000401E
:1001A00009040100020A00000007050302400000E4
:1001B0000705840240000004030904140359006F7A
:1001C000007500720020004E0061006D00650000A7
:1001D00000160355005300420020005300650072D2
:1001E00000690061006C0000000C03310032003334
:1001F00000340035000000000000000000005F0037
:10020000000007000700147F147F14242A7F2A129D
:10021000231308646236495522500005030000008C
:100220001C2241000041221C0014083E081408084A
:100230003E08080050300000080808080800606008
:10024000000020100804023E5149453E00427F4014
:100250000042615149462141454B311814127F102B
:1002600027454545393C4A4949300171090503365E
:1002700049494936064949291E00363600000056CC
:1002800036000008142241001414141414004122F2
:1002900014080201510906324979413E7E111111BB
:1002A0007E7F494949363E414141227F4141221CDE
:1002B0007F494949417F090909013E4149497A7FFE
:1002C0000808087F00417F41002040413F017F082E
:1002D0001422417F404040407F020C027F7F04088F
:1002E000107F3E4141413E7F090909063E415121AF
:1002F0005E7F09192946464949493101017F0101BB
:100300003F4040403F1F2040201F3F4038403F6358
:100310001408146307087008076151494543007FBA
:1003200041410002040810200041417F0004020105
:100330000204404040404000010204002054545454
:10034000787F484444383844444420384444487F03
:100350003854545418087E0901020C5252523E7F00
:100360000804047800447D40002040443D007F1094
:1003700028440000417F40007C041804787C080475
:10038000047838444444387C1414140808141418AD
:100390007C7C080404084854545420043F44402002
:1003A0003C4040207C1C2040201C3C4030403C44D1
:1003B000281028440C5050503C4464544C440008CD
:1003C00036410000007F0000004136080010080898
:1003D000100878464146786E616E00696E660000CE
:1003E000407A10F35A00A0724E18090010A5D4E804
:1003F0000000E87648170000E40B54020000CA9A97
:100400003B000000E1F505000080969800000040E8
:10041000420F000000A0860100000010270000002D
:1004200000E803000000006400000000000A000073
:100430000000000100000000002C76D888DC674F27
:100440000823DFC1DFAE59E1B1B796E5E3E453C657
:100450003AE651997696E8E6C28426EB898C9B624F
:10046000ED407C6FFCEFBC9C9F40F2BAA56FA5F4F9
:1004700090055A2AF75C936B6CF9676DC11BFCE021
:10048000E40D47FEF520E6B500D0ED902E03009474
:100490003577050080841E080000204E0A00000009
:1004A000C80C333333330F986E12831141EF8D2113
:1004B00014893BE65516CFFEE6DB18D1844B381B7A
:1004C000F77C1D901DA4BBE424203284725E22813F
:1004D00000C9F124ECA1E53D270011241FBECFEF98
:1004E000DAE0DEBFCDBF13E0A0E0B1E0EEE0F1E482
:1004F00002C005900D92AE34B107D9F715E0AEE415
:10050000B3E001C01D92A838B107E1F70E94D30FF4
:100510000C9485200C9400000F931F93FC014087DE
:1005200051876287738704871587268737871F91CE
:100530000F910895CF93DF93EC01609381036C34A6
:1005400061F06D3420F4643409F056C040C0623567
:10055000B1F0653509F050C028C060918A0170E0A3
:10056000882777FD8095982F0E94BF1B9B01AC01C7
:10057000688179818A819B810E94BC1A11C0609137
:100580008A0170E0882777FD8095982F0E94BF1B15
:100590009B01AC01688179818A819B810E94BB1A91
:1005A000688379838A839B8327C060918A0170E086
:1005B000882777FD8095982F0E94BF1B9B01AC0177
:1005C0006C817D818E819F810E94BC1A11C06091D7
:1005D0008A0170E0882777FD8095982F0E94BF1BC5
:1005E0009B01AC016C817D818E819F810E94BB1A31
:1005F0006C837D838E839F83DF91CF9108951F93BA
:10060000182F8091610390916203009719F0612F78
:100610000E949A028091820390918303009719F0BF
:10062000612F0E949A0280915B0390915C03612F7D
:100630000E949A028091840390918503612F0E9409
:100640009A028091860390918703612F0E949A02FB
:1006500080915D0390915E03612F0E949A028091C8
:10066000650390916603612F0E949A02809188032E
:1006700090918903612F0E949A0280916B0390915F
:100680006C03612F0E949A021F910895809181034B
:100690008C3411F482E50DC0823511F48CE409C06C
:1006A000853511F484E405C0843411F485E501C076
:1006B00080E20E94FF020895EF92FF920F931F9332
:1006C000CF93DF93EC016C3461F06D3420F464342B
:1006D00009F06CC048C0623599F0653509F066C014
:1006E00033C0E884F9840A851B85C801B70120E07E
:1006F00030E040E050E00E946F1C18167CF015C0FE
:10070000E884F9840A851B85C801B70120E030E040
:1007100040E050E00E94201B88233CF4D801C70130
:10072000B05888879987AA87BB87688179818A8131
:100730009B81288539854A855B850E94BC1A688320
:1007400079838A839B8332C0EC84FD840E851F8568
:10075000C801B70120E030E040E050E00E946F1C8B
:1007600018167CF015C0EC84FD840E851F85C80129
:10077000B70120E030E040E050E00E94201B8823D9
:100780003CF4D801C701B0588C879D87AE87BF87DE
:100790006C817D818E819F812C853D854E855F8515
:1007A0000E94BC1A6C837D838E839F83DF91CF91DF
:1007B0001F910F91FF90EF900895FC01628B0895B7
:1007C000FC01828990E00895FC0120813181428101
:1007D0005381B901CA010895FC0124813581468104
:1007E0005781B901CA010895FC01208531854285F0
:1007F0005385B901CA010895FC01248535854685D4
:100800005785B901CA0108956F927F928F929F9286
:10081000AF92BF92CF92DF92EF92FF920F931F930E
:10082000CF93DF93FC01EB0182898823A1F1A4809F
:10083000B580C680D7806C807D808E809F806081EF
:100840007181828193810E948C1B7B018C01688164
:1008500079818A819B810E948C1BE616F7061CF425
:10086000CE016CE402C0CE0162E50E945C03C601C9
:10087000B5010E948C1B7B018C01C401B3010E9455
:100880008C1BE616F7061CF4CE0165E502C0CE010E
:1008900064E40E945C03DF91CF911F910F91FF9060
:1008A000EF90DF90CF90BF90AF909F908F907F9010
:1008B0006F900895EF92FF920F931F937C018B012D
:1008C000FB016089669570E0882777FD8095982FF9
:1008D0000E94BF1B9B01AC01F80160817181828184
:1008E00093810E94BB1A20E030E040E85FE30E9461
:1008F000BB1AF7016083718382839383F801618956
:10090000669570E0882777FD8095982F0E94BF1B21
:100910009B01AC01F80164817581868197810E94F9
:10092000BC1AF70164837583868397831F910F91A7
:10093000FF90EF900895FC0180890895FC01818962
:10094000089580E090E008952F923F924F925F9239
:100950006F927F928F929F92AF92BF92CF92DF92CF
:10096000EF92FF920F931F93DF93CF9300D000D0AD
:10097000CDB7DEB77C015A016B0118012901DC01FA
:100980006D917D918D919C910E94731C3B014C0156
:10099000D70114968D919D910D90BC91A02D8983C6
:1009A0009A83AB83BC83F701A082B182C282D382D7
:1009B000D70114962D923D924D925C921797C601E5
:1009C000B5010E94731C0E948C1B7B018C01C40129
:1009D000B3010E948C1BE616F706E9F4C201B101CF
:1009E0000E94731C7B018C0169817A818B819C81BF
:1009F0000E94731C5B016C0144245524C801B7019B
:100A00000E948C1B7B018C01C601B5010E948C1BCE
:100A1000E616F70619F081E0482E512CC2010F901E
:100A20000F900F900F90CF91DF911F910F91FF903A
:100A3000EF90DF90CF90BF90AF909F908F907F907E
:100A40006F905F904F903F902F9008954F925F92DC
:100A50006F927F928F929F92AF92BF92CF92DF92CE
:100A6000EF92FF920F931F93DF93CF9300D000D0AC
:100A7000CDB7DEB76C01DC01ED90FD900D911C91BE
:100A8000C801B7010E94731C4B015C01D60114968A
:100A90008D919D910D90BC91A02D89839A83AB83FC
:100AA000BC83C801B701F601208531854285538595
:100AB0000E94BB1A7B018C01D6016D937D938D93AF
:100AC0009C93139769817A818B819C811C962D91CF
:100AD0003D914D915C911F970E94BB1A2B013C01E7
:100AE000CB01D301F60184839583A683B783C80124
:100AF000B7010E94731C0E948C1B7B018C01C501F5
:100B0000B4010E948C1BE616F706E9F4B201C3019A
:100B10000E94731C7B018C0169817A818B819C818D
:100B20000E94731C5B016C0166247724C801B70125
:100B30000E948C1B7B018C01C601B5010E948C1B9D
:100B4000E616F70619F091E0692E712CC3010F909B
:100B50000F900F900F90CF91DF911F910F91FF9009
:100B6000EF90DF90CF90BF90AF909F908F907F904D
:100B70006F905F904F9008958F929F92AF92BF9227
:100B8000CF92DF92EF92FF920F931F93CF93DF9359
:100B90008C015B01FC0160817181828193810E94E3
:100BA000731C0E948C1B6B01F80164817581868126
:100BB00097810E94731C0E948C1B7B01F501608150
:100BC0007181828193810E94731C0E948C1B4B0156
:100BD000F50164817581868197810E94731C0E9452
:100BE0008C1BF50120898189AB01480F511DE4164A
:100BF000F5061CF0C0E0D0E00AC0C0E0D0E0C401BF
:100C0000820F911DC816D90614F4C1E0D0E0F80196
:100C10008089C80ED11C8C149D0414F0C0E0D0E073
:100C2000F8018189E80EF11C6E157F051CF0C0E00B
:100C3000D0E01CC02097D1F080918403909185036F
:100C4000A816B90699F08091670390916803081778
:100C5000190711F40E94460380915B0390915C0395
:100C60000817190719F4C8010E942605CE01DF9163
:100C7000CF911F910F91FF90EF90DF90CF90BF9099
:100C8000AF909F908F900895FC01128A80E090E0D1
:100C90000E94C71D08952F923F924F925F926F92CC
:100CA0007F928F929F92AF92BF92CF92DF92EF92FC
:100CB000FF920F931F93DF93CF9300D00F92CDB786
:100CC000DEB74B015C0129013A01F02EE9821601E1
:100CD00085E190E00E941A1D8A839B838A819B8113
:100CE000009749F0B501A40193018201EF2CC9805E
:100CF00051010E9462168A819B810F900F900F9084
:100D0000CF91DF911F910F91FF90EF90DF90CF90E7
:100D1000BF90AF909F908F907F906F905F904F901B
:100D20003F902F900895DF92EF92FF920F931F93C1
:100D3000F82EE62ED22E8DB79EB708970FB6F894F0
:100D40009EBF0FBE8DBFEDB7FEB731960DE613E027
:100D5000ADB7BEB712961C930E93119784E190E045
:100D60009383828380E091E09583848357834683D5
:100D70000E949A1F8DB79EB708960FB6F8949EBF33
:100D80000FBE8DBF8F2D6E2DA8012D2D0E94C01579
:100D90001F910F91FF90EF90DF90089585E060E044
:100DA00043E051E021E00E94C01540914F03509173
:100DB000500388E260E021E00E94930685E06AE04B
:100DC0004BE051E021E00E94C0154091890188E28A
:100DD0006AE050E021E00E94930685E064E143E18F
:100DE00051E021E00E94C01540914E0350E0415077
:100DF000504088E264E121E00E949306E09167039D
:100E0000F091680360817181828193810E948C1BC3
:100E10009B01AC0185E06EE1A90121E00E949306EF
:100E2000E0916703F0916803648175818681978101
:100E30000E948C1B9B01AC0184E16EE1A90121E0C1
:100E40000E949306E0915D03F0915E0360817181E1
:100E5000828193810E948C1B9B01AC0185E068E23A
:100E6000A90121E00E949306E0915D03F0915E03E9
:100E700064817581868197810E948C1B9B01AC01E6
:100E800084E168E2A90121E00E9493066091670372
:100E90007091680380915D0390915E030E94BC0590
:100EA000892B19F44BE151E002C041E251E088E2A4
:100EB00068E221E00E94C01508950E94DC138FE0D3
:100EC0006AE046E251E021E00E94C0158FE064E153
:100ED00043E151E021E00E94C01540914E0384E3BC
:100EE00064E150E021E00E9493060E94E01580EF4B
:100EF00095E528EC30E0F9013197F1F70197D9F742
:100F00000895CF92DF92EF92FF920F931F930E946A
:100F1000DC130E945D0780914F03909150038C5920
:100F20009F4F9093500380934F0380914E038F5FA8
:100F300080934E03E0918203F0918303309729F070
:100F4000128A80E090E00E94C71DE0915B03F0915F
:100F50005C03128A80E090E00E94C71DE091840348
:100F6000F0918503128A80E090E00E94C71DE09115
:100F70008603F0918703128A80E090E00E94C71DEB
:100F8000E0916703F0916803128A80E090E00E948C
:100F9000C71D0E94701E64E570E00E94BC1C809317
:100FA0008A030E94701E60E370E00E94BC1C809364
:100FB00060030E94701E64E570E00E94BC1C809378
:100FC00063030E94701E60E370E00E94BC1C80936B
:100FD0005F030E94701E64E570E00E94BC1C809359
:100FE0008B030E94701E60E370E00E94BC1C809323
:100FF00069030E94701E64E570E00E94BC1C80932F
:1010000064030E94701E60E370E00E94BC1C809329
:101010006A0360918A0370E080E090E00E94BD1B4B
:101020007B018C016091600370E080E090E00E94A1
:10103000BD1B9B01AC01C801B70108E1ACE0EA2E81
:10104000F0E7CF2EF2E0DF2E0E944B06909387034D
:10105000809386036091630370E080E090E00E94DB
:10106000BD1B7B018C0160915F0370E080E090E02C
:101070000E94BD1B9B01AC01C801B70105E0E6E081
:10108000EE2E1EE8C12E12E0D12E0E944B06909348
:101090005C0380935B0360918B0370E080E090E0E1
:1010A0000E94BD1B7B018C016091690370E080E0B0
:1010B00090E00E94BD1B9B01AC01C801B70107E095
:1010C000B3E0EB2EA4E9CA2EA2E0DA2E0E944B0672
:1010D00090938503809384036091640370E080E0C3
:1010E00090E00E94BD1B7B018C0160916A0370E05F
:1010F00080E090E00E94BD1B9B01AC01C801B701DC
:1011000005E0F3E0EF2EE7E9CE2EE2E0DE2E0E94CE
:101110004B06909383038093820360E070E088E243
:1011200092E420E030E040EC51E407E01AE0E12EE8
:10113000BEE8CB2EB1E0DB2E0E944B0690936803F5
:1011400080936703E0915D03F0915E03128A80E073
:1011500090E00E94C71DE0916503F0916603128A3A
:1011600080E090E00E94C71DE0918803F091890320
:10117000128A80E090E00E94C71DE0916B03F0911D
:101180006C03128A80E090E00E94C71D60E070E06E
:1011900080E292EC9B01AC0103E0A4E6EA2EF6EDBE
:1011A000CF2EF2E0DF2E0E944B0690935E038093D9
:1011B0005D0360E070E080E292EC9B01AC0100EA2C
:1011C000E3E0EE2E1AE9C12E12E0D12E0E944B066A
:1011D000909366038093650360E070E080EF92E493
:1011E00020E030E040E252EC03E0B4E6EB2EA6ED66
:1011F000CA2EA2E0DA2E0E944B06909389038093B8
:10120000880360E070E080E292EC20E030E040E7AC
:1012100052E400EAF3E0EF2EEAE9CE2EE2E0DE2E21
:101220000E944B0690936C0380936B03E0915B03E9
:10123000F0915C0380E090E0A0E0BFE380879187BD
:10124000A287B38784879587A687B7871F910F9159
:10125000FF90EF90DF90CF900895CF92DF92EF92C2
:101260000F931F930E94DC13E0916703F0916803D2
:10127000128A80E090E00E94C71DE0916103F09126
:101280006203128A80E090E00E94C71DE09186030D
:10129000F0918703128A80E090E00E94C71DE091E0
:1012A0005B03F0915C03128A80E090E00E94C71D0E
:1012B000E0918403F0918503128A80E090E00E941F
:1012C000C71D8FE060E041E351E021E00E94C015BE
:1012D00085E06AE043E051E021E00E94C0154091C2
:1012E0004F035091500388E26AE021E00E94930688
:1012F00085E064E143E151E021E00E94C0154091A6
:101300004E0350E04150504088E264E121E00E94E9
:10131000930660E070E088E292E420E030E040EC88
:1013200051E407E0EAE0EE2E1EE8C12E11E0D12ED6
:101330000E944B06909368038093670360E070E01F
:1013400080EC90E420E030E040E251EC08E4BAE1C7
:10135000EB2EA8E9CA2EA1E0DA2E0E944B0690934C
:1013600062038093610360E070E080EF91E420E02D
:1013700030E040EA50E408E1FCE0EF2EE0E7CE2E5A
:10138000E2E0DE2E0E944B06909387038093860353
:1013900060E070E080E992E420E030E040EA51E46F
:1013A00005E016E0E12EBEE8CB2EB2E0DB2E0E9477
:1013B0004B0690935C0380935B0360E070E080ECED
:1013C00090E420E030E040EA51E407E0A3E0EA2EB8
:1013D000F4E9CF2EF2E0DF2E0E944B0690938503B6
:1013E0008093840360E070E080E292EC9B01AC01AA
:1013F00003E0E4E6EE2E16EDC12E12E0D12E0E949F
:101400004B0690935E0380935D0360E070E080E2A2
:1014100092EC9B01AC0100EAB3E0EB2EAAE9CA2EE4
:10142000A2E0DA2E0E944B06909366038093650338
:1014300060E070E080EF92E420E030E040E252ECC7
:1014400003E0F4E6EF2EE6EDCE2EE2E0DE2E0E9483
:101450004B06909389038093880360E070E080E2FC
:1014600092EC20E030E040E752E400EA13E0E12EA5
:10147000BAE9CB2EB2E0DB2E0E944B0690936C03B0
:1014800080936B03009167031091680360918A0158
:1014900070E080E090E00E94BD1BF80160877187DA
:1014A000828793876487758786879787E0915B0338
:1014B000F0915C0380E090E0A0E0BFE3808791873B
:1014C000A287B38784879587A687B7871092500332
:1014D00010924F0383E08093890110924E030E9483
:1014E000E0157D9902C07E9BFCCF1F910F91EF907C
:1014F000DF90CF900895CF92DF92EF92FF920F93FB
:101500001F9380918901815080938901E0915D034F
:10151000F0915E03128A80E090E00E94C71DE09186
:101520006503F0916603128A80E090E00E94C71D77
:10153000E0918803F0918903128A80E090E00E9494
:10154000C71DE0916B03F0916C03128A80E090E07C
:101550000E94C71D80918901882311F40E942D09E2
:1015600080914E03813009F00AC1E0916703F09148
:101570006803128A80E090E00E94C71DE091610339
:10158000F0916203128A80E090E00E94C71DE09112
:101590008603F0918703128A80E090E00E94C71DC5
:1015A000E0915B03F0915C03128A80E090E00E947E
:1015B000C71DE0918403F0918503128A80E090E0DA
:1015C0000E94C71D60E070E088E292E420E030E015
:1015D00040EC51E407E0BAE0EB2EAEE8CA2EA1E001
:1015E000DA2E0E944B06909368038093670360E0B5
:1015F00070E080EC90E420E030E040E251EC08E460
:10160000FAE1EF2EE8E9CE2EE1E0DE2E0E944B0655
:10161000909362038093610360E070E080EF91E457
:1016200020E030E040EA50E408E11CE0E12EB0E7C1
:10163000CB2EB2E0DB2E0E944B0690938703809363
:10164000860360E070E080E992E420E030E040EA68
:1016500051E405E0A6E0EA2EFEE8CF2EF2E0DF2E10
:101660000E944B0690935C0380935B0360E070E004
:1016700080EC90E420E030E040EA51E407E0E3E071
:10168000EE2E14E9C12E12E0D12E0E944B0690934B
:1016900085038093840360E070E080E292EC9B011C
:1016A000AC0103E0B4E6EB2EA6EDCA2EA2E0DA2EE2
:1016B0000E944B0690935E0380935D0360E070E0B0
:1016C00080E292EC9B01AC0100EAF3E0EF2EEAE944
:1016D000CE2EE2E0DE2E0E944B06909366038093AE
:1016E000650360E070E080EF92E420E030E040E2EB
:1016F00052EC03E014E6E12EB6EDCB2EB2E0DB2E89
:101700000E944B06909389038093880360E070E009
:1017100080E292EC20E030E040E752E400EAA3E00F
:10172000EA2EFAE9CF2EF2E0DF2E0E944B069093CC
:101730006C0380936B0300916703109168036091C1
:101740008A0170E080E090E00E94BD1BF801608794
:101750007187828793876487758786879787E091EB
:101760005B03F0915C0380E090E0A0E0BFE3808742
:101770009187A287B38784879587A687B78780914B
:101780004E03823008F4E7C0E0916703F0916803EC
:10179000128A80E090E00E94C71DE0918203F091E0
:1017A0008303128A80E090E00E94C71DE0918603C7
:1017B000F0918703128A80E090E00E94C71DE091BB
:1017C0005B03F0915C03128A80E090E00E94C71DE9
:1017D000E0918403F0918503128A80E090E00E94FA
:1017E000C71D60918A0370E080E090E00E94BD1BFD
:1017F0007B018C016091600370E080E090E00E94CA
:10180000BD1B9B01AC01C801B70108E1ECE0EE2E65
:1018100010E7C12E12E0D12E0E944B069093870351
:10182000809386036091630370E080E090E00E9403
:10183000BD1B7B018C0160915F0370E080E090E054
:101840000E94BD1B9B01AC01C801B70105E0B6E0D9
:10185000EB2EAEE8CA2EA2E0DA2E0E944B06909341
:101860005C0380935B0360918B0370E080E090E009
:101870000E94BD1B7B018C016091690370E080E0D8
:1018800090E00E94BD1B9B01AC01C801B70107E0BD
:10189000F3E0EF2EE4E9CE2EE2E0DE2E0E944B06CE
:1018A00090938503809384036091640370E080E0EB
:1018B00090E00E94BD1B7B018C0160916A0370E087
:1018C00080E090E00E94BD1B9B01AC01C801B70104
:1018D00005E013E0E12EB7E9CB2EB2E0DB2E0E944B
:1018E0004B06909383038093820360E070E088E26C
:1018F00092E420E030E040EC51E407E0AAE0EA2E78
:10190000FEE8CF2EF1E0DF2E0E944B068C01909373
:1019100068038093670360918A0170E080E090E043
:101920000E94BD1BF8016087718782879387648757
:10193000758786879787E0915B03F0915C0380E071
:1019400090E0A0E0BFE380879187A287B387848778
:101950009587A687B7871F910F91FF90EF90DF9033
:10196000CF9008950E94DC138FB182958695877081
:1019700080FD07C08FB1829586958695837080FF24
:1019800008C080914E03882321F481E080934E03A8
:10199000089580914E03882379F484E166E14BE356
:1019A00051E021E00E94C01586E06AE044E451E085
:1019B00021E00E94C01517C1189B03C00E94CE06EB
:1019C00012C183B1869580FF02C08CE40DC01F9BBD
:1019D00002C084E409C0489B02C082E505C089B109
:1019E000869580FF05C085E5809381030E94FF02F4
:1019F00080915D0390915E030E948A168091650339
:101A0000909166030E948A168091880390918903C1
:101A10000E948A1680916B0390916C030E948A1633
:101A200080916703909168030E948A1680918603D3
:101A3000909187030E948A1680915B0390915C03CA
:101A40000E948A1680918403909185030E948A16D1
:101A500060915B0370915C038091670390916803D0
:101A60000E94040480914E038130D1F4809161037F
:101A7000909162030E948A166091610370916203E3
:101A800080916703909168030E94BC056091610397
:101A90007091620380915B0390915C030E94BC058E
:101AA00080914E03823090F160918603709187039C
:101AB00080915B0390915C030E94BC05E0918203DE
:101AC000F09183038289813009F5CF010E948A1643
:101AD0006091820370918303809167039091680302
:101AE0000E94BC05892B91F0E0918203F091830361
:101AF000128A80E090E00E94C71D80914F03909170
:101B000050030A969093500380934F0360915B03B8
:101B100070915C0380916703909168030E94BC05FB
:101B2000892B59F0E0916703F0916803128A80E0F5
:101B300090E00E94C71D0E947B0A6091840370910F
:101B4000850380916703909168030E94BC05892BEF
:101B5000C1F0609167037091680380918403909154
:101B600085030E945A0460918603709187038091D7
:101B70006703909168030E94BC05892B11F00E94B5
:101B8000810760918603709187038091670390912C
:101B900068030E94BC0560915D0370915E038091B3
:101BA0006703909168030E94BC056091880370915F
:101BB000890380916703909168030E94BC0560913E
:101BC00065037091660380916703909168030E949A
:101BD000BC0560916B0370916C03809167039091D9
:101BE00068030E94BC050E94E0150895DF92EF9201
:101BF000FF920F931F93182FD62E8DB79EB70A977B
:101C00000FB6F8949EBF0FBE8DBFEDB7FEB73196ED
:101C10008DE6E82E83E0F82EADB7BEB71296FC92A3
:101C2000EE92119784E190E09383828384E591E0C2
:101C30009583848326833783408751870E949A1F28
:101C40008DB79EB70A960FB6F8949EBF0FBE8DBF94
:101C5000812F6D2DA701202F0E94C0151F910F917C
:101C6000FF90EF90DF900895DC010D900020E9F7E0
:101C70001197A81BB90BBD010E94BD1008951F92BA
:101C80000F920FB60F9211242F933F934F935F93B0
:101C90006F937F938F939F93AF93BF93EF93FF9334
:101CA00060915303709154038091550390915603B2
:101CB0002DEB37E346E05CE30E94BC1A60935303CC
:101CC00070935403809355039093560320E030E0C3
:101CD00040E85FE30E946F1C882334F180914E033B
:101CE000882321F087E591E00E94340E80E090E0A7
:101CF000A0E0B0E08093530390935403A093550366
:101D0000B09356032BB13BB12295269526952170B1
:101D100081E090E0821B910926E0880F991F2A95A7
:101D2000E1F73F7B382B3BB9FF91EF91BF91AF912A
:101D30009F918F917F916F915F914F913F912F91E3
:101D40000F900FBE0F901F90189585E06AE041E656
:101D500051E021E00E94C0150E94E0150E94EC0FA6
:101D600080E791E090938D0180938C010E94340E66
:101D70000E94DC1382E06AE048E751E021E00E9423
:101D8000C0150E94E01508958F929F92AF92BF9266
:101D9000CF92DF92EF920F931F933F9A479A569AF2
:101DA000E1E6F0E080E8808311E010838FE30E9499
:101DB00014160E94451685B5846085BD10936E008B
:101DC00078940E94A50E219827985098519885984C
:101DD000869820983F9A8FEA0E94141660E070E07F
:101DE00088E292E420E030E040EC51E407E01AE0C1
:101DF000E12EBEE8CB2EB1E0DB2E0E944B06909385
:101E000068038093670360E070E080EC90E420E07A
:101E100030E040E251EC08E4AAE1EA2EF8E9CF2EE6
:101E2000F1E0DF2E0E944B069093620380936103E2
:101E300060E070E080EF91E420E030E040EA50E4C0
:101E400008E1ECE0EE2E10E7C12E12E0D12E0E9448
:101E50004B06909387038093860360E070E080E9EF
:101E600092E420E030E040EA51E405E0B6E0EB2EF9
:101E7000AEE8CA2EA2E0DA2E0E944B0690935C03D5
:101E800080935B0360E070E080EC90E420E030E061
:101E900040EA51E407E0F3E0EF2EE4E9CE2EE2E081
:101EA000DE2E0E944B06909385038093840306EDFB
:101EB000802E02E0902E60E070E080E292EC9B01C8
:101EC000AC0103E014E6E12E64010E944B069093FE
:101ED0005E0380935D03BAE9AB2EB2E0BB2E60E0F7
:101EE00070E080E292EC9B01AC0100EAA3E0EA2EF4
:101EF00065010E944B06909366038093650360E042
:101F000070E080EF92E420E030E040E252EC03E049
:101F1000F4E6EF2E64010E944B06909389038093B0
:101F2000880360E070E080E292EC20E030E040E77F
:101F300052E400EAE3E0EE2E65010E944B06909326
:101F40006C0380936B0300916703109168036091A9
:101F50008A0170E080E090E00E94BD1BF80160877C
:101F60007187828793876487758786879787E091D3
:101F70005B03F0915C0380E090E0A0E0BFE380872A
:101F80009187A287B38784879587A687B7870E94A2
:101F9000E0151F910F91EF90DF90CF90BF90AF9021
:101FA0009F908F900895CF93DF930E94C40E80E19D
:101FB00097E228EC30E0F9013197F1F70197D9F772
:101FC000C8ECD0E00E94B20C88EE93E0FE0131979D
:101FD000F1F70197D9F7F6CF81E08093D70080EA37
:101FE0008093D80082E189BD09B400FEFDCF80E96D
:101FF0008093D8001092E00010925703109258037B
:102000008CE08093E20078940895809157030895BE
:102010002FB7F89480915703882369F083E0809369
:10202000E9009BE68091E80085FD09C082FF03C0BE
:102030009093E800F7CF2FBF2FEF3FEF0CC09091A8
:10204000F1008091E80085FD03C08BE68093E800F5
:102050002FBF292F30E0C90108952FB7F894809140
:102060005703882311F490E010C083E08093E900C7
:102070009091F200992349F48091E80082FF05C015
:1020800085FD03C08BE68093E8002FBF892F08955C
:1020900080915703882371F09FB7F89483E0809371
:1020A000E9002BE602C02093E8008091E80085FD5E
:1020B000FACF9FBF0895482F809157038823D9F105
:1020C0002FB7F89484E08093E90080915A03882325
:1020D00041F08091E80085FD02C02FBF12C0109230
:1020E0005A039091E400975E34E08091E80085FD0A
:1020F00013C02FBF8091E400891729F481E08093F9
:102100005A038FEF0895809157038823A1F02FB7CA
:10211000F8943093E900E9CF4093F1008091E80012
:1021200085FD03C08AE38093E80085E0809359032E
:102130002FBF80E008958FEF0895282F80915703D7
:10214000882351F09FB7F89484E08093E900809150
:10215000E80085FD03C09FBF8FEF08952093F10035
:102160008091E80085FD03C08AE38093E80085E064
:10217000809359039FBF80E00895CF93DF93EC01D4
:1021800080915703882309F41CC13FB7F89484E079
:102190008093E90080915A03882309F408C1809153
:1021A000E80085FD02C03FBF0CC110925A03FFC07A
:1021B0009091E400975E8091E80085FD13C03FBFD9
:1021C0008091E400891721F481E080935A03F9C0DB
:1021D00080915703882309F4F4C03FB7F894B09373
:1021E000E900E9CF8091F200242F281B822F90E094
:1021F0006817790708F4262F822F90E08134910523
:1022000008F0C6C08A5A9F4FFC01EE0FFF1F0590D1
:10221000F491E02D099489918093F1008991809344
:10222000F10089918093F10089918093F100899167
:102230008093F10089918093F10089918093F1005E
:1022400089918093F10089918093F1008991809325
:10225000F10089918093F10089918093F100899137
:102260008093F10089918093F10089918093F1002E
:1022700089918093F10089918093F10089918093F5
:10228000F10089918093F10089918093F100899107
:102290008093F10089918093F10089918093F100FE
:1022A00089918093F10089918093F10089918093C5
:1022B000F10089918093F10089918093F1008991D7
:1022C0008093F10089918093F10089918093F100CE
:1022D00089918093F10089918093F1008991809395
:1022E000F10089918093F10089918093F1008991A7
:1022F0008093F10089918093F10089918093F1009E
:1023000089918093F10089918093F1008991809364
:10231000F10089918093F10089918093F100899176
:102320008093F10089918093F10089918093F1006D
:1023300089918093F10089918093F1008991809334
:10234000F10089918093F10089918093F100899146
:102350008093F10089918093F10089918093F1003D
:1023600089918093F10089918093F1008991809304
:10237000F10089918093F10089918093F100899116
:102380008093F10089918093F10089918093F1000D
:1023900089918093F1008091E80085FD02C05093FF
:1023A000E800621B7109A09359033FBF04C0B4E069
:1023B00040E45AE3A5E06115710509F0F9CE80E02B
:1023C00001C08FEFDF91CF9108959FB7F89480916E
:1023D0005903882341F084E08093E9008AE38093E5
:1023E000E800109259039FBF089560913C037091DB
:1023F0003D0380913E0390913F03089580914003F7
:102400000895809141030895809142030895809139
:1024100058030895282F9FB7F89480915703882375
:1024200039F082E08093E9008091E80085FD03C0E7
:102430009FBF8FEF089581EA8093F10080E280933F
:10244000F1001092F1001092F1001092F100109240
:10245000F10081E08093F1001092F1002093F100EF
:102460008AE38093E8009FBF80E008951F920F9257
:102470000FB60F9211248F939F938091E1001092D9
:10248000E100982F83FF11C01092E90081E0809352
:10249000EB001092EC0082E18093ED0088E08093E5
:1024A000F000109257031092580392FF13C08091CE
:1024B0005703882379F080915903882359F081507C
:1024C00080935903882331F484E08093E9008AE300
:1024D0008093E8009F918F910F900FBE0F901F90F7
:1024E00018951F920F920FB60F9211240F931F93FE
:1024F0002F933F934F935F936F937F938F939F930C
:10250000AF93BF93EF93FF931092E9008091E8009F
:1025100083FF3CC14091F1003091F1008091F100C6
:10252000682F70E02091F100922F80E0682B792BCA
:102530008091F100A82FB0E02091F100922F80E06F
:10254000A82BB92B1091F1000091F10082EF80933C
:10255000E800363009F05AC025E331E0A9014550C2
:102560005040F9013797859194918617970701F5A7
:10257000FA01859194918A179B07D1F49A012E5FF5
:102580003F4FF901659174912E5F3F4FF9014491DE
:10259000212F30E0902F80E0282B392B2F3F310561
:1025A00019F010F02FEF30E0241758F4422F09C033
:1025B000295F3F4F495F5F4FF1E02F353F0789F6B5
:1025C000E5C05EEF8091E800282F30E0C9018570FA
:1025D0009070892BB9F322FDDCC0342F413108F013
:1025E00030E1232FCB0106C0FC010196E491E0937A
:1025F000F10021502223C1F7630F711D431B50933B
:10260000E8004423F9F63031E9F2C3C0353061F413
:102610008EEF8093E8008091E80080FFFCCF862F4A
:1026200080688093E300B5C0393051F5442309F048
:10263000ADC06093570310925803109259038EEF68
:102640008093E80088E591E021E02093E900FC0117
:102650000196E491E093EB00EE2369F0AC014F5F4B
:102660005F4FFC0184918093EC00CA010196FA014E
:1026700034913093ED002F5F253039F78EE181C022
:10268000383061F4403809F081C08091E80080FF63
:10269000FCCF809157038093F10050C0313289F410
:1026A000413A09F073C08091E80080FFFCCFECE371
:1026B000F3E081918093F10083E0E334F807C9F7F8
:1026C0003DC03032A1F4413209F060C08091E80091
:1026D00082FFFCCFECE3F3E08091F100819383E093
:1026E000E334F807C9F78BEF8093E80027C0323254
:1026F00051F4413209F04AC0609358038091E800D8
:1027000080FFFCCF1BC03323E9F48091E80080FFF9
:10271000FCCF423811F080E00DC0A093E900809119
:10272000EB0090E025E0969587952A95E1F781707A
:102730001092E9008093F1001092F1008EEF8093E7
:10274000E80027C0313011F0333001F54230F1F4A8
:10275000672BE1F42A2F2F77822F81508430B0F439
:102760008EEF8093E8002093E900333079F089E11F
:102770008093EB0081E090E002C0880F991F2A95BA
:10278000E2F78093EA001092EA0003C081E28093AE
:10279000EB00FF91EF91BF91AF919F918F917F914E
:1027A0006F915F914F913F912F911F910F910F90DA
:1027B0000FBE0F901F901895ECE8F3E0119285E0A2
:1027C000E438F807D9F70895843580F5603370F55B
:1027D000262F269526952695677090E0442399F03C
:1027E000E4E52E9FF0011124E80FF91FE457FC4F98
:1027F00081E090E002C0880F991F6A95E2F720817E
:10280000282B20830895E4E52E9FF0011124E80F82
:10281000F91FE457FC4F81E090E002C0880F991F38
:102820006A95E2F7809520812823208308952F92CE
:102830003F924F925F926F927F928F929F92AF9250
:10284000BF92CF92DF92EF92FF920F931F93DF938D
:10285000CF93CDB7DEB72E970FB6F894DEBF0FBE7D
:10286000CDBFE82ED62E142FF22E0C878417F9F444
:10287000862E9924A22EBB240EC08E2D682D4C8549
:102880000E94E413DF1420F40894811C911C03C0FF
:10289000089481089108DF1428F4A814B9040CF4F2
:1028A00001C1EBCF8A149B040CF4FCC0E6CF621785
:1028B000F9F4882E9924A42EBB240EC0882D6D2DEA
:1028C0004C850E94E413E11620F40894811C911CAD
:1028D00003C0089481089108E11628F4A814B904EB
:1028E0000CF4E0C0EBCF8A149B040CF4DBC0E6CF01
:1028F000481720F41E2DE42EF62ED22E812F90E0C4
:102900009A838983AE2CBB24BC016A197B09882772
:1029100077FD8095982F0E94BF1B6F8378878987EA
:102920009A872F2C33244D2C5524B1016419750935
:10293000882777FD8095982F0E94BF1B3B014C0193
:102940002F81388549855A850E94241B6B837C839F
:102950008D839E8320E030E040E050E00E946F1CB9
:1029600087FF0DC0C401B30190582F813885498578
:102970005A850E94241B6B837C838D839E830F2E3C
:10298000F0E0CF2EF0E0DF2EF0E0EF2EF0E0FF2EB3
:10299000F02D70C0AB868A2D642D4C850E94E41307
:1029A000C701B6012B813C814D815E810E94BC1A1A
:1029B00031C08B85642D4C850E94E4131E861D86D4
:1029C000C401B30120E030E040E050E00E946F1C01
:1029D000181624F4E1E0F0E0FE87ED8700E010E057
:1029E000C401B30120E030E040E050E00E94201B31
:1029F000882314F401E010E08D859E85801B910BE7
:102A0000480E591EC701B60120E030E040E85FE300
:102A10000E94BB1A6B017C0120E030E040E05FE3E4
:102A20000E946F1C88239CF0C401B30120E030E0B9
:102A300040E050E00E946F1C18162CF4241435045A
:102A40000CF0B7CF04C0421453040CF0B2CF6F8126
:102A5000788589859A8520E030E040E050E00E944A
:102A60006F1C181624F40894A11CB11C03C0089410
:102A7000A108B1086F81788589859A8520E030E0CA
:102A800040E050E00E946F1C181634F4E981FA818E
:102A9000EA15FB053CF07ECF89819A81A816B9061C
:102AA0000CF078CF2E960FB6F894DEBF0FBECDBFD8
:102AB000CF91DF911F910F91FF90EF90DF90CF901A
:102AC000BF90AF909F908F907F906F905F904F904E
:102AD0003F902F9008957F928F929F92AF92BF92D6
:102AE000CF92DF92EF92FF920F931F93CF93DF93DA
:102AF000D82E762EC22E85E0489FA00111248A018F
:102B0000095A1E4F91E0892E912C8CE5A82E81E068
:102B1000B82EA40EB51EF8018491CC2009F480953E
:102B2000C0E0D0E0E82EFF24672D6C0FA4010C2E2E
:102B300002C0440F551F0A94E2F74E215F210C2E6C
:102B400002C0559547950A94E2F78D2D0E94E41333
:102B50002196C830D10541F70F5F1F4FD3940A1556
:102B60001B05C9F6DF91CF911F910F91FF90EF9058
:102B7000DF90CF90BF90AF909F908F907F900895FF
:102B8000EF92FF920F931F93CF93DF93E62EEA010C
:102B9000F22E082F10E007C0802F6E2D2F2D0E94DF
:102BA0006B150B5F1F5FFE01E10FF11D4081442398
:102BB00099F7DF91CF911F910F91FF90EF900895BA
:102BC000CF93DF9380E060E00E945516CCE8D3E01D
:102BD00081E069910E94F31585E0C438D807C1F7F8
:102BE000DF91CF91089595B18295880F807E9F7D6A
:102BF000982B95B95F9827E030E070E08F98CB0173
:102C0000022E02C0959587950A94E2F780FF02C0D4
:102C10002E9A01C02E988F9A215030408FEF2F3F6F
:102C2000380761F75F9A08951F93182F579A249ACF
:102C3000259A269A879A2C985F9A2C9A80E061E2CE
:102C40000E94F315106880E0612F0E94F31580E068
:102C500064E00E94F31580E063E10E94F31580E0D8
:102C60006CE00E94F31580E060E20E94F31580E0C2
:102C70006CE00E94F31580E060E40E94F31580E0B0
:102C800060E80E94F3151F910895CF93DF93C0E091
:102C9000D0E081E060E00E94F315219681E0C83F1A
:102CA000D807B9F7DF91CF9108951F93182F60646B
:102CB00080E00E94F315106880E0612F0E94F315F8
:102CC0001F910895AF92BF92CF92EF920F931F93EF
:102CD000FC014083518362837383048315832683BD
:102CE0003783E08AC18AB48AA38A81E0828B80E03C
:102CF00090E0A0E0B0E080879187A287B3878487C7
:102D00009587A687B7871F910F91EF90CF90BF90BF
:102D1000AF9008952F923F925F926F927F928F9221
:102D20009F92AF92BF92CF92DF92EF92FF920F935A
:102D30001F93CF93DF938C01DC0152968C915297B5
:102D4000882309F47FC06D917D918D919C910E94A3
:102D5000731C0E948C1B3B01F80124813581468144
:102D60005781643571050CF06DC0D80150968C9177
:102D7000C82FD0E0CE01860D971D181619060CF04D
:102D800061C0CA01B9010E94731C0E948C1B4B01D7
:102D9000603371050CF056C0F80181899401280F49
:102DA000311D121613060CF04DC057E0A52EB12CA4
:102DB000AC0EBD1E43E0B594A7944A95E1F7EE240E
:102DC000FF24CC24DD2437E0232E312C30C0CE016B
:102DD00023E0959587952A95E1F7D8015396ED91D3
:102DE000FC915497EC0DFD1DE80FF91F408150E058
:102DF000CE0187709070F101E81BF90B02C0559568
:102E00004795EA95E2F741709E01260D822F652DC8
:102E10000E94E4132196D80150968C9190E0C81737
:102E2000D907ACF20894E11CF11CCA0CDB1CF801B8
:102E3000818990E0E816F9062CF4C0E0D0E05E2C21
:102E4000580CE9CFDF91CF911F910F91FF90EF9038
:102E5000DF90CF90BF90AF909F908F907F906F90BA
:102E60005F903F902F900895A1E1B0E0EAE3F7E191
:102E70000C94CF1C3C017F876E876A01FC0117828E
:102E80001682838181FD03C06FEF7FEF6FC39E01C8
:102E90002F5F3F4F398B288BF3012381EE85FF8510
:102EA00023FD859123FF8191FF87EE87882309F415
:102EB0005AC3853251F4EE85FF8523FD859123FFAA
:102EC0008191FF87EE87853229F490E0B3010E945B
:102ED0006E1FE2CF982F10E0882499241032B0F4AE
:102EE0009B3269F09C3228F4903251F0933271F4A5
:102EF0000BC09D3239F0903349F4116028C0126044
:102F0000146025C0186023C0106121C017FD2AC0BD
:102F1000892F80538A3078F416FF06C0FAE09F9E0E
:102F2000902C1124980E13C03AE0839E802C11241B
:102F3000880E10620CC09E3221F416FD14C310647A
:102F400006C09C3611F4106802C0983659F4EE851C
:102F5000FF8523FD959123FF9191FF87EE879923AC
:102F600009F0BCCF892F8554833020F4812F8061F4
:102F7000905E07C0892F8556833008F09FC1812F4E
:102F80008F7E86FD02C076E0972E6FE3F62EF82244
:102F9000953619F4F0E4FF2A07C0963619F420E8B4
:102FA000F22A02C091109A94F7FE0AC03BE3391549
:102FB00018F45CE3B52E02C0B92CB39427E009C025
:102FC00047E0491520F4BB2447E0942EF7CF292D84
:102FD000BB24C60104969D878C87F60160817181B0
:102FE00082819381AE014F5F5F4F0B2D0E94801E47
:102FF0006C010981202E332400FF04C003FD02C0B0
:103000001DE209C0F1FE02C01BE205C0F2FC02C0D5
:1030100010E001C010E2C1018C709070892BB9F1F1
:10302000112311F483E001C084E0881510F0882496
:103030000AC0881AF3FC07C080E290E0B3010E9446
:103040006E1F8A94C9F7112329F0812F90E0B301F4
:103050000E946E1F23FE03C007ED13E00EC00BEDB0
:1030600013E00BC0E114F10409F0805290E0B301C9
:103070000E946E1F0F5F1F4F05C0EF2CFF24F0E171
:10308000EF22FF24F8018491882361F714C1F7FE31
:1030900012C0BC0C24FE04C08A81813309F4BA94A6
:1030A0001B141CF0BB24B3942DC0F8E0FB1550F5A5
:1030B00038E0B32E27C0F6FC25C0892D90E08C1592
:1030C0009D054CF02CEFC2162FEFD20624F030E80D
:1030D000F32A01C09A94992049F0E2E0F0E0EC0F65
:1030E000FD1FE90DF11D80818033A1F3F7FE0AC0B9
:1030F000B92CB394892D90E0C816D90614F0992400
:1031000001C09C18F7FC03C025E030E009C01C1486
:103110001D041CF021E030E003C096012F5F3F4FFB
:10312000112311F02F5F3F4F992029F0892D90E056
:103130000196280F391F882D90E02817390714F0C1
:10314000882401C0821A4F2C5524C20189709070C6
:10315000892B39F008C080E290E0B3010E946E1F15
:103160008A948820C1F7112329F0812F90E0B301C0
:103170000E946E1F43FE07C008C080E390E0B301C9
:103180000E946E1F8A948820C1F7F7FE46C0860110
:10319000D7FE02C000E010E076010894E11CF11CAB
:1031A000E01AF10A41E050E04C0F5D1FE40EF51EFD
:1031B00026014B185108892D90E0AA24BB24A81A97
:1031C000B90A5FEF0F3F150729F48EE290E0B301D3
:1031D0000E946E1FC016D10634F0401651061CF432
:1031E000F701808101C080E3015010400894E11C88
:1031F000F11C0A151B052CF090E0B3010E946E1F14
:10320000E0CF0C151D0539F49A81963318F49533E7
:1032100011F424FE81E390E04BC08A81813309F0F0
:103220000F7E90E0B3010E946E1F9920A1F08EE204
:1032300090E0B3010E946E1F12E0E1E0F0E0EC0FBD
:10324000FD1FE10FF11D1F5F808190E0B3010E941F
:103250006E1F9A9491F744FC03C085E690E002C08B
:1032600085E490E0B3010E946E1FD7FC05C0C11435
:10327000D10441F404FF06C0D094C194D108D39482
:103280008DE201C08BE290E0B3010E946E1F80E3EB
:1032900005C08F5F26EF3FEFC20ED31E3AE0C31684
:1032A000D104BCF790E0B3010E946E1FC601C09626
:1032B000B3010E946E1FCC84DD8452C1933631F07D
:1032C000933799F0933509F059C023C0F6018081F6
:1032D00089835E010894A11CB11C22E030E0C20E7B
:1032E000D31E21E0E22EF12C12C0F601A080B180A5
:1032F00016FD03C06FEF7FEF02C0692D70E022E082
:1033000030E0C20ED31EC5010E94631F7C011F77EF
:1033100013C0F601A080B18016FD03C06FEF7FEFF0
:1033200002C0692D70E022E030E0C20ED31EC5015C
:103330000E94581F7C01106813FF07C01BC080E269
:1033400090E0B3010E946E1F8A94882D90E0E816E9
:10335000F906A8F30FC0F50117FD859117FF8191BC
:103360005F0190E0B3010E946E1F81108A9408945F
:10337000E108F108E114F10471F7F2C0943611F09C
:10338000993689F517FF08C0F60120813181428105
:10339000538184E090E00AC0F601808191819C0114
:1033A000442737FD4095542F82E090E0C80ED91E87
:1033B0009FE6F92EF12257FF09C0509540953095B0
:1033C00021953F4F4F4F5F4F90E8F92ACA01B9014D
:1033D000AE014F5F5F4F2AE030E00E94CB1FE82E26
:1033E000E889EE1A41C0953721F41F7E2AE030E0CB
:1033F0001CC0197F9F3661F0903720F4983509F092
:10340000B2C00FC0903739F0983709F0ACC004C093
:1034100028E030E00AC0106114FD146020E130E0C3
:1034200004C014FD166020E132E017FF08C0F60169
:10343000608171818281938144E050E008C0F6018F
:1034400080819181BC0180E090E042E050E0C40EB8
:10345000D51EAE014F5F5F4F0E94CB1FE82E5889EB
:10346000E51A8FE7F82EF122F6FE0BC08EEFF82258
:10347000E91438F4F4FE07C0F2FC05C09FEEF9220F
:1034800002C01E2D01C0192DF4FE0DC0FE01EE0D6F
:10349000F11D8081803319F4E9EEFE2208C01F5F20
:1034A000F2FE05C003C08F2D867809F01F5F0F2D37
:1034B000F3FC14C0F0FE0FC0181510F09E2C0BC0CA
:1034C0009E2C980C911A182D06C080E290E0B30152
:1034D0000E946E1F1F5F1815C0F304C0181510F46A
:1034E000811A01C0882404FF0FC080E390E0B3017B
:1034F0000E946E1F02FF1DC001FD03C088E790E01F
:103500000EC088E590E00BC0802F867891F001FF17
:1035100002C08BE201C080E2F7FC8DE290E0B301D3
:103520000E946E1F06C080E390E0B3010E946E1FF0
:103530009A94E914C0F3EA94E1E0F0E0EC0FFD1F87
:10354000EE0DF11D808190E0B3010E946E1FEE2010
:1035500091F706C080E290E0B3010E946E1F8A944A
:103560008820C1F799CCF30166817781CB01619600
:10357000E2E10C94EB1C5058BB27AA270ED075C172
:1035800066D130F06BD120F031F49F3F11F41EF47E
:103590005BC10EF4E095E7FB51C1E92F77D180F3D1
:1035A000BA17620773078407950718F071F49EF540
:1035B0008FC10EF4E0950B2EBA2FA02D0B01B9018F
:1035C00090010C01CA01A0011124FF27591B99F099
:1035D000593F50F4503E68F11A16F040A22F232FA5
:1035E000342F4427585FF3CF469537952795A795F5
:1035F000F0405395C9F77EF41F16BA0B620B730B9C
:10360000840BBAF09150A1F0FF0FBB1F661F771F0C
:10361000881FC2F70EC0BA0F621F731F841F48F4C1
:10362000879577956795B795F7959E3F08F0B3CF47
:103630009395880F08F09927EE0F97958795089531
:10364000D9D008F481E008950CD00FC107D140F023
:10365000FED030F021F45F3F19F0F0C0511139C1B4
:10366000F3C014D198F39923C9F35523B1F3951BF3
:10367000550BBB27AA2762177307840738F09F5F93
:103680005F4F220F331F441FAA1FA9F333D00E2E02
:103690003AF0E0E830D091505040E695001CCAF76F
:1036A00029D0FE2F27D0660F771F881FBB1F261734
:1036B00037074807AB07B0E809F0BB0B802DBF0107
:1036C000FF2793585F4F2AF09E3F510568F0B6C020
:1036D00000C15F3FECF3983EDCF3869577956795E4
:1036E000B795F7959F5FC9F7880F911D96958795B8
:1036F00097F90895E1E0660F771F881FBB1F6217D7
:1037000073078407BA0720F0621B730B840BBA0B94
:10371000EE1F88F7E095089504D06894B111D9C0E0
:103720000895BCD088F09F5790F0B92F9927B751D2
:10373000A0F0D1F0660F771F881F991F1AF0BA9575
:10374000C9F712C0B13081F0C3D0B1E00895C0C054
:10375000672F782F8827B85F39F0B93FCCF386956B
:1037600077956795B395D9F73EF4909580957095C8
:1037700061957F4F8F4F9F4F0895E89409C097FB45
:103780003EF490958095709561957F4F8F4F9F4F38
:103790009923A9F0F92F96E9BB279395F69587957C
:1037A00077956795B795F111F8CFFAF4BB0F11F43F
:1037B00060FF1BC06F5F7F4F8F4F9F4F16C08823E6
:1037C00011F096E911C0772321F09EE8872F762F1C
:1037D00005C0662371F096E8862F70E060E02AF05D
:1037E0009A95660F771F881FDAF7880F9695879549
:1037F00097F90895990F0008550FAA0BE0E8FEEF1E
:1038000016161706E807F907C0F012161306E407A4
:10381000F50798F0621B730B840B950B39F40A269D
:1038200061F0232B242B252B21F408950A2609F47B
:10383000A140A6958FEF811D811D089597F99F677F
:1038400080E870E060E008959FEF80EC0895002428
:103850000A941616170618060906089500240A94F5
:1038600012161306140605060895092E0394000C7B
:1038700011F4882352F0BB0F40F4BF2B11F460FF0A
:1038800004C06F5F7F4F8F4F9F4F089557FD905833
:10389000440F551F59F05F3F71F04795880F97FB14
:1038A000991F61F09F3F79F08795089512161306CE
:1038B0001406551FF2CF4695F1DF08C016161706FD
:1038C0001806991FF1CF8695710561050894089532
:1038D000E894BB2766277727CB0197F908958ADFFD
:1038E00008F48FEF0895DADFE0F09E37D8F09639CC
:1038F000B8F49E3848F4672F782F8827985FF9CF5F
:1039000086957795679593959539D0F3B62FB170D5
:103910006B0F711D811D20F48795779567959395A1
:1039200002C01CC0D6CF882371F4772321F09850B1
:10393000872B762F07C0662311F499270DC090516D
:10394000862B70E060E02AF09A95660F771F881F3B
:10395000DAF7880F9695879597F908959F3F31F08C
:10396000915020F4879577956795B795880F911DAD
:103970009695879597F9089597FB092E07260AD003
:1039800077FD04D043D006D000201AF470956195DD
:103990007F4F0895F6F7909581959F4F08952F9248
:1039A0003F924F925F926F927F928F929F92AF92CF
:1039B000BF92CF92DF92EF92FF920F931F93CF931C
:1039C000DF93CDB7DEB7CA1BDB0B0FB6F894DEBFB3
:1039D0000FBECDBF09942A88398848885F846E84D9
:1039E0007D848C849B84AA84B984C884DF80EE8023
:1039F000FD800C811B81AA81B981CE0FD11D0FB62C
:103A0000F894DEBF0FBECDBFED010895AA1BBB1B0E
:103A100051E107C0AA1FBB1FA617B70710F0A61BCE
:103A2000B70B881F991F5A95A9F780959095BC01EF
:103A3000CD010895CF93DF93BC018230910510F43E
:103A400062E070E0A0918605B0918705ED01E0E0AD
:103A5000F0E040E050E021C0888199818617970707
:103A600069F48A819B81309719F09383828304C023
:103A70009093870580938605FE0134C06817790707
:103A800038F44115510519F08417950708F4AC0175
:103A9000FE018A819B819C01E9012097E9F641158D
:103AA0005105A9F1CA01861B970B049708F4BA01C6
:103AB000E0E0F0E02AC08D919C9111978417950762
:103AC000F9F46417750781F412968D919C91139700
:103AD000309719F09383828304C090938705809375
:103AE0008605FD0132964FC0CA01861B970BFD016A
:103AF000E80FF91F6193719302978D939C9343C0D4
:103B0000FD01828193819C01D9011097A1F68091DA
:103B1000840590918505892B41F48091450390910E
:103B20004603909385058093840540914703509107
:103B300048034115510541F44DB75EB780914303E9
:103B400090914403481B590B2091840530918505C1
:103B500024173507B0F4CA01821B930B8617970709
:103B600080F0AB014E5F5F4F8417950750F0420F16
:103B7000531F5093850540938405F9016193719318
:103B800002C0E0E0F0E0CF01DF91CF910895CF9344
:103B9000DF93009709F450C0EC0122971B821A8230
:103BA000A0918605B0918705109709F140E050E09B
:103BB000AC17BD0708F1BB83AA83FE0121913191A7
:103BC000E20FF31FAE17BF0779F48D919C91119707
:103BD000280F391F2E5F3F4F3983288312968D910E
:103BE0009C9113979B838A834115510571F4D0935F
:103BF0008705C093860520C012968D919C911397DE
:103C0000AD01009711F0DC01D3CFFA01D383C28359
:103C100021913191E20FF31FCE17DF0769F48881FC
:103C20009981280F391F2E5F3F4FFA01318320837E
:103C30008A819B8193838283DF91CF910895A0E055
:103C4000B0E0E5E2FEE10C94D71CEC01A880B9805D
:103C5000CA80DB80A114B104C104D10441F484E220
:103C6000A82E89EDB82E8BE5C82E87E0D82EC60188
:103C7000B5012DE133EF41E050E00E94482027EAF2
:103C800031E440E050E00E9429207B018C01C60114
:103C9000B5012DE133EF41E050E00E944820CA0118
:103CA000B9012CEE34EF4FEF5FEF0E9429206E0D2B
:103CB0007F1D801F911F97FF04C06150704080409E
:103CC0009048688379838A839B839B013F77C901EE
:103CD000CDB7DEB7EAE00C94F31C0E941F1E0895D6
:103CE00089E493E00E941F1E0895A0E0B0E0809355
:103CF000490390934A03A0934B03B0934C03089558
:103D0000283008F027E03327DA01990F311D87FDAD
:103D1000916000966105710539F432602E5F3D9324
:103D200030E32A95E1F708959F3F30F08038710520
:103D3000610509F03C5F3C5F3D93913008F080687D
:103D4000911DDF93CF931F930F93FF92EF92192F43
:103D5000987F9695E92F96959695E90FFF27E75C52
:103D6000FB4F99273327EE24FF24A701E701059095
:103D70000894079428F4360FE71EF81E491F511DBA
:103D8000660F771F881F991F0694A1F70590079467
:103D900028F4E70EF81E491F561FC11D770F881F14
:103DA000991F661F0694A1F70590079428F4F80E52
:103DB000491F561FC71FD11D880F991F661F771FE8
:103DC0000694A1F70590079420F4490F561FC71FCA
:103DD000D81F990F661F771F881F0694A9F7849133
:103DE0001095177041F0D695C79557954795F7945C
:103DF000E7941A95C1F7EFEDF3E0689415901591EB
:103E000035916591959105907FE27395E118F10ADE
:103E1000430B560BC90BD009C0F7E10CF11E431F31
:103E2000561FC91FD01D7EF4703311F48A95E6CF5A
:103E3000E894015030F0080F0AF40027021708F444
:103E4000202F2395022F7A3328F079E37D932A954A
:103E5000E9F710C07D932A9589F6069497956795A2
:103E6000379517951794E118F10A430B560BC90BB8
:103E7000D00998F023957E9173957A3308F070E31A
:103E80007C932013B8F77E9170617D9330F0839519
:103E900071E37D9370E32A95E1F71124EF90FF9091
:103EA0000F911F91CF91DF91992787FD90950895EC
:103EB000FC010590615070400110D8F780959095F5
:103EC0008E0F9F1F0895FC016150704001900110FA
:103ED000D8F7809590958E0F9F1F08950F931F938D
:103EE000CF93DF938C01EB018B8181FF1BC082FF9D
:103EF0000DC02E813F818C819D812817390764F484
:103F0000E881F9810193F983E88306C0E885F985A2
:103F1000802F0995892B31F48E819F8101969F8393
:103F20008E8302C00FEF1FEFC801DF91CF911F9169
:103F30000F910895AEE0B0E0E0EAFFE10C94DD1CE3
:103F40000D891E898F89988D97FF02C080E090E8C7
:103F500001979E838D831A83098386E08C839E015B
:103F6000255E3F4FCE010196698D7A8DA9010E9491
:103F700034174D815E8157FD0AC02F813885421765
:103F800053070CF49A01020F131FF80110822E96AA
:103F9000E4E00C94F91CFA01AA27283051F12031F1
:103FA00081F1E8946F936E7F6E5F7F4F8F4F9F4FCD
:103FB000AF4FB1E03ED0B4E03CD0670F781F891F0F
:103FC0009A1FA11D680F791F8A1F911DA11D6A0FDD
:103FD000711D811D911DA11D20D009F468943F9190
:103FE0002AE0269F11243019305D3193DEF6CF018F
:103FF0000895462F4770405D4193B3E00FD0C9F755
:10400000F6CF462F4F70405D4A3318F0495D31FDC1
:104010004052419302D0A9F7EACFB4E0A695979514
:10402000879577956795BA95C9F7009761057105EA
:1040300008959B01AC010A2E069457954795379534
:104040002795BA95C9F7620F731F841F951FA01D8E
:104050000895629FD001739FF001829FE00DF11DD2
:10406000649FE00DF11D929FF00D839FF00D749FF2
:10407000F00D659FF00D9927729FB00DE11DF91F9E
:10408000639FB00DE11DF91FBD01CF0111240895FB
:1040900097FB092E05260ED057FD04D014D00AD068
:1040A000001C38F450954095309521953F4F4F4F67
:1040B0005F4F0895F6F790958095709561957F4FC5
:1040C0008F4F9F4F0895A1E21A2EAA1BBB1BFD0123
:1040D0000DC0AA1FBB1FEE1FFF1FA217B307E407E7
:1040E000F50720F0A21BB30BE40BF50B661F771F3F
:1040F000881F991F1A9469F760957095809590951F
:0E4100009B01AC01BD01CF010895F894FFCFE3
:10410E0025640053636F72653A20004C69766573BF
:10411E003A2000466C6F6F723A200046616C7365F0
:10412E000054727565004C6F6164696E672E2E2E99
:10413E000047414D45204F564552006E39393031BA
:10414E00393930004A6961205368656E67204368CB
:10415E006F6E67002566000D0A53636F72653A2015
:10416E0000436F6E6E6563742053657269616C00F7
:10417E0057656C636F6D650053657269616C206382
:10418E006F6E6E6563746564000302008B012838E0
:10419E00283800FEAA3828287F00FF00FF00FF0104
:1041AE00FE41008100810081008241FF81FF81FF7D
:1041BE0081FF82400000000000000002400000006D
:1041CE00000000000240007C007E007C00026000C7
:1041DE0044004200440006600044004200440006D1
:1041EE0040007C007E007C000240000000000000C9
:1041FE00000240000000000000000240000000002D
:10420E0000000002400000000000000002600000FC
:10421E00000000000006380000003C0000001C1CDE
:10422E00000000C3000000380700000100800000FD
:10423E00E001800001008000018000C0000200400B
:10424E00000300007000040320000E00001E000496
:10425E0003200078000001E0040020078000000029
:10426E003F040020FC0000000007FC003FE00000BF
:10427E00003C0000C30001008001008002004004E9
:10428E000320040320040020040020FC003F70F8EB
:10429E00A8F8F8A8E0BEEA2070F8FFFFFFFFFFFFC6
:1042AE00FFFFFFFFFFFFFFFFFFFFFFFFFFFFFFFF10
:1042BE00FFFFFFFFFFFFFFFFFFFFFFFFFFFFFFFF00
:1042CE00FFFFFFFFFFFFFFFFFFFFFFFFFFFFFFFFF0
:1042DE00FFFFFFFFFFFFE0E0E0E0E0E0E0E0E0E016
:1042EE00E0E0E0E0E0E0E0E0E0E0E0E0E0E0E0E0C0
:1042FE00E0E0E0E0E0E0E0E0E0E0E0E0E0E0E0E0B0
:10430E00E0E0E0E0E0E0E0E0E0E0E0E0E0E0E0E09F
:10431E00E0E0E0E0E0E0E0E0E0E0E0E0E0E0E0E08F
:10432E00E0E0E0E0E0E0E0E0E0E0E0E0E0E0E0E07F
:10433E00E0E0E0E0E0E0E0E0E0E0E0E000E100000E
:0E434E000000082000880500000100000000AB
:00000001FF
