:100000000C946D020C948A020C948A020C948A025D
:100010000C948A020C948A020C948A020C948A0230
:100020000C948A020C948A020C9400140C943B14D5
:100030000C948A020C948A020C948A020C948A0210
:100040000C948A020C948A020C948A020C948A0200
:100050000C948A020C948A020C948A020C94DB0F92
:100060000C948A020C948A020C948A020C948A02E0
:100070000C948A020C948A020C948A020C948A02D0
:100080000C948A020C948A020C948A020C948A02C0
:100090000C948A020C948A020C948A020C948A02B0
:1000A0000C948A020C948A020C948A02951392137F
:1000B0008F138C1389138613831380137D137A1384
:1000C0007713741371136E136B1368136513621334
:1000D0005F135C1359135613531350134D134A13E4
:1000E0004713441341133E133B1338133513321394
:1000F0002F132C1329132613231320131D131A1344
:100100001713141311130E130B13081305130213F3
:10011000FF12FC12F912F612F312F012ED12EA12AB
:10012000E712E412E112DE12DB12D812D51200013E
:10013000000062011200020000740143000300008D
:10014000B7010401030904BB011402030904D1012E
:100150001603030904E9010C0001C11201803601F4
:1001600081361201000202000010C0167A0400015C
:100170000102030109024300020100C03209040028
:100180000001020201000524001001052401010103
:10019000042402060524060001070582031000401E
:1001A00009040100020A00000007050302400000E4
:1001B0000705840240000004030904140359006F7A
:1001C000007500720020004E0061006D00650000A7
:1001D00000160355005300420020005300650072D2
:1001E00000690061006C0000000C03310032003334
:1001F00000340035000000000000000000005F0037
:10020000000007000700147F147F14242A7F2A129D
:10021000231308646236495522500005030000008C
:100220001C2241000041221C0014083E081408084A
:100230003E08080050300000080808080800606008
:10024000000020100804023E5149453E00427F4014
:100250000042615149462141454B311814127F102B
:1002600027454545393C4A4949300171090503365E
:1002700049494936064949291E00363600000056CC
:1002800036000008142241001414141414004122F2
:1002900014080201510906324979413E7E111111BB
:1002A0007E7F494949363E414141227F4141221CDE
:1002B0007F494949417F090909013E4149497A7FFE
:1002C0000808087F00417F41002040413F017F082E
:1002D0001422417F404040407F020C027F7F04088F
:1002E000107F3E4141413E7F090909063E415121AF
:1002F0005E7F09192946464949493101017F0101BB
:100300003F4040403F1F2040201F3F4038403F6358
:100310001408146307087008076151494543007FBA
:1003200041410002040810200041417F0004020105
:100330000204404040404000010204002054545454
:10034000787F484444383844444420384444487F03
:100350003854545418087E0901020C5252523E7F00
:100360000804047800447D40002040443D007F1094
:1003700028440000417F40007C041804787C080475
:10038000047838444444387C1414140808141418AD
:100390007C7C080404084854545420043F44402002
:1003A0003C4040207C1C2040201C3C4030403C44D1
:1003B000281028440C5050503C4464544C440008CD
:1003C00036410000007F0000004136080010080898
:1003D000100878464146786E616E00696E660000CE
:1003E000407A10F35A00A0724E18090010A5D4E804
:1003F0000000E87648170000E40B54020000CA9A97
:100400003B000000E1F505000080969800000040E8
:10041000420F000000A0860100000010270000002D
:1004200000E803000000006400000000000A000073
:100430000000000100000000002C76D888DC674F27
:100440000823DFC1DFAE59E1B1B796E5E3E453C657
:100450003AE651997696E8E6C28426EB898C9B624F
:10046000ED407C6FFCEFBC9C9F40F2BAA56FA5F4F9
:1004700090055A2AF75C936B6CF9676DC11BFCE021
:10048000E40D47FEF520E6B500D0ED902E03009474
:100490003577050080841E080000204E0A00000009
:1004A000C80C333333330F986E12831141EF8D2113
:1004B00014893BE65516CFFEE6DB18D1844B381B7A
:1004C000F77C1D901DA4BBE424203284725E22813F
:1004D00000C9F124ECA1E53D270011241FBECFEF98
:1004E000DAE0DEBFCDBF13E0A0E0B1E0E8E6F5E47E
:1004F00002C005900D92A035B107D9F715E0A0E52F
:10050000B3E001C01D92A139B107E1F70E949D112E
:100510000C94B2220C9400000F931F93FC014087AF
:1005200051876287738704871587268737871F91CE
:100530000F910895CF93DF93EC01609387036C34A0
:1005400061F06D3420F4643409F056C040C0623567
:10055000B1F0653509F050C028C06091880170E0A5
:10056000882777FD8095982F0E94891D9B01AC01FB
:10057000688179818A819B810E94861C11C060916B
:10058000880170E0882777FD8095982F0E94891D4B
:100590009B01AC01688179818A819B810E94851CC5
:1005A000688379838A839B8327C06091880170E088
:1005B000882777FD8095982F0E94891D9B01AC01AB
:1005C0006C817D818E819F810E94861C11C060910B
:1005D000880170E0882777FD8095982F0E94891DFB
:1005E0009B01AC016C817D818E819F810E94851C65
:1005F0006C837D838E839F83DF91CF9108951F93BA
:10060000182F8091660390916703009719F0612F6E
:100610000E949A028091880390918903009719F0B3
:10062000612F0E949A0280918C0390918D03009714
:1006300019F0612F0E949A028091600390916103EA
:10064000612F0E949A0280918A0390918B03612FFF
:100650000E949A0280918E0390918F03612F0E94D5
:100660009A028091620390916303612F0E949A0223
:1006700080916B0390916C03612F0E949A0280918C
:10068000900390919103612F0E949A0280917103CF
:1006900090917203612F0E949A021F910895809198
:1006A00087038C3411F482E50DC0823511F48CE49B
:1006B00009C0853511F484E405C0843411F485E55E
:1006C00001C080E20E94FF020895EF92FF920F9313
:1006D0001F93CF93DF93EC016C3461F06D3420F401
:1006E000643409F06CC048C0623599F0653509F092
:1006F00066C033C0E884F9840A851B85C801B70148
:1007000020E030E040E050E00E94391E18167CF0F6
:1007100015C0E884F9840A851B85C801B70120E06B
:1007200030E040E050E00E94EA1C88233CF4D8010D
:10073000C701B05888879987AA87BB876881798164
:100740008A819B81288539854A855B850E94861C24
:10075000688379838A839B8332C0EC84FD840E8511
:100760001F85C801B70120E030E040E050E00E9462
:10077000391E18167CF015C0EC84FD840E851F858B
:10078000C801B70120E030E040E050E00E94EA1CE0
:1007900088233CF4D801C701B0588C879D87AE8769
:1007A000BF876C817D818E819F812C853D854E85A3
:1007B0005F850E94861C6C837D838E839F83DF917F
:1007C000CF911F910F91FF90EF900895FC01628BE4
:1007D0000895FC01828990E00895FC012081318117
:1007E00042815381B901CA010895FC0124813581F8
:1007F00046815781B901CA010895FC0120853185E0
:1008000042855385B901CA010895FC0124853585C7
:1008100046855785B901CA0108956F927F928F92DC
:100820009F92AF92BF92CF92DF92EF92FF920F937F
:100830001F93CF93DF93FC01EB0182898823A1F101
:10084000A480B580C680D7806C807D808E809F809C
:1008500060817181828193810E94561D7B018C0190
:10086000688179818A819B810E94561DE616F70670
:100870001CF4CE016CE402C0CE0162E50E94650367
:10088000C601B5010E94561D7B018C01C401B30154
:100890000E94561DE616F7061CF4CE0165E502C05F
:1008A000CE0164E40E946503DF91CF911F910F9107
:1008B000FF90EF90DF90CF90BF90AF909F908F9080
:1008C0007F906F900895EF92FF920F931F937C019A
:1008D0008B01FB016089669570E0882777FD809524
:1008E000982F0E94891D9B01AC01F80160817181E4
:1008F000828193810E94851C20E030E040E85FE324
:100900000E94851CF7016083718382839383F801C1
:100910006189669570E0882777FD8095982F0E9401
:10092000891D9B01AC01F8016481758186819781E5
:100930000E94861CF70164837583868397831F91C9
:100940000F91FF90EF900895EF92FF920F931F93F6
:100950007C018B01FB016089669570E0882777FD3B
:100960008095982F0E94891D9B01AC01F801608140
:100970007181828193810E94851C20E030E040ECEF
:1009800050E40E94861CF701608371838283938305
:10099000F8016189669570E0882777FD8095982F2A
:1009A0000E94891DF80124813581468157810E946A
:1009B000861C20E030E040E85FE30E94851CF701E0
:1009C00064837583868397831F910F91FF90EF90C7
:1009D0000895FC0180890895FC018189089580E0D3
:1009E00090E008952F923F924F925F926F927F9284
:1009F0008F929F92AF92BF92CF92DF92EF92FF922F
:100A00000F931F93DF93CF9300D000D0CDB7DEB705
:100A10007C015A016B0118012901DC016D917D9166
:100A20008D919C910E94A01E3B014C01D701149610
:100A30008D919D910D90BC91A02D89839A83AB835C
:100A4000BC83F701A082B182C282D382D7011496FF
:100A50002D923D924D925C921797C601B5010E946E
:100A6000A01E0E94561D7B018C01C401B3010E948F
:100A7000561DE616F706E9F4C201B1010E94A01E58
:100A80007B018C0169817A818B819C810E94A01EEF
:100A90005B016C0144245524C801B7010E94561D16
:100AA0007B018C01C601B5010E94561DE616F706B2
:100AB00019F081E0482E512CC2010F900F900F9039
:100AC0000F90CF91DF911F910F91FF90EF90DF90EA
:100AD000CF90BF90AF909F908F907F906F905F90DE
:100AE0004F903F902F9008954F925F926F927F9218
:100AF0008F929F92AF92BF92CF92DF92EF92FF922E
:100B00000F931F93DF93CF9300D000D0CDB7DEB704
:100B10006C01DC01ED90FD900D911C91C801B701B5
:100B20000E94A01E4B015C01D60114968D919D91EF
:100B30000D90BC91A02D89839A83AB83BC83C8019F
:100B4000B701F60120853185428553850E94851CB9
:100B50007B018C01D6016D937D938D939C931397AC
:100B600069817A818B819C811C962D913D914D915B
:100B70005C911F970E94851C2B013C01CB01D30186
:100B8000F60184839583A683B783C801B7010E94C9
:100B9000A01E0E94561D7B018C01C501B4010E945C
:100BA000561DE616F706E9F4B201C3010E94A01E25
:100BB0007B018C0169817A818B819C810E94A01EBE
:100BC0005B016C0166247724C801B7010E94561DA1
:100BD0007B018C01C601B5010E94561DE616F70681
:100BE00019F091E0692E712CC3010F900F900F90B6
:100BF0000F90CF91DF911F910F91FF90EF90DF90B9
:100C0000CF90BF90AF909F908F907F906F905F90AC
:100C10004F9008958F929F92AF92BF92CF92DF92A2
:100C2000EF92FF920F931F93CF93DF938C015B01A1
:100C3000FC0160817181828193810E94A01E0E94CB
:100C4000561D6B01F80164817581868197810E9430
:100C5000A01E0E94561D7B01F50160817181828179
:100C600093810E94A01E0E94561D4B01F5016481D4
:100C70007581868197810E94A01E0E94561DF501F4
:100C800020898189AB01480F511DE416F5061CF03F
:100C9000C0E0D0E00AC0C0E0D0E0C401820F911DE6
:100CA000C816D90614F4C1E0D0E0F8018089C80E56
:100CB000D11C8C149D0414F0C0E0D0E0F8018189AF
:100CC000E80EF11C6E157F051CF0C0E0D0E023C0DB
:100CD000209709F180918A0390918B03A816B90699
:100CE000D1F080918C0390918D03A816B90699F0EC
:100CF00080916D0390916E030817190711F40E94FB
:100D00004F0380916003909161030817190719F44C
:100D1000C8010E947405CE01DF91CF911F910F9100
:100D2000FF90EF90DF90CF90BF90AF909F908F900B
:100D30000895FC01128A80E090E00E94F41F08955B
:100D40002F923F924F925F926F927F928F929F92DB
:100D5000AF92BF92CF92DF92EF92FF920F931F93C9
:100D6000DF93CF9300D00F92CDB7DEB74B015C017C
:100D700029013A01F02EE982160185E190E00E94F6
:100D8000471F8A839B838A819B81009749F0B50125
:100D9000A40193018201EF2CC98051010E942C18FB
:100DA0008A819B810F900F900F90CF91DF911F91BF
:100DB0000F91FF90EF90DF90CF90BF90AF909F90FA
:100DC0008F907F906F905F904F903F902F900895FD
:100DD000DF92EF92FF920F931F93F82EE62ED22E02
:100DE0008DB79EB708970FB6F8949EBF0FBE8DBF04
:100DF000EDB7FEB7319603E713E0ADB7BEB7129675
:100E00001C930E93119784E190E09383828380E09A
:100E100091E095838483578346830E94C7218DB7D1
:100E20009EB708960FB6F8949EBF0FBE8DBF8F2D4C
:100E30006E2DA8012D2D0E948A171F910F91FF90F2
:100E4000EF90DF90089585E060E043E051E021E01D
:100E50000E948A17409154035091550388E260E044
:100E600021E00E94E80685E06AE04BE051E021E0E5
:100E70000E948A174091870188E26AE050E021E0F1
:100E80000E94E80685E064E143E151E021E00E9430
:100E90008A174091500350E04150504088E264E18D
:100EA00021E00E94E80685E06EE14BE151E021E09F
:100EB0000E948A174091510388E26EE150E021E0E0
:100EC0000E94E8068DE26EE142E251E021E00E94DC
:100ED0008A174091520382E36EE150E021E00E94C4
:100EE000E8064091530387E36EE150E021E00E9461
:100EF000E80608950E94A6158FE06AE044E251E0FA
:100F000021E00E948A178FE064E143E151E021E093
:100F10000E948A174091500384E364E150E021E08D
:100F20000E94E8060E94AA1780EF95E528EC30E0C1
:100F3000F9013197F1F70197D9F70895AF92BF9270
:100F4000CF92DF92EF92FF920F931F930E94A6150C
:100F50000E947A0780915403909155038C599F4FBA
:100F60009093550380935403809150038F5F809337
:100F70005003E0916603F0916703309729F0128ADD
:100F800080E090E00E94F41FE0916D03F0916E0309
:100F9000128A80E090E00E94F41F60E070E088E236
:100FA00092E420E030E040EC51E407E01AE0E12E6A
:100FB000BCE8CB2EB1E0DB2E0E94A00690936E031E
:100FC00080936D03E0918E03F0918F03128A80E08D
:100FD00090E00E94F41F0E949D2064E570E00E9452
:100FE000E91E809392030E949D2060E370E00E94BE
:100FF000E91EE82E809365036091920370E080E023
:1010000090E00E94871D5B016C01FF2400E010E06E
:10101000C801B7010E94871D9B01AC01C601B50143
:1010200008E1ACE0EA2EFEE6CF2EF2E0DF2E0E94D1
:10103000A00690938F0380938E0360916D0370914F
:101040006E030E940A06892B09F0BCCFE091600371
:10105000F0916103128A80E090E00E94F41F0E94E8
:101060009D2064E570E00E94E91E809368030E9461
:101070009D2060E370E00E94E91EE82E80936403E7
:101080006091680370E080E090E00E94871D5B0142
:101090006C01FF2400E010E0C801B7010E94871D29
:1010A0009B01AC01C601B50105E0E6E0EE2E1CE8AF
:1010B000C12E12E0D12E0E94A0069093610380936E
:1010C000600360916D0370916E030E940A06892B84
:1010D00009F0BCCF60918E0370918F038091600303
:1010E000909161030E940A06892B09F0AFCFE0912D
:1010F0008A03F0918B03128A80E090E00E94F41F33
:101100000E949D2064E570E00E94E91E8093930395
:101110000E949D2060E370E00E94E91EE82E80930B
:101120006F036091930370E080E090E00E94871D60
:101130005B016C01FF2400E010E0C801B7010E94D0
:10114000871D9B01AC01C601B50107E0B3E0EB2EA2
:10115000A2E9CA2EA2E0DA2E0E94A00690938B0389
:1011600080938A0360916D0370916E030E940A065A
:10117000892B09F0BCCF60918E0370918F03809111
:101180008A0390918B030E940A06892B09F0AFCF46
:10119000609160037091610380918A0390918B0349
:1011A0000E940A06892B09F0A2CFE0918803F091F2
:1011B0008903309729F0128A80E090E00E94F41FA2
:1011C0000E949D2064E570E00E94E91E80936A03FE
:1011D0000E949D2060E370E00E94E91EE82E80934B
:1011E000700360916A0370E080E090E00E94871DC8
:1011F0005B016C01FF2400E010E0C801B7010E9410
:10120000871D9B01AC01C601B50105E0F3E0EF2E9F
:10121000E5E9CE2EE2E0DE2E0E94A006909389033F
:101220008093880360916D0370916E030E940A069B
:10123000892B09F0BACF60918E0370918F03809152
:101240008803909189030E940A06892B09F0ADCF8B
:10125000609160037091610380918803909189038C
:101260000E940A06892B09F0A0CF60918A03709131
:101270008B0380918803909189030E940A06892B31
:1012800009F093CF0E949D206AE070E00E94E91E61
:1012900002970CF47AC0E0918C03F0918D033097A3
:1012A00029F0128A80E090E00E94F41F0E949D20A5
:1012B00064E570E00E94E91E809394030E949D20E3
:1012C00060E370E00E94E91EE82E8093690360915C
:1012D000940370E080E090E00E94871D5B016C0148
:1012E000FF2400E010E0C801B7010E94871D9B01A8
:1012F000AC01C601B50104E014E0E12EB8E9CB2E43
:10130000B2E0DB2E0E94A00690938D0380938C03A5
:1013100060916D0370916E030E940A06892B09F09B
:10132000BACF60918E0370918F0380918C0390915E
:101330008D030E940A06892B09F0ADCF60916003EE
:101340007091610380918C0390918D030E940A0635
:10135000892B09F0A0CF60918A0370918B03809153
:101360008C0390918D030E940A06892B09F093CF7C
:10137000609188037091890380918C0390918D0313
:101380000E940A06892B09F086CFE0916203F09152
:101390006303128A80E090E00E94F41FE0916B03E7
:1013A000F0916C03128A80E090E00E94F41FE091BB
:1013B0009003F0919103128A80E090E00E94F41F64
:1013C000E0917103F0917203128A80E090E00E9434
:1013D000F41F60E070E080E292EC9B01AC0103E05E
:1013E000A4E6EA2EF8EDCF2EF2E0DF2E0E94A00652
:1013F000909363038093620360E070E080E292EC7C
:101400009B01AC0100EAE3E0EE2E1CE9C12E12E0E4
:10141000D12E0E94A00690936C0380936B0360E032
:1014200070E080EF92E420E030E040E252EC03E034
:10143000B4E6EB2EA8EDCA2EA2E0DA2E0E94A0069A
:10144000909391038093900360E070E080E292ECCF
:1014500020E030E040E752E400EAF3E0EF2EECE970
:10146000CE2EE2E0DE2E0E94A006909372038093BF
:101470007103E0916003F091610380E090E0A0E0EF
:10148000BFE380879187A287B38784879587A687E4
:10149000B7871F910F91FF90EF90DF90CF90BF9093
:1014A000AF900895CF92DF92EF920F931F930E9417
:1014B000A615E0916D03F0916E03128A80E090E032
:1014C0000E94F41FE0916603F0916703128A80E0A6
:1014D00090E00E94F41FE0918E03F0918F03128A36
:1014E00080E090E00E94F41FE0916003F0916103BE
:1014F000128A80E090E00E94F41FE0918A03F0914C
:101500008B03128A80E090E00E94F41F8FE060E07D
:101510004FE251E021E00E948A1785E06AE043E053
:1015200051E021E00E948A174091540350915503E5
:1015300088E26AE021E00E94E80685E064E143E198
:1015400051E021E00E948A174091500350E0415041
:10155000504088E264E121E00E94E80660E070E02B
:1015600088E292E420E030E040EC51E407E0AAE0B9
:10157000EA2EFCE8CF2EF1E0DF2E0E94A006909329
:101580006E0380936D0360E070E080EC90E420E0F7
:1015900030E040E251EC08E4EAE1EE2E16E9C12E1B
:1015A00011E0D12E0E94A0069093670380936603FA
:1015B00060E070E080EF91E420E030E040EA50E449
:1015C00008E1BCE0EB2EAEE6CA2EA2E0DA2E0E94C5
:1015D000A00690938F0380938E0360E070E080E913
:1015E00092E420E030E040EA51E405E0F6E0EF2E3E
:1015F000ECE8CE2EE2E0DE2E0E94A006909361037E
:101600008093600360E070E080EC90E420E030E0E4
:1016100040EA51E407E013E0E12EB2E9CB2EB2E05C
:10162000DB2E0E94A00690938B0380938A0360E0D8
:1016300070E080E292EC9B01AC0103E0A4E6EA2EAC
:10164000F8EDCF2EF2E0DF2E0E94A0069093630308
:101650008093620360E070E080E292EC9B01AC0159
:1016600000EAE3E0EE2E1CE9C12E12E0D12E0E942A
:10167000A00690936C0380936B0360E070E080EFB2
:1016800092E420E030E040E252EC03E0B4E6EB2EDE
:10169000A8EDCA2EA2E0DA2E0E94A0069093910334
:1016A0008093900360E070E080E292EC20E030E014
:1016B00040E752E400EAF3E0EF2EECE9CE2EE2E060
:1016C000DE2E0E94A0069093720380937103009116
:1016D0006D0310916E036091880170E080E090E0EE
:1016E0000E94871DF80160877187828793876487CE
:1016F000758786879787E0916003F091610380E0AA
:1017000090E0A0E0BFE380879187A287B3878487BA
:101710009587A687B787109255031092540383E0EC
:10172000809387011092500310925103109252033C
:10173000109253030E94AA177D9902C07E9BFCCF92
:101740000E94A61584E166E149E351E021E00E9490
:101750008A1786E06AE042E451E021E00E948A179D
:101760000E94AA177D9902C07E9BFCCF1F910F910A
:10177000EF90DF90CF900895CF92DF92EF92FF929B
:101780000F931F9380918701815080938701E0918F
:101790006203F0916303128A80E090E00E94F41FDC
:1017A000E0916B03F0916C03128A80E090E00E945C
:1017B000F41FE0919003F0919103128A80E090E091
:1017C0000E94F41FE0917103F0917203128A80E08D
:1017D00090E00E94F41F80918701882311F40E94F9
:1017E000520A80915003813009F00AC1E0916D03E3
:1017F000F0916E03128A80E090E00E94F41FE09165
:101800006603F0916703128A80E090E00E94F41F63
:10181000E0918E03F0918F03128A80E090E00E94A5
:10182000F41FE0916003F0916103128A80E090E080
:101830000E94F41FE0918A03F0918B03128A80E0EA
:1018400090E00E94F41F60E070E088E292E420E003
:1018500030E040EC51E407E0EAE0EE2E1CE8C12E57
:1018600011E0D12E0E94A00690936E0380936D0329
:1018700060E070E080EC90E420E030E040E251EC89
:1018800008E4BAE1EB2EA6E9CA2EA1E0DA2E0E9406
:10189000A006909367038093660360E070E080EF9A
:1018A00091E420E030E040EA50E408E1FCE0EF2E73
:1018B000EEE6CE2EE2E0DE2E0E94A00690938F038D
:1018C00080938E0360E070E080E992E420E030E0F5
:1018D00040EA51E405E016E0E12EBCE8CB2EB2E090
:1018E000DB2E0E94A006909361038093600360E06A
:1018F00070E080EC90E420E030E040EA51E407E062
:10190000A3E0EA2EF2E9CF2EF2E0DF2E0E94A0063D
:1019100090938B0380938A0360E070E080E292EC06
:101920009B01AC0103E0E4E6EE2E18EDC12E12E0BF
:10193000D12E0E94A006909363038093620360E01F
:1019400070E080E292EC9B01AC0100EAB3E0EB2E88
:10195000ACE9CA2EA2E0DA2E0E94A00690936C0396
:1019600080936B0360E070E080EF92E420E030E071
:1019700040E252EC03E0F4E6EF2EE8EDCE2EE2E09A
:10198000DE2E0E94A006909391038093900360E066
:1019900070E080E292EC20E030E040E752E400EAC0
:1019A00013E0E12EBCE9CB2EB2E0DB2E0E94A006B4
:1019B000909372038093710300916D0310916E03F5
:1019C0006091880170E080E090E00E94871DF8013E
:1019D00060877187828793876487758786879787F3
:1019E000E0916003F091610380E090E0A0E0BFE34C
:1019F00080879187A287B38784879587A687B787D3
:101A000080915003823008F4E7C0E0916D03F091BB
:101A10006E03128A80E090E00E94F41FE091880338
:101A2000F0918903128A80E090E00E94F41FE09117
:101A30008E03F0918F03128A80E090E00E94F41FE1
:101A4000E0916003F0916103128A80E090E00E94CF
:101A5000F41FE0918A03F0918B03128A80E090E0FA
:101A60000E94F41F6091920370E080E090E00E9479
:101A7000871D7B018C016091650370E080E090E040
:101A80000E94871D9B01AC01C801B70108E1ACE0D1
:101A9000EA2EFEE6CF2EF2E0DF2E0E94A006909303
:101AA0008F0380938E036091680370E080E090E084
:101AB0000E94871D7B018C016091640370E080E0CF
:101AC00090E00E94871D9B01AC01C801B70105E0B1
:101AD000E6E0EE2E1CE8C12E12E0D12E0E94A006F8
:101AE00090936103809360036091930370E080E0C2
:101AF00090E00E94871D7B018C0160916F0370E074
:101B000080E090E00E94871D9B01AC01C801B701F5
:101B100007E0B3E0EB2EA2E9CA2EA2E0DA2E0E9483
:101B2000A00690938B0380938A0360916A0370E010
:101B300080E090E00E94871D7B018C016091700322
:101B400070E080E090E00E94871D9B01AC01C8011D
:101B5000B70105E0F3E0EF2EE5E9CE2EE2E0DE2E60
:101B60000E94A006909389038093880360E070E050
:101B700088E292E420E030E040EC51E407E01AE033
:101B8000E12EBCE8CB2EB1E0DB2E0E94A0068C013A
:101B900090936E0380936D036091880170E080E004
:101BA00090E00E94871DF801608771878287938784
:101BB0006487758786879787E0916003F09161035A
:101BC00080E090E0A0E0BFE380879187A287B387A1
:101BD00084879587A687B7871F910F91FF90EF9015
:101BE000DF90CF9008950E94A6158FB182958695BB
:101BF000877080FD07C08FB182958695869583702A
:101C000080FF08C080915003882321F481E08093F5
:101C10005003089580915003882379F484E166E1AC
:101C200049E351E021E00E948A1786E06AE042E43D
:101C300051E021E00E948A1772C1189B03C00E94E4
:101C400023076DC183B1869580FF02C08CE40DC06F
:101C50001F9B02C084E409C0489B02C082E505C006
:101C600089B1869580FF05C085E5809387030E9432
:101C7000FF0280916203909163030E945418809147
:101C80006B0390916C030E94541880919003909183
:101C900091030E94541880917103909172030E94E5
:101CA000541880916D0390916E030E945418809196
:101CB0008E0390918F030E94541880918A03909113
:101CC0008B030E94541880916003909161030097E8
:101CD00061F00E94541860916003709161038091DB
:101CE0006D0390916E030E940D048091500381302A
:101CF000D1F480916603909167030E94541860911B
:101D000066037091670380916D0390916E030E944A
:101D10000A06609166037091670380916003909159
:101D200061030E940A0680915003823090F1609115
:101D30008E0370918F0380916003909161030E94E4
:101D40000A06E0918803F09189038289813009F5C0
:101D5000CF010E945418609188037091890380918B
:101D60006D0390916E030E940A06892B91F0E09119
:101D70008803F0918903128A80E090E00E94F41FAA
:101D800080915403909155030A9690935503809344
:101D9000540360918A0370918B0380916D0390913D
:101DA0006E030E940A06892BC1F060916D03709149
:101DB0006E0380918A0390918B030E94630460916B
:101DC0008E0370918F0380916D0390916E030E943A
:101DD0000A06892B11F00E949E0760918E03709174
:101DE0008F0380916D0390916E030E940A066091AB
:101DF00062037091630380916D0390916E030E9462
:101E00000A06609190037091910380916D03909107
:101E10006E030E940A0660916B0370916C038091BF
:101E20006D0390916E030E940A0660917103709198
:101E3000720380916D0390916E030E940A06809157
:101E40008C0390918D03009709F44FC00E945418A1
:101E500060918C0370918D0380916D0390916E035E
:101E60000E940A06892B09F440C060916D037091AD
:101E70006E0380918C0390918D030E94A404609165
:101E800060037091610380916D0390916E030E94D5
:101E90000A06892B61F4609160037091610380915F
:101EA0008C0390918D030E940A06892BF1F0E0913A
:101EB0006003F091610380E090E0A8E4B3E48083E4
:101EC0009183A283B38384839583A683B783128A85
:101ED00080E090E00E94F41FE0918C03F0918D036C
:101EE000128A80E090E00E94F41F6091600370917C
:101EF00061036115710599F080916D0390916E03F6
:101F00000E940A06892B59F0E0916D03F0916E034F
:101F1000128A80E090E00E94F41F0E94BC0B0E9495
:101F2000AA170895DF92EF92FF920F931F93182F35
:101F3000D62E8DB79EB70A970FB6F8949EBF0FBEE8
:101F40008DBFEDB7FEB73196A3E7EA2EA3E0FA2ED8
:101F5000ADB7BEB71296FC92EE92119784E190E075
:101F60009383828382E591E09583848326833783FC
:101F7000408751870E94C7218DB79EB70A960FB63A
:101F8000F8949EBF0FBE8DBF812F6D2DA701202F0E
:101F90000E948A171F910F91FF90EF90DF90089594
:101FA000DC010D900020E9F71197A81BB90BBD01CA
:101FB0000E94871208951F920F920FB60F9211245C
:101FC0002F933F934F935F936F937F938F939F9341
:101FD000AF93BF93EF93FF936091580370915903B0
:101FE00080915A0390915B032DEB37E346E05CE36D
:101FF0000E94861C609358037093590380935A0380
:1020000090935B0320E030E040E251E40E943D1EEB
:102010000E94561DDC01CB010E94A2206091580352
:102020007091590380915A0390915B032CEE31E536
:1020300048E75FE30E94391E88230CF43FC080917B
:1020400053038F5F809353038A3038F01092530309
:10205000809152038F5F80935203809152038630A8
:1020600038F010925203809151038F5F8093510397
:1020700080915003882321F085E591E00E94D00FE4
:1020800080E090E0A0E0B0E0809358039093590383
:10209000A0935A03B0935B032BB13BB122952695D5
:1020A0002695217081E090E0821B9109B6E0880FAF
:1020B000991FBA95E1F73F7B382B3BB9FF91EF9120
:1020C000BF91AF919F918F917F916F915F914F9150
:1020D0003F912F910F900FBE0F901F90189585E0A4
:1020E0006AE04FE551E021E00E948A170E94AA179A
:1020F0000E94B6118EE691E090938B0180938A0145
:102100000E94D00F0E94A61582E06AE046E751E0E7
:1021100021E00E948A170E94AA1708958F929F9229
:10212000AF92BF92CF92DF92EF920F931F933F9A9D
:10213000479A569AE1E6F0E080E8808311E0108348
:102140008FE30E94DE170E940F1885B5846085BD5D
:1021500010936E0078940E946F10219827985098E1
:1021600051988598869820983F9A8FEA0E94DE17AA
:1021700060E070E088E292E420E030E040EC51E47E
:1021800007E01AE0E12EBCE8CB2EB1E0DB2E0E9486
:10219000A00690936E0380936D0360E070E080EC86
:1021A00090E420E030E040E251EC08E4AAE1EA2EBD
:1021B000F6E9CF2EF1E0DF2E0E94A0069093670390
:1021C0008093660360E070E080EF91E420E030E00F
:1021D00040EA50E408E1ECE0EE2E1EE6C12E12E0EB
:1021E000D12E0E94A00690938F0380938E0360E00F
:1021F00070E080E992E420E030E040EA51E405E05C
:10220000B6E0EB2EACE8CA2EA2E0DA2E0E94A006C1
:10221000909361038093600360E070E080EC90E451
:1022200020E030E040EA51E407E0F3E0EF2EE2E99D
:10223000CE2EE2E0DE2E0E94A00690938B038093C8
:102240008A0318ED812E12E0912E60E070E080E2AA
:1022500092EC9B01AC0103E0B4E6EB2E64010E941A
:10226000A0069093630380936203ACE9AA2EA2E0D8
:10227000BA2E60E070E080E292EC9B01AC0100EAD3
:10228000F3E0EF2E65010E94A00690936C0380930B
:102290006B0360E070E080EF92E420E030E040E229
:1022A00052EC03E0E4E6EE2E64010E94A006909357
:1022B00091038093900360E070E080E292EC20E074
:1022C00030E040E752E400EA13E0E12E65010E94AD
:1022D000A006909372038093710300916D03109197
:1022E0006E036091880170E080E090E00E94871D9D
:1022F000F8016087718782879387648775878687EF
:102300009787E0916003F091610380E090E0A0E0A6
:10231000BFE380879187A287B38784879587A68745
:10232000B7870E94AA171F910F91EF90DF90CF906F
:10233000BF90AF909F908F900895CF93DF930E94AE
:102340008E1080E197E228EC30E0F9013197F1F747
:102350000197D9F7C8ECD0E00E94F30D88EE93E026
:10236000FE013197F1F70197D9F7F6CF81E080931D
:10237000D70080EA8093D80082E189BD09B400FECD
:10238000FDCF80E98093D8001092E00010925C03AA
:1023900010925D038CE08093E20078940895809120
:1023A0005C0308952FB7F89480915C03882369F04B
:1023B00083E08093E9009BE68091E80085FD09C0F9
:1023C00082FF03C09093E800F7CF2FBF2FEF3FEFBE
:1023D0000CC09091F1008091E80085FD03C08BE670
:1023E0008093E8002FBF292F30E0C90108952FB74F
:1023F000F89480915C03882311F490E010C083E08E
:102400008093E9009091F200992349F48091E800CB
:1024100082FF05C085FD03C08BE68093E8002FBFD7
:10242000892F089580915C03882371F09FB7F894F9
:1024300083E08093E9002BE602C02093E8008091BE
:10244000E80085FDFACF9FBF0895482F80915C0377
:102450008823D9F12FB7F89484E08093E900809124
:102460005F03882341F08091E80085FD02C02FBF03
:1024700012C010925F039091E400975E34E0809167
:10248000E80085FD13C02FBF8091E400891729F46F
:1024900081E080935F038FEF089580915C03882330
:1024A000A1F02FB7F8943093E900E9CF4093F10001
:1024B0008091E80085FD03C08AE38093E80085E011
:1024C00080935E032FBF80E008958FEF0895282F3B
:1024D00080915C03882351F09FB7F89484E0809347
:1024E000E9008091E80085FD03C09FBF8FEF08954C
:1024F0002093F1008091E80085FD03C08AE380937A
:10250000E80085E080935E039FBF80E00895CF934D
:10251000DF93EC0180915C03882309F41CC13FB771
:10252000F89484E08093E90080915F03882309F4A4
:1025300008C18091E80085FD02C03FBF0CC1109228
:102540005F03FFC09091E400975E8091E80085FDF5
:1025500013C03FBF8091E400891721F481E080938C
:102560005F03F9C080915C03882309F4F4C03FB78E
:10257000F894B093E900E9CF8091F200242F281B52
:10258000822F90E06817790708F4262F822F90E0B9
:102590008134910508F0C6C08A5A9F4FFC01EE0FA6
:1025A000FF1F0590F491E02D099489918093F1002B
:1025B00089918093F10089918093F10089918093B2
:1025C000F10089918093F10089918093F1008991C4
:1025D0008093F10089918093F10089918093F100BB
:1025E00089918093F10089918093F1008991809382
:1025F000F10089918093F10089918093F100899194
:102600008093F10089918093F10089918093F1008A
:1026100089918093F10089918093F1008991809351
:10262000F10089918093F10089918093F100899163
:102630008093F10089918093F10089918093F1005A
:1026400089918093F10089918093F1008991809321
:10265000F10089918093F10089918093F100899133
:102660008093F10089918093F10089918093F1002A
:1026700089918093F10089918093F10089918093F1
:10268000F10089918093F10089918093F100899103
:102690008093F10089918093F10089918093F100FA
:1026A00089918093F10089918093F10089918093C1
:1026B000F10089918093F10089918093F1008991D3
:1026C0008093F10089918093F10089918093F100CA
:1026D00089918093F10089918093F1008991809391
:1026E000F10089918093F10089918093F1008991A3
:1026F0008093F10089918093F10089918093F1009A
:1027000089918093F10089918093F1008991809360
:10271000F10089918093F10089918093F100899172
:102720008093F10089918093F1008091E80085FD0C
:1027300002C05093E800621B7109A0935E033FBF83
:1027400004C0B4E040E45AE3A5E06115710509F066
:10275000F9CE80E001C08FEFDF91CF9108959FB750
:10276000F89480915E03882341F084E08093E9002F
:102770008AE38093E80010925E039FBF0895609102
:102780003E0370913F03809140039091410308956F
:1027900080914203089580914303089580914403FA
:1027A000089580915D030895282F9FB7F894809134
:1027B0005C03882339F082E08093E9008091E8008F
:1027C00085FD03C09FBF8FEF089581EA8093F100DC
:1027D00080E28093F1001092F1001092F1001092CB
:1027E000F1001092F10081E08093F1001092F1006D
:1027F0002093F1008AE38093E8009FBF80E0089572
:102800001F920F920FB60F9211248F939F93809176
:10281000E1001092E100982F83FF11C01092E900AF
:1028200081E08093EB001092EC0082E18093ED0058
:1028300088E08093F00010925C0310925D0392FF99
:1028400013C080915C03882379F080915E03882314
:1028500059F0815080935E03882331F484E08093A3
:10286000E9008AE38093E8009F918F910F900FBE5B
:102870000F901F9018951F920F920FB60F92112470
:102880000F931F932F933F934F935F936F937F9378
:102890008F939F93AF93BF93EF93FF931092E900B1
:1028A0008091E80083FF3CC14091F1003091F1003C
:1028B0008091F100682F70E02091F100922F80E06C
:1028C000682B792B8091F100A82FB0E02091F100C6
:1028D000922F80E0A82BB92B1091F1000091F1000C
:1028E00082EF8093E800363009F05AC025E331E0EA
:1028F000A90145505040F901379785919491861769
:10290000970701F5FA01859194918A179B07D1F4F5
:102910009A012E5F3F4FF901659174912E5F3F4FF1
:10292000F9014491212F30E0902F80E0282B392BA2
:102930002F3F310519F010F02FEF30E0241758F435
:10294000422F09C0295F3F4F495F5F4FF1E02F35AC
:102950003F0789F6E5C05EEF8091E800282F30E060
:10296000C90185709070892BB9F322FDDCC0342F2A
:10297000413108F030E1232FCB0106C0FC01019664
:10298000E491E093F10021502223C1F7630F711D00
:10299000431B5093E8004423F9F63031E9F2C3C0F9
:1029A000353061F48EEF8093E8008091E80080FF7D
:1029B000FCCF862F80688093E300B5C0393051F595
:1029C000442309F0ADC060935C0310925D03109244
:1029D0005E038EEF8093E80088E591E021E020938C
:1029E000E900FC010196E491E093EB00EE2369F02D
:1029F000AC014F5F5F4FFC0184918093EC00CA01F2
:102A00000196FA0134913093ED002F5F253039F7AC
:102A10008EE181C0383061F4403809F081C0809186
:102A2000E80080FFFCCF80915C038093F10050C0F0
:102A3000313289F4413A09F073C08091E80080FF97
:102A4000FCCFEEE3F3E081918093F10083E0E53485
:102A5000F807C9F73DC03032A1F4413209F060C037
:102A60008091E80082FFFCCFEEE3F3E08091F1007B
:102A7000819383E0E534F807C9F78BEF8093E80092
:102A800027C0323251F4413209F04AC060935D03ED
:102A90008091E80080FFFCCF1BC03323E9F48091D4
:102AA000E80080FFFCCF423811F080E00DC0A09319
:102AB000E9008091EB0090E025E0969587952A95B6
:102AC000E1F781701092E9008093F1001092F1001B
:102AD0008EEF8093E80027C0313011F0333001F5DC
:102AE0004230F1F4672BE1F42A2F2F77822F8150A7
:102AF0008430B0F48EEF8093E8002093E900333007
:102B000079F089E18093EB0081E090E002C0880FCA
:102B1000991F2A95E2F78093EA001092EA0003C019
:102B200081E28093EB00FF91EF91BF91AF919F9174
:102B30008F917F916F915F914F913F912F911F9155
:102B40000F910F900FBE0F901F901895E5E9F3E0DD
:102B5000119285E0ED38F807D9F70895843580F5AE
:102B6000603370F5262F269526952695677090E0A0
:102B7000442399F0E4E52E9FF0011124E80FF91F9A
:102B8000EB56FC4F81E090E002C0880F991F6A95D8
:102B9000E2F72081282B20830895E4E52E9FF001A1
:102BA0001124E80FF91FEB56FC4F81E090E002C0C2
:102BB000880F991F6A95E2F780952081282320834A
:102BC00008952F923F924F925F926F927F928F92D1
:102BD0009F92AF92BF92CF92DF92EF92FF920F93AC
:102BE0001F93DF93CF93CDB7DEB72E970FB6F89430
:102BF000DEBF0FBECDBFE82ED62E142FF22E0C87CF
:102C00008417F9F4862E9924A22EBB240EC08E2D93
:102C1000682D4C850E94AE15DF1420F40894811CA9
:102C2000911C03C0089481089108DF1428F4A814AB
:102C3000B9040CF401C1EBCF8A149B040CF4FCC062
:102C4000E6CF6217F9F4882E9924A42EBB240EC077
:102C5000882D6D2D4C850E94AE15E11620F4089448
:102C6000811C911C03C0089481089108E11628F486
:102C7000A814B9040CF4E0C0EBCF8A149B040CF444
:102C8000DBC0E6CF481720F41E2DE42EF62ED22E00
:102C9000812F90E09A838983AE2CBB24BC016A19F2
:102CA0007B09882777FD8095982F0E94891D6F8367
:102CB000788789879A872F2C33244D2C5524B1018E
:102CC00064197509882777FD8095982F0E94891DC2
:102CD0003B014C012F81388549855A850E94EE1CA5
:102CE0006B837C838D839E8320E030E040E050E066
:102CF0000E94391E87FF0DC0C401B30190582F8177
:102D0000388549855A850E94EE1C6B837C838D83B0
:102D10009E830F2EF0E0CF2EF0E0DF2EF0E0EF2EBE
:102D2000F0E0FF2EF02D70C0AB868A2D642D4C850F
:102D30000E94AE15C701B6012B813C814D815E8199
:102D40000E94861C31C08B85642D4C850E94AE1577
:102D50001E861D86C401B30120E030E040E050E053
:102D60000E94391E181624F4E1E0F0E0FE87ED879A
:102D700000E010E0C401B30120E030E040E050E0AA
:102D80000E94EA1C882314F401E010E08D859E85E2
:102D9000801B910B480E591EC701B60120E030E0A0
:102DA00040E85FE30E94851C6B017C0120E030E07D
:102DB00040E05FE30E94391E88239CF0C401B30108
:102DC00020E030E040E050E00E94391E18162CF45C
:102DD000241435040CF0B7CF04C0421453040CF093
:102DE000B2CF6F81788589859A8520E030E040E018
:102DF00050E00E94391E181624F40894A11CB11C3E
:102E000003C00894A108B1086F81788589859A85E7
:102E100020E030E040E050E00E94391E181634F403
:102E2000E981FA81EA15FB053CF07ECF89819A8120
:102E3000A816B9060CF078CF2E960FB6F894DEBF20
:102E40000FBECDBFCF91DF911F910F91FF90EF90FB
:102E5000DF90CF90BF90AF909F908F907F906F90BA
:102E60005F904F903F902F9008957F928F929F9206
:102E7000AF92BF92CF92DF92EF92FF920F931F9388
:102E8000CF93DF93D82E762EC22E85E0489FA001E7
:102E900011248A01095A1E4F91E0892E912C8CE54C
:102EA000A82E81E0B82EA40EB51EF8018491CC2086
:102EB00009F48095C0E0D0E0E82EFF24672D6C0F68
:102EC000A4010C2E02C0440F551F0A94E2F74E21B4
:102ED0005F210C2E02C0559547950A94E2F78D2D7F
:102EE0000E94AE152196C830D10541F70F5F1F4FE4
:102EF000D3940A151B05C9F6DF91CF911F910F914D
:102F0000FF90EF90DF90CF90BF90AF909F908F9009
:102F10007F900895EF92FF920F931F93CF93DF93CB
:102F2000E62EEA01F22E082F10E007C0802F6E2D4A
:102F30002F2D0E9435170B5F1F5FFE01E10FF11D62
:102F40004081442399F7DF91CF911F910F91FF901A
:102F5000EF900895CF93DF9380E060E00E941F1808
:102F6000C5E9D3E081E069910E94BD1785E0CD38C5
:102F7000D807C1F7DF91CF91089595B18295880F59
:102F8000807E9F7D982B95B95F9827E030E070E0B8
:102F90008F98CB01022E02C0959587950A94E2F78F
:102FA00080FF02C02E9A01C02E988F9A2150304087
:102FB0008FEF2F3F380761F75F9A08951F93182FFF
:102FC000579A249A259A269A879A2C985F9A2C9A2F
:102FD00080E061E20E94BD17106880E0612F0E94CE
:102FE000BD1780E064E00E94BD1780E063E10E94AD
:102FF000BD1780E06CE00E94BD1780E060E20E9497
:10300000BD1780E06CE00E94BD1780E060E40E9484
:10301000BD1780E060E80E94BD171F910895CF930F
:10302000DF93C0E0D0E081E060E00E94BD17219610
:1030300081E0C83FD807B9F7DF91CF9108951F937A
:10304000182F606480E00E94BD17106880E0612F37
:103050000E94BD171F910895AF92BF92CF92EF9239
:103060000F931F93FC014083518362837383048316
:10307000158326833783E08AC18AB48AA38A81E0D4
:10308000828B80E090E0A0E0B0E080879187A2870B
:10309000B38784879587A687B7871F910F91EF9095
:1030A000CF90BF90AF9008952F923F925F926F9212
:1030B0007F928F929F92AF92BF92CF92DF92EF92C8
:1030C000FF920F931F93CF93DF938C01DC015296F5
:1030D0008C915297882309F47FC06D917D918D91D9
:1030E0009C910E94A01E0E94561D3B01F801248164
:1030F000358146815781643571050CF06DC0D8016A
:1031000050968C91C82FD0E0CE01860D971D1816D1
:1031100019060CF061C0CA01B9010E94A01E0E94EC
:10312000561D4B01603371050CF056C0F8018189C2
:103130009401280F311D121613060CF04DC057E0F4
:10314000A52EB12CAC0EBD1E43E0B594A7944A95B4
:10315000E1F7EE24FF24CC24DD2437E0232E312CAC
:1031600030C0CE0123E0959587952A95E1F7D801E7
:103170005396ED91FC915497EC0DFD1DE80FF91F4E
:10318000408150E0CE0187709070F101E81BF90B8F
:1031900002C055954795EA95E2F741709E01260DCC
:1031A000822F652D0E94AE152196D80150968C91E4
:1031B00090E0C817D907ACF20894E11CF11CCA0CC6
:1031C000DB1CF801818990E0E816F9062CF4C0E0D8
:1031D000D0E05E2C580CE9CFDF91CF911F910F9179
:1031E000FF90EF90DF90CF90BF90AF909F908F9027
:1031F0007F906F905F903F902F900895A1E1B0E095
:10320000E4E0F9E10C94FC1E3C017F876E876A01C3
:10321000FC0117821682838181FD03C06FEF7FEF6F
:103220006FC39E012F5F3F4F398B288BF3012381A2
:10323000EE85FF8523FD859123FF8191FF87EE8732
:10324000882309F45AC3853251F4EE85FF8523FDA6
:10325000859123FF8191FF87EE87853229F490E0E5
:10326000B3010E949B21E2CF982F10E0882499247B
:103270001032B0F49B3269F09C3228F4903251F055
:10328000933271F40BC09D3239F0903349F41160E0
:1032900028C01260146025C0186023C0106121C0CE
:1032A00017FD2AC0892F80538A3078F416FF06C094
:1032B000FAE09F9E902C1124980E13C03AE0839E52
:1032C000802C1124880E10620CC09E3221F416FD51
:1032D00014C3106406C09C3611F4106802C09836FE
:1032E00059F4EE85FF8523FD959123FF9191FF878A
:1032F000EE87992309F0BCCF892F8554833020F4C1
:10330000812F8061905E07C0892F8556833008F039
:103310009FC1812F8F7E86FD02C076E0972E6FE3DE
:10332000F62EF822953619F4F0E4FF2A07C09636F7
:1033300019F420E8F22A02C091109A94F7FE0AC00C
:103340003BE3391518F45CE3B52E02C0B92CB394F5
:1033500027E009C047E0491520F4BB2447E0942E3C
:10336000F7CF292DBB24C60104969D878C87F601D3
:103370006081718182819381AE014F5F5F4F0B2D20
:103380000E94AD206C010981202E332400FF04C06F
:1033900003FD02C01DE209C0F1FE02C01BE205C030
:1033A000F2FC02C010E001C010E2C1018C7090700C
:1033B000892BB9F1112311F483E001C084E0881551
:1033C00010F088240AC0881AF3FC07C080E290E05D
:1033D000B3010E949B218A94C9F7112329F0812F00
:1033E00090E0B3010E949B2123FE03C007ED13E090
:1033F0000EC00BED13E00BC0E114F10409F0805294
:1034000090E0B3010E949B210F5F1F4F05C0EF2C7E
:10341000FF24F0E1EF22FF24F8018491882361F773
:1034200014C1F7FE12C0BC0C24FE04C08A81813393
:1034300009F4BA941B141CF0BB24B3942DC0F8E01B
:10344000FB1550F538E0B32E27C0F6FC25C0892DBA
:1034500090E08C159D054CF02CEFC2162FEFD20694
:1034600024F030E8F32A01C09A94992049F0E2E070
:10347000F0E0EC0FFD1FE90DF11D80818033A1F319
:10348000F7FE0AC0B92CB394892D90E0C816D9066E
:1034900014F0992401C09C18F7FC03C025E030E02B
:1034A00009C01C141D041CF021E030E003C096018B
:1034B0002F5F3F4F112311F02F5F3F4F992029F0CD
:1034C000892D90E00196280F391F882D90E028174C
:1034D000390714F0882401C0821A4F2C5524C201E8
:1034E00089709070892B39F008C080E290E0B301B8
:1034F0000E949B218A948820C1F7112329F0812FF3
:1035000090E0B3010E949B2143FE07C008C080E306
:1035100090E0B3010E949B218A948820C1F7F7FEB6
:1035200046C08601D7FE02C000E010E07601089494
:10353000E11CF11CE01AF10A41E050E04C0F5D1F64
:10354000E40EF51E26014B185108892D90E0AA249F
:10355000BB24A81AB90A5FEF0F3F150729F48EE2C2
:1035600090E0B3010E949B21C016D10634F04016B2
:1035700051061CF4F701808101C080E30150104026
:103580000894E11CF11C0A151B052CF090E0B30116
:103590000E949B21E0CF0C151D0539F49A819633CA
:1035A00018F4953311F424FE81E390E04BC08A8136
:1035B000813309F00F7E90E0B3010E949B21992096
:1035C000A1F08EE290E0B3010E949B2112E0E1E0C5
:1035D000F0E0EC0FFD1FE10FF11D1F5F808190E017
:1035E000B3010E949B219A9491F744FC03C085E6A5
:1035F00090E002C085E490E0B3010E949B21D7FCDB
:1036000005C0C114D10441F404FF06C0D094C19494
:10361000D108D3948DE201C08BE290E0B3010E9407
:103620009B2180E305C08F5F26EF3FEFC20ED31EC4
:103630003AE0C316D104BCF790E0B3010E949B218D
:10364000C601C096B3010E949B21CC84DD8452C187
:10365000933631F0933799F0933509F059C023C070
:10366000F601808189835E010894A11CB11C22E0CF
:1036700030E0C20ED31E21E0E22EF12C12C0F60182
:10368000A080B18016FD03C06FEF7FEF02C0692DEF
:1036900070E022E030E0C20ED31EC5010E949021EE
:1036A0007C011F7713C0F601A080B18016FD03C016
:1036B0006FEF7FEF02C0692D70E022E030E0C20EB4
:1036C000D31EC5010E9485217C01106813FF07C02D
:1036D0001BC080E290E0B3010E949B218A94882D58
:1036E00090E0E816F906A8F30FC0F50117FD8591E3
:1036F00017FF81915F0190E0B3010E949B2181102F
:103700008A940894E108F108E114F10471F7F2C019
:10371000943611F0993689F517FF08C0F60120811B
:1037200031814281538184E090E00AC0F6018081BA
:1037300091819C01442737FD4095542F82E090E011
:10374000C80ED91E9FE6F92EF12257FF09C05095E9
:103750004095309521953F4F4F4F5F4F90E8F92AA4
:10376000CA01B901AE014F5F5F4F2AE030E00E940D
:10377000F821E82EE889EE1A41C0953721F41F7E22
:103780002AE030E01CC0197F9F3661F0903720F4AA
:10379000983509F0B2C00FC0903739F0983709F06A
:1037A000ACC004C028E030E00AC0106114FD146011
:1037B00020E130E004C014FD166020E132E017FF84
:1037C00008C0F601608171818281938144E050E0FC
:1037D00008C0F60180819181BC0180E090E042E068
:1037E00050E0C40ED51EAE014F5F5F4F0E94F8211E
:1037F000E82E5889E51A8FE7F82EF122F6FE0BC065
:103800008EEFF822E91438F4F4FE07C0F2FC05C08C
:103810009FEEF92202C01E2D01C0192DF4FE0DC02D
:10382000FE01EE0DF11D8081803319F4E9EEFE22D8
:1038300008C01F5FF2FE05C003C08F2D867809F017
:103840001F5F0F2DF3FC14C0F0FE0FC0181510F011
:103850009E2C0BC09E2C980C911A182D06C080E24D
:1038600090E0B3010E949B211F5F1815C0F304C0B4
:10387000181510F4811A01C0882404FF0FC080E3DA
:1038800090E0B3010E949B2102FF1DC001FD03C017
:1038900088E790E00EC088E590E00BC0802F867826
:1038A00091F001FF02C08BE201C080E2F7FC8DE2E3
:1038B00090E0B3010E949B2106C080E390E0B30139
:1038C0000E949B219A94E914C0F3EA94E1E0F0E0AD
:1038D000EC0FFD1FEE0DF11D808190E0B3010E9401
:1038E0009B21EE2091F706C080E290E0B3010E9498
:1038F0009B218A948820C1F799CCF3016681778156
:10390000CB016196E2E10C94181F5058BB27AA27FF
:103910000ED075C166D130F06BD120F031F49F3FED
:1039200011F41EF45BC10EF4E095E7FB51C1E92FE1
:1039300077D180F3BA17620773078407950718F0E9
:1039400071F49EF58FC10EF4E0950B2EBA2FA02DC9
:103950000B01B90190010C01CA01A0011124FF273C
:10396000591B99F0593F50F4503E68F11A16F04037
:10397000A22F232F342F4427585FF3CF4695379536
:103980002795A795F0405395C9F77EF41F16BA0BFB
:10399000620B730B840BBAF09150A1F0FF0FBB1FA9
:1039A000661F771F881FC2F70EC0BA0F621F731FF2
:1039B000841F48F4879577956795B795F7959E3F4F
:1039C00008F0B3CF9395880F08F09927EE0F9795DD
:1039D00087950895D9D008F481E008950CD00FC1DF
:1039E00007D140F0FED030F021F45F3F19F0F0C075
:1039F000511139C1F3C014D198F39923C9F3552358
:103A0000B1F3951B550BBB27AA27621773078407D1
:103A100038F09F5F5F4F220F331F441FAA1FA9F387
:103A200033D00E2E3AF0E0E830D091505040E69579
:103A3000001CCAF729D0FE2F27D0660F771F881FDA
:103A4000BB1F261737074807AB07B0E809F0BB0BC9
:103A5000802DBF01FF2793585F4F2AF09E3F5105ED
:103A600068F0B6C000C15F3FECF3983EDCF386958A
:103A700077956795B795F7959F5FC9F7880F911D63
:103A80009695879597F90895E1E0660F771F881F4F
:103A9000BB1F621773078407BA0720F0621B730B02
:103AA000840BBA0BEE1F88F7E095089504D0689454
:103AB000B111D9C00895BCD088F09F5790F0B92FAC
:103AC0009927B751A0F0D1F0660F771F881F991F73
:103AD0001AF0BA95C9F712C0B13081F0C3D0B1E085
:103AE0000895C0C0672F782F8827B85F39F0B93F95
:103AF000CCF3869577956795B395D9F73EF4909575
:103B00008095709561957F4F8F4F9F4F0895E894F2
:103B100009C097FB3EF490958095709561957F4F15
:103B20008F4F9F4F9923A9F0F92F96E9BB279395C3
:103B3000F695879577956795B795F111F8CFFAF4D3
:103B4000BB0F11F460FF1BC06F5F7F4F8F4F9F4F04
:103B500016C0882311F096E911C0772321F09EE862
:103B6000872F762F05C0662371F096E8862F70E0C8
:103B700060E02AF09A95660F771F881FDAF7880FA2
:103B80009695879597F90895990F0008550FAA0BF8
:103B9000E0E8FEEF16161706E807F907C0F0121660
:103BA0001306E407F50798F0621B730B840B950B63
:103BB00039F40A2661F0232B242B252B21F40895B8
:103BC0000A2609F4A140A6958FEF811D811D089555
:103BD00097F99F6780E870E060E008959FEF80ECC0
:103BE000089500240A941616170618060906089563
:103BF00000240A9412161306140605060895092EC9
:103C00000394000C11F4882352F0BB0F40F4BF2B37
:103C100011F460FF04C06F5F7F4F8F4F9F4F089577
:103C200057FD9058440F551F59F05F3F71F047956D
:103C3000880F97FB991F61F09F3F79F08795089552
:103C4000121613061406551FF2CF4695F1DF08C071
:103C5000161617061806991FF1CF8695710561058E
:103C600008940895E894BB2766277727CB0197F936
:103C700008958ADF08F48FEF08950BD0C0CFB1DF2D
:103C800028F0B6DF18F0952309F0A2CFA7CF1124B2
:103C9000EACFC6DFA0F3959FD1F3950F50E0551FF3
:103CA000629FF001729FBB27F00DB11D639FAA2791
:103CB000F00DB11DAA1F649F6627B00DA11D661FE0
:103CC000829F2227B00DA11D621F739FB00DA11D01
:103CD000621F839FA00D611D221F749F3327A00DBB
:103CE000611D231F849F600D211D822F762F6A2F57
:103CF00011249F5750408AF0E1F088234AF0EE0FDC
:103D0000FF1FBB1F661F771F881F91505040A9F7E8
:103D10009E3F510570F05CCFA6CF5F3FECF3983E1D
:103D2000DCF3869577956795B795F795E7959F5F4F
:103D3000C1F7FE2B880F911D9695879597F90895E9
:103D400077DFE0F09E37D8F09639B8F49E3848F423
:103D5000672F782F8827985FF9CF86957795679595
:103D600093959539D0F3B62FB1706B0F711D811DEE
:103D700020F4879577956795939502C01CC073CF03
:103D8000882371F4772321F09850872B762F07C072
:103D9000662311F499270DC09051862B70E060E0E6
:103DA0002AF09A95660F771F881FDAF7880F969585
:103DB000879597F908959F3F31F0915020F48795AA
:103DC00077956795B795880F911D9695879597F983
:103DD000089597FB092E07260AD077FD04D043D01B
:103DE00006D000201AF4709561957F4F0895F6F77C
:103DF000909581959F4F08952F923F924F925F9299
:103E00006F927F928F929F92AF92BF92CF92DF92EA
:103E1000EF92FF920F931F93CF93DF93CDB7DEB74F
:103E2000CA1BDB0B0FB6F894DEBF0FBECDBF0994E3
:103E30002A88398848885F846E847D848C849B843A
:103E4000AA84B984C884DF80EE80FD800C811B8148
:103E5000AA81B981CE0FD11D0FB6F894DEBF0FBE77
:103E6000CDBFED010895AA1BBB1B51E107C0AA1FDE
:103E7000BB1FA617B70710F0A61BB70B881F991F0B
:103E80005A95A9F780959095BC01CD010895CF93DF
:103E9000DF93BC018230910510F462E070E0A091E4
:103EA0008F05B0919005ED01E0E0F0E040E050E0DA
:103EB00021C0888199818617970769F48A819B813F
:103EC000309719F09383828304C090939005809378
:103ED0008F05FE0134C06817790738F44115510584
:103EE00019F08417950708F4AC01FE018A819B81C3
:103EF0009C01E9012097E9F641155105A9F1CA0194
:103F0000861B970B049708F4BA01E0E0F0E02AC0A2
:103F10008D919C91119784179507F9F46417750793
:103F200081F412968D919C911397309719F0938399
:103F3000828304C09093900580938F05FD01329693
:103F40004FC0CA01861B970BFD01E80FF91F619353
:103F5000719302978D939C9343C0FD01828193815D
:103F60009C01D9011097A1F680918D0590918E0545
:103F7000892B41F4809147039091480390938E05DB
:103F800080938D054091490350914A034115510595
:103F900041F44DB75EB78091450390914603481BAD
:103FA000590B20918D0530918E0524173507B0F4FB
:103FB000CA01821B930B8617970780F0AB014E5FF7
:103FC0005F4F8417950750F0420F531F50938E0593
:103FD00040938D05F9016193719302C0E0E0F0E038
:103FE000CF01DF91CF910895CF93DF93009709F42C
:103FF00050C0EC0122971B821A82A0918F05B091CC
:104000009005109709F140E050E0AC17BD0708F1AA
:10401000BB83AA83FE0121913191E20FF31FAE17FA
:10402000BF0779F48D919C911197280F391F2E5F4E
:104030003F4F3983288312968D919C9113979B83D0
:104040008A834115510571F4D0939005C0938F0573
:1040500020C012968D919C911397AD01009711F09D
:10406000DC01D3CFFA01D383C28321913191E20FD6
:10407000F31FCE17DF0769F488819981280F391F54
:104080002E5F3F4FFA01318320838A819B81938386
:104090008283DF91CF910895A0E0B0E0E2E5F0E205
:1040A0000C94041FEC01A880B980CA80DB80A114A5
:1040B000B104C104D10441F484E2A82E89EDB82EE4
:1040C0008BE5C82E87E0D82EC601B5012DE133EF70
:1040D00041E050E00E94752227EA31E440E050E0E0
:1040E0000E9456227B018C01C601B5012DE133EF00
:1040F00041E050E00E947522CA01B9012CEE34EF74
:104100004FEF5FEF0E9456226E0D7F1D801F911FA3
:1041100097FF04C061507040804090486883798365
:104120008A839B839B013F77C901CDB7DEB7EAE065
:104130000C94201F0E944C2008958BE493E00E9471
:104140004C200895A0E0B0E080934B0390934C0383
:10415000A0934D03B0934E030895283008F027E054
:104160003327DA01990F311D87FD916000966105B3
:10417000710539F432602E5F3D9330E32A95E1F703
:1041800008959F3F30F080387105610509F03C5F6C
:104190003C5F3D93913008F08068911DDF93CF9391
:1041A0001F930F93FF92EF92192F987F9695E92F07
:1041B00096959695E90FFF27E75CFB4F99273327E4
:1041C000EE24FF24A701E70105900894079428F442
:1041D000360FE71EF81E491F511D660F771F881FF7
:1041E000991F0694A1F70590079428F4E70EF81E8E
:1041F000491F561FC11D770F881F991F661F069400
:10420000A1F70590079428F4F80E491F561FC71F01
:10421000D11D880F991F661F771F0694A1F705907F
:10422000079420F4490F561FC71FD81F990F661F08
:10423000771F881F0694A9F784911095177041F095
:10424000D695C79557954795F794E7941A95C1F772
:10425000EFEDF3E068941590159135916591959186
:1042600005907FE27395E118F10A430B560BC90BD9
:10427000D009C0F7E10CF11E431F561FC91FD01D06
:104280007EF4703311F48A95E6CFE894015030F053
:10429000080F0AF40027021708F4202F2395022F95
:1042A0007A3328F079E37D932A95E9F710C07D935E
:1042B0002A9589F6069497956795379517951794DB
:1042C000E118F10A430B560BC90BD00998F023955E
:1042D0007E9173957A3308F070E37C932013B8F7DE
:1042E0007E9170617D9330F0839571E37D9370E3EF
:1042F0002A95E1F71124EF90FF900F911F91CF9134
:10430000DF91992787FD90950895FC0105906150F4
:1043100070400110D8F7809590958E0F9F1F0895DB
:10432000FC016150704001900110D8F78095909584
:104330008E0F9F1F08950F931F93CF93DF938C01D0
:10434000EB018B8181FF1BC082FF0DC02E813F815D
:104350008C819D812817390764F4E881F9810193E4
:10436000F983E88306C0E885F985802F0995892BB4
:1043700031F48E819F8101969F838E8302C00FEF5F
:104380001FEFC801DF91CF911F910F910895AEE00B
:10439000B0E0EDECF1E20C940A1F0D891E898F89C3
:1043A000988D97FF02C080E090E801979E838D83EF
:1043B0001A83098386E08C839E01255E3F4FCE01E0
:1043C0000196698D7A8DA9010E94FE184D815E814A
:1043D00057FD0AC02F813885421753070CF49A0104
:1043E000020F131FF80110822E96E4E00C94261F92
:1043F000FA01AA27283051F1203181F1E8946F9316
:104400006E7F6E5F7F4F8F4F9F4FAF4FB1E03ED0BB
:10441000B4E03CD0670F781F891F9A1FA11D680F59
:10442000791F8A1F911DA11D6A0F711D811D911D8C
:10443000A11D20D009F468943F912AE0269F112401
:104440003019305D3193DEF6CF010895462F477065
:10445000405D4193B3E00FD0C9F7F6CF462F4F70C0
:10446000405D4A3318F0495D31FD4052419302D01E
:10447000A9F7EACFB4E0A6959795879577956795C4
:10448000BA95C9F700976105710508959B01AC01C4
:104490000A2E06945795479537952795BA95C9F7EB
:1044A000620F731F841F951FA01D0895629FD00186
:1044B000739FF001829FE00DF11D649FE00DF11DDF
:1044C000929FF00D839FF00D749FF00D659FF00D8E
:1044D0009927729FB00DE11DF91F639FB00DE11D7B
:1044E000F91FBD01CF011124089597FB092E052660
:1044F0000ED057FD04D014D00AD0001C38F45095CB
:104500004095309521953F4F4F4F5F4F0895F6F7F7
:1045100090958095709561957F4F8F4F9F4F08952F
:10452000A1E21A2EAA1BBB1BFD010DC0AA1FBB1FB7
:10453000EE1FFF1FA217B307E407F50720F0A21B29
:10454000B30BE40BF50B661F771F881F991F1A9496
:1045500069F760957095809590959B01AC01BD01C0
:08456000CF010895F894FFCF8C
:1045680025640053636F72653A20004C6976657361
:104578003A2000466C6F6F723A200054696D653AB4
:1045880020003A004C6F6164696E672E2E2E00473A
:10459800414D45204F564552006E39393031393931
:1045A80030004A6961205368656E672043686F6E02
:1045B80067002566000D0A53636F72653A20004351
:1045C8006F6E6E6563742053657269616C00576520
:1045D8006C636F6D650053657269616C20636F6E03
:1045E8006E65637465640003020089012838283801
:1045F80000FEAA3828287F00FF00FF00FF01FE41C7
:10460800008100810081008241FF81FF81FF81FFDD
:10461800824000000000000000024000000000008E
:1046280000000240007C007E007C00026000440024
:104638004200440006600044004200440006400076
:104648007C007E007C0002400000000000000002A8
:1046580040000000000000000240000000000000D0
:10466800000240000000000000000260000000009E
:1046780000000006380000003C0000001C1C000080
:1046880000C3000000380700000100800000E001BE
:10469800800001008000018000C00002004000038B
:1046A80000007000040320000E00001E0004032018
:1046B8000078000001E004002007800000003F04AB
:1046C8000020FC0000000007FC003FE00000003C68
:1046D8000000C300010080010080020040040320A4
:1046E800040320040020040020FC003F70F8A8F810
:1046F800F8A8E0BEEA2070F8F0F0F060FFFFFFFFD6
:10470800FFFFFFFFFFFFFFFFFFFFFFFFFFFFFFFFB1
:10471800FFFFFFFFFFFFFFFFFFFFFFFFFFFFFFFFA1
:10472800FFFFFFFFFFFFFFFFFFFFFFFFFFFFFFFF91
:10473800FFFFFFFFFFFFFFFFE0E0E0E0E0E0E0E079
:10474800E0E0E0E0E0E0E0E0E0E0E0E0E0E0E0E061
:10475800E0E0E0E0E0E0E0E0E0E0E0E0E0E0E0E051
:10476800E0E0E0E0E0E0E0E0E0E0E0E0E0E0E0E041
:10477800E0E0E0E0E0E0E0E0E0E0E0E0E0E0E0E031
:10478800E0E0E0E0E0E0E0E0E0E0E0E0E0E0E0E021
:10479800E0E0E0E0E0E0E0E0E0E0E0E0E0E000E1F0
:1047A8000000000008200091050000010000000042
:00000001FF
