:100000000C946D020C948A020C948A020C948A025D
:100010000C948A020C948A020C948A020C948A0230
:100020000C948A020C948A020C9482170C94BD17CB
:100030000C948A020C948A020C948A020C948A0210
:100040000C948A020C948A020C948A020C948A0200
:100050000C948A020C948A020C948A020C94F21278
:100060000C948A020C948A020C948A020C948A02E0
:100070000C948A020C948A020C948A020C948A02D0
:100080000C948A020C948A020C948A020C948A02C0
:100090000C948A020C948A020C948A020C948A02B0
:1000A0000C948A020C948A020C948A021717141773
:1000B00011170E170B17081705170217FF16FC1656
:1000C000F916F616F316F016ED16EA16E716E4160C
:1000D000E116DE16DB16D816D516D216CF16CC16BC
:1000E000C916C616C316C016BD16BA16B716B4166C
:1000F000B116AE16AB16A816A516A2169F169C161C
:1001000099169616931690168D168A1687168416CB
:1001100081167E167B167816751672166F166C167B
:1001200069166616631660165D165A165716000194
:10013000000062011200020000740143000300008D
:10014000B7010401030904BB011402030904D1012E
:100150001603030904E9010C0001C11201803601F4
:1001600081361201000202000010C0167A0400015C
:100170000102030109024300020100C03209040028
:100180000001020201000524001001052401010103
:10019000042402060524060001070582031000401E
:1001A00009040100020A00000007050302400000E4
:1001B0000705840240000004030904140359006F7A
:1001C000007500720020004E0061006D00650000A7
:1001D00000160355005300420020005300650072D2
:1001E00000690061006C0000000C03310032003334
:1001F00000340035000000000000000000005F0037
:10020000000007000700147F147F14242A7F2A129D
:10021000231308646236495522500005030000008C
:100220001C2241000041221C0014083E081408084A
:100230003E08080050300000080808080800606008
:10024000000020100804023E5149453E00427F4014
:100250000042615149462141454B311814127F102B
:1002600027454545393C4A4949300171090503365E
:1002700049494936064949291E00363600000056CC
:1002800036000008142241001414141414004122F2
:1002900014080201510906324979413E7E111111BB
:1002A0007E7F494949363E414141227F4141221CDE
:1002B0007F494949417F090909013E4149497A7FFE
:1002C0000808087F00417F41002040413F017F082E
:1002D0001422417F404040407F020C027F7F04088F
:1002E000107F3E4141413E7F090909063E415121AF
:1002F0005E7F09192946464949493101017F0101BB
:100300003F4040403F1F2040201F3F4038403F6358
:100310001408146307087008076151494543007FBA
:1003200041410002040810200041417F0004020105
:100330000204404040404000010204002054545454
:10034000787F484444383844444420384444487F03
:100350003854545418087E0901020C5252523E7F00
:100360000804047800447D40002040443D007F1094
:1003700028440000417F40007C041804787C080475
:10038000047838444444387C1414140808141418AD
:100390007C7C080404084854545420043F44402002
:1003A0003C4040207C1C2040201C3C4030403C44D1
:1003B000281028440C5050503C4464544C440008CD
:1003C00036410000007F0000004136080010080898
:1003D000100878464146786E616E00696E660000CE
:1003E000407A10F35A00A0724E18090010A5D4E804
:1003F0000000E87648170000E40B54020000CA9A97
:100400003B000000E1F505000080969800000040E8
:10041000420F000000A0860100000010270000002D
:1004200000E803000000006400000000000A000073
:100430000000000100000000002C76D888DC674F27
:100440000823DFC1DFAE59E1B1B796E5E3E453C657
:100450003AE651997696E8E6C28426EB898C9B624F
:10046000ED407C6FFCEFBC9C9F40F2BAA56FA5F4F9
:1004700090055A2AF75C936B6CF9676DC11BFCE021
:10048000E40D47FEF520E6B500D0ED902E03009474
:100490003577050080841E080000204E0A00000009
:1004A000C80C333333330F986E12831141EF8D2113
:1004B00014893BE65516CFFEE6DB18D1844B381B7A
:1004C000F77C1D901DA4BBE424203284725E22813F
:1004D00000C9F124ECA1E53D270011241FBECFEF98
:1004E000DAE0DEBFCDBF14E0A0E0B1E0E4EBFCE475
:1004F00002C005900D92AC35B107D9F718E0ACE514
:10050000B4E001C01D92AE35B107E1F70E941D15A0
:100510000C9458260C940000DF93CF9300D0CDB7F5
:10052000DEB780915A0890915B08009711F48EE530
:1005300098E0880F991F44275527481B590B9E01A7
:100540002F5F3F4F240F351FC9010F900F90CF91A0
:10055000DF9108950F931F93FC01408751876287B5
:10056000738704871587268737871F910F91089512
:10057000CF93DF93EC01609377056C3461F06D34B9
:1005800020F4643409F056C040C06235B1F06535DE
:1005900009F050C028C06091950270E0882777FD6F
:1005A0008095982F0E940B219B01AC016881798175
:1005B0008A819B810E94082011C06091950270E0A1
:1005C000882777FD8095982F0E940B219B01AC0115
:1005D000688179818A819B810E9407206883798361
:1005E0008A839B8327C06091950270E0882777FDFE
:1005F0008095982F0E940B219B01AC016C817D811D
:100600008E819F810E94082011C06091950270E048
:10061000882777FD8095982F0E940B219B01AC01C4
:100620006C817D818E819F810E9407206C837D83F8
:100630008E839F83DF91CF9108951F93CF93DF9394
:10064000182F8CEF94E0612F0E94B802C8E7D5E024
:10065000209721F0CE01612F0E94B802659685E0B7
:10066000C13ED807A9F786EF95E0612F0E94B80236
:10067000C6E7D4E0CE01612F0E94B802659684E0FF
:10068000CF3DD807B9F781EE95E0612F0E94B802FF
:100690008BE096E0612F0E94B8028FED94E0612F0D
:1006A0000E94B8028EE195E0612F0E94B8028AE4B0
:1006B00096E0612F0E94B8028EE495E0612F0E94BF
:1006C000B80280915C04813051F080E296E0612FA5
:1006D0000E94B80285E396E0612F0E94B802DF9184
:1006E000CF911F910895809177058C3411F482E5A4
:1006F0000DC0823511F48CE409C0853511F484E411
:1007000005C0843411F485E501C080E20E941D0318
:100710000895EF92FF920F931F93CF93DF93EC0115
:100720006C3461F06D3420F4643409F06CC048C05E
:10073000623599F0653509F066C033C0E884F98404
:100740000A851B85C801B70120E030E040E050E099
:100750000E94BB2118167CF015C0E884F9840A8534
:100760001B85C801B70120E030E040E050E00E9466
:100770006C2088233CF4D801C701B058888799873A
:10078000AA87BB87688179818A819B812885398581
:100790004A855B850E940820688379838A839B83CE
:1007A00032C0EC84FD840E851F85C801B70120E0AE
:1007B00030E040E050E00E94BB2118167CF015C0EC
:1007C000EC84FD840E851F85C801B70120E030E070
:1007D00040E050E00E946C2088233CF4D801C7011F
:1007E000B0588C879D87AE87BF876C817D818E8155
:1007F0009F812C853D854E855F850E9408206C83F6
:100800007D838E839F83DF91CF911F910F91FF9006
:10081000EF900895FC01628B0895FC01828990E0BD
:100820000895FC012081318142815381B901CA01BF
:100830000895FC012481358146815781B901CA019F
:100840000895FC012085318542855385B901CA018F
:100850000895FC012485358546855785B901CA016F
:100860000895CF92DF92EF92FF920F931F936C0146
:100870007A01882777FD8095982F0E940B21F60139
:1008800060837183828393830027F7FC0095102F88
:10089000C801B7010E940B21F6016483758386832A
:1008A00097831F910F91FF90EF90DF90CF90089565
:1008B000AF92BF92CF92DF92EF92FF920F931F936E
:1008C000CF93DF93FC01EB018289882351F1A4804F
:1008D000B580C680D780EC80FD800E811F8160814D
:1008E000718182819381288139814A815B810E9453
:1008F0006C2088231CF4CE016CE402C0CE0162E5BA
:100900000E948903C601B501A80197010E946C20CD
:1009100088231CF4CE0165E502C0CE0164E40E9488
:100920008903DF91CF911F910F91FF90EF90DF909E
:10093000CF90BF90AF900895EF92FF920F931F93C7
:100940007C018B01FB016089669570E0882777FD4B
:100950008095982F0E940B219B01AC01F8016081CA
:100960007181828193810E94072020E030E040E87D
:100970005FE30E940720F701608371838283938382
:10098000F8016189669570E0882777FD8095982F3A
:100990000E940B219B01AC01F80164817581868165
:1009A00097810E940820F70164837583868397836B
:1009B0001F910F91FF90EF900895EF92FF920F9388
:1009C0001F937C018B01FB016089669570E088278D
:1009D00077FD8095982F0E940B219B01AC01F801B7
:1009E00060817181828193810E94072020E030E044
:1009F00040EC50E40E940820F701608371838283F9
:100A00009383F8016189669570E0882777FD80956A
:100A1000982F0E940B21F80124813581468157814E
:100A20000E94082020E030E040E85FE30E940720B9
:100A3000F70164837583868397831F910F91FF90DD
:100A4000EF900895FC0180890895FC018189089543
:100A5000FC01009719F420E030E009C090E08289A1
:100A6000882309F491E081E09827292F30E0C9011B
:100A7000089580E090E008950F931F938C01FC018E
:100A8000128A0E941F2464EF71E00E946B22885337
:100A90009F4FAA2797FDA095BA2FBC01CD010E94B8
:100AA0000B21F80160837183828393830E941F244A
:100AB00064EF71E00E946B2288539F4FAA2797FD35
:100AC000A095BA2FBC01CD010E940B21F8016483CF
:100AD0007583868397831F910F9108952F923F927C
:100AE0004F925F926F927F928F929F92AF92BF923E
:100AF000CF92DF92EF92FF920F931F93DF93CF93EA
:100B000000D000D0CDB7DEB77C015A016B011801CF
:100B10002901DC016D917D918D919C910E94222291
:100B20003B014C01D70114968D919D910D90BC9184
:100B3000A02D89839A83AB83BC83F701A082B18205
:100B4000C282D382D70114962D923D924D925C922F
:100B50001797C601B5010E9422220E94D8207B016E
:100B60008C01C401B3010E94D820E616F706E9F40F
:100B7000C201B1010E9422227B018C0169817A812C
:100B80008B819C810E9422225B016C0144245524AC
:100B9000C801B7010E94D8207B018C01C601B501B4
:100BA0000E94D820E616F70619F031E0432E512CAA
:100BB000C2010F900F900F900F90CF91DF911F9176
:100BC0000F91FF90EF90DF90CF90BF90AF909F90EC
:100BD0008F907F906F905F904F903F902F900895EF
:100BE0004F925F926F927F928F929F92AF92BF923D
:100BF000CF92DF92EF92FF920F931F93DF93CF93E9
:100C000000D000D0CDB7DEB76C01DC01ED90FD90D7
:100C10000D911C91C801B7010E9422224B015C0179
:100C2000D60114968D919D910D90BC91A02D898334
:100C30009A83AB83BC83C801B701F6012085318557
:100C4000428553850E9407207B018C01D6016D935C
:100C50007D938D939C93139769817A818B819C817D
:100C60001C962D913D914D915C911F970E940720FC
:100C70002B013C01CB01D301F60184839583A6832C
:100C8000B783C801B7010E9422220E94D8207B01AD
:100C90008C01C501B4010E94D820E616F706E9F4DC
:100CA000B201C3010E9422227B018C0169817A81F9
:100CB0008B819C810E9422225B016C016624772437
:100CC000C801B7010E94D8207B018C01C601B50183
:100CD0000E94D820E616F70619F041E0642E712C28
:100CE000C3010F900F900F900F90CF91DF911F9144
:100CF0000F91FF90EF90DF90CF90BF90AF909F90BB
:100D00008F907F906F905F904F900895AF92BF92B9
:100D1000CF92DF92EF92FF920F931F93CF93DF93C7
:100D20008C016B01FC0160817181828193810E9441
:100D300022220E94D8207B01F8016481758186817E
:100D400097810E9422220E94D820EB01F601608147
:100D50007181828193810E9422220E94D8205B01AE
:100D6000F60164817581868197810E9422220E940A
:100D7000D820F601408981899B01280F311DC217B7
:100D8000D3071CF020E030E00AC020E030E0C501CD
:100D9000840F911DE816F90614F421E030E0F80103
:100DA0008089E80EF11CAE14BF0414F020E030E09E
:100DB000F8018189C80FD11D6C177D071CF020E058
:100DC00030E022C021153105F9F0F1EECF16F5E043
:100DD000DF06C1F026EFC21625E0D20699F035E015
:100DE0000333130711F40E947303C6E7D4E00C1712
:100DF0001D0719F4C8010E94F005659684E0CF3DF7
:100E0000D807A9F721E030E0C901DF91CF911F9108
:100E10000F91FF90EF90DF90CF90BF90AF9008952B
:100E2000DF92EF92FF920F931F93F82EE62ED22EB1
:100E30008DB79EB708970FB6F8949EBF0FBE8DBFB3
:100E4000EDB7FEB7319603E615E0ADB7BEB7129623
:100E50001C930E93119784E190E09383828380E04A
:100E600091E095838483578346830E9449258DB7FB
:100E70009EB708960FB6F8949EBF0FBE8DBF8F2DFC
:100E80006E2DA8012D2D0E940C1B1F910F91FF901C
:100E9000EF90DF90089585E060E043E051E021E0CD
:100EA0000E940C1B409160045091610488E260E054
:100EB00021E00E94100785E06AE04BE051E021E06C
:100EC0000E940C1B4091940288E26AE050E021E00D
:100ED0000E94100785E064E143E151E021E00E94B7
:100EE0000C1B40915C0450E04150504088E264E1AA
:100EF00021E00E94100785E06EE14BE151E021E026
:100F00000E940C1B40915D0488E26EE150E021E0FC
:100F10000E9410078DE26EE142E251E021E00E9462
:100F20000C1B40915E0482E36EE150E021E00E94E0
:100F3000100740915F0487E36EE150E021E00E94DA
:100F4000100708950E9428198FE06AE044E251E0FA
:100F500021E00E940C1B8FE064E143E151E021E0BD
:100F60000E940C1B40915C0484E364E150E021E0AA
:100F70000E9410070E942C1B80EF95E528EC30E0C2
:100F8000F9013197F1F70197D9F708952F923F9220
:100F90004F925F926F927F928F929F92AF92BF9289
:100FA000CF92DF92EF92FF920F931F93DF93CF9335
:100FB000CDB7DEB72C970FB6F894DEBF0FBECDBF0E
:100FC00010926504109266040E9428190E94A207DC
:100FD00080916004909161048C599F4F90936104BB
:100FE0008093600480915C048F5F80935C048091A7
:100FF0000E05882321F08CEF94E00E943C0583E3EA
:1010000095E00E943C0583E395E040E050E068E213
:1010100072E400E010E020EC31E4F7E0EF2EEAE0CB
:10102000CE2EB9E9AB2EB2E0BB2E0E94AE1B8BE0F8
:1010300096E00E943C050E941F2464E570E00E9437
:101040006B2280935F060E941F2460E370E00E9481
:101050006B22E82E8093F90460915F0670E080E0D7
:1010600090E00E9409215B016C01FF2400E010E088
:10107000C801B7010E9409218B019C018BE096E019
:10108000B601A501A8E1EA2EFCE0CF2EEBE7AE2EDB
:10109000E3E0BE2E0E94AE1B8BE096E063E375E0BA
:1010A0000E948606892B19F686E794E09A83898345
:1010B000B1E14B2EB5E05B2E4C0166247724262C43
:1010C0000E941F246AE070E00E946B2208973CF0A7
:1010D0003324F301EC50FB4FFA87E98703C0662005
:1010E000B9F36AC08114910439F0F401828988232C
:1010F00019F0C4010E943C050E941F2464E570E0C1
:101100000E946B22F20180830E941F2460E370E042
:101110000E946B22E82EE985FA858083F2016081C6
:1011200070E080E090E00E9409215B016C01FF24E7
:1011300000E010E0C801B7010E9409218B019C0169
:10114000C401B601A501A5E0EA2EF6E0CF2EE9E93B
:10115000AE2EE3E0BE2E0E94AE1BB6E7AB2EB4E08F
:10116000BB2E10E013C0A114B10459F0F50182891F
:10117000882339F0C501B4010E948606382E8823E1
:1011800039F41F5F85E190E0A80EB91E121558F3DF
:10119000C40163E375E00E948606892B09F0A2CFA3
:1011A000C4016BE076E00E948606892B09F09ACF95
:1011B000332009F097CF05C0C4010E943C05F4011B
:1011C000128A0894611C711C85E190E0880E991EBA
:1011D0000894411C511C95E06916710409F06FCF09
:1011E00081EE95E00E943C050E941F2464E570E0BA
:1011F0000E946B22809360060E941F2460E370E0CF
:101200000E946B22E82E809348056091600670E092
:1012100080E090E00E9409215B016C01FF2400E066
:1012200010E0C801B7010E9409218B019C0181EEE9
:1012300095E0B601A501A7E0EA2EF3E0CF2EEFE995
:10124000AE2EE3E0BE2E0E94AE1B06E7A02E04E009
:10125000B02EA114B10461F0F5018289882341F018
:1012600081EE95E0B5010E948606182F882351F47F
:1012700085E190E0A80EB91E9FEDA91694E0B9068D
:1012800041F710E081EE95E063E375E00E94860689
:10129000892B09F0A5CF81EE95E06BE076E00E9406
:1012A0008606892B09F09CCF112309F099CF0E9463
:1012B0001F246AE070E00E946B2208975CF419E139
:1012C000412E15E0512EB8E78B2EB5E09B2E6624FB
:1012D000772475C080910806882321F086EF95E079
:1012E0000E943C050E941F2464E570E00E946B226E
:1012F000809361060E941F2460E370E00E946B22CD
:10130000E82E809318056091610670E080E090E01F
:101310000E9409215B016C01FF2400E010E0C8017C
:10132000B7010E9409218B019C0186EF95E0B6016F
:10133000A501A4E0EA2EF4E0CF2EE5EAAE2EE3E02C
:10134000BE2E0E94AE1BB6E7AB2EB4E0BB2EA1149E
:10135000B10461F0F5018289882341F086EF95E0C0
:10136000B5010E948606182F882351F485E190E08C
:10137000A80EB91E9FEDA91694E0B90641F710E03A
:1013800086EF95E063E375E00E948606892B09F0FD
:10139000A1CF86EF95E06BE076E00E948606892B70
:1013A00009F098CF86EF95E061EE75E00E94860621
:1013B000892B09F08FCF112309F08CCF80CF262CF9
:1013C0000E941F246AE070E00E946B2206970CF4D2
:1013D0009FC03324F301E75BFA4FF887EF83811452
:1013E000910439F0F4018289882319F0C4010E9424
:1013F0003C050E941F2464E570E00E946B22F2010C
:1014000080830E941F2460E370E00E946B22E82E1C
:10141000EF81F8858083F201608170E080E090E0E8
:101420000E9409215B016C01FF2400E010E0C8016B
:10143000B7010E9409218B019C01C401B601A501DD
:10144000A5E0EA2EF3E0CF2EE2EAAE2EE3E0BE2ED8
:101450000E94AE1B08E7A02E05E0B02E10E013C0DE
:10146000A114B10459F0F5018289882339F0C5012E
:10147000B4010E948606382E882339F41F5F85E167
:1014800090E0A80EB91E121558F316E7A12E14E02D
:10149000B12E10E014C0A114B10461F0F5018289ED
:1014A000882341F081EE95E0B5010E948606082F61
:1014B000882341F41F5F85E190E0A80EB91E121544
:1014C00050F300E0C40163E375E00E948606892BB7
:1014D00009F085CFC4016BE076E00E948606892B77
:1014E00009F07DCFC40161EE75E00E948606892B6C
:1014F00009F075CFC40166EF75E00E948606892B5E
:1015000009F06DCF332009F06ACF002309F067CFCF
:101510000894611C711CE5E1F0E08E0E9F1E08949A
:10152000411C511CF5E06F16710409F048CF8FED96
:1015300094E00E943C058EE195E00E943C058AE41F
:1015400096E00E943C058EE495E00E943C058FEDFC
:1015500094E040E050E060E272EC8A019B01B3E06D
:10156000EB2EA4E6CA2EF5EEAF2EF3E0BF2E0E94BE
:10157000AE1B8EE195E040E050E060E272EC8A0143
:101580009B01E0EAEE2EB3E0CB2EA9EAAA2EA3E05F
:10159000BA2E0E94AE1B8AE496E040E050E060EF75
:1015A00072E400E010E020E232ECF3E0EF2EE4E63B
:1015B000CE2EB5EEAB2EB3E0BB2E0E94AE1B8EE45A
:1015C00095E040E050E060E272EC00E010E020E7DF
:1015D00032E4A0EAEA2EF3E0CF2EE9EAAE2EE3E011
:1015E000BE2E0E94AE1B80915C04833048F41AEF3B
:1015F000412E14E0512E882499246624772409C0B2
:1016000080E296E00E943C0585E396E00E943C055E
:10161000EECF282CC301805E994F9C878B873324A3
:10162000F401EA5EFA4FFC83EB83C30188589A4FBA
:101630009E838D830E941F2462E870E00E946B22CB
:101640008352F20180830E941F246CE870E00E94A4
:101650006B22BDEDEB2EE80EEB81FC81E082F20106
:10166000608170E080E090E00E9409215B016C01E4
:10167000FF2400E010E0C801B7010E9409218B019E
:101680009C018B859C85B601A501A3E0EA2EF8E2BA
:10169000CF2EE5EEAE2EE3E0BE2E0E94AE1B10E094
:1016A00008C08B859C8560E276E00E948606382E15
:1016B0001F5F1215B0F310E00EC080918A058823D9
:1016C00049F088E795E06D817E810E948606E82ECC
:1016D000882321F41F5F121580F3EE2410E00EC062
:1016E00080918804882349F081EE95E066E774E0F4
:1016F0000E948606082F882321F41F5F121580F3AD
:1017000000E0332009F03FC08B859C8563E375E0E2
:101710000E948606892BB9F58B859C8561EE75E064
:101720000E948606892B79F58B859C856BE076E097
:101730000E948606892B39F58B859C856FED74E0B8
:101740000E948606892BF9F48B859C856AE476E0F5
:101750000E948606892BB9F48B859C856EE175E025
:101760000E948606892B79F48B859C856EE475E052
:101770000E948606892B39F4EE2029F4002319F4FF
:1017800080E090E002C081E090E0382E882311F1E3
:101790008B859C850E943C054DCF20E030E040E8E1
:1017A0005EE389819A81009761F0FC018289882338
:1017B00041F02087318742875387248735874687C2
:1017C000578789819A8145969A8389838F5D944052
:1017D00041F710C00894811C911C85E190E0680ECF
:1017E000791E0894411C511C92E08916910409F05D
:1017F00010CFD3CF2C960FB6F894DEBF0FBECDBF5F
:10180000CF91DF911F910F91FF90EF90DF90CF90DC
:10181000BF90AF909F908F907F906F905F904F9010
:101820003F902F900895AF92BF92CF92EF920F9377
:101830001F93CF93DF9310926504109266040E9469
:10184000281983E395E00E943C058CEF94E00E9408
:101850003C058BE096E00E943C05C6E7D4E020976B
:1018600031F08A89882319F0CE010E943C056596E3
:1018700084E0CF3DD80799F781EE95E00E943C05C2
:101880008FE060E04FE251E021E00E940C1B85E018
:101890006AE043E051E021E00E940C1B40916004AB
:1018A0005091610488E26AE021E00E94100785E01F
:1018B00064E143E151E021E00E940C1B40915C0493
:1018C00050E04150504088E264E121E00E9410075E
:1018D00083E395E040E050E068E272E400E010E06D
:1018E00020EC31E4E7E0EE2EBAE0CB2EA9E9AA2EF7
:1018F000A2E0BA2E0E94AE1B8CEF94E040E050E0D4
:1019000060EC70E400E010E020E231ECF8E4EF2E4F
:10191000EAE1CE2EB3EAAB2EB2E0BB2E0E94AE1BA4
:101920008BE096E040E050E060EF71E400E010E012
:1019300020EA30E4A8E1EA2EFCE0CF2EEBE7AE2E61
:10194000E3E0BE2E0E94AE1B86E794E040E050E04C
:1019500060E972E400E010E020EA31E4B5E0EB2E4B
:10196000A6E0CA2EF9E9AF2EF3E0BF2E0E94AE1B0F
:1019700081EE95E040E050E060EC70E400E010E0C3
:1019800020EA31E4E7E0EE2EB3E0CB2EAFE9AA2E59
:10199000A3E0BA2E0E94AE1B8FED94E040E050E031
:1019A00060E272EC8A019B01F3E0EF2EE4E6CE2EBA
:1019B000B5EEAB2EB3E0BB2E0E94AE1B8EE195E0E0
:1019C00040E050E060E272EC8A019B01A0EAEA2E5E
:1019D000F3E0CF2EE9EAAE2EE3E0BE2E0E94AE1B6E
:1019E0008AE496E040E050E060EF72E400E010E04E
:1019F00020E232ECB3E0EB2EA4E6CA2EF5EEAF2ED9
:101A0000F3E0BF2E0E94AE1B8EE495E040E050E074
:101A100060E272EC00E010E020E732E4E0EAEE2E53
:101A2000B3E0CB2EA9EAAA2EA3E0BA2E0E94AE1BE9
:101A30006091950270E080E090E00E94092160933F
:101A40003B0570933C0580933D0590933E05609364
:101A50003F0570934005809341059093420580E0D7
:101A600090E0A0E8BEE380937E0490937F04A0936F
:101A70008004B09381048093820490938304A093A4
:101A80008404B0938504109261041092600483E092
:101A90008093940210925C0410925D0410925E0494
:101AA00010925F040E942C1B7D9902C07E9BFCCF8C
:101AB0000E94281984E166E149E351E021E00E9497
:101AC0000C1B86E06AE042E451E021E00E940C1B1E
:101AD0000E942C1B7D9902C07E9BFCCFDF91CF9191
:101AE0001F910F91EF90CF90BF90AF9008954F92BC
:101AF0005F926F927F928F929F92AF92BF92CF929E
:101B0000DF92EF92FF920F931F93CF93DF93109288
:101B1000650410926604809194028150809394022F
:101B20008FED94E00E943C058EE195E00E943C051B
:101B30008AE496E00E943C058EE495E00E943C0514
:101B400080919402882311F40E94130C80915C040C
:101B5000813009F0EBC083E395E00E943C058CEFF7
:101B600094E00E943C058BE096E00E943C0581EEEB
:101B700095E00E943C0583E395E040E050E068E298
:101B800072E400E010E020EC31E4A7E0EA2EFAE095
:101B9000CF2EE9E9AE2EE2E0BE2E0E94AE1B8CEF06
:101BA00094E040E050E060EC70E400E010E020E2FF
:101BB00031ECB8E4EB2EAAE1CA2EF3EAAF2EF2E044
:101BC000BF2E0E94AE1B8BE096E040E050E060EF3D
:101BD00071E400E010E020EA30E4E8E1EE2EBCE041
:101BE000CB2EABE7AA2EA3E0BA2E0E94AE1B86E74F
:101BF00094E040E050E060E972E400E010E020EAA8
:101C000031E4F5E0EF2EE6E0CE2EB9E9AB2EB3E0FD
:101C1000BB2E0E94AE1B81EE95E040E050E060ECF0
:101C200070E400E010E020EA31E4A7E0EA2EF3E0FF
:101C3000CF2EEFE9AE2EE3E0BE2E0E94AE1B8FED5D
:101C400094E040E050E060E272EC8A019B01B3E076
:101C5000EB2EA4E6CA2EF5EEAF2EF3E0BF2E0E94C7
:101C6000AE1B8EE195E040E050E060E272EC8A014C
:101C70009B01E0EAEE2EB3E0CB2EA9EAAA2EA3E068
:101C8000BA2E0E94AE1B8AE496E040E050E060EF7E
:101C900072E400E010E020E232ECF3E0EF2EE4E644
:101CA000CE2EB5EEAB2EB3E0BB2E0E94AE1B8EE463
:101CB00095E040E050E060E272EC00E010E020E7E8
:101CC00032E4A0EAEA2EF3E0CF2EE9EAAE2EE3E01A
:101CD000BE2E0E94AE1B6091950270E080E090E005
:101CE0000E94092160933B0570933C0580933D055C
:101CF00090933E0560933F057093400580934105A6
:101D00009093420580E090E0A0E8BEE380937E04DB
:101D100090937F04A0938004B09381048093820405
:101D200090938304A0938404B093850480915C0411
:101D3000823008F448C183E395E00E943C058BE0C3
:101D400096E00E943C0581EE95E00E943C05609182
:101D50005F0670E080E090E00E9409216B017C0149
:101D60006091F90470E080E090E00E9409218B010D
:101D70009C018BE096E0B701A601B8E1EB2EACE048
:101D8000CA2EFBE7AF2EF3E0BF2E0E94AE1B609180
:101D9000600670E080E090E00E9409216B017C0108
:101DA0006091480570E080E090E00E9409218B017D
:101DB0009C0181EE95E0B701A601E7E0EE2EB3E0CD
:101DC000CB2EAFE9AA2EA3E0BA2E0E94AE1BC8E725
:101DD000D5E088249924209749F18A89882331F114
:101DE000CE010E943C05F401E75EFA4F608170E08D
:101DF00080E090E00E9409216B017C01F401E75B27
:101E0000FA4F608170E080E090E00E9409218B0130
:101E10009C01CE01B701A601F5E0EF2EE3E0CE2E46
:101E2000B2EAAB2EB3E0BB2E0E94AE1B0894811C1D
:101E3000911C659685E08816910469F683E395E028
:101E400040E050E068E272E400E010E020EC31E4B1
:101E5000A7E0EA2EFAE0CF2EE9E9AE2EE2E0BE2EB0
:101E60000E94AE1B6091950270E080E090E00E94BD
:101E7000092160933B0570933C0580933D05909349
:101E80003E0560933F057093400580934105909314
:101E90004205C6E7D4E0882499240F2EF0E04F2EA7
:101EA000F0E05F2EF0E86F2EFEE37F2EF02D2097FE
:101EB00009F487C08A89882309F483C0CE010E946F
:101EC0003C05F401EF5EFA4F608170E080E090E045
:101ED0000E9409216B017C01F401EC50FB4F6081F1
:101EE00070E080E090E00E9409218B019C01CE010E
:101EF000B701A601B5E0EB2EA6E0CA2EF9E9AF2E98
:101F0000F3E0BF2E0E94AE1B488659866A867B8608
:101F10004C865D866E867F860894811C911C659632
:101F200085E08816910419F68FED94E040E050E0CA
:101F300060E272EC8A019B01E3E0EE2EB4E6CB2E68
:101F4000A5EEAA2EA3E0BA2E0E94AE1B8EE195E06C
:101F500040E050E060E272EC8A019B01F0EAEF2E73
:101F6000E3E0CE2EB9EAAB2EB3E0BB2E0E94AE1B4F
:101F70008AE496E040E050E060EF72E400E010E0B8
:101F800020E232ECA3E0EA2EF4E6CF2EE5EEAE2E10
:101F9000E3E0BE2E0E94AE1B8EE495E040E050E0F0
:101FA00060E272EC00E010E020E732E4B0EAEB2EF1
:101FB000A3E0CA2EF9EAAF2EF3E0BF2E0E94AE1BBB
:101FC00002C01A8AA9CFDF91CF911F910F91FF9084
:101FD000EF90DF90CF90BF90AF909F908F907F90C9
:101FE0006F905F904F900895DF92EF92FF920F9362
:101FF0001F93182FD62E8DB79EB70A970FB6F89459
:102000009EBF0FBE8DBFEDB7FEB73196B3E6EB2E88
:10201000B5E0FB2EADB7BEB71296FC92EE921197CB
:1020200084E190E09383828382E591E095838483C9
:1020300026833783408751870E9449258DB79EB7F5
:102040000A960FB6F8949EBF0FBE8DBF812F6D2DDF
:10205000A701202F0E940C1B1F910F91FF90EF9062
:10206000DF900895DC010D900020E9F71197A81B7F
:10207000B90BBD010E9409160895EF92FF920F93CC
:102080001F93CF93DF938FB182958695877080FDE4
:1020900007C08FB1829586958695837080FF45C075
:1020A00080915C04882309F040C081E080935C0447
:1020B0000E9428198FE164E145E551E021E00E948A
:1020C0000C1B0E942C1B82E09DE028EC30E0F90103
:1020D0003197F1F70197D9F70E9428198FE164E150
:1020E0004BE551E021E00E940C1B0E942C1B82E07A
:1020F0009DE028EC30E0F9013197F1F70197D9F72D
:102100000E9428198FE164E141E651E021E00E943C
:102110000C1B0E942C1B82E09DE028EC30E0F901B2
:102120003197F1F70197D9F79AC180915C04882320
:1021300079F484E166E149E351E021E00E940C1B5F
:1021400086E06AE042E451E021E00E940C1B4DC1B0
:10215000189B03C00E944B0748C183B1869580FF3E
:1021600002C08CE40DC01F9B02C084E409C0489BE0
:1021700002C082E505C089B1869580FF05C085E56E
:10218000809377050E941D038FED94E00E94D61B7B
:102190008EE195E00E94D61B8AE496E00E94D61B51
:1021A0008EE495E00E94D61B83E395E00E94D61B47
:1021B0008BE096E00E94D61B81EE95E00E94D61B34
:1021C00016E7E12E14E0F12EE701209741F0CE0151
:1021D0000E94D61B83E395E0BE010E9458046596D9
:1021E00084E0CF3DD80789F780915C04813081F489
:1021F0008CEF94E00E94D61B83E395E06CEF74E0D3
:102200000E94860686E794E06CEF74E00E948606E2
:1022100080915C04823008F444C0C6E7D4E0CE016B
:102220006BE076E00E948606659694E0CF3DD90784
:10223000B1F780E296E00E94D61B83E395E060E26E
:1022400076E00E94860685E396E00E94D61B83E333
:1022500095E065E376E00E948606C8E7D5E08A89C6
:102260008823D1F0CE010E94D61B83E395E0BE0106
:102270000E948606892B81F087E691E00E94321049
:10228000CE010E943C0580916004909161040A9601
:1022900090936104809360046596E5E0C13EDE079B
:1022A000F1F683E395E061EE75E00E948606892BE6
:1022B000F9F081EE95E063E375E00E949C04809163
:1022C0006604882321F489E891E00E94321081E0BD
:1022D0008093660483E395E06BE076E00E948606D7
:1022E000892B31F083EA91E00E9432100E94C607E8
:1022F00083E395E06BE076E00E94860683E395E059
:102300006FED74E00E94860683E395E06AE476E070
:102310000E94860683E395E06EE175E00E948606E2
:1023200083E395E06EE475E00E94860680910806DE
:102330008823D1F186EF95E00E94D61B83E395E0D8
:1023400066EF75E00E948606892B71F18091650425
:10235000882321F48FEC91E00E94321081E0809379
:10236000650486EF95E063E375E00E94DD04C6E74F
:10237000D4E000E010E0209789F08A89882371F08A
:1023800083E395E0BE010E948606892B89F586EFDE
:1023900095E0BE010E948606892B51F50F5F1F4F05
:1023A00065960530110539F7E114F104A9F0F7013C
:1023B0008289882389F083E395E0B7010E9486062D
:1023C000892B51F08DEE91E00E94321083E395E06D
:1023D0000E943C050E94770D85E190E0E80EF91E11
:1023E0009FEDE91694E0F906F9F60E942C1B37C020
:1023F00084E192E00E94321085E190E0089FF001B4
:10240000099FF00D189FF00D1124EA58FB4F80E052
:1024100090E0A8E4B3E480839183A283B3838483B0
:102420009583A683B78380E090E0A8E4B3EC809323
:10243000F6059093F705A093F805B093F9058093FE
:10244000FA059093FB05A093FC05B093FD05CF0121
:102450000E943C0586EF95E00E943C05A5CFDF91E8
:10246000CF911F910F91FF90EF9008950F931F93BD
:102470008DB79EB70A970FB6F8949EBF0FBE8DBF5B
:10248000EDB7FEB731968091970290919802ADB763
:10249000BEB712969C938E93119781E492E093833A
:1024A0008283809162048483158280916304868391
:1024B000178280916404808711860E947A258DB7E7
:1024C0009EB70A960FB6F8949EBF0FBE8DBF80913F
:1024D0009702909198020E94321000D000D000D054
:1024E000EDB7FEB731968091970290919802ADB703
:1024F000BEB712969C938E93119700E011E0138360
:1025000002838091600490916104958384830E948A
:102510007A258DB79EB706960FB6F8949EBF0FBE6C
:102520008DBF8BE492E00E943210809197029091CF
:1025300098020E94321086E592E00E94321000D08C
:1025400000D000D0EDB7FEB7319680919702909100
:102550009802ADB7BEB712969C938E9311971383D2
:10256000028380915C04848315820E947A258DB752
:102570009EB706960FB6F8949EBF0FBE8DBF809192
:102580009702909198020E94321081E692E00E9498
:10259000321000D000D000D0EDB7FEB73196809158
:1025A000970290919802ADB7BEB712969C938E9306
:1025B00011971383028380919402848315820E9471
:1025C0007A258DB79EB706960FB6F8949EBF0FBEBC
:1025D0008DBF80919702909198020E9432101F91B6
:1025E0000F9108951F920F920FB60F921124EF9240
:1025F000FF920F931F932F933F934F935F936F938C
:102600007F938F939F93AF93BF93EF93FF936091CB
:102610006E0470916F0480917004909171042DEBA1
:1026200037E346E05CE30E94082060936E047093F9
:102630006F04809370049093710420E030E040E2D6
:1026400051E40E94BF217B018C0160915F0470E026
:10265000882777FD8095982F0E940B219B01AC0164
:10266000C801B7010E94BF217B018C0160915E040B
:1026700070E0882777FD8095982F0E940B219B01A1
:10268000AC01C801B7010E94BF210E94D820DC0123
:10269000CB010E942424E0906E04F0906F0400911E
:1026A000700410917104C801B70126E636E646EEC3
:1026B0005EE30E94BB21882384F0C801B70123ECAC
:1026C00035EF48EE5EE30E946C20181634F08091DE
:1026D0005C04882311F00E94361260916E047091A0
:1026E0006F0480917004909171042CEE31E548E7FD
:1026F0005FE30E94BB2188230CF458C090915C04D6
:102700009923C9F080915F048F5F80935F048A30C2
:1027100038F010925F0480915E048F5F80935E04B6
:1027200080915E04863038F010925E0480915D04E2
:102730008F5F80935D04809164048F5F8093640455
:102740008A3038F010926404809163048F5F809324
:10275000630480916304863038F0109263048091A2
:1027600062048F5F80936204992311F00E943612F5
:1027700080E090E0A0E0B0E080936E0490936F045E
:10278000A0937004B09371042BB13BB122952695B0
:102790002695217081E090E0821B910906E0880F68
:1027A000991F0A95E1F73F7B382B3BB9FF91EF91D9
:1027B000BF91AF919F918F917F916F915F914F9159
:1027C0003F912F911F910F91FF90EF900F900FBEAF
:1027D0000F901F90189585E06AE04CE652E021E0EA
:1027E0000E940C1B0E942C1B0E9438150E94791518
:1027F0008823E1F38BE792E090939802809397020D
:102800000E9432100E94281982E06AE043E852E0F8
:1028100021E00E940C1B0E942C1B08956F927F9256
:102820008F929F92AF92BF92CF92EF920F931F938E
:102830003F9A479A569AE1E6F0E080E8808311E0FB
:1028400010838FE30E94601B0E94911B85B58460FA
:1028500085BD10936E0078940E94EB132198279801
:10286000509851988598869820983F9A8FEA0E94B0
:10287000601B83E395E040E050E068E272E400E032
:1028800010E020EC31E4E7E0EE2EBAE0CB2EA9E92F
:10289000AA2EA2E0BA2E0E94AE1B8CEF94E040E07C
:1028A00050E060EC70E400E010E020E231ECF8E48D
:1028B000EF2EEAE1CE2EB3EAAB2EB2E0BB2E0E94A1
:1028C000AE1B8BE096E040E050E060EF71E400E08A
:1028D00010E020EA30E4A8E1EA2EFCE0CF2EEBE79E
:1028E000AE2EE3E0BE2E0E94AE1B86E794E040E0F1
:1028F00050E060E972E400E010E020EA31E4B5E085
:10290000EB2EA6E0CA2EF9E9AF2EF3E0BF2E0E940F
:10291000AE1B81EE95E040E050E060EC70E400E03A
:1029200010E020EA31E4E7E0EE2EB3E0CB2EAFE991
:10293000AA2EA3E0BA2E0E94AE1BF5EE6F2EF3E096
:102940007F2E8FED94E040E050E060E272EC8A016F
:102950009B01E3E0EE2EB4E6CB2E53010E94AE1BAA
:10296000A9EA8A2EA3E09A2E8EE195E040E050E09D
:1029700060E272EC8A019B01F0EAEF2EE3E0CE2EDA
:1029800054010E94AE1B8AE496E040E050E060EF04
:1029900072E400E010E020E232ECB3E0EB2EA4E6BB
:1029A000CA2E53010E94AE1B8EE495E040E050E039
:1029B00060E272EC00E010E020E732E4F0EAEF2E93
:1029C000E3E0CE2E54010E94AE1B6091950270E0B0
:1029D00080E090E00E94092160933B0570933C05E4
:1029E00080933D0590933E0560933F0570934005AD
:1029F000809341059093420580E090E0A0E8BEE31B
:102A000080937E0490937F04A0938004B09381040C
:102A10008093820490938304A0938404B0938504EC
:102A20000E942C1B1F910F91EF90CF90BF90AF9001
:102A30009F908F907F906F900895CF93DF930E9427
:102A40000E1480E197E228EC30E0F9013197F1F7BC
:102A50000197D9F7C8ECD0E00E943D1088EE93E0D2
:102A6000FE013197F1F70197D9F70E942819F4CFA9
:102A700081E08093D70080EA8093D80082E189BD0D
:102A800009B400FEFDCF80E98093D8001092E000E9
:102A900010927204109273048CE08093E200789498
:102AA00008958091720408952FB7F894809172046C
:102AB000882369F083E08093E9009BE68091E80039
:102AC00085FD09C082FF03C09093E800F7CF2FBFB8
:102AD0002FEF3FEF0CC09091F1008091E80085FD51
:102AE00003C08BE68093E8002FBF292F30E0C90197
:102AF00008952FB7F89480917204882311F490E020
:102B000010C083E08093E9009091F200992349F48A
:102B10008091E80082FF05C085FD03C08BE68093AD
:102B2000E8002FBF892F089580917204882371F0E7
:102B30009FB7F89483E08093E9002BE602C02093CE
:102B4000E8008091E80085FDFACF9FBF0895482FE7
:102B5000809172048823D9F12FB7F89484E0809390
:102B6000E90080917504882341F08091E80085FD9B
:102B700002C02FBF12C0109275049091E400975EBE
:102B800034E08091E80085FD13C02FBF8091E40000
:102B9000891729F481E0809375048FEF089580915F
:102BA00072048823A1F02FB7F8943093E900E9CF9D
:102BB0004093F1008091E80085FD03C08AE3809393
:102BC000E80085E0809374042FBF80E008958FEFC4
:102BD0000895282F80917204882351F09FB7F894AC
:102BE00084E08093E9008091E80085FD03C09FBFE9
:102BF0008FEF08952093F1008091E80085FD03C0D8
:102C00008AE38093E80085E0809374049FBF80E0AE
:102C10000895CF93DF93EC0180917204882309F427
:102C20001CC13FB7F89484E08093E900809175045B
:102C3000882309F408C18091E80085FD02C03FBFE8
:102C40000CC110927504FFC09091E400975E8091D2
:102C5000E80085FD13C03FBF8091E400891721F48F
:102C600081E080937504F9C080917204882309F48F
:102C7000F4C03FB7F894B093E900E9CF8091F20037
:102C8000242F281B822F90E06817790708F4262F3D
:102C9000822F90E08134910508F0C6C08A5A9F4F78
:102CA000FC01EE0FFF1F0590F491E02D099489912E
:102CB0008093F10089918093F10089918093F100D4
:102CC00089918093F10089918093F100899180939B
:102CD000F10089918093F10089918093F1008991AD
:102CE0008093F10089918093F10089918093F100A4
:102CF00089918093F10089918093F100899180936B
:102D0000F10089918093F10089918093F10089917C
:102D10008093F10089918093F10089918093F10073
:102D200089918093F10089918093F100899180933A
:102D3000F10089918093F10089918093F10089914C
:102D40008093F10089918093F10089918093F10043
:102D500089918093F10089918093F100899180930A
:102D6000F10089918093F10089918093F10089911C
:102D70008093F10089918093F10089918093F10013
:102D800089918093F10089918093F10089918093DA
:102D9000F10089918093F10089918093F1008991EC
:102DA0008093F10089918093F10089918093F100E3
:102DB00089918093F10089918093F10089918093AA
:102DC000F10089918093F10089918093F1008991BC
:102DD0008093F10089918093F10089918093F100B3
:102DE00089918093F10089918093F100899180937A
:102DF000F10089918093F10089918093F10089918C
:102E00008093F10089918093F10089918093F10082
:102E100089918093F10089918093F1008991809349
:102E2000F10089918093F10089918093F100809164
:102E3000E80085FD02C05093E800621B7109A09371
:102E400074043FBF04C0B4E040E45AE3A5E0611558
:102E5000710509F0F9CE80E001C08FEFDF91CF91CD
:102E600008959FB7F89480917404882341F084E01A
:102E70008093E9008AE38093E800109274049FBF76
:102E8000089560914B0470914C0480914D04909191
:102E90004E04089580914F04089580915004089540
:102EA000809151040895809173040895282F9FB74D
:102EB000F89480917204882339F082E08093E900CD
:102EC0008091E80085FD03C09FBF8FEF089581EAE0
:102ED0008093F10080E28093F1001092F100109253
:102EE000F1001092F1001092F10081E08093F10066
:102EF0001092F1002093F1008AE38093E8009FBFD5
:102F000080E008951F920F920FB60F9211248F93B5
:102F10009F938091E1001092E100982F83FF11C0F0
:102F20001092E90081E08093EB001092EC0082E1C6
:102F30008093ED0088E08093F0001092720410926C
:102F4000730492FF13C080917204882379F08091FA
:102F50007404882359F0815080937404882331F4D9
:102F600084E08093E9008AE38093E8009F918F9149
:102F70000F900FBE0F901F9018951F920F920FB6D3
:102F80000F9211240F931F932F933F934F935F93AF
:102F90006F937F938F939F93AF93BF93EF93FF9321
:102FA0001092E9008091E80083FF3CC14091F1005C
:102FB0003091F1008091F100682F70E02091F100D4
:102FC000922F80E0682B792B8091F100A82FB0E040
:102FD0002091F100922F80E0A82BB92B1091F100E5
:102FE0000091F10082EF8093E800363009F05AC07A
:102FF00025E331E0A90145505040F901379785910B
:1030000094918617970701F5FA01859194918A1793
:103010009B07D1F49A012E5F3F4FF901659174919E
:103020002E5F3F4FF9014491212F30E0902F80E037
:10303000282B392B2F3F310519F010F02FEF30E0FE
:10304000241758F4422F09C0295F3F4F495F5F4F53
:10305000F1E02F353F0789F6E5C05EEF8091E8008B
:10306000282F30E0C90185709070892BB9F322FDBB
:10307000DCC0342F413108F030E1232FCB0106C0F2
:10308000FC010196E491E093F10021502223C1F765
:10309000630F711D431B5093E8004423F9F6303150
:1030A000E9F2C3C0353061F48EEF8093E80080917F
:1030B000E80080FFFCCF862F80688093E300B5C0D6
:1030C000393051F5442309F0ADC060937204109279
:1030D0007304109274048EEF8093E80088E591E009
:1030E00021E02093E900FC010196E491E093EB00DC
:1030F000EE2369F0AC014F5F5F4FFC018491809338
:10310000EC00CA010196FA0134913093ED002F5F73
:10311000253039F78EE181C0383061F4403809F04C
:1031200081C08091E80080FFFCCF80917204809381
:10313000F10050C0313289F4413A09F073C08091F6
:10314000E80080FFFCCFEBE4F4E081918093F10094
:1031500084E0E235F807C9F73DC03032A1F44132CE
:1031600009F060C08091E80082FFFCCFEBE4F4E05E
:103170008091F100819384E0E235F807C9F78BEF85
:103180008093E80027C0323251F4413209F04AC03E
:10319000609373048091E80080FFFCCF1BC0332351
:1031A000E9F48091E80080FFFCCF423811F080E024
:1031B0000DC0A093E9008091EB0090E025E096958A
:1031C00087952A95E1F781701092E9008093F100CC
:1031D0001092F1008EEF8093E80027C0313011F09B
:1031E000333001F54230F1F4672BE1F42A2F2F77C9
:1031F000822F81508430B0F48EEF8093E8002093CA
:10320000E900333079F089E18093EB0081E090E0D0
:1032100002C0880F991F2A95E2F78093EA00109266
:10322000EA0003C081E28093EB00FF91EF91BF9130
:10323000AF919F918F917F916F915F914F913F914E
:103240002F911F910F910F900FBE0F901F90189507
:10325000E2E6F6E0119288E0EA35F807D9F708953A
:10326000843580F5603370F5262F269526952695B2
:10327000677090E0442399F0E4E52E9FF00111245B
:10328000E80FF91FEE59F94F81E090E002C0880F76
:10329000991F6A95E2F72081282B20830895E4E5A1
:1032A0002E9FF0011124E80FF91FEE59F94F81E02C
:1032B00090E002C0880F991F6A95E2F780952081FF
:1032C0002823208308952F923F924F925F926F920E
:1032D0007F928F929F92AF92BF92CF92DF92EF92A6
:1032E000FF920F931F93DF93CF93CDB7DEB72E9747
:1032F0000FB6F894DEBF0FBECDBFE82ED62E142F2A
:10330000F22E0C878417F9F4862E9924A22EBB2462
:103310000EC08E2D682D4C850E943019DF1420F4CC
:103320000894811C911C03C0089481089108DF1443
:1033300028F4A814B9040CF401C1EBCF8A149B043F
:103340000CF4FCC0E6CF6217F9F4882E9924A42E61
:10335000BB240EC0882D6D2D4C850E943019E116BE
:1033600020F40894811C911C03C0089481089108E2
:10337000E11628F4A814B9040CF4E0C0EBCF8A14C9
:103380009B040CF4DBC0E6CF481720F41E2DE42E7E
:10339000F62ED22E812F90E09A838983AE2CBB2407
:1033A000BC016A197B09882777FD8095982F0E94B8
:1033B0000B216F83788789879A872F2C33244D2C94
:1033C0005524B10164197509882777FD8095982FD8
:1033D0000E940B213B014C012F81388549855A857C
:1033E0000E9470206B837C838D839E8320E030E07D
:1033F00040E050E00E94BB2187FF0DC0C401B30133
:1034000090582F81388549855A850E9470206B839A
:103410007C838D839E830F2EF0E0CF2EF0E0DF2E95
:10342000F0E0EF2EF0E0FF2EF02D70C0AB868A2D7D
:10343000642D4C850E943019C701B6012B813C8157
:103440004D815E810E94082031C08B85642D4C85A2
:103450000E9430191E861D86C401B30120E030E0B1
:1034600040E050E00E94BB21181624F4E1E0F0E0B7
:10347000FE87ED8700E010E0C401B30120E030E0FA
:1034800040E050E00E946C20882314F401E010E03A
:103490008D859E85801B910B480E591EC701B60174
:1034A00020E030E040E85FE30E9407206B017C01F0
:1034B00020E030E040E05FE30E94BB2188239CF0E5
:1034C000C401B30120E030E040E050E00E94BB21A5
:1034D00018162CF4241435040CF0B7CF04C0421491
:1034E00053040CF0B2CF6F81788589859A8520E0EE
:1034F00030E040E050E00E94BB21181624F408940C
:10350000A11CB11C03C00894A108B1086F81788583
:1035100089859A8520E030E040E050E00E94BB21A0
:10352000181634F4E981FA81EA15FB053CF07ECFE8
:1035300089819A81A816B9060CF078CF2E960FB61D
:10354000F894DEBF0FBECDBFCF91DF911F910F91D9
:10355000FF90EF90DF90CF90BF90AF909F908F90B3
:103560007F906F905F904F903F902F9008957F9243
:103570008F929F92AF92BF92CF92DF92EF92FF9283
:103580000F931F93CF93DF93D82E762EC22E85E014
:10359000489FA00111248A01095A1E4F91E0892EEB
:1035A000912C8CE5A82E81E0B82EA40EB51EF80152
:1035B0008491CC2009F48095C0E0D0E0E82EFF246F
:1035C000672D6C0FA4010C2E02C0440F551F0A94E6
:1035D000E2F74E215F210C2E02C0559547950A94C3
:1035E000E2F78D2D0E9430192196C830D10541F7A0
:1035F0000F5F1F4FD3940A151B05C9F6DF91CF91BA
:103600001F910F91FF90EF90DF90CF90BF90AF9000
:103610009F908F907F900895EF92FF920F931F934A
:10362000CF93DF93E62EEA01F22E082F10E007C0B9
:10363000802F6E2D2F2D0E94B71A0B5F1F5FFE018A
:10364000E10FF11D4081442399F7DF91CF911F9144
:103650000F91FF90EF900895CF93DF9380E060E0AB
:103660000E94A11BC2E6D6E081E069910E943F1B47
:1036700088E0CA35D807C1F7DF91CF91089595B199
:103680008295880F807E9F7D982B95B95F9827E063
:1036900030E070E08F98CB01022E02C0959587959F
:1036A0000A94E2F780FF02C02E9A01C02E988F9AEA
:1036B000215030408FEF2F3F380761F75F9A089510
:1036C0001F93182F579A249A259A269A879A2C98EE
:1036D0005F9A2C9A80E061E20E943F1B106880E0B4
:1036E000612F0E943F1B80E064E00E943F1B80E04E
:1036F00063E10E943F1B80E06CE00E943F1B80E082
:1037000060E20E943F1B80E06CE00E943F1B80E073
:1037100060E40E943F1B80E060E80E943F1B1F9115
:103720000895CF93DF93C0E0D0E081E060E00E9495
:103730003F1B219681E0C83FD807B9F7DF91CF91B1
:1037400008951F93182F606480E00E943F1B10684B
:1037500080E0612F0E943F1B1F910895AF92BF929E
:10376000CF92EF920F931F93FC01408351836283AA
:1037700073830483158326833783E08AC18AB48ADE
:10378000A38A81E0828B80E090E0A0E0B0E08087B7
:103790009187A287B38784879587A687B7871F916C
:1037A0000F91EF90CF90BF90AF9008952F923F92DE
:1037B0005F926F927F928F929F92AF92BF92CF92C1
:1037C000DF92EF92FF920F931F93CF93DF938C01C1
:1037D000DC0152968C915297882309F47FC06D9139
:1037E0007D918D919C910E9422220E94D8203B01C4
:1037F000F8012481358146815781643571050CF0CB
:103800006DC0D80150968C91C82FD0E0CE01860DA6
:10381000971D181619060CF061C0CA01B9010E9463
:1038200022220E94D8204B01603371050CF056C053
:10383000F80181899401280F311D121613060CF02E
:103840004DC057E0A52EB12CAC0EBD1E43E0B59483
:10385000A7944A95E1F7EE24FF24CC24DD2437E039
:10386000232E312C30C0CE0123E0959587952A95E3
:10387000E1F7D8015396ED91FC915497EC0DFD1DA5
:10388000E80FF91F408150E0CE0187709070F10180
:10389000E81BF90B02C055954795EA95E2F7417090
:1038A0009E01260D822F652D0E9430192196D80188
:1038B00050968C9190E0C817D907ACF20894E11C9F
:1038C000F11CCA0CDB1CF801818990E0E816F906AE
:1038D0002CF4C0E0D0E05E2C580CE9CFDF91CF9102
:1038E0001F910F91FF90EF90DF90CF90BF90AF901E
:1038F0009F908F907F906F905F903F902F90089552
:10390000A1E1B0E0E6E8FCE10C947E223C017F8777
:103910006E876A01FC0117821682838181FD03C0D4
:103920006FEF7FEF6FC39E012F5F3F4F398B288B67
:10393000F3012381EE85FF8523FD859123FF81918E
:10394000FF87EE87882309F45AC3853251F4EE8548
:10395000FF8523FD859123FF8191FF87EE878532C7
:1039600029F490E0B3010E941D25E2CF982F10E0CA
:10397000882499241032B0F49B3269F09C3228F4E8
:10398000903251F0933271F40BC09D3239F0903384
:1039900049F4116028C01260146025C0186023C06B
:1039A000106121C017FD2AC0892F80538A3078F416
:1039B00016FF06C0FAE09F9E902C1124980E13C0AB
:1039C0003AE0839E802C1124880E10620CC09E3237
:1039D00021F416FD14C3106406C09C3611F410685F
:1039E00002C0983659F4EE85FF8523FD959123FF9B
:1039F0009191FF87EE87992309F0BCCF892F8554D9
:103A0000833020F4812F8061905E07C0892F855616
:103A1000833008F09FC1812F8F7E86FD02C076E043
:103A2000972E6FE3F62EF822953619F4F0E4FF2A6C
:103A300007C0963619F420E8F22A02C091109A9431
:103A4000F7FE0AC03BE3391518F45CE3B52E02C05B
:103A5000B92CB39427E009C047E0491520F4BB24F2
:103A600047E0942EF7CF292DBB24C60104969D87ED
:103A70008C87F6016081718182819381AE014F5FF5
:103A80005F4F0B2D0E942F246C010981202E3324BF
:103A900000FF04C003FD02C01DE209C0F1FE02C028
:103AA0001BE205C0F2FC02C010E001C010E2C1013F
:103AB0008C709070892BB9F1112311F483E001C04F
:103AC00084E0881510F088240AC0881AF3FC07C027
:103AD00080E290E0B3010E941D258A94C9F711236A
:103AE00029F0812F90E0B3010E941D2523FE03C021
:103AF00007ED13E00EC00BED13E00BC0E114F10471
:103B000009F0805290E0B3010E941D250F5F1F4F06
:103B100005C0EF2CFF24F0E1EF22FF24F80184918F
:103B2000882361F714C1F7FE12C0BC0C24FE04C048
:103B30008A81813309F4BA941B141CF0BB24B3941A
:103B40002DC0F8E0FB1550F538E0B32E27C0F6FC89
:103B500025C0892D90E08C159D054CF02CEFC216E8
:103B60002FEFD20624F030E8F32A01C09A9499206E
:103B700049F0E2E0F0E0EC0FFD1FE90DF11D80815E
:103B80008033A1F3F7FE0AC0B92CB394892D90E0DD
:103B9000C816D90614F0992401C09C18F7FC03C07C
:103BA00025E030E009C01C141D041CF021E030E0C9
:103BB00003C096012F5F3F4F112311F02F5F3F4F3E
:103BC000992029F0892D90E00196280F391F882D22
:103BD00090E02817390714F0882401C0821A4F2C6E
:103BE0005524C20189709070892B39F008C080E299
:103BF00090E0B3010E941D258A948820C1F711230B
:103C000029F0812F90E0B3010E941D2543FE07C0DB
:103C100008C080E390E0B3010E941D258A948820AB
:103C2000C1F7F7FE46C08601D7FE02C000E010E0F3
:103C300076010894E11CF11CE01AF10A41E050E021
:103C40004C0F5D1FE40EF51E26014B185108892DFF
:103C500090E0AA24BB24A81AB90A5FEF0F3F15070A
:103C600029F48EE290E0B3010E941D25C016D10612
:103C700034F0401651061CF4F701808101C080E346
:103C8000015010400894E11CF11C0A151B052CF092
:103C900090E0B3010E941D25E0CF0C151D0539F4FD
:103CA0009A81963318F4953311F424FE81E390E061
:103CB0004BC08A81813309F00F7E90E0B3010E94EE
:103CC0001D259920A1F08EE290E0B3010E941D25F0
:103CD00012E0E1E0F0E0EC0FFD1FE10FF11D1F5FCE
:103CE000808190E0B3010E941D259A9491F744FCD5
:103CF00003C085E690E002C085E490E0B3010E9435
:103D00001D25D7FC05C0C114D10441F404FF06C031
:103D1000D094C194D108D3948DE201C08BE290E09D
:103D2000B3010E941D2580E305C08F5F26EF3FEFA2
:103D3000C20ED31E3AE0C316D104BCF790E0B30123
:103D40000E941D25C601C096B3010E941D25CC848A
:103D5000DD8452C1933631F0933799F0933509F0F1
:103D600059C023C0F601808189835E010894A11C9B
:103D7000B11C22E030E0C20ED31E21E0E22EF12C75
:103D800012C0F601A080B18016FD03C06FEF7FEF77
:103D900002C0692D70E022E030E0C20ED31EC501E2
:103DA0000E9412257C011F7713C0F601A080B1800C
:103DB00016FD03C06FEF7FEF02C0692D70E022E0B7
:103DC00030E0C20ED31EC5010E9407257C01106899
:103DD00013FF07C01BC080E290E0B3010E941D25C5
:103DE0008A94882D90E0E816F906A8F30FC0F50133
:103DF00017FD859117FF81915F0190E0B3010E944B
:103E00001D2581108A940894E108F108E114F10459
:103E100071F7F2C0943611F0993689F517FF08C092
:103E2000F601208131814281538184E090E00AC013
:103E3000F601808191819C01442737FD4095542FE4
:103E400082E090E0C80ED91E9FE6F92EF12257FFBE
:103E500009C050954095309521953F4F4F4F5F4F8A
:103E600090E8F92ACA01B901AE014F5F5F4F2AE01D
:103E700030E00E949E25E82EE889EE1A41C0953771
:103E800021F41F7E2AE030E01CC0197F9F3661F0CC
:103E9000903720F4983509F0B2C00FC0903739F050
:103EA000983709F0ACC004C028E030E00AC01061C7
:103EB00014FD146020E130E004C014FD166020E120
:103EC00032E017FF08C0F601608171818281938121
:103ED00044E050E008C0F60180819181BC0180E09F
:103EE00090E042E050E0C40ED51EAE014F5F5F4F40
:103EF0000E949E25E82E5889E51A8FE7F82EF122B8
:103F0000F6FE0BC08EEFF822E91438F4F4FE07C079
:103F1000F2FC05C09FEEF92202C01E2D01C0192D32
:103F2000F4FE0DC0FE01EE0DF11D8081803319F409
:103F3000E9EEFE2208C01F5FF2FE05C003C08F2D10
:103F4000867809F01F5F0F2DF3FC14C0F0FE0FC040
:103F5000181510F09E2C0BC09E2C980C911A182D41
:103F600006C080E290E0B3010E941D251F5F181576
:103F7000C0F304C0181510F4811A01C0882404FF8E
:103F80000FC080E390E0B3010E941D2502FF1DC019
:103F900001FD03C088E790E00EC088E590E00BC00B
:103FA000802F867891F001FF02C08BE201C080E291
:103FB000F7FC8DE290E0B3010E941D2506C080E36E
:103FC00090E0B3010E941D259A94E914C0F3EA948D
:103FD000E1E0F0E0EC0FFD1FEE0DF11D808190E0BF
:103FE000B3010E941D25EE2091F706C080E290E00B
:103FF000B3010E941D258A948820C1F799CCF30152
:1040000066817781CB016196E2E10C949A22505847
:10401000BB27AA270ED075C166D130F06BD120F036
:1040200031F49F3F11F41EF45BC10EF4E095E7FB01
:1040300051C1E92F77D180F3BA176207730784075C
:10404000950718F071F49EF58FC10EF4E0950B2ED4
:10405000BA2FA02D0B01B90190010C01CA01A001DA
:104060001124FF27591B99F0593F50F4503E68F135
:104070001A16F040A22F232F342F4427585FF3CF76
:10408000469537952795A795F0405395C9F77EF447
:104090001F16BA0B620B730B840BBAF09150A1F090
:1040A000FF0FBB1F661F771F881FC2F70EC0BA0F16
:1040B000621F731F841F48F4879577956795B7959E
:1040C000F7959E3F08F0B3CF9395880F08F0992796
:1040D000EE0F979587950895D9D008F481E008955B
:1040E0000CD00FC107D140F0FED030F021F45F3F7B
:1040F00019F0F0C0511139C1F3C014D198F39923CC
:10410000C9F35523B1F3951B550BBB27AA2762179B
:104110007307840738F09F5F5F4F220F331F441FE0
:10412000AA1FA9F333D00E2E3AF0E0E830D0915018
:104130005040E695001CCAF729D0FE2F27D0660F05
:10414000771F881FBB1F261737074807AB07B0E844
:1041500009F0BB0B802DBF01FF2793585F4F2AF05A
:104160009E3F510568F0B6C000C15F3FECF3983E3A
:10417000DCF3869577956795B795F7959F5FC9F7B7
:10418000880F911D9695879597F90895E1E0660F40
:10419000771F881FBB1F621773078407BA0720F0B9
:1041A000621B730B840BBA0BEE1F88F7E095089522
:1041B00004D06894B111D9C00895BCD088F09F573D
:1041C00090F0B92F9927B751A0F0D1F0660F771F63
:1041D000881F991F1AF0BA95C9F712C0B13081F043
:1041E000C3D0B1E00895C0C0672F782F8827B85F8B
:1041F00039F0B93FCCF3869577956795B395D9F7A4
:104200003EF490958095709561957F4F8F4F9F4FAD
:104210000895E89409C097FB3EF4909580957095B9
:1042200061957F4F8F4F9F4F9923A9F0F92F96E902
:10423000BB279395F695879577956795B795F11177
:10424000F8CFFAF4BB0F11F460FF1BC06F5F7F4F14
:104250008F4F9F4F16C0882311F096E911C0772326
:1042600021F09EE8872F762F05C0662371F096E82F
:10427000862F70E060E02AF09A95660F771F881FFE
:10428000DAF7880F9695879597F90895990F0008A2
:10429000550FAA0BE0E8FEEF16161706E807F90718
:1042A000C0F012161306E407F50798F0621B730BB3
:1042B000840B950B39F40A2661F0232B242B252B34
:1042C00021F408950A2609F4A140A6958FEF811DD7
:1042D000811D089597F99F6780E870E060E0089578
:1042E0009FEF80EC089500240A941616170618060E
:1042F0000906089500240A941216130614060506EA
:104300000895092E0394000C11F4882352F0BB0F7A
:1043100040F4BF2B11F460FF04C06F5F7F4F8F4FDD
:104320009F4F089557FD9058440F551F59F05F3F18
:1043300071F04795880F97FB991F61F09F3F79F0C7
:1043400087950895121613061406551FF2CF469549
:10435000F1DF08C0161617061806991FF1CF8695CB
:104360007105610508940895E894BB2766277727AF
:10437000CB0197F908958ADF08F48FEF08950BD0E9
:10438000C0CFB1DF28F0B6DF18F0952309F0A2CF37
:10439000A7CF1124EACFC6DFA0F3959FD1F3950FE5
:1043A00050E0551F629FF001729FBB27F00DB11DB9
:1043B000639FAA27F00DB11DAA1F649F6627B00D49
:1043C000A11D661F829F2227B00DA11D621F739F32
:1043D000B00DA11D621F839FA00D611D221F749F40
:1043E0003327A00D611D231F849F600D211D822F87
:1043F000762F6A2F11249F5750408AF0E1F08823CE
:104400004AF0EE0FFF1FBB1F661F771F881F9150DA
:104410005040A9F79E3F510570F05CCFA6CF5F3F9B
:10442000ECF3983EDCF3869577956795B795F7950D
:10443000E7959F5FC1F7FE2B880F911D9695879595
:1044400097F9089577DFE0F09E37D8F09639B8F401
:104450009E3848F4672F782F8827985FF9CF869584
:104460007795679593959539D0F3B62FB1706B0F0B
:10447000711D811D20F4879577956795939502C0EE
:104480001CC073CF882371F4772321F09850872BB9
:10449000762F07C0662311F499270DC09051862B03
:1044A00070E060E02AF09A95660F771F881FDAF7B0
:1044B000880F9695879597F908959F3F31F0915011
:1044C00020F4879577956795B795880F911D9695F8
:1044D000879597F9089597FB092E07260AD077FD4F
:1044E00004D043D006D000201AF4709561957F4F18
:1044F0000895F6F7909581959F4F08952F923F92DA
:104500004F925F926F927F928F929F92AF92BF92E3
:10451000CF92DF92EF92FF920F931F93CF93DF938F
:10452000CDB7DEB7CA1BDB0B0FB6F894DEBF0FBEEC
:10453000CDBF09942A88398848885F846E847D8439
:104540008C849B84AA84B984C884DF80EE80FD803B
:104550000C811B81AA81B981CE0FD11D0FB6F894B1
:10456000DEBF0FBECDBFED010895AA1BBB1B51E1FD
:1045700007C0AA1FBB1FA617B70710F0A61BB70BD3
:10458000881F991F5A95A9F780959095BC01CD0178
:104590000895CF93DF93BC018230910510F462E05F
:1045A00070E0A0915C08B0915D08ED01E0E0F0E002
:1045B00040E050E021C0888199818617970769F40F
:1045C0008A819B81309719F09383828304C09093F2
:1045D0005D0880935C08FE0134C06817790738F4E1
:1045E0004115510519F08417950708F4AC01FE0137
:1045F0008A819B819C01E9012097E9F641155105CB
:10460000A9F1CA01861B970B049708F4BA01E0E0F0
:10461000F0E02AC08D919C91119784179507F9F4C9
:104620006417750781F412968D919C9113973097BA
:1046300019F09383828304C090935D0880935C0893
:10464000FD0132964FC0CA01861B970BFD01E80F92
:10465000F91F6193719302978D939C9343C0FD0161
:10466000828193819C01D9011097A1F680915A080B
:1046700090915B08892B41F48091540490915504EA
:1046800090935B0880935A084091560450915704C8
:104690004115510541F44DB75EB780915204909198
:1046A0005304481B590B20915A0830915B0824177A
:1046B0003507B0F4CA01821B930B8617970780F069
:1046C000AB014E5F5F4F8417950750F0420F531FA9
:1046D00050935B0840935A08F9016193719302C0AB
:1046E000E0E0F0E0CF01DF91CF910895CF93DF9329
:1046F000009709F450C0EC0122971B821A82A09106
:104700005C08B0915D08109709F140E050E0AC17EB
:10471000BD0708F1BB83AA83FE0121913191E20F0D
:10472000F31FAE17BF0779F48D919C911197280F55
:10473000391F2E5F3F4F3983288312968D919C91AC
:1047400013979B838A834115510571F4D0935D08BB
:10475000C0935C0820C012968D919C911397AD0177
:10476000009711F0DC01D3CFFA01D383C2832191EA
:104770003191E20FF31FCE17DF0769F48881998129
:10478000280F391F2E5F3F4FFA01318320838A8122
:104790009B8193838283DF91CF910895A0E0B0E065
:1047A000E4EDF3E20C948622EC01A880B980CA8083
:1047B000DB80A114B104C104D10441F484E2A82E29
:1047C00089EDB82E8BE5C82E87E0D82EC601B5013D
:1047D0002DE133EF41E050E00E941B2627EA31E44F
:1047E00040E050E00E94FC257B018C01C601B50130
:1047F0002DE133EF41E050E00E941B26CA01B901D0
:104800002CEE34EF4FEF5FEF0E94FC256E0D7F1D05
:10481000801F911F97FF04C06150704080409048F6
:10482000688379838A839B839B013F77C901CDB7D6
:10483000DEB7EAE00C94A2220E94CE23089588E518
:1048400094E00E94CE230895A0E0B0E08093580445
:1048500090935904A0935A04B0935B0408952830B0
:1048600008F027E03327DA01990F311D87FD9160A9
:1048700000966105710539F432602E5F3D9330E397
:104880002A95E1F708959F3F30F080387105610562
:1048900009F03C5F3C5F3D93913008F08068911DCA
:1048A000DF93CF931F930F93FF92EF92192F987F6F
:1048B0009695E92F96959695E90FFF27E75CFB4FB4
:1048C00099273327EE24FF24A701E70105900894D8
:1048D000079428F4360FE71EF81E491F511D660F76
:1048E000771F881F991F0694A1F70590079428F455
:1048F000E70EF81E491F561FC11D770F881F991F0D
:10490000661F0694A1F70590079428F4F80E491F36
:10491000561FC71FD11D880F991F661F771F06944A
:10492000A1F70590079420F4490F561FC71FD81F01
:10493000990F661F771F881F0694A9F78491109519
:10494000177041F0D695C79557954795F794E7941A
:104950001A95C1F7EFEDF3E0689415901591359134
:104960006591959105907FE27395E118F10A430BEB
:10497000560BC90BD009C0F7E10CF11E431F561F9F
:10498000C91FD01D7EF4703311F48A95E6CFE894E8
:10499000015030F0080F0AF40027021708F4202F06
:1049A0002395022F7A3328F079E37D932A95E9F74E
:1049B00010C07D932A9589F606949795679537954B
:1049C00017951794E118F10A430B560BC90BD00940
:1049D00098F023957E9173957A3308F070E37C9379
:1049E0002013B8F77E9170617D9330F0839571E369
:1049F0007D9370E32A95E1F71124EF90FF900F91DA
:104A00001F91CF91DF91992787FD90950895FC0123
:104A10000590615070400110D8F7809590958E0FE9
:104A20009F1F0895FC016150704001900110D8F75C
:104A3000809590958E0F9F1F08950F931F93CF938E
:104A4000DF938C01EB018B8181FF1BC082FF0DC0C6
:104A50002E813F818C819D812817390764F4E8817C
:104A6000F9810193F983E88306C0E885F985802FF1
:104A70000995892B31F48E819F8101969F838E83C6
:104A800002C00FEF1FEFC801DF91CF911F910F916F
:104A90000895AEE0B0E0EFE4F5E20C948C220D89CD
:104AA0001E898F89988D97FF02C080E090E801975A
:104AB0009E838D831A83098386E08C839E01255E05
:104AC0003F4FCE010196698D7A8DA9010E94801C0D
:104AD0004D815E8157FD0AC02F81388542175307EB
:104AE0000CF49A01020F131FF80110822E96E4E0D5
:104AF0000C94A822AEE0B0E0E0E8F5E20C948C2241
:104B00000D891E8986E08C831A8309838FEF9FE7C6
:104B10009E838D839E01275E3F4FCE0101966F8954
:104B2000788DA9010E94801C2F813885020F131FE8
:104B3000F80110822E96E4E00C94A822FA01AA272C
:104B4000283051F1203181F1E8946F936E7F6E5FD0
:104B50007F4F8F4F9F4FAF4FB1E03ED0B4E03CD07E
:104B6000670F781F891F9A1FA11D680F791F8A1F61
:104B7000911DA11D6A0F711D811D911DA11D20D0C8
:104B800009F468943F912AE0269F11243019305D82
:104B90003193DEF6CF010895462F4770405D419373
:104BA000B3E00FD0C9F7F6CF462F4F70405D4A33C0
:104BB00018F0495D31FD4052419302D0A9F7EACF88
:104BC000B4E0A6959795879577956795BA95C9F7B7
:104BD00000976105710508959B01AC010A2E0694AA
:104BE0005795479537952795BA95C9F7620F731F63
:104BF000841F951FA01D0895629FD001739FF0012F
:104C0000829FE00DF11D649FE00DF11D929FF00D5C
:104C1000839FF00D749FF00D659FF00D9927729F93
:104C2000B00DE11DF91F639FB00DE11DF91FBD011E
:104C3000CF011124089597FB092E05260ED057FDAC
:104C400004D014D00AD0001C38F45095409530950B
:104C500021953F4F4F4F5F4F0895F6F79095809500
:104C6000709561957F4F8F4F9F4F0895A1E21A2E47
:104C7000AA1BBB1BFD010DC0AA1FBB1FEE1FFF1F00
:104C8000A217B307E407F50720F0A21BB30BE40B50
:104C9000F50B661F771F881F991F1A9469F7609597
:104CA0007095809590959B01AC01BD01CF01089551
:044CB000F894FFCFA6
:104CB40025640053636F72653A20004C697665730E
:104CC4003A2000466C6F6F723A200054696D653A61
:104CD40020003A004C6F6164696E672E2E2E0047E7
:104CE400414D45204F564552006E393930313939DE
:104CF40030004A6961205368656E672043686F6EAF
:104D040067002566002D2033202D002D2032202D14
:104D1400002D2031202D000D0A54686520706C612F
:104D2400796572207069636B6564207570206120F9
:104D34007472656173757265000D0A54686520703C
:104D44006C617965722068617320746865206B6595
:104D54007921000D0A54686520706C6179657220B0
:104D64007573657320746865206B657920746F2092
:104D7400746865206E65787420666C6F6F72000DC0
:104D84000A506C61796572207069636B6564207583
:104D9400702074686520736869656C64000D0A543A
:104DA400686520706C6179657220776173206B6926
:104DB4006C6C656420627920746865206D6F6E7315
:104DC400746572000D0A54686520706C61796572AF
:104DD400206B696C6C65642061206D6F736E746503
:104DE400722077697468206120736869656C642136
:104DF400000D0A25643A2564256400207C20536351
:104E04006F72653A2000207C20466C6F6F723A20E6
:104E140000207C204C697665733A2000436F6E6EE7
:104E24006563742053657269616C0057656C636FC8
:104E34006D650053657269616C20636F6E6E6563A6
:104E44007465640003020096022838283800FEAA1C
:104E54003828287F00FF00FF00FF01FE4100810089
:104E6400810081008241FF81FF81FF81FF82400038
:104E740000000000000002400000000000000002EA
:104E840040007C007E007C0002600044004200443C
:104E9400000660004400420044000640007C007E9E
:104EA400007C0002400000000000000002400000FE
:104EB400000000000002400000000000000002406A
:104EC400000000000000000260000000000000007C
:104ED40006380000003C0000001C1C000000C30059
:104EE4000000380700000100800000E0018000019C
:104EF400008000018000C000020040000300007038
:104F040000040320000E00001E00040320007800AB
:104F14000001E004002007800000003F040020FCA2
:104F24000000000007FC003FE00000003C0000C35C
:104F340000010080010080020040040320040320DB
:104F4400040020040020FC003F70F8A8F8F8A8E052
:104F5400BEEA2070F8F0F0F060FFFFFFFFFFFFFFF4
:104F6400FFFFFFFFFFFFFFFFFFFFFFFFFFFFFFFF4D
:104F7400FFFFFFFFFFFFFFFFFFFFFFFFFFFFFFFF3D
:104F8400FFFFFFFFFFFFFFFFFFFFFFFFFFFFFFFF2D
:104F9400FFFFFFFFFFE0E0E0E0E0E0E0E0E0E0E072
:104FA400E0E0E0E0E0E0E0E0E0E0E0E0E0E0E0E0FD
:104FB400E0E0E0E0E0E0E0E0E0E0E0E0E0E0E0E0ED
:104FC400E0E0E0E0E0E0E0E0E0E0E0E0E0E0E0E0DD
:104FD400E0E0E0E0E0E0E0E0E0E0E0E0E0E0E0E0CD
:104FE400E0E0E0E0E0E0E0E0E0E0E0E0E0E0E0E0BD
:104FF400E0E0E0E0E0E0E0E0E0E0E000E10000002C
:0C500400000820005E0800000100000011
:00000001FF
