:100000000C946D020C948A020C948A020C948A025D
:100010000C948A020C948A020C948A020C948A0230
:100020000C948A020C948A020C948D160C94C816B7
:100030000C948A020C948A020C948A020C948A0210
:100040000C948A020C948A020C948A020C948A0200
:100050000C948A020C948A020C948A020C94031267
:100060000C948A020C948A020C948A020C948A02E0
:100070000C948A020C948A020C948A020C948A02D0
:100080000C948A020C948A020C948A020C948A02C0
:100090000C948A020C948A020C948A020C948A02B0
:1000A0000C948A020C948A020C948A0222161F165F
:1000B0001C1619161616131610160D160A16071604
:1000C00004160116FE15FB15F815F515F215EF15BA
:1000D000EC15E915E615E315E015DD15DA15D7156C
:1000E000D415D115CE15CB15C815C515C215BF151C
:1000F000BC15B915B615B315B015AD15AA15A715CC
:10010000A415A1159E159B159815951592158F157B
:100110008C1589158615831580157D157A1577152B
:10012000741571156E156B1568156515621500014E
:10013000000062011200020000740143000300008D
:10014000B7010401030904BB011402030904D1012E
:100150001603030904E9010C0001C11201803601F4
:1001600081361201000202000010C0167A0400015C
:100170000102030109024300020100C03209040028
:100180000001020201000524001001052401010103
:10019000042402060524060001070582031000401E
:1001A00009040100020A00000007050302400000E4
:1001B0000705840240000004030904140359006F7A
:1001C000007500720020004E0061006D00650000A7
:1001D00000160355005300420020005300650072D2
:1001E00000690061006C0000000C03310032003334
:1001F00000340035000000000000000000005F0037
:10020000000007000700147F147F14242A7F2A129D
:10021000231308646236495522500005030000008C
:100220001C2241000041221C0014083E081408084A
:100230003E08080050300000080808080800606008
:10024000000020100804023E5149453E00427F4014
:100250000042615149462141454B311814127F102B
:1002600027454545393C4A4949300171090503365E
:1002700049494936064949291E00363600000056CC
:1002800036000008142241001414141414004122F2
:1002900014080201510906324979413E7E111111BB
:1002A0007E7F494949363E414141227F4141221CDE
:1002B0007F494949417F090909013E4149497A7FFE
:1002C0000808087F00417F41002040413F017F082E
:1002D0001422417F404040407F020C027F7F04088F
:1002E000107F3E4141413E7F090909063E415121AF
:1002F0005E7F09192946464949493101017F0101BB
:100300003F4040403F1F2040201F3F4038403F6358
:100310001408146307087008076151494543007FBA
:1003200041410002040810200041417F0004020105
:100330000204404040404000010204002054545454
:10034000787F484444383844444420384444487F03
:100350003854545418087E0901020C5252523E7F00
:100360000804047800447D40002040443D007F1094
:1003700028440000417F40007C041804787C080475
:10038000047838444444387C1414140808141418AD
:100390007C7C080404084854545420043F44402002
:1003A0003C4040207C1C2040201C3C4030403C44D1
:1003B000281028440C5050503C4464544C440008CD
:1003C00036410000007F0000004136080010080898
:1003D000100878464146786E616E00696E660000CE
:1003E000407A10F35A00A0724E18090010A5D4E804
:1003F0000000E87648170000E40B54020000CA9A97
:100400003B000000E1F505000080969800000040E8
:10041000420F000000A0860100000010270000002D
:1004200000E803000000006400000000000A000073
:100430000000000100000000002C76D888DC674F27
:100440000823DFC1DFAE59E1B1B796E5E3E453C657
:100450003AE651997696E8E6C28426EB898C9B624F
:10046000ED407C6FFCEFBC9C9F40F2BAA56FA5F4F9
:1004700090055A2AF75C936B6CF9676DC11BFCE021
:10048000E40D47FEF520E6B500D0ED902E03009474
:100490003577050080841E080000204E0A00000009
:1004A000C80C333333330F986E12831141EF8D2113
:1004B00014893BE65516CFFEE6DB18D1844B381B7A
:1004C000F77C1D901DA4BBE424203284725E22813F
:1004D00000C9F124ECA1E53D270011241FBECFEF98
:1004E000DAE0DEBFCDBF14E0A0E0B1E0EAECFAE470
:1004F00002C005900D92AC35B107D9F718E0ACE514
:10050000B4E001C01D92A033B107E1F70E942814A6
:100510000C9463250C940000DF93CF9300D0CDB7EB
:10052000DEB780912C0890912D08009711F480E39C
:1005300098E0880F991F44275527481B590B9E01A7
:100540002F5F3F4F240F351FC9010F900F90CF91A0
:10055000DF9108950F931F93FC01408751876287B5
:10056000738704871587268737871F910F91089512
:10057000CF93DF93EC01609373056C3461F06D34BD
:1005800020F4643409F056C040C06235B1F06535DE
:1005900009F050C028C06091950270E0882777FD6F
:1005A0008095982F0E9416209B01AC01688179816B
:1005B0008A819B810E94131F11C06091950270E097
:1005C000882777FD8095982F0E9416209B01AC010B
:1005D000688179818A819B810E94121F6883798357
:1005E0008A839B8327C06091950270E0882777FDFE
:1005F0008095982F0E9416209B01AC016C817D8113
:100600008E819F810E94131F11C06091950270E03E
:10061000882777FD8095982F0E9416209B01AC01BA
:100620006C817D818E819F810E94121F6C837D83EE
:100630008E839F83DF91CF9108951F93CF93DF9394
:10064000182F8AEF94E0612F0E94B802C4E7D5E02A
:10065000209721F0CE01612F0E94B802659685E0B7
:10066000CD3DD807A9F782EF95E0612F0E94B8022F
:10067000C6E7D4E0CE01612F0E94B802659684E0FF
:10068000CF3DD807B9F78DED95E0612F0E94B802F4
:1006900087E096E0612F0E94B8028FED94E0612F11
:1006A0000E94B8028AE195E0612F0E94B8028CE1B5
:1006B00096E0612F0E94B8028AE495E0612F0E94C3
:1006C000B802DF91CF911F910895809173058C340A
:1006D00011F482E50DC0823511F48CE409C0853532
:1006E00011F484E405C0843411F485E501C080E28E
:1006F0000E941D030895EF92FF920F931F93CF93D3
:10070000DF93EC016C3461F06D3420F4643409F053
:100710006CC048C0623599F0653509F066C033C0D9
:10072000E884F9840A851B85C801B70120E030E020
:1007300040E050E00E94C62018167CF015C0E88406
:10074000F9840A851B85C801B70120E030E040E04C
:1007500050E00E94771F88233CF4D801C701B058AD
:1007600088879987AA87BB87688179818A819B81DD
:10077000288539854A855B850E94131F68837983A4
:100780008A839B8332C0EC84FD840E851F85C8015B
:10079000B70120E030E040E050E00E94C62018168B
:1007A0007CF015C0EC84FD840E851F85C801B7015F
:1007B00020E030E040E050E00E94771F88233CF4C6
:1007C000D801C701B0588C879D87AE87BF876C81E1
:1007D0007D818E819F812C853D854E855F850E9420
:1007E000131F6C837D838E839F83DF91CF911F9135
:1007F0000F91FF90EF900895FC01628B0895FC012A
:10080000828990E00895FC012081318142815381E9
:10081000B901CA010895FC012481358146815781BF
:10082000B901CA010895FC012085318542855385AF
:10083000B901CA010895FC0124853585468557858F
:10084000B901CA010895CF92DF92EF92FF920F9300
:100850001F936C017A01882777FD8095982F0E945D
:100860001620F60160837183828393830027F7FC4F
:100870000095102FC801B7010E941620F60164836D
:100880007583868397831F910F91FF90EF90DF9080
:10089000CF900895AF92BF92CF92DF92EF92FF92E6
:1008A0000F931F93CF93DF93FC01EB018289882381
:1008B00051F1A480B580C680D780EC80FD800E8188
:1008C0001F816081718182819381288139814A8170
:1008D0005B810E94771F88231CF4CE016CE402C068
:1008E000CE0162E50E947B03C601B501A801970114
:1008F0000E94771F88231CF4CE0165E502C0CE015B
:1009000064E40E947B03DF91CF911F910F91FF90D0
:10091000EF90DF90CF90BF90AF900895EF92FF924D
:100920000F931F937C018B01FB016089669570E03A
:10093000882777FD8095982F0E9416209B01AC0197
:10094000F80160817181828193810E94121F20E0F1
:1009500030E040E85FE30E94121FF701608371837B
:1009600082839383F8016189669570E0882777FD1B
:100970008095982F0E9416209B01AC01F80164819C
:100980007581868197810E94131FF70164837583A7
:10099000868397831F910F91FF90EF900895EF92B8
:1009A000FF920F931F937C018B01FB016089669579
:1009B00070E0882777FD8095982F0E9416209B0174
:1009C000AC01F80160817181828193810E94121FC4
:1009D00020E030E040EC50E40E94131FF7016083F8
:1009E000718382839383F8016189669570E088271B
:1009F00077FD8095982F0E941620F801248135817B
:100A0000468157810E94131F20E030E040E85FE3F9
:100A10000E94121FF70164837583868397831F9159
:100A20000F91FF90EF900895FC0180890895FC01DB
:100A300081890895FC01009729F4828920E030E043
:100A4000882311F021E030E0C901089580E090E0B2
:100A500008952F923F924F925F926F927F928F9262
:100A60009F92AF92BF92CF92DF92EF92FF920F933D
:100A70001F93DF93CF9300D000D0CDB7DEB77C01BA
:100A80005A016B0118012901DC016D917D918D9155
:100A90009C910E942D213B014C01D70114968D9110
:100AA0009D910D90BC91A02D89839A83AB83BC83CB
:100AB000F701A082B182C282D382D70114962D920F
:100AC0003D924D925C921797C601B5010E942D216F
:100AD0000E94E31F7B018C01C401B3010E94E31F4C
:100AE000E616F706E9F4C201B1010E942D217B014F
:100AF0008C0169817A818B819C810E942D215B010F
:100B00006C0144245524C801B7010E94E31F7B01F6
:100B10008C01C601B5010E94E31FE616F70619F025
:100B200031E0432E512CC2010F900F900F900F9087
:100B3000CF91DF911F910F91FF90EF90DF90CF90B9
:100B4000BF90AF909F908F907F906F905F904F90ED
:100B50003F902F9008954F925F926F927F928F9265
:100B60009F92AF92BF92CF92DF92EF92FF920F933C
:100B70001F93DF93CF9300D000D0CDB7DEB76C01C9
:100B8000DC01ED90FD900D911C91C801B7010E9410
:100B90002D214B015C01D60114968D919D910D90F4
:100BA000BC91A02D89839A83AB83BC83C801B70114
:100BB000F60120853185428553850E94121F7B01F5
:100BC0008C01D6016D937D938D939C9313976981CE
:100BD0007A818B819C811C962D913D914D915C91E8
:100BE0001F970E94121F2B013C01CB01D301F6017C
:100BF00084839583A683B783C801B7010E942D2102
:100C00000E94E31F7B018C01C501B4010E94E31F18
:100C1000E616F706E9F4B201C3010E942D217B011B
:100C20008C0169817A818B819C810E942D215B01DD
:100C30006C0166247724C801B7010E94E31F7B0181
:100C40008C01C601B5010E94E31FE616F70619F0F4
:100C500041E0642E712CC3010F900F900F900F9004
:100C6000CF91DF911F910F91FF90EF90DF90CF9088
:100C7000BF90AF909F908F907F906F905F904F90BC
:100C80000895AF92BF92CF92DF92EF92FF920F93AF
:100C90001F93CF93DF938C016B01FC016081718105
:100CA000828193810E942D210E94E31F7B01F80124
:100CB00064817581868197810E942D210E94E31FA6
:100CC000EB01F60160817181828193810E942D2167
:100CD0000E94E31F5B01F601648175818681978123
:100CE0000E942D210E94E31FF601408981899B010A
:100CF000280F311DC217D3071CF020E030E00AC0D6
:100D000020E030E0C501840F911DE816F90614F4C7
:100D100021E030E0F8018089E80EF11CAE14BF0438
:100D200014F020E030E0F8018189C80FD11D6C1764
:100D30007D071CF020E030E022C021153105F9F0DC
:100D4000FDEDCF16F5E0DF06C1F022EFC21625E07B
:100D5000D20699F035E00F32130711F40E946503B3
:100D6000C6E7D4E00C171D0719F4C8010E94AB05B3
:100D7000659684E0CF3DD807A9F721E030E0C901AE
:100D8000DF91CF911F910F91FF90EF90DF90CF9067
:100D9000BF90AF9008950F931F938C01FC01128AAE
:100DA0000E942A2364EF71E00E94762188539F4FAE
:100DB000AA2797FDA095BA2FBC01CD010E9416204D
:100DC000F80160837183828393830E942A2364EFF6
:100DD00071E00E94762188539F4FAA2797FDA09526
:100DE000BA2FBC01CD010E941620F80164837583DF
:100DF0008683978380E090E00E9481221F910F916B
:100E00000895DF92EF92FF920F931F93F82EE62E34
:100E1000D22E8DB79EB708970FB6F8949EBF0FBE1F
:100E20008DBFEDB7FEB731960FE515E0ADB7BEB794
:100E300012961C930E93119784E190E09383828322
:100E400080E091E095838483578346830E945424F5
:100E50008DB79EB708960FB6F8949EBF0FBE8DBF94
:100E60008F2D6E2DA8012D2D0E94171A1F910F9105
:100E7000FF90EF90DF90089585E060E043E051E05F
:100E800021E00E94171A409160045091610488E2A9
:100E900060E021E00E94010785E06AE04BE051E05C
:100EA00021E00E94171A4091940288E26AE050E023
:100EB00021E00E94010785E064E143E151E021E087
:100EC0000E94171A40915C0450E04150504088E263
:100ED00064E121E00E94010785E06EE14BE151E011
:100EE00021E00E94171A40915D0488E26EE150E013
:100EF00021E00E9401078DE26EE142E251E021E033
:100F00000E94171A40915E0482E36EE150E021E0F6
:100F10000E94010740915F0487E36EE150E021E009
:100F20000E94010708950E9433188FE06AE044E2AE
:100F300051E021E00E94171A8FE064E143E151E0A3
:100F400021E00E94171A40915C0484E364E150E0C0
:100F500021E00E9401070E94371A80EF95E528ECF6
:100F600030E0F9013197F1F70197D9F708952F9201
:100F70003F924F925F926F927F928F929F92AF9229
:100F8000BF92CF92DF92EF92FF920F931F93DF9366
:100F9000CF93CDB7DEB728970FB6F894DEBF0FBE5C
:100FA000CDBF10926504109266040E9433180E940F
:100FB000930780916004909161048C599F4F9093A6
:100FC00061048093600480915C048F5F80935C0473
:100FD0008AEF94E00E94CB068FE295E00E94CB0658
:100FE0008FE295E040E050E068E272E400E010E05B
:100FF00020EC31E4F7E0EF2EEAE0CE2EB9E9AB2E9B
:10100000B2E0BB2E0E94B91A87E096E00E94CB06A0
:101010000E942A2364E570E00E94762180933106C5
:101020000E942A2360E370E00E947621E82E8093DC
:10103000F9046091310670E080E090E00E94142095
:101040005B016C01FF2400E010E0C801B7010E94C1
:1010500014208B019C0187E096E0B601A501A8E170
:10106000EA2EFCE0CF2EEBE7AE2EE3E0BE2E0E9490
:10107000B91A87E096E06FE275E00E944106892B7D
:1010800019F616E7212E14E0312EBFE04B2EB5E005
:101090005B2E4101662477246C820E942A236AE039
:1010A00070E00E94762108973CF01B82C3018C50AF
:1010B0009B4F98878F8303C06620B9F36CC081145F
:1010C000910421F4F4018289882319F0C4010E945B
:1010D000CB060E942A2364E570E00E947621F2018B
:1010E00080830E942A2360E370E00E947621E82E2C
:1010F000EF81F8858083F201608170E080E090E00C
:101100000E9414205B016C01FF2400E010E0C80184
:10111000B7010E9414208B019C01C401B601A501F6
:10112000A5E0EA2EF6E0CF2EE9E9AE2EE3E0BE2EF2
:101130000E94B91AB6E7AB2EB4E0BB2E10E013C084
:10114000A114B10421F4F5018289882339F0C50185
:10115000B4010E9441068B83882341F41F5F85E11F
:1011600090E0A80EB91E9C81191750F3C4016FE2DC
:1011700075E00E944106892B09F0A1CFC40167E008
:1011800076E00E944106892B09F099CFEB81EE238E
:1011900009F095CF05C0C4010E94CB06F401128A64
:1011A0000894611C711C85E190E0880E991E0894DA
:1011B000411C511C95E06916710409F06DCF8DED4D
:1011C00095E00E94CB060E942A2364E570E00E940D
:1011D0007621809332060E942A2360E370E00E9409
:1011E0007621E82E809344056091320670E080E01D
:1011F00090E00E9414205B016C01FF2400E010E0ED
:10120000C801B7010E9414208B019C018DED95E06F
:10121000B601A501A7E0EA2EF3E0CF2EEFE9AE2E4E
:10122000E3E0BE2E0E94B91A06E7A02E04E0B02E1D
:10123000A114B10421F4F5018289882341F08DEDD8
:1012400095E0B5010E944106182F882351F485E1ED
:1012500090E0A80EB91E9FEDA91694E0B90641F7DB
:1012600010E08DED95E06FE275E00E944106892B5C
:1012700009F0A5CF8DED95E067E076E00E9441068C
:10128000892B09F09CCF112309F099CF0E942A23C2
:101290006AE070E00E94762108975CF415E1412E27
:1012A00015E0512EB4E78B2EB5E09B2E66247724F3
:1012B00071C082EF95E00E94CB060E942A2364E56C
:1012C00070E00E947621809333060E942A2360E317
:1012D00070E00E947621E82E809314056091330619
:1012E00070E080E090E00E9414205B016C01FF241C
:1012F00000E010E0C801B7010E9414208B019C019E
:1013000082EF95E0B601A501A4E0EA2EF4E0CF2E2D
:10131000E5EAAE2EE3E0BE2E0E94B91AB6E7AB2E88
:10132000B4E0BB2EA114B10421F4F5018289882315
:1013300041F082EF95E0B5010E944106182F882305
:1013400051F485E190E0A80EB91E9FEDA91694E036
:10135000B90641F710E082EF95E06FE275E00E9478
:101360004106892B09F0A5CF82EF95E067E076E092
:101370000E944106892B09F09CCF82EF95E06DED2C
:1013800075E00E944106892B09F093CF112309F0E3
:1013900090CF84CF69820E942A236AE070E00E9485
:1013A000762106970CF4A2C01A82F301EB5BFA4F88
:1013B000FE83ED838114910421F4F4018289882352
:1013C00019F0C4010E94CB060E942A2364E570E054
:1013D0000E947621F20180830E942A2360E370E05C
:1013E0000E947621E82EED81FE818083F2016081EA
:1013F00070E080E090E00E9414205B016C01FF240B
:1014000000E010E0C801B7010E9414208B019C018C
:10141000C401B601A501A5E0EA2EF3E0CF2EE2EA71
:10142000AE2EE3E0BE2E0E94B91A04E7A02E05E01E
:10143000B02E10E013C0A114B10421F4F50182898B
:10144000882339F0C501B4010E9441068A838823AC
:1014500041F41F5F85E190E0A80EB91E998119172C
:1014600050F316E7A12E14E0B12E10E014C0A11421
:10147000B10421F4F5018289882341F08DED95E0D6
:10148000B5010E944106082F882349F41F5F85E1BA
:1014900090E0A80EB91E9981191748F300E0C40125
:1014A0006FE275E00E944106892B09F083CFC401E9
:1014B00067E076E00E944106892B09F07BCFC401EA
:1014C0006DED75E00E944106892B09F073CFC401D0
:1014D00062EF75E00E944106892B09F06BCFEA812B
:1014E000EE2309F067CF002309F064CF0894611C54
:1014F000711C85E190E0880E991E0894411C511CD6
:1015000095E06916710409F045CF8FED94E00E94D3
:10151000CB068AE195E00E94CB068CE196E00E9422
:10152000CB068AE495E00E94CB068FED94E040E084
:1015300050E060E272EC8A019B01B3E0EB2EA4E67E
:10154000CA2EF5EEAF2EF3E0BF2E0E94B91A8AE143
:1015500095E040E050E060E272EC8A019B01E0EA35
:10156000EE2EB3E0CB2EA9EAAA2EA3E0BA2E0E945B
:10157000B91A8CE196E040E050E060EF72E400E0E0
:1015800010E020E232ECF3E0EF2EE4E6CE2EB5EEF2
:10159000AB2EB3E0BB2E0E94B91A8AE495E040E07E
:1015A00050E060E272EC00E010E020E732E4A0EAF4
:1015B000EA2EF3E0CF2EE9EAAE2EE3E0BE2E0E9443
:1015C000B91A20E030E040E85EE32114310421F450
:1015D000F1018289882349F0F10120873187428710
:1015E0005387248735874687578785E190E0280E03
:1015F000391E9FED291694E0390639F728960FB663
:10160000F894DEBF0FBECDBFCF91DF911F910F9138
:10161000FF90EF90DF90CF90BF90AF909F908F9012
:101620007F906F905F904F903F902F900895AF9272
:10163000BF92CF92EF920F931F93CF93DF931092AD
:101640006504109266040E9433188FE295E00E94B0
:10165000CB068AEF94E00E94CB0687E096E00E94DA
:10166000CB06C6E7D4E0209719F48A89882319F0BD
:10167000CE010E94CB06659684E0CF3DD80799F74E
:101680008DED95E00E94CB068FE060E04FE251E0E7
:1016900021E00E94171A85E06AE043E051E021E072
:1016A0000E94171A409160045091610488E26AE038
:1016B00021E00E94010785E064E143E151E021E07F
:1016C0000E94171A40915C0450E04150504088E25B
:1016D00064E121E00E9401078FE295E040E050E0E4
:1016E00068E272E400E010E020EC31E4E7E0EE2E86
:1016F000BAE0CB2EA9E9AA2EA2E0BA2E0E94B91A0E
:101700008AEF94E040E050E060EC70E400E010E02C
:1017100020E231ECF8E4EF2EEAE1CE2EB3EAAB2E74
:10172000B2E0BB2E0E94B91A87E096E040E050E09C
:1017300060EF71E400E010E020EA30E4A8E1EA2E76
:10174000FCE0CF2EEBE7AE2EE3E0BE2E0E94B91AEE
:1017500086E794E040E050E060E972E400E010E0E9
:1017600020EA31E4B5E0EB2EA6E0CA2EF9E9AF2E6F
:10177000F3E0BF2E0E94B91A8DED95E040E050E0F5
:1017800060EC70E400E010E020EA31E4E7E0EE2EE7
:10179000B3E0CB2EAFE9AA2EA3E0BA2E0E94B91A6D
:1017A0008FED94E040E050E060E272EC8A019B0132
:1017B000F3E0EF2EE4E6CE2EB5EEAB2EB3E0BB2E7B
:1017C0000E94B91A8AE195E040E050E060E272ECD4
:1017D0008A019B01A0EAEA2EF3E0CF2EE9EAAE2EC1
:1017E000E3E0BE2E0E94B91A8CE196E040E050E0A2
:1017F00060EF72E400E010E020E232ECB3E0EB2EA8
:10180000A4E6CA2EF5EEAF2EF3E0BF2E0E94B91A61
:101810008AE495E040E050E060E272EC00E010E025
:1018200020E732E4E0EAEE2EB3E0CB2EA9EAAA2EBE
:10183000A3E0BA2E0E94B91A6091950270E080E090
:1018400090E00E94142060933705709338058093D0
:10185000390590933A0560933B0570933C0580935E
:101860003D0590933E0580E090E0A0E8BEE38093C4
:101870007E0490937F04A0938004B09381048093AE
:10188000820490938304A0938404B09385041092FF
:1018900061041092600483E08093940210925C04CF
:1018A00010925D0410925E0410925F040E94371A39
:1018B0007D9902C07E9BFCCF0E94331884E166E1D3
:1018C00049E351E021E00E94171A86E06AE042E411
:1018D00051E021E00E94171A0E94371A7D9902C038
:1018E0007E9BFCCFDF91CF911F910F91EF90CF9016
:1018F000BF90AF9008952F923F924F925F926F9258
:101900007F928F929F92AF92BF92CF92DF92EF928F
:10191000FF920F931F93CF93DF9310926504109261
:101920006604809194028150809394028FED94E03C
:101930000E94CB068AE195E00E94CB068CE196E0FE
:101940000E94CB068AE495E00E94CB068091940227
:10195000882311F40E94170B80915C04813009F0F8
:10196000FAC0C6E7D4E0209719F48A89882319F0D1
:10197000CE010E94CB06659684E0CF3DD80799F74B
:101980008FE295E00E94CB068AEF94E00E94CB069E
:1019900087E096E00E94CB068DED95E00E94CB0695
:1019A0008FE295E040E050E068E272E400E010E091
:1019B00020EC31E4A7E0EA2EFAE0CF2EE9E9AE2EE2
:1019C000E2E0BE2E0E94B91A8AEF94E040E050E0B7
:1019D00060EC70E400E010E020E231ECB8E4EB2EC3
:1019E000AAE1CA2EF3EAAF2EF2E0BF2E0E94B91A86
:1019F00087E096E040E050E060EF71E400E010E046
:101A000020EA30E4E8E1EE2EBCE0CB2EABE7AA2ED4
:101A1000A3E0BA2E0E94B91A86E794E040E050E0B5
:101A200060E972E400E010E020EA31E4F5E0EF2E36
:101A3000E6E0CE2EB9E9AB2EB3E0BB2E0E94B91A78
:101A40008DED95E040E050E060EC70E400E010E0E7
:101A500020EA31E4A7E0EA2EF3E0CF2EEFE9AE2E44
:101A6000E3E0BE2E0E94B91A8FED94E040E050E012
:101A700060E272EC8A019B01B3E0EB2EA4E6CA2E71
:101A8000F5EEAF2EF3E0BF2E0E94B91A8AE195E081
:101A900040E050E060E272EC8A019B01E0EAEE2E49
:101AA000B3E0CB2EA9EAAA2EA3E0BA2E0E94B91A5F
:101AB0008CE196E040E050E060EF72E400E010E07E
:101AC00020E232ECF3E0EF2EE4E6CE2EB5EEAB2EC4
:101AD000B3E0BB2E0E94B91A8AE495E040E050E0E2
:101AE00060E272EC00E010E020E732E4A0EAEA2EC7
:101AF000F3E0CF2EE9EAAE2EE3E0BE2E0E94B91A43
:101B00006091950270E080E090E00E941420609364
:101B10003705709338058093390590933A056093A3
:101B20003B0570933C0580933D0590933E0580E016
:101B300090E0A0E8BEE380937E0490937F04A0939E
:101B40008004B09381048093820490938304A093D3
:101B50008404B093850480915C04823008F45BC1F6
:101B600016E7612E14E0712EE301209719F48A899B
:101B7000882319F0CE010E94CB06659694E0CF3DF4
:101B8000D90799F78FE295E00E94CB0687E096E0AF
:101B90000E94CB068DED95E00E94CB066091310648
:101BA00070E080E090E00E9414206B017C01609165
:101BB000F90470E080E090E00E9414208B019C0109
:101BC00087E096E0B701A601B8E1EB2EACE0CA2EA3
:101BD000FBE7AF2EF3E0BF2E0E94B91A60913206E8
:101BE00070E080E090E00E9414206B017C01609125
:101BF000440570E080E090E00E9414208B019C017D
:101C00008DED95E0B701A601E7E0EE2EB3E0CB2E17
:101C1000AFE9AA2EA3E0BA2E0E94B91AC4E7D5E014
:101C200088249924209719F48A89882331F1CE01D8
:101C30000E94CB06F401EB5EFA4F608170E080E019
:101C400090E00E9414206B017C01F401EB5BFA4FE1
:101C5000608170E080E090E00E9414208B019C0184
:101C6000CE01B701A601F5E0EF2EE3E0CE2EB2EAF9
:101C7000AB2EB3E0BB2E0E94B91A0894811C911CB4
:101C80006596E5E08E16910469F68FE295E040E0F6
:101C900050E068E272E400E010E020EC31E4A7E0FC
:101CA000EA2EFAE0CF2EE9E9AE2EE2E0BE2E0E9447
:101CB000B91A6091950270E080E090E00E941420D3
:101CC00060933705709338058093390590933A05F2
:101CD00060933B0570933C0580933D0590933E05D2
:101CE000C0E0D0E00F2EF0E02F2EF0E03F2EF0E825
:101CF0004F2EFEE35F2EF02D6114710429F4F301E1
:101D00008289882309F484C0C3010E94CB06FE01A6
:101D1000E15FFA4F608170E080E090E00E94142063
:101D20006B017C01FE01EC50FB4F608170E080E0B4
:101D300090E00E9414208B019C01C301B701A60111
:101D4000B5E0EB2EA6E0CA2EF9E9AF2EF3E0BF2EE8
:101D50000E94B91AF3012086318642865386248672
:101D6000358646865786219685E190E0680E791E75
:101D7000C530D10509F68FED94E040E050E060E217
:101D800072EC8A019B01E3E0EE2EB4E6CB2EA5EEC9
:101D9000AA2EA3E0BA2E0E94B91A8AE195E040E08B
:101DA00050E060E272EC8A019B01F0EAEF2EE3E082
:101DB000CE2EB9EAAB2EB3E0BB2E0E94B91A8CE14D
:101DC00096E040E050E060EF72E400E010E020E2D6
:101DD00032ECA3E0EA2EF4E6CF2EE5EEAE2EE3E001
:101DE000BE2E0E94B91A8AE495E040E050E060E21D
:101DF00072EC00E010E020E732E4B0EAEB2EA3E062
:101E0000CA2EF9EAAF2EF3E0BF2E0E94B91A03C022
:101E1000F301128AA8CFDF91CF911F910F91FF900C
:101E2000EF90DF90CF90BF90AF909F908F907F907A
:101E30006F905F904F903F902F900895DF92EF92B8
:101E4000FF920F931F93182FD62E8DB79EB70A9728
:101E50000FB6F8949EBF0FBE8DBFEDB7FEB731969B
:101E6000BFE5EB2EB5E0FB2EADB7BEB71296FC92E8
:101E7000EE92119784E190E09383828382E591E072
:101E80009583848326833783408751870E94542417
:101E90008DB79EB70A960FB6F8949EBF0FBE8DBF42
:101EA000812F6D2DA701202F0E94171A1F910F91CE
:101EB000FF90EF90DF900895DC010D900020E9F78E
:101EC0001197A81BB90BBD010E9414150895EF923C
:101ED000FF920F931F93CF93DF938FB182958695D7
:101EE000877080FD07C08FB1829586958695837037
:101EF00080FF45C080915C04882309F040C081E0E8
:101F000080935C040E9433188FE164E145E551E061
:101F100021E00E94171A0E94371A82E09DE028EC07
:101F200030E0F9013197F1F70197D9F70E943318A2
:101F30008FE164E14BE551E021E00E94171A0E9415
:101F4000371A82E09DE028EC30E0F9013197F1F793
:101F50000197D9F70E9433188FE164E141E651E01F
:101F600021E00E94171A0E94371A82E09DE028ECB7
:101F700030E0F9013197F1F70197D9F781C18091EC
:101F80005C04882379F484E166E149E351E021E0CF
:101F90000E94171A86E06AE042E451E021E00E94C4
:101FA000171A34C1189B03C00E943C072FC183B18C
:101FB000869580FF02C08CE40DC01F9B02C084E4A4
:101FC00009C0489B02C082E505C089B1869580FFA3
:101FD00005C085E5809373050E941D038FED94E095
:101FE0000E94E11A8AE195E00E94E11A8CE196E0F4
:101FF0000E94E11A8AE495E00E94E11A8FE295E0DE
:102000000E94E11A87E096E00E94E11A8DED95E0CA
:102010000E94E11A16E7E12E14E0F12EE701209765
:1020200041F0CE010E94E11A8FE295E0BE010E94CC
:102030004A04659684E0CF3DD80789F780915C0417
:10204000813081F48AEF94E00E94E11A8FE295E0FA
:102050006AEF74E00E94410686E794E06AEF74E05C
:102060000E94410680915C04823080F1C6E7D4E092
:10207000CE0167E076E00E944106659694E0CF3D90
:10208000D907B1F7C4E7D5E08A898823D1F0CE011A
:102090000E94E11A8FE295E0BE010E944106892B61
:1020A00081F087E691E00E945C0FCE010E94CB0692
:1020B00080916004909161040A96909361048093EA
:1020C00060046596E5E0CD3DDE07F1F68FE295E030
:1020D0006DED75E00E944106892BF9F08DED95E0DC
:1020E0006FE275E00E948E0480916604882321F4DB
:1020F00089E891E00E945C0F81E0809366048FE2A2
:1021000095E067E076E00E944106892B31F083EA92
:1021100091E00E945C0F0E94B7078FE295E067E0B4
:1021200076E00E9441068FE295E06FED74E00E9438
:1021300041068FE295E06CE176E00E9441068FE275
:1021400095E06AE175E00E9441068FE295E06AE45D
:1021500075E00E94410682EF95E00E94E11A8FE24D
:1021600095E062EF75E00E944106892B71F1809144
:102170006504882321F48FEC91E00E945C0F81E0DC
:102180008093650482EF95E06FE275E00E94CF04D2
:10219000C6E7D4E000E010E0209719F48A8988238C
:1021A00071F08FE295E0BE010E944106892B89F50E
:1021B00082EF95E0BE010E944106892B51F50F5F29
:1021C0001F4F65960530110539F7E114F10421F42C
:1021D000F7018289882389F08FE295E0B7010E9498
:1021E0004106892B51F08DEE91E00E945C0F8FE249
:1021F00095E00E94CB060E947B0C85E190E0E80E02
:10220000F91E9FEDE91694E0F906F9F60E94371AD7
:1022100037C084E192E00E945C0F85E190E0089F66
:10222000F001099FF00D189FF00D1124EA58FB4FA3
:1022300080E090E0A8E4B3E480839183A283B38339
:1022400084839583A683B78380E090E0A8E4B3EC11
:102250008093F2059093F305A093F405B093F505F0
:102260008093F6059093F705A093F805B093F905D0
:10227000CF010E94CB0682EF95E00E94CB06A5CF4E
:10228000DF91CF911F910F91FF90EF9008950F93E1
:102290001F938DB79EB70A970FB6F8949EBF0FBED7
:1022A0008DBFEDB7FEB7319680919702909198025D
:1022B000ADB7BEB712969C938E93119781E492E0CE
:1022C0009383828380916204848315828091630466
:1022D0008683178280916404808711860E948524FA
:1022E0008DB79EB70A960FB6F8949EBF0FBE8DBFEE
:1022F00080919702909198020E945C0F00D000D0CC
:1023000000D0EDB7FEB73196809197029091980278
:10231000ADB7BEB712969C938E93119700E011E073
:102320001383028380916004909161049583848378
:102330000E9485248DB79EB706960FB6F8949EBF6F
:102340000FBE8DBF8BE492E00E945C0F80919702DC
:10235000909198020E945C0F86E592E00E945C0FCB
:1023600000D000D000D0EDB7FEB731968091970233
:1023700090919802ADB7BEB712969C938E93119729
:102380001383028380915C04848315820E948524D8
:102390008DB79EB706960FB6F8949EBF0FBE8DBF41
:1023A00080919702909198020E945C0F81E692E0E2
:1023B0000E945C0F00D000D000D0EDB7FEB7319680
:1023C0008091970290919802ADB7BEB712969C93F8
:1023D0008E931197138302838091940284831582D4
:1023E0000E9485248DB79EB706960FB6F8949EBFBF
:1023F0000FBE8DBF80919702909198020E945C0F52
:102400001F910F9108951F920F920FB60F921124F2
:10241000EF92FF920F931F932F933F934F935F93EE
:102420006F937F938F939F93AF93BF93EF93FF939C
:1024300060916E0470916F048091700490917104AA
:102440002DEB37E346E05CE30E94131F60936E04BC
:1024500070936F04809370049093710420E030E0D7
:1024600040E251E40E94CA207B018C0160915F042C
:1024700070E0882777FD8095982F0E9416209B0199
:10248000AC01C801B7010E94CA207B018C01609198
:102490005E0470E0882777FD8095982F0E941620B3
:1024A0009B01AC01C801B7010E94CA200E94E31F32
:1024B000DC01CB010E942F23E0906E04F0906F04AA
:1024C0000091700410917104C801B70126E636E648
:1024D00046EE5EE30E94C620882384F0C801B7015F
:1024E00023EC35EF48EE5EE30E94771F181634F0B8
:1024F00080915C04882311F00E94471160916E0462
:1025000070916F0480917004909171042CEE31E50C
:1025100048E75FE30E94C62088230CF456C08091F0
:102520005F048F5F80935F048A3038F010925F04FD
:1025300080915E048F5F80935E0480915E0486309C
:1025400038F010925E0480915D048F5F80935D048B
:10255000809164048F5F809364048A3038F0109215
:102560006404809163048F5F8093630480916304AB
:10257000863038F010926304809162048F5F8093FC
:10258000620480915C04882311F00E94471180E06E
:1025900090E0A0E0B0E080936E0490936F04A0936D
:1025A0007004B09371042BB13BB12295269526950A
:1025B000217081E090E0821B910906E0880F991F4D
:1025C0000A95E1F73F7B382B3BB9FF91EF91BF9123
:1025D000AF919F918F917F916F915F914F913F91BB
:1025E0002F911F910F91FF90EF900F900FBE0F90C2
:1025F0001F90189585E06AE04CE652E021E00E94C9
:10260000171A0E94371A0E9443148BE792E09093A6
:102610009802809397020E945C0F0E94331882E018
:102620006AE043E852E021E00E94171A0E94371A3C
:1026300008956F927F928F929F92AF92BF92CF92A6
:10264000EF920F931F933F9A479A569AE1E6F0E074
:1026500080E8808311E010838FE30E946B1A0E9450
:102660009C1A85B5846085BD10936E0078940E9495
:10267000FA12219827985098519885988698209812
:102680003F9A8FEA0E946B1A8FE295E040E050E09B
:1026900068E272E400E010E020EC31E4E7E0EE2EC6
:1026A000BAE0CB2EA9E9AA2EA2E0BA2E0E94B91A4E
:1026B0008AEF94E040E050E060EC70E400E010E06D
:1026C00020E231ECF8E4EF2EEAE1CE2EB3EAAB2EB5
:1026D000B2E0BB2E0E94B91A87E096E040E050E0DD
:1026E00060EF71E400E010E020EA30E4A8E1EA2EB7
:1026F000FCE0CF2EEBE7AE2EE3E0BE2E0E94B91A2F
:1027000086E794E040E050E060E972E400E010E029
:1027100020EA31E4B5E0EB2EA6E0CA2EF9E9AF2EAF
:10272000F3E0BF2E0E94B91A8DED95E040E050E035
:1027300060EC70E400E010E020EA31E4E7E0EE2E27
:10274000B3E0CB2EAFE9AA2EA3E0BA2E0E94B91AAD
:10275000F5EE6F2EF3E07F2E8FED94E040E050E039
:1027600060E272EC8A019B01E3E0EE2EB4E6CB2E30
:1027700053010E94B91AA9EA8A2EA3E09A2E8AE18F
:1027800095E040E050E060E272EC8A019B01F0EAE3
:10279000EF2EE3E0CE2E54010E94B91A8CE196E0B0
:1027A00040E050E060EF72E400E010E020E232EC44
:1027B000B3E0EB2EA4E6CA2E53010E94B91A8AE4B4
:1027C00095E040E050E060E272EC00E010E020E7CD
:1027D00032E4F0EAEF2EE3E0CE2E54010E94B91A63
:1027E0006091950270E080E090E00E941420609378
:1027F0003705709338058093390590933A056093B7
:102800003B0570933C0580933D0590933E0580E029
:1028100090E0A0E8BEE380937E0490937F04A093B1
:102820008004B09381048093820490938304A093E6
:102830008404B09385040E94371A1F910F91EF9082
:10284000CF90BF90AF909F908F907F906F900895A2
:10285000CF93DF930E94191380E197E228EC30E0D8
:10286000F9013197F1F70197D9F7C8ECD0E00E9450
:10287000670F88EE93E0FE013197F1F70197D9F7E2
:102880000E943318F4CF81E08093D70080EA8093D0
:10289000D80082E189BD09B400FEFDCF80E98093B4
:1028A000D8001092E00010927204109273048CE031
:1028B0008093E200789408958091720408952FB770
:1028C000F89480917204882369F083E08093E90092
:1028D0009BE68091E80085FD09C082FF03C09093CC
:1028E000E800F7CF2FBF2FEF3FEF0CC09091F10022
:1028F0008091E80085FD03C08BE68093E8002FBF40
:10290000292F30E0C90108952FB7F89480917204FF
:10291000882311F490E010C083E08093E900909147
:10292000F200992349F48091E80082FF05C085FDFB
:1029300003C08BE68093E8002FBF892F0895809114
:102940007204882371F09FB7F89483E08093E900C4
:102950002BE602C02093E8008091E80085FDFACFC5
:102960009FBF0895482F809172048823D9F12FB713
:10297000F89484E08093E90080917504882341F005
:102980008091E80085FD02C02FBF12C0109275042F
:102990009091E400975E34E08091E80085FD13C0DB
:1029A0002FBF8091E400891729F481E0809375049A
:1029B0008FEF0895809172048823A1F02FB7F894C7
:1029C0003093E900E9CF4093F1008091E80085FD64
:1029D00003C08AE38093E80085E0809374042FBFEE
:1029E00080E008958FEF0895282F80917204882346
:1029F00051F09FB7F89484E08093E9008091E8005B
:102A000085FD03C09FBF8FEF08952093F100809153
:102A1000E80085FD03C08AE38093E80085E08093A9
:102A200074049FBF80E00895CF93DF93EC01809101
:102A30007204882309F41CC13FB7F89484E08093A2
:102A4000E90080917504882309F408C18091E800A9
:102A500085FD02C03FBF0CC110927504FFC090916C
:102A6000E400975E8091E80085FD13C03FBF809130
:102A7000E400891721F481E080937504F9C0809106
:102A80007204882309F4F4C03FB7F894B093E900C6
:102A9000E9CF8091F200242F281B822F90E0681745
:102AA000790708F4262F822F90E08134910508F0F1
:102AB000C6C08A5A9F4FFC01EE0FFF1F0590F4918C
:102AC000E02D099489918093F10089918093F10020
:102AD00089918093F10089918093F100899180938D
:102AE000F10089918093F10089918093F10089919F
:102AF0008093F10089918093F10089918093F10096
:102B000089918093F10089918093F100899180935C
:102B1000F10089918093F10089918093F10089916E
:102B20008093F10089918093F10089918093F10065
:102B300089918093F10089918093F100899180932C
:102B4000F10089918093F10089918093F10089913E
:102B50008093F10089918093F10089918093F10035
:102B600089918093F10089918093F10089918093FC
:102B7000F10089918093F10089918093F10089910E
:102B80008093F10089918093F10089918093F10005
:102B900089918093F10089918093F10089918093CC
:102BA000F10089918093F10089918093F1008991DE
:102BB0008093F10089918093F10089918093F100D5
:102BC00089918093F10089918093F100899180939C
:102BD000F10089918093F10089918093F1008991AE
:102BE0008093F10089918093F10089918093F100A5
:102BF00089918093F10089918093F100899180936C
:102C0000F10089918093F10089918093F10089917D
:102C10008093F10089918093F10089918093F10074
:102C200089918093F10089918093F100899180933B
:102C3000F10089918093F10089918093F10089914D
:102C40008093F1008091E80085FD02C05093E80078
:102C5000621B7109A09374043FBF04C0B4E040E458
:102C60005AE3A5E06115710509F0F9CE80E001C0D5
:102C70008FEFDF91CF9108959FB7F89480917404FE
:102C8000882341F084E08093E9008AE38093E800A0
:102C9000109274049FBF089560914B0470914C048E
:102CA00080914D0490914E04089580914F040895B1
:102CB0008091500408958091510408958091730487
:102CC0000895282F9FB7F89480917204882339F0D3
:102CD00082E08093E9008091E80085FD03C09FBFFA
:102CE0008FEF089581EA8093F10080E28093F100F4
:102CF0001092F1001092F1001092F1001092F10088
:102D000081E08093F1001092F1002093F1008AE3BA
:102D10008093E8009FBF80E008951F920F920FB646
:102D20000F9211248F939F938091E1001092E10004
:102D3000982F83FF11C01092E90081E08093EB008F
:102D40001092EC0082E18093ED0088E08093F00027
:102D5000109272041092730492FF13C08091720457
:102D6000882379F080917404882359F081508093EE
:102D70007404882331F484E08093E9008AE380932B
:102D8000E8009F918F910F900FBE0F901F901895A4
:102D90001F920F920FB60F9211240F931F932F9330
:102DA0003F934F935F936F937F938F939F93AF93D3
:102DB000BF93EF93FF931092E9008091E80083FFA7
:102DC0003CC14091F1003091F1008091F100682FF9
:102DD00070E02091F100922F80E0682B792B809198
:102DE000F100A82FB0E02091F100922F80E0A82BF5
:102DF000B92B1091F1000091F10082EF8093E8006F
:102E0000363009F05AC025E331E0A9014550504061
:102E1000F9013797859194918617970701F5FA0183
:102E2000859194918A179B07D1F49A012E5F3F4FA9
:102E3000F901659174912E5F3F4FF9014491212F63
:102E400030E0902F80E0282B392B2F3F310519F0EF
:102E500010F02FEF30E0241758F4422F09C0295FFB
:102E60003F4F495F5F4FF1E02F353F0789F6E5C0DF
:102E70005EEF8091E800282F30E0C90185709070E6
:102E8000892BB9F322FDDCC0342F413108F030E149
:102E9000232FCB0106C0FC010196E491E093F100E1
:102EA00021502223C1F7630F711D431B5093E8008B
:102EB0004423F9F63031E9F2C3C0353061F48EEFC6
:102EC0008093E8008091E80080FFFCCF862F806827
:102ED0008093E300B5C0393051F5442309F0ADC00B
:102EE0006093720410927304109274048EEF8093B6
:102EF000E80088E591E021E02093E900FC010196DB
:102F0000E491E093EB00EE2369F0AC014F5F5F4F7B
:102F1000FC0184918093EC00CA010196FA0134917E
:102F20003093ED002F5F253039F78EE181C03830C6
:102F300061F4403809F081C08091E80080FFFCCF47
:102F4000809172048093F10050C0313289F4413A8B
:102F500009F073C08091E80080FFFCCFEBE4F4E05F
:102F600081918093F10084E0E235F807C9F73DC014
:102F70003032A1F4413209F060C08091E80082FF54
:102F8000FCCFEBE4F4E08091F100819384E0E23542
:102F9000F807C9F78BEF8093E80027C0323251F46D
:102FA000413209F04AC0609373048091E80080FFC9
:102FB000FCCF1BC03323E9F48091E80080FFFCCFF5
:102FC000423811F080E00DC0A093E9008091EB0041
:102FD00090E025E0969587952A95E1F7817010920B
:102FE000E9008093F1001092F1008EEF8093E800E9
:102FF00027C0313011F0333001F54230F1F4672B46
:10300000E1F42A2F2F77822F81508430B0F48EEF95
:103010008093E8002093E900333079F089E18093D0
:10302000EB0081E090E002C0880F991F2A95E2F73B
:103030008093EA001092EA0003C081E28093EB00E3
:10304000FF91EF91BF91AF919F918F917F916F9180
:103050005F914F913F912F911F910F910F900FBE54
:103060000F901F901895E4E3F6E0119288E0EC329F
:10307000F807D9F70895843580F5603370F5262F69
:10308000269526952695677090E0442399F0E4E50F
:103090002E9FF0011124E80FF91FEC5CF94F81E03D
:1030A00090E002C0880F991F6A95E2F72081282BD3
:1030B00020830895E4E52E9FF0011124E80FF91F05
:1030C000EC5CF94F81E090E002C0880F991F6A958F
:1030D000E2F7809520812823208308952F923F9244
:1030E0004F925F926F927F928F929F92AF92BF9218
:1030F000CF92DF92EF92FF920F931F93DF93CF93C4
:10310000CDB7DEB72E970FB6F894DEBF0FBECDBF9A
:10311000E82ED62E142FF22E0C878417F9F4862E63
:103120009924A22EBB240EC08E2D682D4C850E94A2
:103130003B18DF1420F40894811C911C03C00894F0
:1031400081089108DF1428F4A814B9040CF401C113
:10315000EBCF8A149B040CF4FCC0E6CF6217F9F4A1
:10316000882E9924A42EBB240EC0882D6D2D4C854D
:103170000E943B18E11620F40894811C911C03C0A6
:10318000089481089108E11628F4A814B9040CF4F5
:10319000E0C0EBCF8A149B040CF4DBC0E6CF4817E9
:1031A00020F41E2DE42EF62ED22E812F90E09A834D
:1031B0008983AE2CBB24BC016A197B09882777FD63
:1031C0008095982F0E9416206F83788789879A8729
:1031D0002F2C33244D2C5524B101641975098827EF
:1031E00077FD8095982F0E9416203B014C012F817E
:1031F000388549855A850E947B1F6B837C838D832C
:103200009E8320E030E040E050E00E94C62087FF2F
:103210000DC0C401B30190582F81388549855A8566
:103220000E947B1F6B837C838D839E830F2EF0E037
:10323000CF2EF0E0DF2EF0E0EF2EF0E0FF2EF02DAD
:1032400070C0AB868A2D642D4C850E943B18C70147
:10325000B6012B813C814D815E810E94131F31C0DC
:103260008B85642D4C850E943B181E861D86C401EB
:10327000B30120E030E040E050E00E94C620181684
:1032800024F4E1E0F0E0FE87ED8700E010E0C40107
:10329000B30120E030E040E050E00E94771F882337
:1032A00014F401E010E08D859E85801B910B480E83
:1032B000591EC701B60120E030E040E85FE30E94FC
:1032C000121F6B017C0120E030E040E05FE30E94D0
:1032D000C62088239CF0C401B30120E030E040E028
:1032E00050E00E94C62018162CF4241435040CF06B
:1032F000B7CF04C0421453040CF0B2CF6F8178856D
:1033000089859A8520E030E040E050E00E94C620A8
:10331000181624F40894A11CB11C03C00894A10839
:10332000B1086F81788589859A8520E030E040E09A
:1033300050E00E94C620181634F4E981FA81EA159B
:10334000FB053CF07ECF89819A81A816B9060CF066
:1033500078CF2E960FB6F894DEBF0FBECDBFCF91BB
:10336000DF911F910F91FF90EF90DF90CF90BF9072
:10337000AF909F908F907F906F905F904F903F9015
:103380002F9008957F928F929F92AF92BF92CF928B
:10339000DF92EF92FF920F931F93CF93DF93D82E7C
:1033A000762EC22E85E0489FA00111248A01095A79
:1033B0001E4F91E0892E912C8CE5A82E81E0B82E2D
:1033C000A40EB51EF8018491CC2009F48095C0E0CC
:1033D000D0E0E82EFF24672D6C0FA4010C2E02C054
:1033E000440F551F0A94E2F74E215F210C2E02C0B4
:1033F000559547950A94E2F78D2D0E943B1821962A
:10340000C830D10541F70F5F1F4FD3940A151B0534
:10341000C9F6DF91CF911F910F91FF90EF90DF9050
:10342000CF90BF90AF909F908F907F900895EF9234
:10343000FF920F931F93CF93DF93E62EEA01F22EB4
:10344000082F10E007C0802F6E2D2F2D0E94C2196B
:103450000B5F1F5FFE01E10FF11D4081442399F7CF
:10346000DF91CF911F910F91FF90EF900895CF932F
:10347000DF9380E060E00E94AC1AC4E3D6E081E014
:1034800069910E944A1A88E0CC32D807C1F7DF91CF
:10349000CF91089595B18295880F807E9F7D982B5E
:1034A00095B95F9827E030E070E08F98CB01022E4D
:1034B00002C0959587950A94E2F780FF02C02E9A84
:1034C00001C02E988F9A215030408FEF2F3F380740
:1034D00061F75F9A08951F93182F579A249A259A97
:1034E000269A879A2C985F9A2C9A80E061E20E9433
:1034F0004A1A106880E0612F0E944A1A80E064E056
:103500000E944A1A80E063E10E944A1A80E06CE05F
:103510000E944A1A80E060E20E944A1A80E06CE051
:103520000E944A1A80E060E40E944A1A80E060E843
:103530000E944A1A1F910895CF93DF93C0E0D0E014
:1035400081E060E00E944A1A219681E0C83FD807D6
:10355000B9F7DF91CF9108951F93182F606480E031
:103560000E944A1A106880E0612F0E944A1A1F9137
:103570000895AF92BF92CF92EF920F931F93FC01E9
:103580004083518362837383048315832683378347
:10359000E08AC18AB48AA38A81E0828B80E090E0CD
:1035A000A0E0B0E080879187A287B3878487958762
:1035B000A687B7871F910F91EF90CF90BF90AF90E4
:1035C00008952F923F925F926F927F928F929F9277
:1035D000AF92BF92CF92DF92EF92FF920F931F9321
:1035E000CF93DF938C01DC0152968C915297882304
:1035F00009F47FC06D917D918D919C910E942D2148
:103600000E94E31F3B01F8012481358146815781E7
:10361000643571050CF06DC0D80150968C91C82F9F
:10362000D0E0CE01860D971D181619060CF061C06A
:10363000CA01B9010E942D210E94E31F4B01603392
:1036400071050CF056C0F80181899401280F311DD5
:10365000121613060CF04DC057E0A52EB12CAC0E7F
:10366000BD1E43E0B594A7944A95E1F7EE24FF24EC
:10367000CC24DD2437E0232E312C30C0CE0123E0D2
:10368000959587952A95E1F7D8015396ED91FC9190
:103690005497EC0DFD1DE80FF91F408150E0CE015D
:1036A00087709070F101E81BF90B02C055954795A2
:1036B000EA95E2F741709E01260D822F652D0E944A
:1036C0003B182196D80150968C9190E0C817D907E5
:1036D000ACF20894E11CF11CCA0CDB1CF8018189D6
:1036E00090E0E816F9062CF4C0E0D0E05E2C580C0F
:1036F000E9CFDF91CF911F910F91FF90EF90DF9075
:10370000CF90BF90AF909F908F907F906F905F9081
:103710003F902F900895A1E1B0E0E1E9FBE10C9426
:1037200089213C017F876E876A01FC01178216821E
:10373000838181FD03C06FEF7FEF6FC39E012F5F19
:103740003F4F398B288BF3012381EE85FF8523FDC5
:10375000859123FF8191FF87EE87882309F45AC35F
:10376000853251F4EE85FF8523FD859123FF8191FC
:10377000FF87EE87853229F490E0B3010E94282468
:10378000E2CF982F10E0882499241032B0F49B32B5
:1037900069F09C3228F4903251F0933271F40BC0EE
:1037A0009D3239F0903349F4116028C012601460E2
:1037B00025C0186023C0106121C017FD2AC0892FC1
:1037C00080538A3078F416FF06C0FAE09F9E902C52
:1037D0001124980E13C03AE0839E802C1124880E89
:1037E00010620CC09E3221F416FD14C3106406C092
:1037F0009C3611F4106802C0983659F4EE85FF85A6
:1038000023FD959123FF9191FF87EE87992309F07E
:10381000BCCF892F8554833020F4812F8061905E46
:1038200007C0892F8556833008F09FC1812F8F7E76
:1038300086FD02C076E0972E6FE3F62EF8229536CD
:1038400019F4F0E4FF2A07C0963619F420E8F22AAA
:1038500002C091109A94F7FE0AC03BE3391518F4A0
:103860005CE3B52E02C0B92CB39427E009C047E051
:10387000491520F4BB2447E0942EF7CF292DBB2413
:10388000C60104969D878C87F601608171818281D3
:103890009381AE014F5F5F4F0B2D0E943A236C0165
:1038A0000981202E332400FF04C003FD02C01DE265
:1038B00009C0F1FE02C01BE205C0F2FC02C010E02C
:1038C00001C010E2C1018C709070892BB9F11123F5
:1038D00011F483E001C084E0881510F088240AC048
:1038E000881AF3FC07C080E290E0B3010E9428240C
:1038F0008A94C9F7112329F0812F90E0B3010E9427
:10390000282423FE03C007ED13E00EC00BED13E0E7
:103910000BC0E114F10409F0805290E0B3010E9461
:1039200028240F5F1F4F05C0EF2CFF24F0E1EF228A
:10393000FF24F8018491882361F714C1F7FE12C0B7
:10394000BC0C24FE04C08A81813309F4BA941B1490
:103950001CF0BB24B3942DC0F8E0FB1550F538E003
:10396000B32E27C0F6FC25C0892D90E08C159D054F
:103970004CF02CEFC2162FEFD20624F030E8F32AD9
:1039800001C09A94992049F0E2E0F0E0EC0FFD1FAD
:10399000E90DF11D80818033A1F3F7FE0AC0B92C37
:1039A000B394892D90E0C816D90614F0992401C06B
:1039B0009C18F7FC03C025E030E009C01C141D046E
:1039C0001CF021E030E003C096012F5F3F4F112330
:1039D00011F02F5F3F4F992029F0892D90E001963B
:1039E000280F391F882D90E02817390714F08824F4
:1039F00001C0821A4F2C5524C20189709070892B06
:103A000039F008C080E290E0B3010E9428248A9433
:103A10008820C1F7112329F0812F90E0B3010E9483
:103A2000282443FE07C008C080E390E0B3010E9451
:103A300028248A948820C1F7F7FE46C08601D7FE65
:103A400002C000E010E076010894E11CF11CE01ACD
:103A5000F10A41E050E04C0F5D1FE40EF51E260117
:103A60004B185108892D90E0AA24BB24A81AB90A42
:103A70005FEF0F3F150729F48EE290E0B3010E943B
:103A80002824C016D10634F0401651061CF4F70164
:103A9000808101C080E3015010400894E11CF11CBA
:103AA0000A151B052CF090E0B3010E942824E0CFFA
:103AB0000C151D0539F49A81963318F4953311F4D9
:103AC00024FE81E390E04BC08A81813309F00F7EB0
:103AD00090E0B3010E9428249920A1F08EE290E0AA
:103AE000B3010E94282412E0E1E0F0E0EC0FFD1F9A
:103AF000E10FF11D1F5F808190E0B3010E94282437
:103B00009A9491F744FC03C085E690E002C085E4F6
:103B100090E0B3010E942824D7FC05C0C114D10451
:103B200041F404FF06C0D094C194D108D3948DE22F
:103B300001C08BE290E0B3010E94282480E305C01D
:103B40008F5F26EF3FEFC20ED31E3AE0C316D104BB
:103B5000BCF790E0B3010E942824C601C096B301CF
:103B60000E942824CC84DD8452C1933631F09337EF
:103B700099F0933509F059C023C0F60180818983FB
:103B80005E010894A11CB11C22E030E0C20ED31EDD
:103B900021E0E22EF12C12C0F601A080B18016FDCA
:103BA00003C06FEF7FEF02C0692D70E022E030E0CC
:103BB000C20ED31EC5010E941D247C011F7713C0B5
:103BC000F601A080B18016FD03C06FEF7FEF02C049
:103BD000692D70E022E030E0C20ED31EC5010E94C4
:103BE00012247C01106813FF07C01BC080E290E024
:103BF000B3010E9428248A94882D90E0E816F906E3
:103C0000A8F30FC0F50117FD859117FF81915F01A2
:103C100090E0B3010E94282481108A940894E1085E
:103C2000F108E114F10471F7F2C0943611F09936FD
:103C300089F517FF08C0F601208131814281538147
:103C400084E090E00AC0F601808191819C014427C4
:103C500037FD4095542F82E090E0C80ED91E9FE6B4
:103C6000F92EF12257FF09C05095409530952195C6
:103C70003F4F4F4F5F4F90E8F92ACA01B901AE019B
:103C80004F5F5F4F2AE030E00E94A924E82EE889C8
:103C9000EE1A41C0953721F41F7E2AE030E01CC0A7
:103CA000197F9F3661F0903720F4983509F0B2C043
:103CB0000FC0903739F0983709F0ACC004C028E045
:103CC00030E00AC0106114FD146020E130E004C04F
:103CD00014FD166020E132E017FF08C0F601608194
:103CE00071818281938144E050E008C0F6018081B7
:103CF0009181BC0180E090E042E050E0C40ED51E0E
:103D0000AE014F5F5F4F0E94A924E82E5889E51A43
:103D10008FE7F82EF122F6FE0BC08EEFF822E914A1
:103D200038F4F4FE07C0F2FC05C09FEEF92202C091
:103D30001E2D01C0192DF4FE0DC0FE01EE0DF11D6A
:103D40008081803319F4E9EEFE2208C01F5FF2FE85
:103D500005C003C08F2D867809F01F5F0F2DF3FC7F
:103D600014C0F0FE0FC0181510F09E2C0BC09E2C36
:103D7000980C911A182D06C080E290E0B3010E94C1
:103D800028241F5F1815C0F304C0181510F4811AF9
:103D900001C0882404FF0FC080E390E0B3010E94BB
:103DA000282402FF1DC001FD03C088E790E00EC07B
:103DB00088E590E00BC0802F867891F001FF02C06B
:103DC0008BE201C080E2F7FC8DE290E0B3010E943B
:103DD000282406C080E390E0B3010E9428249A942E
:103DE000E914C0F3EA94E1E0F0E0EC0FFD1FEE0D02
:103DF000F11D808190E0B3010E942824EE2091F70C
:103E000006C080E290E0B3010E9428248A948820B2
:103E1000C1F799CCF30166817781CB016196E2E12C
:103E20000C94A5215058BB27AA270ED075C166D186
:103E300030F06BD120F031F49F3F11F41EF45BC1E0
:103E40000EF4E095E7FB51C1E92F77D180F3BA1763
:103E5000620773078407950718F071F49EF58FC108
:103E60000EF4E0950B2EBA2FA02D0B01B901900195
:103E70000C01CA01A0011124FF27591B99F0593FD9
:103E800050F4503E68F11A16F040A22F232F342F21
:103E90004427585FF3CF469537952795A795F0406F
:103EA0005395C9F77EF41F16BA0B620B730B840B84
:103EB000BAF09150A1F0FF0FBB1F661F771F881F3C
:103EC000C2F70EC0BA0F621F731F841F48F4879594
:103ED00077956795B795F7959E3F08F0B3CF939583
:103EE000880F08F09927EE0F979587950895D9D0F8
:103EF00008F481E008950CD00FC107D140F0FED046
:103F000030F021F45F3F19F0F0C0511139C1F3C016
:103F100014D198F39923C9F35523B1F3951B550B8D
:103F2000BB27AA2762177307840738F09F5F5F4F8C
:103F3000220F331F441FAA1FA9F333D00E2E3AF0CD
:103F4000E0E830D091505040E695001CCAF729D0E7
:103F5000FE2F27D0660F771F881FBB1F2617370736
:103F60004807AB07B0E809F0BB0B802DBF01FF2766
:103F700093585F4F2AF09E3F510568F0B6C000C1CC
:103F80005F3FECF3983EDCF3869577956795B795A0
:103F9000F7959F5FC9F7880F911D9695879597F9BB
:103FA0000895E1E0660F771F881FBB1F6217730734
:103FB0008407BA0720F0621B730B840BBA0BEE1F49
:103FC00088F7E095089504D06894B111D9C0089598
:103FD000BCD088F09F5790F0B92F9927B751A0F027
:103FE000D1F0660F771F881F991F1AF0BA95C9F78D
:103FF00012C0B13081F0C3D0B1E00895C0C0672FC6
:10400000782F8827B85F39F0B93FCCF3869577953C
:104010006795B395D9F73EF4909580957095619525
:104020007F4F8F4F9F4F0895E89409C097FB3EF450
:1040300090958095709561957F4F8F4F9F4F9923F5
:10404000A9F0F92F96E9BB279395F6958795779573
:104050006795B795F111F8CFFAF4BB0F11F460FF33
:104060001BC06F5F7F4F8F4F9F4F16C0882311F08B
:1040700096E911C0772321F09EE8872F762F05C09F
:10408000662371F096E8862F70E060E02AF09A953A
:10409000660F771F881FDAF7880F9695879597F92F
:1040A0000895990F0008550FAA0BE0E8FEEF1616C9
:1040B0001706E807F907C0F012161306E407F5071C
:1040C00098F0621B730B840B950B39F40A2661F090
:1040D000232B242B252B21F408950A2609F4A14033
:1040E000A6958FEF811D811D089597F99F6780E840
:1040F00070E060E008959FEF80EC089500240A943A
:104100001616170618060906089500240A941216B2
:104110001306140605060895092E0394000C11F4E5
:10412000882352F0BB0F40F4BF2B11F460FF04C092
:104130006F5F7F4F8F4F9F4F089557FD9058440FEB
:10414000551F59F05F3F71F04795880F97FB991FF6
:1041500061F09F3F79F087950895121613061406B3
:10416000551FF2CF4695F1DF08C016161706180640
:10417000991FF1CF86957105610508940895E8941B
:10418000BB2766277727CB0197F908958ADF08F4C4
:104190008FEF08950BD0C0CFB1DF28F0B6DF18F055
:1041A000952309F0A2CFA7CF1124EACFC6DFA0F351
:1041B000959FD1F3950F50E0551F629FF001729FBC
:1041C000BB27F00DB11D639FAA27F00DB11DAA1FDB
:1041D000649F6627B00DA11D661F829F2227B00D28
:1041E000A11D621F739FB00DA11D621F839FA00DB3
:1041F000611D221F749F3327A00D611D231F849F03
:10420000600D211D822F762F6A2F11249F57504059
:104210008AF0E1F088234AF0EE0FFF1FBB1F661FF4
:10422000771F881F91505040A9F79E3F510570F0AD
:104230005CCFA6CF5F3FECF3983EDCF38695779595
:104240006795B795F795E7959F5FC1F7FE2B880FA8
:10425000911D9695879597F9089577DFE0F09E3741
:10426000D8F09639B8F49E3848F4672F782F88270D
:10427000985FF9CF86957795679593959539D0F3A3
:10428000B62FB1706B0F711D811D20F48795779546
:104290006795939502C01CC073CF882371F4772370
:1042A00021F09850872B762F07C0662311F49927A9
:1042B0000DC09051862B70E060E02AF09A95660F51
:1042C000771F881FDAF7880F9695879597F90895D5
:1042D0009F3F31F0915020F4879577956795B7957A
:1042E000880F911D9695879597F9089597FB092E4C
:1042F00007260AD077FD04D043D006D000201AF458
:10430000709561957F4F0895F6F7909581959F4F31
:1043100008952F923F924F925F926F927F928F9269
:104320009F92AF92BF92CF92DF92EF92FF920F9344
:104330001F93CF93DF93CDB7DEB7CA1BDB0B0FB64E
:10434000F894DEBF0FBECDBF09942A88398848880B
:104350005F846E847D848C849B84AA84B984C884A1
:10436000DF80EE80FD800C811B81AA81B981CE0F98
:10437000D11D0FB6F894DEBF0FBECDBFED0108957D
:10438000AA1BBB1B51E107C0AA1FBB1FA617B7077B
:1043900010F0A61BB70B881F991F5A95A9F7809597
:1043A0009095BC01CD010895CF93DF93BC0182307D
:1043B000910510F462E070E0A0912E08B0912F08F2
:1043C000ED01E0E0F0E040E050E021C0888199811B
:1043D0008617970769F48A819B81309719F0938338
:1043E000828304C090932F0880932E08FE0134C06E
:1043F0006817790738F44115510519F084179507A6
:1044000008F4AC01FE018A819B819C01E90120979F
:10441000E9F641155105A9F1CA01861B970B0497CE
:1044200008F4BA01E0E0F0E02AC08D919C91119768
:1044300084179507F9F46417750781F412968D9126
:104440009C911397309719F09383828304C09093C3
:104450002F0880932E08FD0132964FC0CA01861B9B
:10446000970BFD01E80FF91F6193719302978D93EC
:104470009C9343C0FD01828193819C01D9011097D7
:10448000A1F680912C0890912D08892B41F4809100
:1044900054049091550490932D0880932C084091DA
:1044A0005604509157044115510541F44DB75EB77C
:1044B0008091520490915304481B590B20912C0871
:1044C00030912D0824173507B0F4CA01821B930BD5
:1044D0008617970780F0AB014E5F5F4F84179507F3
:1044E00050F0420F531F50932D0840932C08F901B0
:1044F0006193719302C0E0E0F0E0CF01DF91CF91D2
:104500000895CF93DF93009709F450C0EC012297F0
:104510001B821A82A0912E08B0912F08109709F1E2
:1045200040E050E0AC17BD0708F1BB83AA83FE0151
:1045300021913191E20FF31FAE17BF0779F48D91EE
:104540009C911197280F391F2E5F3F4F3983288385
:1045500012968D919C9113979B838A8341155105E7
:1045600071F4D0932F08C0932E0820C012968D911D
:104570009C911397AD01009711F0DC01D3CFFA01A4
:10458000D383C28321913191E20FF31FCE17DF074E
:1045900069F488819981280F391F2E5F3F4FFA01F6
:1045A000318320838A819B8193838283DF91CF91A2
:1045B0000895A0E0B0E0EFEDF2E20C949121EC015F
:1045C000A880B980CA80DB80A114B104C104D104E1
:1045D00041F484E2A82E89EDB82E8BE5C82E87E041
:1045E000D82EC601B5012DE133EF41E050E00E9425
:1045F000262527EA31E440E050E00E9407257B01B0
:104600008C01C601B5012DE133EF41E050E00E947D
:104610002625CA01B9012CEE34EF4FEF5FEF0E945F
:1046200007256E0D7F1D801F911F97FF04C06150ED
:10463000704080409048688379838A839B839B0184
:104640003F77C901CDB7DEB7EAE00C94AD210E94F7
:10465000D922089588E594E00E94D9220895A0E027
:10466000B0E08093580490935904A0935A04B093F7
:104670005B040895283008F027E03327DA01990F0A
:10468000311D87FD916000966105710539F4326036
:104690002E5F3D9330E32A95E1F708959F3F30F078
:1046A00080387105610509F03C5F3C5F3D939130B6
:1046B00008F08068911DDF93CF931F930F93FF92B3
:1046C000EF92192F987F9695E92F96959695E90F79
:1046D000FF27E75CFB4F99273327EE24FF24A70130
:1046E000E70105900894079428F4360FE71EF81E9A
:1046F000491F511D660F771F881F991F0694A1F748
:104700000590079428F4E70EF81E491F561FC11D97
:10471000770F881F991F661F0694A1F705900794CD
:1047200028F4F80E491F561FC71FD11D880F991F67
:10473000661F771F0694A1F70590079420F4490F90
:10474000561FC71FD81F990F661F771F881F069413
:10475000A9F784911095177041F0D695C795579594
:104760004795F794E7941A95C1F7EFEDF3E0689455
:104770001590159135916591959105907FE273950E
:10478000E118F10A430B560BC90BD009C0F7E10C35
:10479000F11E431F561FC91FD01D7EF4703311F444
:1047A0008A95E6CFE894015030F0080F0AF400270C
:1047B000021708F4202F2395022F7A3328F079E38B
:1047C0007D932A95E9F710C07D932A9589F6069482
:1047D00097956795379517951794E118F10A430B4C
:1047E000560BC90BD00998F023957E9173957A33B7
:1047F00008F070E37C932013B8F77E9170617D938D
:1048000030F0839571E37D9370E32A95E1F71124ED
:10481000EF90FF900F911F91CF91DF91992787FD26
:1048200090950895FC010590615070400110D8F7F3
:10483000809590958E0F9F1F0895FC0161507040E8
:1048400001900110D8F7809590958E0F9F1F0895C5
:104850000F931F93CF93DF938C01EB018B8181FF2B
:104860001BC082FF0DC02E813F818C819D81281746
:10487000390764F4E881F9810193F983E88306C07C
:10488000E885F985802F0995892B31F48E819F81E8
:1048900001969F838E8302C00FEF1FEFC801DF9147
:1048A000CF911F910F910895AEE0B0E0EAE5F4E2F8
:1048B0000C9497210D891E898F89988D97FF02C0CE
:1048C00080E090E801979E838D831A83098386E0B8
:1048D0008C839E01255E3F4FCE010196698D7A8DB6
:1048E000A9010E948B1B4D815E8157FD0AC02F815B
:1048F0003885421753070CF49A01020F131FF80171
:1049000010822E96E4E00C94B321AEE0B0E0EBE828
:10491000F4E20C9497210D891E8986E08C831A831A
:1049200009838FEF9FE79E838D839E01275E3F4F14
:10493000CE0101966F89788DA9010E948B1B2F8172
:104940003885020F131FF80110822E96E4E00C94B4
:10495000B321FA01AA27283051F1203181F1E894DE
:104960006F936E7F6E5F7F4F8F4F9F4FAF4FB1E062
:104970003ED0B4E03CD0670F781F891F9A1FA11D5D
:10498000680F791F8A1F911DA11D6A0F711D811D5E
:10499000911DA11D20D009F468943F912AE0269F23
:1049A00011243019305D3193DEF6CF010895462F82
:1049B0004770405D4193B3E00FD0C9F7F6CF462F63
:1049C0004F70405D4A3318F0495D31FD40524193CC
:1049D00002D0A9F7EACFB4E0A69597958795779589
:1049E0006795BA95C9F700976105710508959B0110
:1049F000AC010A2E06945795479537952795BA9599
:104A0000C9F7620F731F841F951FA01D0895629F31
:104A1000D001739FF001829FE00DF11D649FE00DB6
:104A2000F11D929FF00D839FF00D749FF00D659F17
:104A3000F00D9927729FB00DE11DF91F639FB00D16
:104A4000E11DF91FBD01CF011124089597FB092E27
:104A500005260ED057FD04D014D00AD0001C38F41F
:104A600050954095309521953F4F4F4F5F4F08959A
:104A7000F6F790958095709561957F4F8F4F9F4F7A
:104A80000895A1E21A2EAA1BBB1BFD010DC0AA1F8F
:104A9000BB1FEE1FFF1FA217B307E407F50720F0A7
:104AA000A21BB30BE40BF50B661F771F881F991F22
:104AB0001A9469F760957095809590959B01AC016B
:0A4AC000BD01CF010895F894FFCF67
:104ACA0025640053636F72653A20004C69766573FA
:104ADA003A2000466C6F6F723A200054696D653A4D
:104AEA0020003A004C6F6164696E672E2E2E0047D3
:104AFA00414D45204F564552006E393930313939CA
:104B0A0030004A6961205368656E672043686F6E9A
:104B1A0067002566002D2033202D002D2032202D00
:104B2A00002D2031202D000D0A54686520706C611B
:104B3A00796572207069636B6564207570206120E5
:104B4A007472656173757265000D0A546865207028
:104B5A006C617965722068617320746865206B6581
:104B6A007921000D0A54686520706C61796572209C
:104B7A007573657320746865206B657920746F207E
:104B8A00746865206E65787420666C6F6F72000DAC
:104B9A000A506C61796572207069636B656420756F
:104BAA00702074686520736869656C64000D0A5426
:104BBA00686520706C6179657220776173206B6912
:104BCA006C6C656420627920746865206D6F6E7301
:104BDA00746572000D0A54686520706C617965729B
:104BEA00206B696C6C65642061206D6F736E7465EF
:104BFA00722077697468206120736869656C642122
:104C0A00000D0A25643A2564256400207C2053633C
:104C1A006F72653A2000207C20466C6F6F723A20D2
:104C2A0000207C204C697665733A2000436F6E6ED3
:104C3A006563742053657269616C0057656C636FB4
:104C4A006D650053657269616C20636F6E6E656392
:104C5A007465640003020096022838283800FEAA08
:104C6A003828287F00FF00FF00FF01FE4100810075
:104C7A00810081008241FF81FF81FF81FF82400024
:104C8A0000000000000002400000000000000002D6
:104C9A0040007C007E007C00026000440042004428
:104CAA00000660004400420044000640007C007E8A
:104CBA00007C0002400000000000000002400000EA
:104CCA000000000000024000000000000000024056
:104CDA000000000000000002600000000000000068
:104CEA0006380000003C0000001C1C000000C30045
:104CFA000000380700000100800000E00180000188
:104D0A00008000018000C000020040000300007023
:104D1A0000040320000E00001E0004032000780097
:104D2A000001E004002007800000003F040020FC8E
:104D3A000000000007FC003FE00000003C0000C348
:104D4A0000010080010080020040040320040320C7
:104D5A00040020040020FC003F70F8A8F8F8A8E03E
:104D6A00BEEA2070F8F0F0F060FFFFFFFFFFFFFFE0
:104D7A00FFFFFFFFFFFFFFFFFFFFFFFFFFFFFFFF39
:104D8A00FFFFFFFFFFFFFFFFFFFFFFFFFFFFFFFF29
:104D9A00FFFFFFFFFFFFFFFFFFFFFFFFFFFFFFFF19
:104DAA00FFFFFFFFFFE0E0E0E0E0E0E0E0E0E0E05E
:104DBA00E0E0E0E0E0E0E0E0E0E0E0E0E0E0E0E0E9
:104DCA00E0E0E0E0E0E0E0E0E0E0E0E0E0E0E0E0D9
:104DDA00E0E0E0E0E0E0E0E0E0E0E0E0E0E0E0E0C9
:104DEA00E0E0E0E0E0E0E0E0E0E0E0E0E0E0E0E0B9
:104DFA00E0E0E0E0E0E0E0E0E0E0E0E0E0E0E0E0A9
:104E0A00E0E0E0E0E0E0E0E0E0E0E000E100000017
:0C4E1A000008200030080000010000002B
:00000001FF
