:100000000C94C7010C94E4010C94E4010C94E401F9
:100010000C94E4010C94E4010C94E4010C94E401CC
:100020000C94E4010C94E4010C94E4010C94E401BC
:100030000C94E4010C94E4010C94E4010C94E401AC
:100040000C94E4010C94E4010C94E4010C94E4019C
:100050000C94E6010C94E4010C94E4010C94E4018A
:100060000C94E4010C94E4010C94E4010C94E4017C
:100070000C94E4010C94E4010C94E4010C94E4016C
:100080000C94E4010C94E4010C94E4010C94E4015C
:100090000C94E4010C94E4010C94E4010C94E4014C
:1000A0000C94E4010C94E4010C94E40100000000C1
:1000B0000000005F00000007000700147F147F1499
:1000C000242A7F2A122313086462364955225000DD
:1000D00005030000001C2241000041221C001408FE
:1000E0003E081408083E08080050300000080808C0
:1000F0000808006060000020100804023E514945D5
:100100003E00427F400042615149462141454B310A
:100110001814127F1027454545393C4A494930019A
:10012000710905033649494936064949291E0036F1
:100130003600000056360000081422410014141442
:100140001414004122140802015109063249794170
:100150003E7E1111117E7F494949363E414141227F
:100160007F4141221C7F494949417F090909013EDC
:100170004149497A7F0808087F00417F41002040BB
:10018000413F017F081422417F404040407F020CE4
:10019000027F7F0408107F3E4141413E7F090909EB
:1001A000063E4151215E7F09192946464949493198
:1001B00001017F01013F4040403F1F2040201F3F81
:1001C0004038403F63140814630708700807615102
:1001D000494543007F41410002040810200041418D
:1001E0007F0004020102044040404040000102043C
:1001F0000020545454787F484444383844444420C0
:10020000384444487F3854545418087E0901020C7D
:100210005252523E7F0804047800447D4000204042
:10022000443D007F1028440000417F40007C0418BA
:1002300004787C0804047838444444387C1414144A
:1002400008081414187C7C080404084854545420EA
:10025000043F4440203C4040207C1C2040201C3C6B
:100260004030403C44281028440C5050503C4464DA
:10027000544C44000836410000007F000000413625
:100280000800100808100878464146786E616E0034
:10029000696E660000407A10F35A00A0724E180989
:1002A0000010A5D4E80000E87648170000E40B54DD
:1002B000020000CA9A3B000000E1F50500008096AC
:1002C0009800000040420F000000A08601000000DE
:1002D000102700000000E803000000006400000098
:1002E00000000A00000000000100000000002C7661
:1002F000D888DC674F0823DFC1DFAE59E1B1B7967C
:10030000E5E3E453C63AE651997696E8E6C28426D8
:10031000EB898C9B62ED407C6FFCEFBC9C9F40F2B4
:10032000BAA56FA5F490055A2AF75C936B6CF96730
:100330006DC11BFCE0E40D47FEF520E6B500D0EDF5
:10034000902E0300943577050080841E080000205D
:100350004E0A000000C80C333333330F986E1283FB
:100360001141EF8D2114893BE65516CFFEE6DB18CF
:10037000D1844B381BF77C1D901DA4BBE424203294
:1003800084725E228100C9F124ECA1E53D2711248D
:100390001FBECFEFDAE0DEBFCDBF11E0A0E0B1E0DD
:1003A000E4E6FEE102C005900D92A23DB107D9F747
:1003B00014E0A2EDB1E001C01D92A433B107E1F752
:1003C0000E94FD030C94300F0C9400001F920F92BA
:1003D0000FB60F9211248F939F93AF93BF93809189
:1003E000CD019091CE01A091CF01B091D0010196A5
:1003F000A11DB11D8093CD019093CE01A093CF019B
:10040000B093D001BF91AF919F918F910F900FBE8C
:100410000F901F901895AF92BF92CF92DF92EF92FC
:10042000FF920F931F936091CD017091CE01809147
:10043000CF019091D001E0908400F09085000E945F
:10044000EE0B20E030E040E857E40E94A40C5B0192
:100450006C0100E010E0C801B7010E94EE0B9B01A7
:10046000AC01C601B5010E94ED0A20E030E040E891
:1004700054E40E94A40C20E034E244EF5AE40E94C9
:10048000550B1F910F91FF90EF90DF90CF90BF9091
:10049000AF9008950F931F93FC01408751876287A7
:1004A000738704871587268737871F910F910895D3
:1004B000CF93DF93EC016C3451F06D3418F4643455
:1004C000C9F52AC0623571F06535A1F51AC0688199
:1004D00079818A819B81288539854A855B850E943F
:1004E000EC0A0AC0688179818A819B8128853985D7
:1004F0004A855B850E94ED0A688379838A839B83A2
:1005000019C06C817D818E819F812C853D854E85B2
:100510005F850E94EC0A0AC06C817D818E819F817B
:100520002C853D854E855F850E94ED0A6C837D8319
:100530008E839F83DF91CF9108950E940D048FB128
:1005400082958695877080FF0DC08091D201909131
:10055000D301892B39F481E090E09093D30180930B
:10056000D20108958091D2019091D301892B41F459
:100570008EE067E140E051E021E00E94F10533C0E8
:1005800083B1869580FF04C08EEF91E06CE413C0C8
:100590001F9B04C08EEF91E064E40DC0489B04C033
:1005A0008EEF91E062E507C089B1869580FF05C0B6
:1005B0008EEF91E065E50E9458028EEF91E00E9477
:1005C000BB068091D2019091D301019761F489EE2D
:1005D00091E00E94BB0687E292E00E94BB0684ED98
:1005E00091E00E94BB060E9411060895DF92EF92EF
:1005F000FF920F931F93F82EE62ED22E8DB79EB743
:1006000008970FB6F8949EBF0FBE8DBFEDB7FEB72B
:10061000319603E112E0ADB7BEB712961C930E936C
:10062000119784E190E09383828389E091E0958340
:100630008483578346830E94A10E8DB79EB7089688
:100640000FB6F8949EBF0FBE8DBF8F2D6E2DA801E3
:100650002D2D0E94F1051F910F91FF90EF90DF90DB
:100660000895DF92EF92FF920F931F93182FD62ECB
:100670008DB79EB70A970FB6F8949EBF0FBE8DBF79
:10068000EDB7FEB7319683E1E82E82E0F82EADB7E4
:10069000BEB71296FC92EE92119784E190E093839C
:1006A00082838CE091E0958384832683378340871F
:1006B00051870E94A10E8DB79EB70A960FB6F89487
:1006C0009EBF0FBE8DBF812F6D2DA701202F0E94D1
:1006D000F1051F910F91FF90EF90DF900895AF9279
:1006E000BF92CF92EF920F931F93E1E6F0E080E884
:1006F000808311E010838FE30E9445060E947606F6
:100700001092800085E08093810010936F007894B0
:100710002198279850985198859886983F9A8FEA03
:100720000E9445068EEF91E040E050E060EA71E4FF
:100730008A019B01B7E0EB2EAAE0CA2EFFE0AF2EA4
:10074000F1E0BF2E0E94930689EE91E040E050E078
:1007500060EC70E400E010E020E83FE3E8E4EE2E17
:10076000B0E1CB2EA9E1AA2EA1E0BA2E0E949306F9
:1007700087E292E040E050E060EF71E400E010E0DA
:1007800020EE30E4F8E1EF2EEAE0CE2EB9EAAB2E0F
:10079000B1E0BB2E0E94930684ED91E040E050E072
:1007A00060E972E400E010E020EA31E4A5E0EA2E1E
:1007B000F6E0CF2EE7ECAE2EE1E0BE2E0E949306CF
:1007C00080E090E0A0ECBFE38093060290930702E4
:1007D000A0930802B093090280930A0290930B023F
:1007E000A0930C02B0930D020E9411061F910F916D
:1007F000EF90CF90BF90AF900895CF93DF930E947A
:100800006F03C8ECD0E00E949D0288EE93E0FE01E9
:100810003197F1F70197D9F7F6CFECE3F2E01192B7
:1008200084E0E433F807D9F70895843580F5603320
:1008300070F5262F269526952695677090E044231F
:1008400099F0E4E52E9FF0011124E80FF91FE45C14
:10085000FD4F81E090E002C0880F991F6A95E2F792
:100860002081282B20830895E4E52E9FF001112498
:10087000E80FF91FE45CFD4F81E090E002C0880FB3
:10088000991F6A95E2F78095208128232083089597
:100890002F923F924F925F926F927F928F929F9290
:1008A000AF92BF92CF92DF92EF92FF920F931F937E
:1008B000DF93CF93CDB7DEB72E970FB6F894DEBF98
:1008C0000FBECDBFE82ED62E142FF22E0C87841724
:1008D000F9F4862E9924A22EBB240EC08E2D682DED
:1008E0004C850E941504DF1420F40894811C911C8F
:1008F00003C0089481089108DF1428F4A814B904EF
:100900000CF401C1EBCF8A149B040CF4FCC0E6CFBD
:100910006217F9F4882E9924A42EBB240EC0882DCA
:100920006D2D4C850E941504E11620F40894811C5D
:10093000911C03C0089481089108E11628F4A814BA
:10094000B9040CF4E0C0EBCF8A149B040CF4DBC0B8
:10095000E6CF481720F41E2DE42EF62ED22E812F3E
:1009600090E09A838983AE2CBB24BC016A197B0971
:10097000882777FD8095982F0E94F00B6F837887EA
:1009800089879A872F2C33244D2C5524B101641963
:100990007509882777FD8095982F0E94F00B3B0101
:1009A0004C012F81388549855A850E94550B6B83F0
:1009B0007C838D839E8320E030E040E050E00E9405
:1009C000A00C87FF0DC0C401B30190582F8138855A
:1009D00049855A850E94550B6B837C838D839E834A
:1009E0000F2EF0E0CF2EF0E0DF2EF0E0EF2EF0E063
:1009F000FF2EF02D70C0AB868A2D642D4C850E9491
:100A00001504C701B6012B813C814D815E810E9496
:100A1000ED0A31C08B85642D4C850E9415041E861D
:100A20001D86C401B30120E030E040E050E00E94A8
:100A3000A00C181624F4E1E0F0E0FE87ED8700E05A
:100A400010E0C401B30120E030E040E050E00E943B
:100A5000510B882314F401E010E08D859E85801BE6
:100A6000910B480E591EC701B60120E030E040E866
:100A70005FE30E94EC0A6B017C0120E030E040E083
:100A80005FE30E94A00C88239CF0C401B30120E026
:100A900030E040E050E00E94A00C18162CF4241422
:100AA00035040CF0B7CF04C0421453040CF0B2CF9D
:100AB0006F81788589859A8520E030E040E050E0BC
:100AC0000E94A00C181624F40894A11CB11C03C0A9
:100AD0000894A108B1086F81788589859A8520E0FE
:100AE00030E040E050E00E94A00C181634F4E98198
:100AF000FA81EA15FB053CF07ECF89819A81A81620
:100B0000B9060CF078CF2E960FB6F894DEBF0FBE64
:100B1000CDBFCF91DF911F910F91FF90EF90DF90AC
:100B2000CF90BF90AF909F908F907F906F905F908D
:100B30004F903F902F9008957F928F929F92AF9207
:100B4000BF92CF92DF92EF92FF920F931F93CF93BA
:100B5000DF93D82E762EC22E85E0489FA001112467
:100B60008A01045F1F4F91E0892E912C81E1A82E0C
:100B700080E0B82EA40EB51EF8018491CC2009F4B3
:100B80008095C0E0D0E0E82EFF24672D6C0FA40113
:100B90000C2E02C0440F551F0A94E2F74E215F212C
:100BA0000C2E02C0559547950A94E2F78D2D0E94B0
:100BB00015042196C830D10541F70F5F1F4FD3941C
:100BC0000A151B05C9F6DF91CF911F910F91FF9078
:100BD000EF90DF90CF90BF90AF909F908F907F90DD
:100BE0000895EF92FF920F931F93CF93DF93E62E1A
:100BF000EA01F22E082F10E007C0802F6E2D2F2D56
:100C00000E949C050B5F1F5FFE01E10FF11D4081FB
:100C1000442399F7DF91CF911F910F91FF90EF90AF
:100C20000895CF93DF9380E060E00E948606CCE3D6
:100C3000D2E081E069910E94240684E0C433D807A1
:100C4000C1F7DF91CF91089595B18295880F807E8D
:100C50009F7D982B95B95F9827E030E070E08F98E2
:100C6000CB01022E02C0959587950A94E2F780FF8A
:100C700002C02E9A01C02E988F9A215030408FEFDB
:100C80002F3F380761F75F9A08951F93182F579ADF
:100C9000249A259A269A879A2C985F9A2C9A80E013
:100CA00061E20E942406106880E0612F0E94240601
:100CB00080E064E00E94240680E063E10E94240654
:100CC00080E06CE00E94240680E060E20E9424063E
:100CD00080E06CE00E94240680E060E40E9424062C
:100CE00080E060E80E9424061F910895CF93DF936F
:100CF000C0E0D0E081E060E00E942406219681E01F
:100D0000C83FD807B9F7DF91CF9108951F93182FE7
:100D1000606480E00E942406106880E0612F0E94D9
:100D200024061F910895AF92BF92CF92EF920F9336
:100D30001F93FC0140835183628373830483158373
:100D400026833783E08AC18AB48AA38A81E0828BB2
:100D500080E090E0A0E0B0E080879187A287B38731
:100D600084879587A687B7871F910F91EF90CF90C3
:100D7000BF90AF9008952F923F925F926F927F92B3
:100D80008F929F92AF92BF92CF92DF92EF92FF929B
:100D90000F931F93CF93DF938C01DC0152968C91BC
:100DA0005297882309F47FC06D917D918D919C911C
:100DB0000E94070D0E94BD0B3B01F8012481358183
:100DC00046815781643571050CF06DC0D80150968D
:100DD0008C91C82FD0E0CE01860D971D18161906EC
:100DE0000CF061C0CA01B9010E94070D0E94BD0B41
:100DF0004B01603371050CF056C0F80181899401F4
:100E0000280F311D121613060CF04DC057E0A52E09
:100E1000B12CAC0EBD1E43E0B594A7944A95E1F702
:100E2000EE24FF24CC24DD2437E0232E312C30C0E7
:100E3000CE0123E0959587952A95E1F7D801539641
:100E4000ED91FC915497EC0DFD1DE80FF91F4081C9
:100E500050E0CE0187709070F101E81BF90B02C0E1
:100E600055954795EA95E2F741709E01260D822F30
:100E7000652D0E9415042196D80150968C9190E022
:100E8000C817D907ACF20894E11CF11CCA0CDB1C92
:100E9000F801818990E0E816F9062CF4C0E0D0E072
:100EA0005E2C580CE9CFDF91CF911F910F91FF90ED
:100EB000EF90DF90CF90BF90AF909F908F907F90FA
:100EC0006F905F903F902F900895A1E1B0E0EBE626
:100ED000F7E00C94500D3C017F876E876A01FC019E
:100EE00017821682838181FD03C06FEF7FEF6FC38E
:100EF0009E012F5F3F4F398B288BF3012381EE85B5
:100F0000FF8523FD859123FF8191FF87EE8788234D
:100F100009F45AC3853251F4EE85FF8523FD85918E
:100F200023FF8191FF87EE87853229F490E0B3019A
:100F30000E94750EE2CF982F10E088249924103279
:100F4000B0F49B3269F09C3228F4903251F0933225
:100F500071F40BC09D3239F0903349F4116028C010
:100F60001260146025C0186023C0106121C017FDF5
:100F70002AC0892F80538A3078F416FF06C0FAE021
:100F80009F9E902C1124980E13C03AE0839E802CD3
:100F90001124880E10620CC09E3221F416FD14C379
:100FA000106406C09C3611F4106802C0983659F4DB
:100FB000EE85FF8523FD959123FF9191FF87EE87B5
:100FC000992309F0BCCF892F8554833020F4812FD9
:100FD0008061905E07C0892F8556833008F09FC1DD
:100FE000812F8F7E86FD02C076E0972E6FE3F62E6E
:100FF000F822953619F4F0E4FF2A07C0963619F462
:1010000020E8F22A02C091109A94F7FE0AC03BE34E
:10101000391518F45CE3B52E02C0B92CB39427E05F
:1010200009C047E0491520F4BB2447E0942EF7CFD0
:10103000292DBB24C60104969D878C87F60160810B
:10104000718182819381AE014F5F5F4F0B2D0E94B2
:10105000870D6C010981202E332400FF04C003FD9D
:1010600002C01DE209C0F1FE02C01BE205C0F2FC95
:1010700002C010E001C010E2C1018C709070892B99
:10108000B9F1112311F483E001C084E0881510F058
:1010900088240AC0881AF3FC07C080E290E0B301FC
:1010A0000E94750E8A94C9F7112329F0812F90E0D0
:1010B000B3010E94750E23FE03C00CE812E00EC0BF
:1010C00000E912E00BC0E114F10409F0805290E055
:1010D000B3010E94750E0F5F1F4F05C0EF2CFF2458
:1010E000F0E1EF22FF24F8018491882361F714C115
:1010F000F7FE12C0BC0C24FE04C08A81813309F4BF
:10110000BA941B141CF0BB24B3942DC0F8E0FB155B
:1011100050F538E0B32E27C0F6FC25C0892D90E0AD
:101120008C159D054CF02CEFC2162FEFD20624F043
:1011300030E8F32A01C09A94992049F0E2E0F0E007
:10114000EC0FFD1FE90DF11D80818033A1F3F7FE47
:101150000AC0B92CB394892D90E0C816D90614F0B2
:10116000992401C09C18F7FC03C025E030E009C0B9
:101170001C141D041CF021E030E003C096012F5F19
:101180003F4F112311F02F5F3F4F992029F0892DF8
:1011900090E00196280F391F882D90E02817390715
:1011A00014F0882401C0821A4F2C5524C201897082
:1011B0009070892B39F008C080E290E0B3010E9462
:1011C000750E8A948820C1F7112329F0812F90E0B1
:1011D000B3010E94750E43FE07C008C080E390E093
:1011E000B3010E94750E8A948820C1F7F7FE46C0AD
:1011F0008601D7FE02C000E010E076010894E11CF1
:10120000F11CE01AF10A41E050E04C0F5D1FE40EC2
:10121000F51E26014B185108892D90E0AA24BB2405
:10122000A81AB90A5FEF0F3F150729F48EE290E084
:10123000B3010E94750EC016D10634F04016510657
:101240001CF4F701808101C080E301501040089434
:10125000E11CF11C0A151B052CF090E0B3010E9463
:10126000750EE0CF0C151D0539F49A81963318F4EC
:10127000953311F424FE81E390E04BC08A818133E1
:1012800009F00F7E90E0B3010E94750E9920A1F045
:101290008EE290E0B3010E94750E12E0E1E0F0E012
:1012A000EC0FFD1FE10FF11D1F5F808190E0B30186
:1012B0000E94750E9A9491F744FC03C085E690E075
:1012C00002C085E490E0B3010E94750ED7FC05C012
:1012D000C114D10441F404FF06C0D094C194D108D4
:1012E000D3948DE201C08BE290E0B3010E94750EB1
:1012F00080E305C08F5F26EF3FEFC20ED31E3AE0BA
:10130000C316D104BCF790E0B3010E94750EC6016C
:10131000C096B3010E94750ECC84DD8452C1933611
:1013200031F0933799F0933509F059C023C0F60195
:10133000808189835E010894A11CB11C22E030E009
:10134000C20ED31E21E0E22EF12C12C0F601A080C5
:10135000B18016FD03C06FEF7FEF02C0692D70E012
:1013600022E030E0C20ED31EC5010E946A0E7C014D
:101370001F7713C0F601A080B18016FD03C06FEF88
:101380007FEF02C0692D70E022E030E0C20ED31E74
:10139000C5010E945F0E7C01106813FF07C01BC0CF
:1013A00080E290E0B3010E94750E8A94882D90E04F
:1013B000E816F906A8F30FC0F50117FD859117FF90
:1013C00081915F0190E0B3010E94750E81108A94B3
:1013D0000894E108F108E114F10471F7F2C09436C1
:1013E00011F0993689F517FF08C0F6012081318187
:1013F0004281538184E090E00AC0F60180819181AE
:101400009C01442737FD4095542F82E090E0C80EA0
:10141000D91E9FE6F92EF12257FF09C0509540953D
:10142000309521953F4F4F4F5F4F90E8F92ACA0101
:10143000B901AE014F5F5F4F2AE030E00E94D20E4B
:10144000E82EE889EE1A41C0953721F41F7E2AE084
:1014500030E01CC0197F9F3661F0903720F498353A
:1014600009F0B2C00FC0903739F0983709F0ACC01E
:1014700004C028E030E00AC0106114FD146020E1CF
:1014800030E004C014FD166020E132E017FF08C010
:10149000F601608171818281938144E050E008C04F
:1014A000F60180819181BC0180E090E042E050E053
:1014B000C40ED51EAE014F5F5F4F0E94D20EE82EC4
:1014C0005889E51A8FE7F82EF122F6FE0BC08EEF51
:1014D000F822E91438F4F4FE07C0F2FC05C09FEED0
:1014E000F92202C01E2D01C0192DF4FE0DC0FE010F
:1014F000EE0DF11D8081803319F4E9EEFE2208C063
:101500001F5FF2FE05C003C08F2D867809F01F5FB4
:101510000F2DF3FC14C0F0FE0FC0181510F09E2C18
:101520000BC09E2C980C911A182D06C080E290E0FA
:10153000B3010E94750E1F5F1815C0F304C0181583
:1015400010F4811A01C0882404FF0FC080E390E0EA
:10155000B3010E94750E02FF1DC001FD03C088E7A4
:1015600090E00EC088E590E00BC0802F867891F067
:1015700001FF02C08BE201C080E2F7FC8DE290E047
:10158000B3010E94750E06C080E390E0B3010E9493
:10159000750E9A94E914C0F3EA94E1E0F0E0EC0FE0
:1015A000FD1FEE0DF11D808190E0B3010E94750ECC
:1015B000EE2091F706C080E290E0B3010E94750E24
:1015C0008A948820C1F799CCF30166817781CB0199
:1015D0006196E2E10C946C0D5058BB27AA270ED0FF
:1015E00075C166D130F06BD120F031F49F3F11F41A
:1015F0001EF45BC10EF4E095E7FB51C1E92F77D1F2
:1016000080F3BA17620773078407950718F071F41F
:101610009EF58FC10EF4E0950B2EBA2FA02D0B0175
:10162000B90190010C01CA01A0011124FF27591B27
:1016300099F0593F50F4503E68F11A16F040A22F2D
:10164000232F342F4427585FF3CF4695379527959E
:10165000A795F0405395C9F77EF41F16BA0B620B9D
:10166000730B840BBAF09150A1F0FF0FBB1F661FE4
:10167000771F881FC2F70EC0BA0F621F731F841F27
:1016800048F4879577956795B795F7959E3F08F04D
:10169000B3CF9395880F08F09927EE0F979587950C
:1016A0000895D9D008F481E008950CD00FC107D176
:1016B00040F0FED030F021F45F3F19F0F0C051113E
:1016C00039C1F3C014D198F39923C9F35523B1F369
:1016D000951B550BBB27AA2762177307840738F0A1
:1016E0009F5F5F4F220F331F441FAA1FA9F333D000
:1016F0000E2E3AF0E0E830D091505040E695001CB4
:10170000CAF729D0FE2F27D0660F771F881FBB1F6F
:10171000261737074807AB07B0E809F0BB0B802D49
:10172000BF01FF2793585F4F2AF09E3F510568F095
:10173000B6C000C15F3FECF3983EDCF38695779529
:101740006795B795F7959F5FC9F7880F911D969597
:10175000879597F90895E1E0660F771F881FBB1FF3
:10176000621773078407BA0720F0621B730B840BA0
:10177000BA0BEE1F88F7E095089504D06894B11174
:10178000D9C00895BCD088F09F5790F0B92F992701
:10179000B751A0F0D1F0660F771F881F991F1AF07C
:1017A000BA95C9F712C0B13081F0C3D0B1E0089545
:1017B000C0C0672F782F8827B85F39F0B93FCCF3C6
:1017C000869577956795B395D9F73EF49095809572
:1017D000709561957F4F8F4F9F4F0895E89409C092
:1017E00097FB3EF490958095709561957F4F8F4F54
:1017F0009F4F9923A9F0F92F96E9BB279395F6956A
:10180000879577956795B795F111F8CFFAF4BB0FE7
:1018100011F460FF1BC06F5F7F4F8F4F9F4F16C04B
:10182000882311F096E911C0772321F09EE8872FD5
:10183000762F05C0662371F096E8862F70E060E091
:101840002AF09A95660F771F881FDAF7880F96950A
:10185000879597F90895990F0008550FAA0BE0E8AE
:10186000FEEF16161706E807F907C0F01216130662
:10187000E407F50798F0621B730B840B950B39F4A2
:101880000A2661F0232B242B252B21F408950A2608
:1018900009F4A140A6958FEF811D811D089597F948
:1018A0009F6780E870E060E008959FEF80EC089506
:1018B00000240A941616170618060906089500242F
:1018C0000A9412161306140605060895092E0394A9
:1018D000000C11F4882352F0BB0F40F4BF2B11F41D
:1018E00060FF04C06F5F7F4F8F4F9F4F089557FD7C
:1018F0009058440F551F59F05F3F71F04795880F7E
:1019000097FB991F61F09F3F79F087950895121614
:1019100013061406551FF2CF4695F1DF08C01616C0
:1019200017061806991FF1CF869571056105089471
:101930000895E894BB2766277727CB0197F9089588
:101940008ADF08F48FEF08950BD0C0CFB1DF28F005
:10195000B6DF18F0952309F0A2CFA7CF1124EACF64
:10196000C6DFA0F3959FD1F3950F50E0551F629FFE
:10197000F001729FBB27F00DB11D639FAA27F00DE8
:10198000B11DAA1F649F6627B00DA11D661F829F0F
:101990002227B00DA11D621F739FB00DA11D621FF4
:1019A000839FA00D611D221F749F3327A00D611D11
:1019B000231F849F600D211D822F762F6A2F1124F3
:1019C0009F5750408AF0E1F088234AF0EE0FFF1F46
:1019D000BB1F661F771F881F91505040A9F79E3F7D
:1019E000510570F05CCFA6CF5F3FECF3983EDCF37F
:1019F000869577956795B795F795E7959F5FC1F7BA
:101A0000FE2B880F911D9695879597F9089577DF9E
:101A1000E0F09E37D8F09639B8F49E3848F4672F36
:101A2000782F8827985FF9CF869577956795939556
:101A30009539D0F3B62FB1706B0F711D811D20F455
:101A4000879577956795939502C01CC073CF8823BF
:101A500071F4772321F09850872B762F07C06623E7
:101A600011F499270DC09051862B70E060E02AF0A8
:101A70009A95660F771F881FDAF7880F96958795D6
:101A800097F908959F3F31F0915020F4879577950D
:101A90006795B795880F911D9695879597F9089545
:101AA0002F923F924F925F926F927F928F929F926E
:101AB000AF92BF92CF92DF92EF92FF920F931F935C
:101AC000CF93DF93CDB7DEB7CA1BDB0B0FB6F8940D
:101AD000DEBF0FBECDBF09942A88398848885F844D
:101AE0006E847D848C849B84AA84B984C884DF80BE
:101AF000EE80FD800C811B81AA81B981CE0FD11DA2
:101B00000FB6F894DEBF0FBECDBFED0108952830AB
:101B100008F027E03327DA01990F311D87FD916026
:101B200000966105710539F432602E5F3D9330E314
:101B30002A95E1F708959F3F30F0803871056105DF
:101B400009F03C5F3C5F3D93913008F08068911D47
:101B5000DF93CF931F930F93FF92EF92192F987FEC
:101B60009695E92F96959695E90FFF27E251FD4F3F
:101B700099273327EE24FF24A701E7010590089455
:101B8000079428F4360FE71EF81E491F511D660FF3
:101B9000771F881F991F0694A1F70590079428F4D2
:101BA000E70EF81E491F561FC11D770F881F991F8A
:101BB000661F0694A1F70590079428F4F80E491FB4
:101BC000561FC71FD11D880F991F661F771F0694C8
:101BD000A1F70590079420F4490F561FC71FD81F7F
:101BE000990F661F771F881F0694A9F78491109597
:101BF000177041F0D695C79557954795F794E79498
:101C00001A95C1F7E4E9F2E06894159015913591C1
:101C10006591959105907FE27395E118F10A430B68
:101C2000560BC90BD009C0F7E10CF11E431F561F1C
:101C3000C91FD01D7EF4703311F48A95E6CFE89465
:101C4000015030F0080F0AF40027021708F4202F83
:101C50002395022F7A3328F079E37D932A95E9F7CB
:101C600010C07D932A9589F60694979567953795C8
:101C700017951794E118F10A430B560BC90BD009BD
:101C800098F023957E9173957A3308F070E37C93F6
:101C90002013B8F77E9170617D9330F0839571E3E6
:101CA0007D9370E32A95E1F71124EF90FF900F9157
:101CB0001F91CF91DF91992787FD90950895FC01A1
:101CC0000590615070400110D8F7809590958E0F67
:101CD0009F1F0895FC016150704001900110D8F7DA
:101CE000809590958E0F9F1F08950F931F93CF930C
:101CF000DF938C01EB018B8181FF1BC082FF0DC044
:101D00002E813F818C819D812817390764F4E881F9
:101D1000F9810193F983E88306C0E885F985802F6E
:101D20000995892B31F48E819F8101969F838E8343
:101D300002C00FEF1FEFC801DF91CF911F910F91EC
:101D40000895AEE0B0E0E7EAFEE00C945E0D0D8988
:101D50001E898F89988D97FF02C080E090E80197D7
:101D60009E838D831A83098386E08C839E01255E82
:101D70003F4FCE010196698D7A8DA9010E946507BA
:101D80004D815E8157FD0AC02F8138854217530768
:101D90000CF49A01020F131FF80110822E96E4E052
:101DA0000C947A0DFA01AA27283051F1203181F1E3
:101DB000E8946F936E7F6E5F7F4F8F4F9F4FAF4F53
:101DC000B1E03ED0B4E03CD0670F781F891F9A1F66
:101DD000A11D680F791F8A1F911DA11D6A0F711D1A
:101DE000811D911DA11D20D009F468943F912AE026
:101DF000269F11243019305D3193DEF6CF0108950E
:101E0000462F4770405D4193B3E00FD0C9F7F6CF3E
:101E1000462F4F70405D4A3318F0495D31FD405206
:101E2000419302D0A9F7EACFB4E0A695979587959C
:101E300077956795BA95C9F700976105710508957B
:101E40009B01AC010A2E0694579547953795279527
:101E5000BA95C9F7620F731F841F951FA01D0895BF
:041E6000F894FFCF24
:101E64006E3939303139393000256400256600284F
:101E740038283800FEAA3828284000000000000056
:101E840000024000000000000000024000000000CA
:101E940000000002400000000000000002400000BA
:101EA400000000000002600000000000000006388E
:101EB4000000003C0000001C1C000000C3000000E7
:101EC400380700000100800000E00180000100806C
:101ED40000018000C0000200400003000070000404
:101EE4000320000E00001E000403200078000001FF
:101EF400E004002007800000003F040020FC0000F4
:101F0400000007FC003FE00000003C0000C30001AB
:101F14000080010080020040040320040320040028
:101F240020040020FC003F70F8A8F8F8A803000083
:021F34000000AB
:00000001FF
